:100000006F70B01813000000130000001300000010
:100010001300000013000000130000001300000094
:100020001300000013000000130000001300000084
:08003000130000007300100032
:100038000000000000000000A8020000AC02000060
:1000480000000000D0780000000000000000000060
:10005800D2780000D4780000000000000000000002
:10006800D678000000000000D878000000000000EA
:10007800DA780000DC780000DE780000E078000024
:10008800E2780000E4780000E6780000E8780000F4
:10009800EA780000EC780000EE780000F0780000C4
:1000A800F2780000F4780000F6780000F878000094
:1000B800FA780000FC780000FE7800000079000063
:1000C800027900000479000006790000347300000A
:1000D8000A7900000C7900000E7900001079000000
:1000E8004E640000226700001679000018790000AD
:1000F8001A7900001C7900001E79000020790000A0
:100108002279000024790000145F0000287900009B
:10011800043500002C7900002E79000030790000A9
:10012800327900003479000036790000387900000F
:100138003A7900003C7900003E79000040790000DF
:1001480042790000447900004679000048790000AF
:100158004A7900004C7900004E790000507900007F
:10016800527900005479000056790000587900004F
:100178005A7900005C7900005E790000607900001F
:1001880062790000000800006679000068790000C4
:100198006A7900006C7900006E79000070790000BF
:1001A800727900007479000076790000787900008F
:1001B8007A7900007C7900007E790000807900005F
:1001C800827900008479000086790000887900002F
:1001D8000000000000000000000000000000000017
:1001E8000000000000000000000000000000000007
:0801F8000000000000000000FF
:100200003D432A876373C3029377F700BDEFADE5E3
:10021000937606FF3D8ABA960CC34CC30CC74CC7F5
:100220004107E36BD7FE11E28280B306C3408A0622
:100230009702000096966780A6002307B700A306E2
:10024000B7002306B700A305B7002305B700A30432
:10025000B7002304B700A303B7002303B700A3022A
:10026000B7002302B700A301B7002301B700A30022
:10027000B7002300B700828093F5F50F93968500B1
:10028000D58D93960501D58D61B79396270097027A
:10029000000096968682E78086FA9680C1171D8FA9
:1002A0003E96E374C3F8A5B77300203037D500003D
:1002B000130545D5EF40805A01A0397126DA8545EE
:1002C000AA843705020006DE22DC02CA02CC02CE76
:1002D00002D002D202D402D602C602C8EF10D02940
:1002E0001165854513054504EF1030279147231A02
:1002F000F100371401408D473ECC4C08E14713050F
:1003000004803ECEEF106064A147231AF1004C0830
:100310009147130504803ECE37440040EF10E06261
:10032000B7070C000C10130504403ED426D002D2AF
:1003300023160102EF10D0440546930550521305D1
:100340000440EF103053930760132316F1008547E4
:100350002307F100680085473EC8EF10A07C130515
:1003600004408545EF10504FF2506254D254216141
:100370008280054582803971094506DE22DC26DA55
:1003800071644AD84ED652D456D25AD05ECE62CC80
:10039000EF10E078EF10203A13050420EF1000432F
:1003A000B707002083A5471B37D50000130545D6A6
:1003B000EFB0E07FEF00F05885451145EF10F019E0
:1003C0008947371901403EC44C00C14713050980D5
:1003D00085443EC623129100EF10205785451145F4
:1003E000EF10B017930700102312F100E1474C0003
:1003F0003EC6130509808D473EC4EF1000551145D8
:10040000EF107019EF10C052EF1050651305042063
:100410006D3509240545B52EB7E700E03707200004
:1004200023A4E710EF10002FEF607053EF60D0634C
:1004300023A801349387013523A2070023A40700D2
:1004400023A6070023A80700B717002083C7875DEE
:1004500023820132C18B99C323829132996993849B
:100460004132938949461389C13383C74132238D71
:10047000013223A20132A38C013223AE013223A424
:100480000400238201362382F1329307400623853C
:10049000F4002380013223A2040023A6040023A831
:1004A0000400239434012322090023240900232675
:1004B000090023280900238C0132EF50F037EF1098
:1004C0009068EF50F03CEF10704AEF20F071EF4071
:1004D000E059EF30F05EEF606031EF40E032EF1056
:1004E000F069EF50E008EF40D05141B7411122C40C
:1004F000370400201304041B1040371501408545C4
:100500001305058006C6EF10E0511C40B240FD17F0
:10051000B337F0001CC0224441018280B71702406B
:100520009843B706FFF841111367170098C3D843E3
:1005300037060200758FD8C39843B706F7FEFD163D
:10054000758F98C39843B706FCFFFD16758F98C347
:10055000D843B70681FFFD16758FD8C39843B706F9
:1005600000ECFD16758F98C33707FF0098C723A6C8
:10057000070202C402C69843C166558F98C3B716D6
:10058000024005679C42F18F3EC6A24785073EC4E4
:10059000B24781E7A247E397E7FEB71702409C43C3
:1005A0001397E7006356070685473EC632478547DF
:1005B000631EF704B7170240D843B706C1FFFD1604
:1005C000D8C3D843D8C3D84313670740D8C3D84348
:1005D000758FD8C3D843C166558FD8C39843B70623
:1005E0000001558F98C3984393166700E3DD06FE1C
:1005F000D843B7160240719BD8C3D843136727006E
:10060000D8C32147DC42B18BE39EE7FE41018280E3
:1006100002C669BFB717024037070011D8D7D857AD
:10062000B70600C01305800C558FD8D7D84B856608
:1006300093860680558FD8CB6F108012B737024053
:1006400037070700938707401D0798CB23AA0700A9
:1006500023AC070013070004239CE708130700409E
:10066000239EE7082390E70A130700202392E70A56
:100670002394E70A2396E70A2398E70A239AE70ACE
:10068000239CE70A239EE70A2390E70C2392E70CBA
:100690002394E70C2396E70C2398E70C239AE70CA6
:1006A00013870158D8CF3717002013070717F8CF43
:1006B0001387013798D33717002013070737B8D3AC
:1006C0001387015CD8D3239C070C0947238DE70CC3
:1006D000A38D070C93062002239E070C130700022C
:1006E000238FD70CA38FE70C2390070E2381D70EFF
:1006F000A381E70E2392070E2383D70EA383E70E71
:100700002394070E2385D70EA385E70E2396070EA5
:100710002387D70EA387E70E2398070E2389D70ECA
:10072000A389E70E239A070E238BD70EA38BE70E20
:10073000239C070E238DD70EA38DE70E239E070E55
:10074000238FD70EA38FE70E239007102381D71096
:10075000A381E710239207102383D710A383E71008
:10076000239407102385D710A385E710239607103D
:100770002387D710A387E710239807102389D71062
:10078000A389E710239A0710238BD710A38BE710B8
:10079000828021C9411106C622C437340240A30019
:1007A00004404147A300E4402300044013079002A3
:1007B0002300E44023010440130770022301E440B6
:1007C0007D572328E4409D3D2945EF0070798347FC
:1007D000044093E707012300F440B2402244410162
:1007E0008280B737024003C707401377F70E238094
:1007F000E74003C70740136767002380E740828014
:10080000011122CE3734024026CC4ACA4EC852C605
:1008100056C4130404400347A400938771831377DD
:10082000F70F2380E70003C70700098B6300071C4D
:100830000347B4008347B4003D8B91838D8B6315D0
:10084000070E0947639BE70C83C79180194793F70D
:10085000F70F6387E7025D476384E70215476398F4
:10086000E70A83C70183A301040093F7F70FA301ED
:10087000F400231C040C230D040CA30D040C85A808
:100880009387418383D707001307F0039384418341
:10089000130400046366F70003D40400420441809B
:1008A00003A901572286CA8513850158EFB0C024D9
:1008B00083D70400229923A82157818FC207C183BF
:1008C0002390F4009387818003C707001347170024
:1008D0002380E70037370240231C874C83C707007B
:1008E00093F7F70F93B717008E07230DF74CB73721
:1008F000024009472385E740938707407244E2445A
:100900005249C249324AA24A056173002030A147C8
:10091000A30DF40C23A80156D9BFF1FB231C040C32
:10092000A147230DF40CE1B785466317D704E1F323
:10093000B715002093850517138501371D3C420527
:100940004181231EA40C8347E40D93F7C70F230FA7
:10095000F40C8347E40D93F7F70F230FF40C834750
:10096000F40D93F7C70FA30FF40C8347F40D93F71F
:10097000F70FA30FF40CA5BF8946E31AD7F6A5FB22
:100980000357C400B71600204207418393860637F9
:100990001386015C93950701C18163EFE502B737C8
:1009A00002402390E74E03C7274E1377C70F2381DA
:1009B000E74E03C7274E1377F70F2381E74E03C790
:1009C000374E1377C70FA381E74E03C7374E137710
:1009D000F70FA381E74E21BF3385C700034505000C
:1009E000B385D70085072380A5006DB703C707002F
:1009F000137707026303073C138701588356670088
:100A0000938741832390D70003C901588347170078
:100A1000138691802300F6009375090693869180D2
:100A20001384418393870158F1C193770904CDCF93
:100A3000834706005D466316F612835647009147CA
:100A40006397F608B70700209387470723A8F15656
:100A5000930780020357040063F4E7002310F400B7
:100A6000835704001307F003930900046367F7003A
:100A700083590400C20993D9090103AA01574E867C
:100A800013850158D285D299EFB0000723A83157BA
:100A900062091359894181476353090203570400CE
:100AA0009307000463E6E70083570400C207C1838D
:100AB000035704001D8F420741832310E40037379A
:100AC0000240231CF74CA147230DF74C7DA015468F
:100AD0008147E391C6F8B70700209387C70923A889
:100AE000F1569307E008BDB78147ADB703C70600CD
:100AF0002D461377F70F6366E60635660A07130679
:100B000046D732971843028783D72700394613D731
:100B100087007D17420741836365E60435660A074F
:100B2000130646DA329718430287B70700209387E7
:100B3000070023A8F15683C7070029BFB56793872D
:100B400087E223A8F1569307E00229B793F7F70F3E
:100B500009476383E7066367F702B9C305476387FD
:100B6000E704FD572380F600B7370240239C074C6B
:100B70000D47238DE74CA38DE74CB7370240130791
:100B800000028DBB11476387E70463EEE70213079A
:100B9000E00EE398E7FCB70700209387C7123DA05B
:100BA0009387C18123A8F15691476DB59387018240
:100BB00023A8F156994779BDB5679387C7E623A85F
:100BC000F156E94741BDB567938787E823A8F156F9
:100BD000C94749B5B567938787E523A8F156D1473B
:100BE00095BDB5679387C7E923A8F156A9479DB579
:100BF0009387A18003C7070005466312E602B70981
:100C00000020B565938949041306C0029385A5DFCA
:100C100013852900EFA0506E23A831572DB783C745
:100C2000070093F7F70F95FFB7090020B565938983
:100C300049011306C0029385A5E2D9BFB567938722
:100C400007DE23A8F156D94731B503C7270023880B
:100C5000E1823DBD83C711832380F158035704000F
:100C60008547E3F7E7E22310F4001DB503C727002B
:100C7000A388E18205472389E18219BD1377F90131
:100C800009466317C70403C64700B7370240630924
:100C9000E602938707406368C7000547E313E6EC65
:100CA000A38F070CF5B393051008630EB6009305E8
:100CB0002008E318B6EA2390070E2381E70EC9BB8C
:100CC0002381074EF1B3239E070C238FE70CC9B392
:100CD000E31907E803C727008547E31BF7DA938783
:100CE000618303C707001377E70F2380E7004DB345
:100CF0001376F9010947E316E6E603D72700E31266
:100D000007E603C74700B7370240630DC702938762
:100D10000740636CE6000546E315C7E403C7F70D1B
:100D200013673700A38FE70CA5B3130610086302FF
:100D3000C70213062008E316C7E203C7270E13678E
:100D40003700A5BF03C7374E13673700A381E74EAF
:100D500081B303C7E70D1367370085BF23800158B0
:100D6000F5BD03D7470023900158B73702409306DB
:100D7000100893870740631FD70083C7E70D8D8B4B
:100D80000D476395E70085472380F158035704001A
:100D90008947C1BD85466315D70083C7F70DC5B721
:100DA000930620086315D70083C7270EC9BF89465D
:100DB000E31ED7FC83C7370ED9B703C70700058BDF
:100DC0001DC39384018323800400EFF03F8783C712
:100DD0000400A301040093F7F70FA301F400854773
:100DE0002305F40021BE83C70700918BE38807B079
:100DF0009387618303C707001377D70F2380E7002A
:100E000005472389E1829147E1BFB7170140984325
:100E10001377F7F098C398431367070398C3984371
:100E2000419B98C398431367370098C3094798CBF1
:100E3000054798CB8280411106C622C426C24AC00B
:100E400037140140054923282401894404C81305A7
:100E50002003EF00F01013052003232A2401EF00E4
:100E60003010B24044C82244924402494101828079
:100E7000411106C622C426C237140140854444C825
:100E800013052003EF00D00D89471CC8130520036C
:100E9000EF00100D04C82244B24092441305200311
:100EA00041016F00F00B411122C426C237140140EA
:100EB00085441305200306C64AC0EF00700A09499D
:100EC00004C82328240113052003EF00700913052B
:100ED0002003232A2401EF00B00844C82244B24072
:100EE000924402491305200341016F00700701116C
:100EF00022CC26CA4AC84EC652C406CE2A89A1446C
:100F000037140140054A894993178901E18763DB5A
:100F100007062328440113052003EF00700413057E
:100F2000200323283401FD140609EF00700393F415
:100F3000F40F232A34011379F90FF9F41C40130537
:100F40002003C19B1CC01C4093E787001CC0EF001E
:100F500030011305200323283401EF0070000844FA
:100F6000232A34011C40F240D244C19B1CC01C40C7
:100F70004249B24993E737001CC06244224A0589BE
:100F800005618280232A440179B7B717014098434D
:100F9000011122CC26CA4AC84EC606CE419B98C330
:100FA0009843214901441367870098C3B71401404F
:100FB000894913052003EF00A07A23A834019C443B
:100FC00006041374F40F858B81C705041374F40FA2
:100FD000130520037D19EF00A0781379F90F23AAD8
:100FE0003401E31809FC9C402285F240C19B9CC05F
:100FF0009C406244424993E737009CC0B249D244C6
:1010000005618280011106CE2EC622CC26CAAA8492
:101010001D3513050006E13D2A8413054006EF0047
:1010200020742685E935498C13054006EF0040738E
:10103000B2452E856D3D09C905441D3D2285F2400E
:101040006244D244056182801374F40F333480000B
:10105000EDB7011106CE22CC2A84F13B1305000620
:10106000793513054006EF00A06F22854935130539
:101070004006EF00E06EED3B13054006EF00406ECA
:101080005D3B13051006A53513054006EF00406DC6
:10109000ED3D2AC6093DE93BF24062443245056117
:1010A0008280011185451305C00306CE22CC26CAD5
:1010B000EF00B04AB1472312F100C1473EC64C00D1
:1010C0008D47371501403EC4EF00300813048004FB
:1010D00085474C0037150140B71401402312F10039
:1010E00022C6EF009006930700674C00138504802A
:1010F0002312F10022C6EF005005930780304C0008
:10110000138504C02312F10022C6EF001004896782
:10111000938707F04C00371501402312F10022C6D7
:10112000EF00B002930740044C001385044022C630
:101130002312F100EF007001F2406244D2440561D5
:101140008280411106C622C426C2A13FA14737149E
:1011500001405CC8294581259144294544C8252D75
:1011600004C8653185451305F00F693D93050008F6
:101170004945493D13052003392D7145D93D1314C7
:1011800005014180220442047545E1354180498CC6
:101190004204A1674180938727FA05456313F4044D
:1011A0002945453D131405014180220442042D4583
:1011B0004D354180498C420489674180938727647B
:1011C00009456310F4023564130484EA9304441659
:1011D000834514000345040009042D35E31A94FEE9
:1011E0000145B2402244924441018280011106CE61
:1011F0002AC62EC4EF40A01732459307B005A2457A
:101200003305F502F2401306A0050561130505300C
:101210006F10800BAA851306A0051305003C6F1004
:10122000A00A011106CE2AC62EC4EF404014324552
:10123000D547A2453305F502F24051460561130535
:1012400005206F1060084111A945014506C6EF1041
:10125000A006B240B71500201306C00793850557B6
:10126000054541016F104006797122D406D626D279
:101270004AD0937715002A84F1C7B71600209387C8
:10128000065719472388E7047D472395E70637D794
:1012900000000327070937D600000326460BF8D7BE
:1012A00037D700000327470923990704B8DB130742
:1012B000A00F239AE70637D7000003278709B8DF76
:1012C0007D47F8CB37D700000327C709B8CF37D7FA
:1012D00000000327070AF8CF37D700000327470A83
:1012E000B8D313070000F8D3130740072384E70699
:1012F00037D700000327870A23A8E656D8C398C724
:1013000037D700008326C70A37D700000327070B0B
:10131000D4CB94CFD4CF98D7D8D798DBD0DFB0C375
:10132000F0C337D600008325860B37D6000003268E
:10133000C60BCCC794D3D8DBB0C78CCBD4D398DF43
:10134000F0C711379377240085C302C602C802CACA
:1013500002CC02CE81442149268585046C0093F499
:10136000F40FC135E39A24FF937744008DC781457C
:1013700013050030EF005074814513051030EF0065
:10138000B07381451305B035EF0010738145130527
:10139000C035EF007072218819C881451305003CE3
:1013A000EF00907181451305103CEF00F070B250D2
:1013B00022549254025945618280411122C42E84E4
:1013C0009305B005B305B50226C21306A005AA848D
:1013D000228506C693850530EF00107301ED268542
:1013E00023000400A28519350145B24022449244ED
:1013F000410182800545D5BF41111306A005930523
:10140000003C22C406C62A84EF00107011E9228530
:101410002300040001350145B2402244410182808D
:101420000545DDBF411122C42E84D545B305B50263
:1014300026C25146AA84228506C693850520EF0060
:10144000B06C0DE19307000026851CC05CC01CC475
:101450005CC41CC8A285F1330145B24022449244C9
:10146000410182800545D5BF4111014506C6EF0007
:10147000B06329478147631DE50037150020130637
:10148000C007854513050557EF001068B337A00066
:10149000B2403E8541018280411126C2AE8422C401
:1014A000930500002A84268506C64AC0EF903026A0
:1014B000634E05249307300663F987081305C4F9C2
:1014C0001375F50F81471147A5466365A706B71643
:1014D00000200947938606576384E7020D4763831C
:1014E000E70405476388E7000A05369504C1A13B78
:1014F0000145A5A2110513172500369744C3C5BFA2
:1015000037D900008325090C21059317250026856E
:101510003384F600EF9070288325090CEF90F027B4
:1015200008C4F1B731050A05B70700803695BD8CB0
:1015300044C575BF850793F7F70F63FBA61C638946
:10154000E71C59151375F50F49B72685EF60A07E86
:10155000EFA04010130700029377F50F636A871A14
:1015600035650A041305C5002A9418400287094707
:1015700019456374F70E371700202300F75C85BF09
:10158000371700202303F75C9DB73717002023117E
:10159000F75CEF50201DA1BF371700202312F75C26
:1015A000CDBFB71600209386065703C7860691C79E
:1015B000136747002384E6061DBF6D9BE5BFB71682
:1015C00000209386065703C7860681C71367070462
:1015D000D5B71377F7FBF9BF3717002093060757E6
:1015E00003C68606130707579376F60799C39366D3
:1015F000060801452304D706EF308044CDBD3717D8
:101600000020A303F75CE5B5B717002023A4975C7F
:10161000F9BDB717002023A6975CD1BD371700206E
:101620009306075703C68606130707579376E60FF8
:1016300099C3936616002304D706EF50905945BD11
:10164000B71600209386065703C7860689CF93777F
:101650000701294513670702B1FFB24022449244B3
:101660000249410182801377F7FDA9B7371700209F
:101670009306075703C68606130707579376760F18
:1016800099C3936686002304D706EF10F05585B5FD
:10169000B71600209386065703C7860681C71367CF
:1016A000070109BF1377F7FC31B737170020231D57
:1016B000F75C35BDB717002023AE975C0DBDB7179B
:1016C000002023A0975E25B5371700202312F75E70
:1016D00039BDB717002023A4975E11BDB7170020AE
:1016E00023A8975CEF40D01A19B5B717002023AA9A
:1016F000975CCDBFB71600209386065703C78606B2
:1017000081C7136727007DB5759B6DB51145B1B7CE
:101710000D45A1B7411106C6813B19E91D45EF30C2
:10172000B0541305F00F8936B24041016F30D065D7
:10173000B24041018280B707002083A7471B3717BB
:101740007A0013070720B3D7E70293F7F70F238D2B
:10175000F1821307803EB387E702239CF1828280E7
:10176000B7F700E0D8438146799BD8C303C7A1836C
:101770003306A70290CBD4CB98431367070198C3D5
:1017800098431367170298C3D843058B75DF9843B6
:10179000799B98C38280B7F700E0D8438146799B54
:1017A000D8C303D781833306A70290CBD4CB984309
:1017B0001367070198C398431367170298C3D84368
:1017C000058B75DF9843799B98C38280797122D409
:1017D0002A8411658545110506D64123930700200B
:1017E0002312F100371501408D473EC44C00E147FC
:1017F000130505803EC6912A22C837440140B70729
:1018000008000C08130504803ECC02CA231E010008
:10181000852F130504808545EF001004B250225433
:1018200045618280011126CAB744014022CC4AC8D2
:101830004EC606CEAE893289014493840480634A41
:101840002401F24062444A85D2444249B2490561CA
:101850008280930500042685EF0070067DD9B3874A
:1018600089008385070026850504C205C181EF0034
:10187000D003F1B71387C1801C43B726002093869D
:1018800006C23E95636BD500B7060120938606809D
:1018900063E5A60008C33E858280FD57EDBF584131
:1018A000032805004C4537060140930706403E9744
:1018B0009346F8FFB1C583250640F58D2320B64039
:1018C000D043F18ED4C31443B3E6060114C31841C8
:1018D00090479346F7FF758E90C7D047F18ED4C7D7
:1018E000144541466399C6009447D98E94C7D4479E
:1018F000558FD8C78280B6979443558F98C38280FE
:101900001C43F58F1CC38280B70701401387074033
:1019100083A70740584B698F09C77D8D3335A000D9
:10192000828001458280B707014023AAA7408280B8
:10193000B707674537270240938737125CC3B797CD
:10194000EFCD9387B79A5CC382809C4513F707015C
:1019500013F8F70001C7D8413368E80083D50500C4
:1019600013F7F50F39C318418146854E3D4F930F4C
:10197000800293028004214E3396DE00B3F8C50046
:10198000631116039398260033131F011343F3FFCB
:101990003377E300B318180133E7E800639FF705D6
:1019A00050C98506E39AC6FD18C11307F00F637589
:1019B000B70454412146854E3D4F930F8002930258
:1019C0008004414EB398CE0033F715016392E802CC
:1019D0001317260001173313EF001343F3FFB376F9
:1019E000D3003317E800D98E639DF701232A150130
:1019F0000506E319C6FD54C18280E39457FA10C965
:101A00004DB7E39757FE23281501DDB7084542057A
:101A10004181828048454205418182800CC9828093
:101A20004CC9828019C20CC982804CC98280B70718
:101A3000014063570504DC4F135705019376F70007
:101A4000131605013707300041823378E500635CE7
:101A500005046319E802138706018D46B396E60074
:101A600093C6F6FFF58F89C913575501120733172F
:101A7000E600D98F63570504370701405CCF8280A9
:101A8000DC435DBF1317B500635607000D47B3165F
:101A9000D700F9B71357550112073317E60013475C
:101AA000F7FFF98FC9B76312E802370801408326B0
:101AB0004800370700F17D17F98F758F2322E80062
:101AC000C5F5370701405CC382801317B500635C1E
:101AD00007000D473317D7001347F7FF7D8FB70770
:101AE000000FD98FF1BF1357550112073317E600C6
:101AF000E5B713F7C50F93F73500B7050140BA9561
:101B000094458A073D473317F7001347F7FF758F52
:101B100098C598453315F500598D88C5828023AE48
:101B2000A18282809387C18394430347050089E69D
:101B300083472500920731A8944305466391C60464
:101B4000834725000346150092076314D60093E7E8
:101B500007F8B7E600E093F7F70FBA962380F64050
:101B60008546935757003397E6005441ADC6938797
:101B700007048A07B7E600E0B69798C382808C43D3
:101B800089466393D5028346150083472500636524
:101B9000D6008A06B69779BF9386E6038A06B6977B
:101BA00093F7F70F920765B790438D46631ED600F3
:101BB00083461500834725006364D6008606D9BF97
:101BC0009386C6078606E1BF94439147E39AF6F8E9
:101BD0008347150085B79387070661BF3717024013
:101BE0005C439146B18B6385D700A1466386D706D7
:101BF000B7177A00938707201CC1371602405C4252
:101C000037070020130707149183BD8BBA9783C64B
:101C100007001C41B3D7D7005CC15442A1829D8A02
:101C2000BA9683C60600B3D6D70014C55442AD8217
:101C30009D8A369703470700B3D7E7005CC5584233
:101C4000398393763700138701813697034707005E
:101C5000B3D7E7021CC982805C435843C166C9837D
:101C6000758FB7F6FF1F83A6C670BD8B89071396C5
:101C7000160163480600C54601466392D702C9476C
:101C800039A88946638FD702BD46638ED702C14605
:101C9000638ED702C54601466393D700C1471DEF47
:101CA0003747024003270780418B05C737177A0063
:101CB00013070720B307F7021CC121D21C418583FB
:101CC00025BF01466DBF0546B547D1BF0146BD479B
:101CD000F9B737173D0013070790E9BFB715024062
:101CE000D8559316F700D85563DF060411833D8B52
:101CF0009306170037177A00130707203357D702C8
:101D000018C1D455A182BD8A8DE295463307D7020A
:101D1000058318C137170240585714413D8B0507FA
:101D200033D7E60218C1184171B785456394B600F0
:101D3000E546E9BFBD456396B600D1463387E60266
:101D4000C9BF8906E5BF3D8B9306170037177A0098
:101D5000130707203357D702F1B799C53717024049
:101D60001C4F5D8D08CF8280B7170240984F1345F6
:101D7000F5FF798D88CF828099C5371702405C4F77
:101D80005D8D48CF8280B7170240D84F1345F5FFCD
:101D9000798DC8CF8280B7170240A383A7008280C5
:101DA0008357050037370140930607C0C207C18338
:101DB0006300D504B7060040630CD5029386064045
:101DC0006308D502B7160040138606806302C50279
:101DD000938606C0630ED50013070740630AE5002B
:101DE00037570140930607C06304D5006317E50029
:101DF00003D7250093F7F7F8D98F37170040630D05
:101E0000E500130707406309E50093F7F7CF03D711
:101E10006500C207C183D98F2310F50083D7450021
:101E20002316F50283D705002314F502B7370140C6
:101E3000138707C0630EE50093870740630AF50028
:101E4000B7570140138707C06304E5006316F50028
:101E500083C785002318F5028547231AF500828081
:101E60008357050203D6050003D82500C207C183A6
:101E7000F99BC207C1832310F502835705028356DD
:101E8000450003578501C207C18342074183137789
:101E9000C7F8518F03D68500F59BC206336606014D
:101EA000D18F37360140130806C0C182630E050189
:101EB00013060640630AC50037560140130806C0E2
:101EC000630405016313C50203D6A500DD9B03D897
:101ED000E500D18F03D64500ED9B93F6F6CFD18F69
:101EE00003D6C50033660601D18E2312D500231C0C
:101EF000E50003D76500231AE5022310F50282806E
:101F0000FD572312F50023100500231305002311AC
:101F100005002304050082808357050091C593E7DF
:101F200017002310F5008280C207C183F99BC20706
:101F3000C183C5BF8357450491C52167D98F23123B
:101F4000F5048280C607C583DDBF8357C50009C677
:101F5000DD8D2316B500828093C5F5FFFD8DD5BFBD
:101F600083578501C207C183DD9BDD8D231CB5002E
:101F7000828093C5F5FFC205C1812318B500828018
:101F800083560501F577FD17F58F83D66500397106
:101F900022DC06DED58F03D7C5002318F500835653
:101FA000C500FD779387379FF58F83D645002A8438
:101FB0002EC6D58F83D68500D58F83D6A500D58F25
:101FC0002316F50083574501C207C18393F7F7CF66
:101FD000D98F231AF50068081131B747014093875C
:101FE0000780B245631EF404A2578356C4006547B8
:101FF000B387E702C206C186984163D50604060787
:102000000356C4004206B3D7E702130740064186D1
:10201000B3D6E702B3F7E7029206635706028E07CC
:1020200093872703B3D7E70213F77700B367D70087
:10203000C207C1832314F400F250625421618280EC
:10204000925765B70A076DBF920793872703B3D7E7
:10205000E702BD8BD58FE9BF81C98357C5000967EA
:10206000D98F2316F50082800357C500F977FD1735
:10207000F98FC5BF13F7F50F85471583B395B700E3
:102080006319F7009307C500984301CED98D8CC31F
:102090008280894693074501E318D7FE930705011F
:1020A000E5B793C5F5FFF98DDDB793F5F51F23125D
:1020B000B5008280035545001375F51F82800355D6
:1020C00005006D8D3335A000828013F7F50F85462E
:1020D0001583B397B6006313D7020357C500F98F72
:1020E0000357050001454207418381CB0545A18186
:1020F000B315B5006D8F3335E000828089466315D6
:10210000D70003570501E1BF03574501C9BF41117E
:1021100026C2B72401401385048006C622C4EFF00E
:102120007F8F35811374150013850480EFF09F8E27
:102130009317350163D40700136424002285B2404D
:102140002244924441018280411122C4372401403B
:1021500013050480896506C6EFF09F8C1305048083
:102160002244B240856541016FF09F8B0111854586
:102170001305000406CE22CC26CA4AC8F93E3729E8
:1021800001408D44414489674C00130509802312A6
:10219000F10026C422C6EFF04FFB8545130500046D
:1021A0006D3E85674C00130509802312F10026C49B
:1021B00022C6EFF08FF9854513050002EFF0FFB955
:1021C00037150140E1474C001305054026C422C6DF
:1021D0002312F100EFF06FF7853FF2406244D244E2
:1021E000424905618280138741320347170039E76E
:1021F000411122C426C206C6938441322A8409E9C9
:10220000A137B240224423860400924441018280D7
:102210009377050481CB3725014089651305058037
:10222000EFF0CFFF62046184E35D04FC37250140D9
:10223000856513050580EFF06FFEE1B7828003C767
:1022400041328947630BF700011106CE2AC6EF30F1
:1022500000123245F240056179B7828037170020BD
:10226000B7070108B71601081306C75E93870780F2
:102270009305C75E9386068003C50700850705069C
:10228000A30FA6FEE39AD7FE0347C75EA947630CD8
:10229000F70081477D560567B386F5002380C600A9
:1022A0008507E39BE7FE8280B71700209387C75E10
:1022B0003E95034505008280B71700209387C75ECF
:1022C0003E952300B5008280B71700200147814664
:1022D0009387C75E6317E6003295AA972380D700DD
:1022E0008280054899E213D87600B386E50083C85A
:1022F0000600B38608013308E5003E9893F6F60F12
:10230000230018010507F9B7B718002001478147D6
:102310009388C85EB386E500C69603C806006317B7
:10232000E60033850741133515008280854699E321
:1023300093D67700C29693F7F60FB306E500238095
:1023400006010507C1BF372500204111814513064D
:10235000C0051305C59E06C6EFD09FEAB72500202D
:102360009385C5A10145EFF0EF8B11E5B2401D4506
:1023700041016F30600FB24041018280372500205B
:1023800093850135130585A06F50600871715EC794
:10239000B72B00202ACE13060005814513858BA498
:1023A00006D722D55AC962C526D34AD14ECF52CDBF
:1023B00056CB66C36AC1EEDE13848BA4EFD05FE414
:1023C000372C00202D469305CC9E13051400EF906A
:1023D000A072F247014B8386070093074002638E89
:1023E000F602A3050104014AB7D7000083A74709F5
:1023F000B56D01493ED0B7071040938717403ED4D2
:1024000093874D0C3ED6B7D7000083A7C71202D2E0
:10241000814C8149814A3ED83DAE8547A300F400F6
:102420008D4723010400A305F104054A75BF9304F9
:10243000FDFB93F4F40FE54663F496006F00907192
:1024400072458507F0009305B104A305F104EF1070
:10245000701A19E16F007070B646368536DAEF50A3
:10246000900DEF90201F937DF50F6E85EF90E02388
:10247000D256AA853685EF80905B8255EF80F03189
:10248000EF50A07B9316050113067004C182630B05
:10249000CD001306D004630BCD1CB2578A04BE9442
:1024A00098400287130780026380ED1C636CB705B8
:1024B0004D47636FB701454763F6ED1411476387D6
:1024C000ED1063EDED022947638EED0ED14791A229
:1024D00071476389ED0E636CB7015547E368B7FF39
:1024E0005545B307B541A301F400194B0DA2794737
:1024F000638AED0C13076002E39AEDFCE3920A662F
:10250000894AB5A01307D003638CED146365B70542
:1025100013075003638CED0A6365B7031307B0021A
:102520006386ED0013071003E392EDFAE39A0A6263
:1025300013071003639FED1023030400214B8D4A02
:1025400055A81307B003E363B7F99387ADFCA30362
:10255000F400254B6DA81307B0056365B705130795
:10256000A00563F8ED0C13070005E391EDF6A30059
:10257000B40113066002054B639BCD089387C6FE2A
:10258000C207C1837946E363F6F42257B357F700D5
:10259000858B8DDFA947B3D6F6029386A6F8A300F4
:1025A000D40089A81307C005638EED001307E0056A
:1025B000E36EB7F11305E005B307B5412301F4005D
:1025C000154BB1A081E6E39D0A58854A2384BBA53B
:1025D00013F7DD0F71466307C7001306C005014BF3
:1025E0006397CD0281C62947E392E6EE6E95238478
:1025F000ABA4014B9257B3D76741858B6385071412
:10260000D54701A89387FDFEA302F400094BFDD234
:10261000DD47BA502A549A540A59FA496A4ADA4AA2
:102620004A4BBA4B2A4C9A4C0A4DF65D3E854D6199
:10263000828099E693876DFA2302F4000D4B5DBF0B
:102640002947E395E6E81307A005E381EDE8114B80
:1026500055B7A947E39CF6E685472303F400F9BD87
:10266000E39606E6294B79B71D4B55B7D5F2F946E7
:102670006385DD0863E4B6051547636FB7010D4751
:1026800063EDED0611476388ED081547C147639672
:10269000ED082305040061A013879DFF1377F70F52
:1026A0008946E3E5E6E22147638DED06254793077A
:1026B00000F8639AED06A304040085A8930620059C
:1026C000638FDD0663E2B603930600056381DD06D2
:1026D00093061005E39CDDDEA14537150140130587
:1026E0000540EFF0AFB339B793063005638BDD04D7
:1026F00093067005E3F0B6F1D1BB63890D00854602
:102700002D4BE389DDEE2304B401EDB58D472304A1
:10271000F4002D4BC5B5930700022305F400314B9F
:10272000D1BD93070004A304F400354BE1B5A145E6
:102730003715014013050540EFF08FAE65BDC1456B
:10274000C5BFC14559BF12578547B3976701D98F98
:10275000C207C1833ED28347B1047247B306F70074
:10276000038D0600E3150DCC6385090063930A0011
:10277000894A9377090289CB145437979800130735
:102780000768ED47E347D7E863030A10137719009A
:10279000D947E30007E8034734008547639DE71006
:1027A000B7D70000484483A50713EF80007F48C4D3
:1027B00019A2B64793E98900354B3CC4B357694128
:1027C000858BE396073A93071036B3D76741858B1D
:1027D00081CB364593050000EF806073E34C0538EC
:1027E0008547B397670133E9270142091359090166
:1027F0009DB7B64793E90901394B7CC4C1B7B647C9
:10280000014B5CC465BFB64793EC1C00054B1CC86C
:1028100075B7B64793EC2C00094B5CC845B7B64773
:1028200093EC4C000D4B1CCC51BF2302B403114B55
:1028300071B73645154BEF80D05B08D441B7B6472A
:10284000194B5CD4A5BFB6471D4B1CD885BFB647F6
:10285000214B5CD8A5B7C2553645EF80E062E34412
:10286000A030230CB403254B91BFB64793E9190060
:10287000294B5CDCA1B7B64793E929002D4B3CC03E
:1028800035BFB64793E94900314B7CC005BF83474C
:10289000240005476392E7048947639EFA00834753
:1028A0001400130700056388E70091C71377190028
:1028B000D947E30007D69377091089E79307CC9EA1
:1028C000DC475CD803C78BA49147631AF702937760
:1028D00009048DE3F14735BB9307CC9E83C61700EF
:1028E000F9FA9376190081C68347340045BD9C4BA5
:1028F0005CC4D1B71379F9FB420913590901834725
:10290000540091CB0547638BE70A89473ED002D438
:1029100085473ECE31A089473ED485473ED002CE82
:102920000347340085476300F70A8D47639CFA002C
:102930000347640085476317F70011479307500268
:10294000E399E9CC9305CC9E514693850503E808AD
:10295000EF90801A9257372700201307C7A1B7249A
:10296000002093F707203AD69384C49EC1E703CB97
:102970008BA429476301EB0A1307C005630EEB1E06
:102980000D47639AEA2479476309EB001307500364
:102990006307EB2E71476319EB22B72500207147BF
:1029A000938585A519456303EB001D45EFE09FA7BF
:1029B0002DC16396092A014B814A31AA85473ED42D
:1029C00002D08947B9B7B7D7000083AD0713228B70
:1029D0008144154DB3D79940858B81CB0325CB031B
:1029E000EE85EF80805B232EAB028504110BE39311
:1029F000A4FF25BF03457400994763F4A700F5477A
:102A000009B983C76400E384A7F6EC08EFE09FA14F
:102A100039FD9D47FDBE63940900E947DDBE93770C
:102A20000905E38907EA4854EF50E030EF8090420F
:102A30001375F50F9947E3E4A7FC03474402D14718
:102A40006309F7008946E316D7BC13770908E31238
:102A500007BC1379F9FA42091359090163090510F2
:102A60007D15137BF50FB7250020938585A55A8525
:102A7000EFE05F9B59DD8347440213878BA4930DDE
:102A8000CC9E3ED8BC4C014D3EDA33D6A941058AD6
:102A90000DCEC257D146505F639ED70C83A54D041F
:102AA00003A5CD013ADE32DCEF8060786256B28554
:102AB000EF80E0777257894708CB6318FD00D25545
:102AC0003ADCEF80C076625708CC050D95471107B8
:102AD000910DE31CFDFA034D1400930700056317E5
:102AE000FD1AFD47E39709B213771A006304074AFA
:102AF0001379E9FD42091359090163870A00E17757
:102B00009387F73F3379F90093074002E31309B045
:102B100082C882CA82CC63020748925713F767FBC8
:102B2000C147E31807AE03C78BA49307500363059F
:102B3000F700C147E31F07ACDC4403C7840093855B
:102B40008BA4BECA83C794008808D98F230CF104D4
:102B5000EF00B002AA87E31E05AA2ACE51469305CC
:102B6000C4031385C401EF803079F2475DB4034B91
:102B70007400D5BD10CB91BFE38109EABC4C930D25
:102B8000CC9E228D3ED8014B33D66941058A1DCE9D
:102B9000FC0813162B003E960C4203A5CD01EF80D6
:102BA00000698325CD03EF808068232EAD0289471D
:102BB0006316FB00C255EF80806768C0050B954720
:102BC000910D110DE312FBFC014B31B703A64D042F
:102BD000232ECD02E5B7E38809DA834744001306C4
:102BE000CC9E938D8BA43ED8BC4C014D3EDAB3D520
:102BF000A941858999E94C4E23AEBD02050D954743
:102C00001106910DE315FDFEBDBB93075003E307CD
:102C1000FBFEC25703A8CD039DEBFC0813152D0046
:102C20003E956C42084132DC42DEEF70703E7258D5
:102C3000C285EF70F03D23AEAD0289476256E31FB7
:102C4000FDFAD255EF70D03C68C0625645BF484E81
:102C5000C28532DCEF70D03B23AEAD02FDB7A68655
:102C600022878147954533D6F940058A19E2D04E2F
:102C700010CB850791061107E397B7FEB1B78346DE
:102C800014000547F947E371D7F461B28947E39D22
:102C9000FAE463160D00E39909E4814AB1B54844AA
:102CA00093050000EF808018D947E3040596930749
:102CB000C0086309FD0263EBA701630E5D058D4744
:102CC000630DFD048547E311FDE2F1B79307E008CA
:102CD000630AFD006366FD009307F008E316FDE05C
:102CE000136A0A01130D2D07137DFD0F854763E459
:102CF000A701136A8A00E38209D2B725002037258D
:102D000000205146938545A8130585A0EF80705C8F
:102D1000E31C05DC59A0136A4A00E38009D0F2479E
:102D200005483317F8008257B317F8005D8FB3F6E4
:102D3000E9003AD893070002E38D068C7247F24708
:102D400093064700B1078A078A06A297A696CC4643
:102D5000C847EF80C04D025782572A8D930647001F
:102D6000B1078A078A06A297A696C847CC46EF8085
:102D7000004C93770908AA8D42570548638C0712C7
:102D8000B7250020372500205146938545A8130517
:102D900085A0EF801054054809E5930710026FF0F5
:102DA0005F8783473400639A0701B7D7000008584C
:102DB00083A50713EF80601E08D8B7D70000832CC7
:102DC000040383A547136685EF80201DE685EF8009
:102DD000C01CAA8CEA856A85EF80201CAA856685BE
:102DE000EF80E044AA8CEE856E85EF80001BAA85FB
:102DF0006685EF80C04393050000AA8CEF80201108
:102E000093072002E34705806685EF401076AA8C81
:102E1000EE856A85EF100019B7070080AA8533C5D3
:102E20009701EF709055834614000D47AA8CB707A1
:102E300000806394E600B3CCA7001C589305000003
:102E40003E853ED8EF80A00C63590500C257370578
:102E50000080B34C95013D8D08D8F247EE8566851C
:102E60008A07A2973ED8EF804013AA856A85EF8033
:102E7000003C37D70000832587131379F9F74209FF
:102E8000EF80A011C257EA851359090188CB8257F8
:102E900066858A07A2973ED8EF802010EE85EF70F6
:102EA000301737D7000083258713EF80000FC257F4
:102EB00088CB1DB93377970193073002630B07F472
:102EC00083473400137919FF4209135909016387B5
:102ED000070982576E858A07A2978C4B3ED8EF80F0
:102EE0000035F247AA8D6A85939C2700A29C83A592
:102EF0000C01EF80C033EE85EF10C00AC257AA8DD7
:102F000003A50C018C4BEF10E009AA8508D82A8D87
:102F10006E85EF80C031B7D70000931C150083A5E4
:102F2000C71393DC1C006685EF701076E35EA0BAD1
:102F3000B7D7000083A587136685EF70F074E34E62
:102F4000A0E4B7D7000083A507146A85EF80E004EA
:102F5000E685EF70D07BE35905B881B5B7D60000A0
:102F600003A80613228781471546B3D6FC40858AFD
:102F700089CE084BC2853EDC42DA3AD8EF80E001C8
:102F80004257E257525808CB154685071107E39E72
:102F9000C7FC81B71379E9CDB1BEB717002083C74D
:102FA000875D898B95C3834714000947FD1793F705
:102FB000F70F6374F700136A0A04638009188947DE
:102FC000639DFA16136A0A081C549CCC834724009C
:102FD000A380F40081C7A147230CF1045C4483293A
:102FE0004403C8449CC8CE85BEC8EF7030641379D2
:102FF0000A0401E593770A0295C303C5940009CD3D
:1030000093178A01E18763C90700930500006313E2
:103010000900CE85EF30C02E5C58DCC46314090073
:10302000DC44BECA834784030345A400238AF4001A
:1030300083C794006389A700D645EF30602C83478F
:10304000A400A384F4008347810503C794000345CB
:103050009400D98F230CF10483C78400638AA700EE
:10306000EFF0EF9D834794006390071023840400E2
:103070008347810503C78400D98F03C78BA4230C22
:10308000F10491476315F7004854EF00D03C8347A3
:1030900054002382F400834734002381F4008D47D9
:1030A0006395FA0283476400A382F40081E79307E3
:1030B00000007CC003294404A84CCA85EF70105757
:1030C00009C523AC2405EF40C0308347740003C713
:1030D0006400630BF70032555146EC082383F4007B
:1030E000EF809021EF40E02E8347440013076002F9
:1030F000A381F40083C78BA46387E714636CF7068E
:103100007147638BE70879476388E708294763922B
:10311000E70C37290020930589A55A85EFE06F90C9
:1031200083C764006397670B32555146930589A5A1
:10313000EF80901CEF40E02969A803C79400C147C5
:10314000E314F7E88347CC9E894613770A04FD17FA
:1031500093F7F70F63E7F600E30807E6136A0A023E
:10316000A5B5E31307E6DDBF03C78400D98F238429
:10317000F400FDBD1307C005638FE70C130760065D
:103180006381E70E130780026395E704B7250020EB
:10319000938585A01D456DA88347810593E717009A
:1031A000230CF10463890A00372500208C081305DD
:1031B00045A8EF00406A372900208C08130589A52F
:1031C000EF0060695146930589A51385C401EF801E
:1031D000B01283471400130700052306FC9E638882
:1031E000E70209476395EA020549372500206399FC
:1031F00027098C08130545A8EF00E065B7250020D6
:103200005146938545A81385C401EF80F00E83478E
:103210008400A383F400638E07BEEF20401583C6AD
:1032200074000D476395E60C03C741328947630775
:10323000F7002145EF400027EF10505AA383040008
:1032400081476FF00FBDB7250020938585A01945F4
:10325000EFD03FFDBDBF51469305C4031385440421
:10326000C1BDB727002023A807A2938707A323A2E5
:10327000070023A4070023A6070023A807005DBDBD
:1032800081EB8347810593E71700230CF10495B781
:10329000F91793F7F70F6369F902135A2A00A25836
:1032A0000258F2471858137A1A00B726002037261A
:1032B000002052C0938686A5130686A08C081305AD
:1032C00045A8EF00A0621DBF8347810552868C0888
:1032D00093E74700130545A8230CF104EF00701D88
:1032E000E30E05F0E31525F3EFF04F890DB7054721
:1032F0002316EC9E196793864132130747462394A1
:10330000E600130740062385E60003C74132238207
:103310000400A3810400238304002394040089474C
:103320006306F702B72500209385C5A10145EFE0AC
:103330006F8F9D47630F05ACEF40A00901459305D2
:103340000000EF20B0730145EFE0FFE92145EF20D9
:103350008017EDB585476FF0CFAB89476FF06FAB46
:10336000E1476FF00FAB930760026FF08FAAE5475C
:103370006FF02FAA91476FF0CFA9DC45411122C40D
:103380004AC006C626C21CC1834785002A89138409
:10339000C50393E747002304F500B717002083C750
:1033A000875D93F707029DE32285CA856D2183C45B
:1033B00041328DE8EF00707715C593070002238234
:1033C000F132EF30404FEF20F07531A02285EF4011
:1033D000A007BD4471D9B2402244268502499244D7
:1033E000410182808144C5BF3971854513051002B2
:1033F00006DE22DCEFE07F968D473ECC930780040B
:103400003ECE37150140E17793C707C04C0813053E
:10341000054037140020231AF10013040457EFE08D
:10342000CFD283478406A18BB5C313054006EFE0D6
:103430008FB6A9450D45EFE0CFEBAD450D45EFE06B
:103440004FEBB1450D45EFE0CFEAA167938707C089
:103450003ED08347840602D2214793F7070491E3C5
:103460003147054408103AD422D6EFE04FC3930702
:1034700080232316F100680089472307F10022C842
:10348000EFE04FEAF250625421618280B7E700E03A
:103490003707000123A2E718F5B7B7E700E03707C1
:1034A000000123A2E718828037150140411113055E
:1034B000054006C6EFE08FD5371700200347875D2C
:1034C000AA871377070419E72165130505C0A98F9B
:1034D000C207C183014585C7356713078745814604
:1034E00005489545035607007D8E11C63316D80052
:1034F000518D1375F50F85060907E395B6FEB240A9
:103500004101828041111305004022C6EFE0CFBF88
:1035100009C513050040EFE00FC1056413050480E1
:10352000EFE08FBE09C513050480EFE0CFBF05654E
:10353000EFE08FBD01C50565EFE0EFBEB7E700E046
:103540003707000123A2E72803C741328547630CF0
:10355000F70083C7413693F7F70F91E7EF00F003C9
:103560000545EF40602E324441017300203019714F
:10357000CAD886DEA2DCA6DACED6D2D4D6D2DAD0AB
:10358000DECEE2CCE6CAEAC8EEC69387413283C7F4
:1035900017006392071A994702D42304F102B7D7A0
:1035A000000083AC471437140020B564930A045715
:1035B000130B045713894132AA8902D002D2938493
:1035C000C446930B4101014A930D000013040457B4
:1035D000154C83D704002390FB00B3D74941858B5A
:1035E00089CF0325CB03E685EF70301BEE852A8D4E
:1035F000EF70F01163430500EA8D050A8904890B19
:10360000110BE3188AFDB7D7000083A78714032D99
:103610000407114A8544154C3EC693850135681050
:10362000EF30F05E0353A406B70500800145014664
:10363000814BB3C5B501B3D7C940858BB1C39317CF
:10364000260013870135B388E70023A00800B3588C
:10365000C3400505781093F818001375F50FBA9755
:103660006385080081C48CC321A0F5DC23A0B701C9
:10367000931716005808BA9783D70700B3EBFB00DF
:103680000506E31A86FBEF80A00EEF40006EAA85C8
:10369000231379016A85EF7050102AD00C1068103E
:1036A000EF00F06191472302F900EF30C020EF20D6
:1036B00070479DC4D53B5008814783560600B3F53B
:1036C000760189C9B355F540858989C593C6F6FF4A
:1036D000B3FB760185070906E39187FF2313790180
:1036E000EF30601D83C7913393F747036384070E60
:1036F00083C7913313FDF70F13770D0101C71945E8
:10370000EF40801413770D0201C71D45EF40C01331
:103710006390040EEFF05FD93375350101C5214583
:10372000EF40801283C7413693F7F70F85C7EF004C
:10373000C066EF10B00AF6506654D6544659B659D2
:10374000265A965A065BF64B664CD64C464DB64DFD
:10375000096182801145EF40400DEF30200903558B
:10376000440793CB1400EFE00F83B5E8B245285C23
:10377000EF70B002032DC406AA8D7D1A137AFA0FDA
:10378000DE84E31C0AE88144938B0135370B00800B
:10379000154AB3D79940858B9DC78357A406285CEB
:1037A00003AC0A00B3D79740858B9DCF83A5CA038E
:1037B000EF700006E285EF70407EEF40004893977F
:1037C0002400DE9788C38504910AE39444FD230214
:1037D000090095B793F7AB2AE39D07ECBDBF832D96
:1037E0008407032D040751BFE2853345AB00E1B7E1
:1037F00093774D0085DB254525B7411106C622C4C8
:1038000026C2EF30704439C1138741328546A30187
:10381000D70083C6413221473E8493844132639D61
:10382000E6002145EF301048EF10407B83C71400BD
:1038300091EF83C74132EDFB8D230945EF40C00076
:103840002244B240924441016F104079B240224478
:103850009244410182800111B717002022CC26CA70
:103860004AC84EC606CE1387075703478706AA895C
:103870002E8913770702938407570DC703C7413278
:1038800093070002631FF70013844132EF100075A5
:103890008347140089EFEF00D02E0DC1EF100026F2
:1038A000F5B7A13F03C741328947E31FF7FCF24058
:1038B0006244D2444249B24905618280CA854E853C
:1038C000EF00F03F6DF583C78406898BEDD3834706
:1038D0008900C18BE9DF624483254900F240D2446C
:1038E0004249B249414505616F2090215971CECEC0
:1038F00093992700B30736013ECEB3873601A2D491
:103900003EC68043B3073601A6D2AE848C43CAD0EC
:103910002A89228586D6D2CCD6CA328ABA8ADEC60F
:10392000E2C4C28B468CE6C2EAC06EDE36C4DAC898
:10393000EF60106EA2468A0BB3077A013ED0B387C0
:10394000760183AC07003EC8B3077A018C432ACACC
:103950006685EF60F06BCA99D2452ACC03A50900B1
:10396000B70700803D8CB3CC9701CA9BEF70300C39
:10397000AA89E24503A50B00034D0107EF70300B48
:10398000AA8BCE852285EF704061AA8DDE85668583
:10399000EF70A060AA856E85EF609067DE85AA8DC6
:1039A0002285EF70805FCE85AA8B6685EF70E05E22
:1039B000AA855E85EF70B007EE85EF40E03AAA89F0
:1039C00063090D0AEF70B067B7D7000003A687152B
:1039D00083A6C7152A8DAE8DEF606059634F050031
:1039E000B7D7000003A6071683A647166A85EE859B
:1039F000EF60206EEF70706FAA89B717002083AB5D
:103A0000C75CD6855685EF60B060DE85EF7030020A
:103A1000DE85EF708058EF40403537DD00008325AC
:103A20008D13AA8B4E85EF704057D685EF70E05608
:103A30000605DE850581EF704014EF404013EF70FE
:103A40007041931A050193DA0A01639D0A04265412
:103A5000B650F649664AD64A464BB64B264C964C6B
:103A6000064DF25DA6854A859654065965616FF04C
:103A70009FDEEF70D05CB7D7000003A6871683A641
:103A8000C7162A8DAE8DEF606059E348A0F6B7D710
:103A9000000003A6071683A647166A85EE85EF5039
:103AA000C07E89BF83CB84005685EF70104093F7AA
:103AB0008B00AA8D91CBAA85884093FB7BFFEF708A
:103AC000C04D88C023847401EE854E85EF70E00AF6
:103AD0000A0CB3078A014A9C8C43AA8903250C006F
:103AE0003EC4054BEF70A074EE85EF7000092AD23A
:103AF000CE854E85EF70604AB7D70000AA8503A532
:103B0000C714EF70C072B7D7000083A507152A8CC1
:103B10004E85EF708048B7D7000083A54713AA8B66
:103B20006285EF60F04EAA855E85EF7000478325C1
:103B30008D13AA8B6285EF704046938741322A8CA1
:103B4000014D3ED493170B01C183E3F257F1AD470A
:103B500063EDA709DE852285EF702044AA8DE285FA
:103B60006685EF708043AA856E85EF60704AAA8DE6
:103B7000E2852285EF7060422A84DE856685EF70DB
:103B8000C041AA852285EF70806A050D2A84137DC5
:103B9000FD0FEE8CD2452285050BEF607047F24792
:103BA000E24588C36685EF60B0468257925588C368
:103BB000A2478843EF60D045A247A68588C35285B7
:103BC000EFF07FC9A25783C71700ADDFB650265468
:103BD00096540659F649664AD64A464BB64B264C89
:103BE000964C064DF25D656182805A85EF70F02B30
:103BF000CE85EF70803A2A84EF30506F2A8D22856F
:103C0000EF40200BB24737070080AA8D9C43EA851E
:103C1000B98F42473E853ED6832C0700EF70E037D0
:103C20002A84EE856685EF704037AA852285EF608D
:103C3000303EB257EE852A843E85EF700036EA8525
:103C4000AA8D6685EF706035AA856E85EF70205E5F
:103C5000AA8C014D81B703C741328947630CF70035
:103C6000011106CE2AC6EF1080703245F240814520
:103C70000561C1AC8280411106C6EFF01F820D457F
:103C8000EFF0FF8E1145EFF09F8EEF10203583C7C8
:103C9000513289EFEFE08FEEEF001037B7E700E029
:103CA0003707000123A2E72823A2E710B240410111
:103CB0008280011126CA03C7413206CE22CC4AC8EF
:103CC0004EC652C456C289476307F70C32892E8A02
:103CD000AA89EF10C0699387413203C71700A68AEB
:103CE0009384413219CB0945F2406244D24442499F
:103CF000B249224A924A05618280135539000589EA
:103D0000A3820700EF00D053EF00D05911C911452D
:103D1000EF309033EF10802C0145EF007052E1B787
:103D20004E85D285EFF03FB385470945238DF132AB
:103D3000EF304077EF10802A83C71400CDF783C798
:103D40004132EDFB03C7A13385476393E704137644
:103D500009011DCA5146938501351385C133EF70A2
:103D6000B0590145238D0132EF00904DEF1000272F
:103D7000EF20D027B123EF003029EF10101D03C52D
:103D800054003335A0008DB71545EF30F02BD1BF6F
:103D9000A382F400F9B7014581BF83C79133C18B7A
:103DA000A9EB4111414506C6EF30C06FEF20E02B73
:103DB000EFE08FB903C741329387413283C7470091
:103DC0009376C702998BD58F95C39147631CF700F3
:103DD00083C74136194593F7F70F91C7B2404101A8
:103DE0006F20E05D0D45EF303026CDBFB240410180
:103DF00082808280797106D622D426D24AD04ECED5
:103E000052CC56CA5AC85EC662C403C705009306A0
:103E1000D0022A97834707006399D7048347170086
:103E200093042700854981480147014401482543FF
:103E3000130EE00FA14E938707FD93F7F70F63680A
:103E4000F30405071377F70F63EDEE0263850800AF
:103E50007D146204618493162800C2968606338816
:103E6000D700850483C7F4FFF9B79306B002930423
:103E700017006396D70083471700930427008149F2
:103E80005DB7E39008FE050462046184D9BF6396C0
:103E9000C701639408008548E9B721CF2A8B428582
:103EA0002E8AB28BEF70D00C930500002A89EF6048
:103EB000F07715C1B7D7000003ACC709FD5A6347B7
:103EC0005405631E5405B7D7000083A5C7174A855C
:103ED000EF70A00C2A8963860900B707008033C9F8
:103EE0002701B384644123A02B01FD1423009A0011
:103EF0000547B250225492540259F249624AD24ABA
:103F0000424BB24B224C3A85456182804A85E2851C
:103F10000904EF70800862042A8961844DB745DC8A
:103F2000B7D7000083AA07094A85D685EF70E00657
:103F30007D149377F40F139487012A896184EDF738
:103F400059BF4111B7D700004AC02E8983A5471732
:103F500006C622C426C2EF704004EF30F02BEF708B
:103F6000606F1314050141809384413215C483C7E7
:103F700014009DE3631C0900EF1040067D14130537
:103F800020034204EFD03F814180CDB7EF00B0382D
:103F900083C72400898BFDD3B24022449244024956
:103FA00041018280411126C2AE84AA8506C622C480
:103FB000EF60B07E2A84A6852685EF60107EAA85F4
:103FC0002285EF60F0042244B240924441016F30F8
:103FD000D059011122CC26CA4AC84EC606CE52C4B8
:103FE0002A8493094501AA841309000003AA040046
:103FF000930500005285EF60706311C9D285528528
:10400000EF60B079AA854A85EF6090002A89910413
:10401000E39E34FD4A85EF305055B7D70000AA859E
:10402000AA8403A50717EF6050352A890840CA857E
:104030001104EF609076232EA4FEE31934FFF240C2
:10404000624426854249D244B249224A05618280AF
:104050000111B7D7000026CA83A487174AC83709B9
:10406000008022CC52C456C25AC006CE4EC6AA8A7E
:104070002E8B01441349F9FF514AB3078B0083A9E2
:104080000700930500004E85EF60505A05C1B387C5
:104090008A008843CE85EF60502EB3792501A6852E
:1040A0004E85EF60705E6343A000CE841104E3167A
:1040B00044FDF240624426854249D244B249224A34
:1040C000924A024B0561828039714ED626DA83C44A
:1040D000018406DE22DC4AD852D456D25AD05ECEB3
:1040E00062CC66CA6AC86EC69389018499E093045B
:1040F000400283CA1184FD1493F4F40F138A1184CF
:1041000063839A0A1304C0033384840237090020AE
:1041100093078921130989213E944C50032B0402F3
:104120002E85EF60E06E0C54EF603067AA852A841C
:104130005A85EF60D05D63430500228B9307C0036F
:10414000B387F4022684CA9723AE670199E013046B
:1041500040027D141374F40F138B218463948A0638
:1041600083470B0063945701EF206071834A0A0074
:104170009304C00393074002B3849A0213841A0085
:104180001374F40FCA946313F400014403CC0900C0
:10419000014B930BC003930C400263158C0A63041C
:1041A0000B0023005A01F2506254D2544259B259C2
:1041B000225A925A025BF24B624CD24C424DB24DA3
:1041C000216182809307C003B384F402130CC003FF
:1041D000CA94B30B8403A28ACA9B19E01304400259
:1041E00083470B007D141374F40F63948700EF2052
:1041F0000069B38A8A03CA9A83AC0A0203A5CA017A
:10420000E685EF60B04215C583A54A022E85EF60B2
:10421000206083A58A02EF605058CC4CEF60405F6D
:10422000AA84AA856685EF603046635AA00023AE53
:104230009A0083470A00DE84E39D87F805BF23AE1A
:104240009A01C5BFB309740383ADC4016E85CA99D1
:1042500003ADC901EA85EF60904B63570502CC506E
:104260002E85EF60E05A8C54EF603053EE85EF609E
:10427000205AAA84AA856A85EF6010416356A0007F
:1042800023AE9900A28A054BB3077403CA978C53D7
:10429000C84FEF60B03919E1A28A054B05041374C9
:1042A000F40F631394010144CE84C5BD23810184BE
:1042B000238001840547A381E184A3800184828057
:1042C00041111306C00281451385810D06C6EFB06A
:1042D0003FF3B24041016FF07FFD83C6018403C606
:1042E0002184138721846385C6029307160093F700
:1042F000F70F930640026393D7008147938611849A
:1043000083C506006394C5002380F6002300F700F0
:10431000828083C701841305C003B387A7023705D2
:104320000020130585213E95828083C7218403C721
:1043300001840145630BF7001305C003B387A7028F
:1043400037050020130585213E95828083C721848F
:1043500013074002850793F7F70F6393E700814740
:1043600003C7018413050000630CF7009306C00324
:10437000B387D7023707002013078721BA97C84FA2
:10438000828003C5218483C731841D8D13351500B8
:104390008280411122C406C626C28347A501405926
:1043A00013F7170029C303C5D132EF700030B7D718
:1043B000000083A5C709EF60503EAA852285EF6003
:1043C000D03D2A84B7D7000083A407172285A6858D
:1043D000EF60902B6343A00026842285B2402244E4
:1043E000924441018280918BAA8485E303C5C13246
:1043F000EF70A02BB7D7000083A5C709EF60F03995
:10440000AA852285EF6070392A848458A285268582
:10441000EF60F02FE35805FA26846DB7797122D446
:1044200003C421845AC803CB0184B7D7000026D225
:1044300083A487174AD03709002052CC5EC606D61F
:104440004ECE56CA130AC00313098921930B4002AA
:10445000631F8B00B250225423A091100259925432
:10446000F249624AD24A424BB24B456182803305DF
:1044700044034A95EFF0FFF1AA89AA852685EF60EB
:104480001029635B0502A6852685B3044403EF600B
:10449000D030CA9483AAC40288D0D685EF60D01EDB
:1044A0006354A00023A0540305041374F40F631392
:1044B00074010144CE8469BFCE854E85F9B735714C
:1044C00056C34AC903C901844EC79309C003B3093F
:1044D000390322CD3704002093078421DEDEEAD899
:1044E000AE8B1306C0032A8D8145BE994E8506CF3B
:1044F00026CB52C55AC1E2DCE6DAEED6EFB05FD089
:1045000083C78B0003A74B00938A0184238DF90096
:1045100023ACE902898B1304842151466384071C70
:1045200093850135130AC003330A49034810EF701D
:10453000A05C371B00203567130C0B57930CC74446
:104540008144130B0B57229AB3079D0088438325A0
:104550000C00EF609024EF30406E1C08A69788C3D3
:104560005C10A6979C431D8D9356F541B3C7A600DA
:10457000958FB38699009CC2832D4A0163F3FD0099
:10458000BE8D232ABA01EF70401283250C00EF6024
:10459000C05E3C18A69788C393050000EF603017F3
:1045A0006359050083578A0183D60C00D58F231CDD
:1045B000FA009104D147110C890CE397F4F80145F6
:1045C00063830D109304C003B30499022818EFF01D
:1045D0005FA0371C00202C18A29488D413058C5996
:1045E000EFF01FA7C8D0371500202C181305455829
:1045F000EFF01FA603CAA40188D893771A00638638
:10460000070EC8D803C70A0083C721846306F700D2
:10461000137A2A0063060A0E9307C003B307F90250
:1046200013070000A297D8CFD8D79307C003B307CA
:10463000F9020545A29783C7A701898BC9E74E8573
:10464000EFF03FD59387810D03AB8702AA85AA8936
:104650005A85EF60D00B138A810D6354051ADA85F1
:104660005A85EF6090139307C0033309F9024A9407
:104670000329C40208D0CA85EF6010016354A0006A
:104680002320240351462C1813054A0123243A03FE
:10469000EF70804651460C081385810DEF70C045C0
:1046A00083C7318493064002138731842380FA0044
:1046B000850793F7F70F6393D70081472300F7002F
:1046C000EFF09FA00545FA406A44DA444A49BA49E6
:1046D0002A4A9A4A0A4BF65B665CD65C465DB65D32
:1046E0000D6182809385810D35BD83A50B00937785
:1046F0008A00CCD8E38807F08854EF60100A11B71D
:10470000138A810D8144930B0000D14D3C18A6976C
:1047100083AC0700032D4A01110AE6856A85EF6024
:10472000D007AA855E85EF609030FC00A697AA8B23
:10473000EA8566853EC6EF60902FB247910488C334
:10474000E396B4FDB7D7000083A507185E85EF6038
:10475000A073635AA0009307C003B307F9021307BD
:104760000000A297D1B5B7D7000083A547185E8592
:10477000EF60E079635C05009307C003B307F902BB
:1047800037D7000003278717A29779BDE800EFF01D
:104790005F84EC0013058C59EFF09F8BB7D40000B9
:1047A0002A8C03A50417DE85EF607028B7D70000B8
:1047B00083A58713EF60607EEF30205B83258B0538
:1047C0002A8A6285EF60607DD285EF60007D2A8B4A
:1047D00003A50417D285EF609025AA855A85EF605E
:1047E000C03993050000AA84EF606072635405002D
:1047F000930400009307C003B307F902A297C4D73C
:104800002DB5CE854E85B1BD83A601359387810D2B
:104810001387013594C35443D4C3144794C75447F2
:10482000184BD4C798CB828003C7018483C72184E7
:10483000138537026374F7001385F7FF198D13751D
:10484000F50F8280411106C6EF20600303C7218463
:10485000B240A380E18441016FF01F87411122C45F
:1048600006C62A840305040009E5B240224441013A
:1048700082801375F50F0504EF108062E5B74111D2
:1048800006C622C426C29307300663F1A702A947D1
:104890003374F5023355F50213040403A947B374C6
:1048A000F5023355F5029384040331A0A547014472
:1048B0008144E3E5A7FE130505031375F50FEF101B
:1048C000205E81C42685EF10A05D01C822852244A8
:1048D000B240924441016F10A05CB2402244924425
:1048E00041018280797126D2AE849305000022D4E2
:1048F00006D64AD04ECE52CC2A84EF60406163592E
:1049000005001305D002EF10A059B70700803D8CB9
:10491000B7D7000003AA47092689854963EC290710
:1049200093D714007957B387E702A69793F7F70F49
:1049300089CBB7D7000083A507092285EF60E06522
:104940002A84B7D7000083A5871322850144EF503E
:10495000306CEF60104A294739E5B307810013072F
:10496000000363619406631C940018089307140005
:104970003A94130700032308E4FE13F4F70F3309F6
:10498000810021E8B250225492540259F249624AFD
:10499000456182802285D285EF60206079192A8462
:1049A0001379F90FA5BF1C08930614003E94B37742
:1049B000E502938707032308F4FE3355E50213F459
:1049C000F60F59BF05042380E7001374F40F850721
:1049D00049BF631694001305E002EF10604C0345D5
:1049E000F9FF7D141374F40FEF10804B7D1951BF44
:1049F000B717002083C7875D8D45858B81CFB7D7DB
:104A0000000083A58718411106C6EF600059B24027
:104A1000914541016FF01FEDB717002083C7875DF7
:104A20008145858B81CFB7D7000083A587184111B9
:104A300006C6EF608056B240854541016FF09FEA9F
:104A4000371700200307875DB7270020239C07A89E
:104A50006346070013070008239CE7A819C503D77E
:104A600087A913470708239CE7A882800111854581
:104A7000114506CEEFD06FAE8D473EC437150140CD
:104A8000930780043EC64C00930700081305058079
:104A90002312F100EFC07FEB0145EFF07FFAF24007
:104AA000056182803715014041111305058006C656
:104AB000EFC0DFF5B727002083D787A9B240137571
:104AC00005083385A7403335A0004101828041119C
:104AD00006C6EFF03FFD05C15146938501351385AC
:104AE000C133238D0132EF70200183C7913393E7E7
:104AF0000704A38CF132B24041018280411106C605
:104B0000EFF0BF8211C5B240094541016F209019F5
:104B1000B24041018280011126CA83C4413622CCB1
:104B20004AC806CE4EC693F4F40F99CC8547268525
:104B30002382F132FD14EF00501693F4F40F8547F1
:104B400063F99702EF20905183C4913393F4F40FEB
:104B5000638D042093F7040185CB1384413285478C
:104B6000A300F400F2406244D2444249B2490561D4
:104B700082800545EF0030154145EF20104B83C77B
:104B80009133C18BEDDF7DBF93F7140091C7EF0028
:104B900030740545EF20704993F7840E638C07103D
:104BA00083C741329399840193D9894113F7370020
:104BB00079EB93F787029DCB138941328347290014
:104BC00093F7070C85E7EF10904B03C741328947F5
:104BD0002302F90093070002631AF70063C8090073
:104BE0008347290093E707F82301F90083C741327F
:104BF00091E71387413285462301D70013F7040458
:104C000001CF13F7070209EB9386413203C7260051
:104C1000136707042381E60013F7840019C793F78D
:104C2000070E81E7C1472382F13293F70402A1CF37
:104C30001945EF0050099387413283C72700138736
:104C4000413293968701E18663C9060283C64132E9
:104C500013060004639FC60093F6870091C68D9BE0
:104C600093E727002301F700930700042382F13222
:104C700029A093070008E399F6FE8347270093E7EE
:104C800007022301F70063D3090203C741328547B6
:104C9000631AF700138741328347270093E75700D1
:104CA0002301F700930700F82382F1321305800EE9
:104CB000EF20B03793F72400B5C393F78406A1EF34
:104CC00003C7413293070004631FF7001387413283
:104CD0008347270093F6070299E693F60701638B53
:104CE00006242382013283C74132638E072413F7DF
:104CF000070115C31387413283462700858A81CE79
:104D0000C1466392D7248347B700638E072293E797
:104D10008700A305F7000945EF2030319188B1C421
:104D2000938741320387270083C7413293844132FE
:104D300093F7070D6386072483C734006392072423
:104D400063420724EFF01FB083C7440013F7270026
:104D500019C703C72400136717002381E400E59BEC
:104D60002382F4001145EF20502C83C4013293F4C8
:104D7000F40FCDC4EF2010339387413203C5870071
:104D800013F7140093864132AA8719C3930740068C
:104D900013F7240001C7A90793F7F70F13F744008F
:104DA00001C7D91793F7F70F13F7840001C78507D9
:104DB00093F7F70F13F7040101C7FD1793F7F70FE8
:104DC0001306800C3E876374F600130780FC13768D
:104DD000F70F2947B2876373E600A94783C596009A
:104DE00013F604022E8719C21307400613F60404B3
:104DF00019C213072003E204E18463D3040065476A
:104E00006314F500630CB7002384F600A384E60066
:104E100023860600EFF08FE0EFF0DFA283C481333A
:104E200093F4F40F638A040EEF2010299387413224
:104E300003C6A70093F6140013874132B28799C2C4
:104E40009307400693F6240081C6A90793F7F70F4E
:104E500093F6440081C6D91793F7F70F93F68400B1
:104E600081C6850793F7F70F93F6040181C6FD17F6
:104E700093F7F70F9305800CBE8663F4F500930655
:104E800080FC93F5F60FA946AE8763F3D500A947DA
:104E900093F6F70F630CD600834647002305F7000F
:104EA0002306070093E686002302D70093F6040248
:104EB00083C7413299CAC1466399D7008346B70078
:104EC000639106108946A305D70013F7040C29C780
:104ED00099C3E18BB1C3B72700201387C79E03494D
:104EE00087001397840161879389C79E63590700E0
:104EF00093178901E18763DD070C1379F90793F4B0
:104F0000040491C493770904F9C71379F90B4A850E
:104F1000EFD06FAD2384290183C7413293F7C70FC8
:104F2000E38207C46244F240D2444249B249056177
:104F30006F10701893F64700E38706DA93E787004F
:104F40002301F7004DB31389413223020900EFF02A
:104F5000CFBD05C18347290093F7070499EBA1470B
:104F60002382F13223010900EF10F014EF10803B8F
:104F70005DB393874132238107002382013261BBF5
:104F8000635C070023820400EFF08FB3EF1010067C
:104F9000EFD0CFBEEFF05F8783C7240013F707027F
:104FA00001CF93F7F70793E717002381F4009307E6
:104FB00000042382F1327DB3238104002382013275
:104FC00055B313F61600E30206F093E64600E5BD7E
:104FD000136909082DB71369090415BF79714ECEFD
:104FE00006D622D426D24AD052CC56CA5AC85EC659
:104FF00062C4EFF05FB29387413283C72700F9CBD9
:1050000013844132EFF06FB251EDB7270020938740
:10501000C79E03C9970003C7870083AAC7003369E7
:10502000E900371A002093070A5783C78706130A37
:105030000A57898B89C713050002EF201005B7D7DF
:10504000000083AB0717B7D7000003AC4713B724A2
:105050000020137B09039384C49E83472400BDCBA7
:105060000347140025EB13F7170015CB03C7413294
:105070009376070C63850610918B95EB93050000E2
:105080000145A3050400EF10601F0145EFD0AF9567
:1050900083472400F59B93E747002301F400EFF0DA
:1050A0009FA765BF0349A501832A85039DBF930779
:1050B00000086310F7042D453921930500000145D0
:1050C000EF10C01B0145EFD00F92EF10402F834728
:1050D000140089CFB250225492540259F249624AC4
:1050E000D24A424BB24B224C45618280EFF0BFA2C4
:1050F000F9BF93070004631BF700EF20A02819E510
:105100008347240093F7F7FD2301F400834724002D
:1051100013F7870049D703C7940009CF898B99EB10
:1051200083478A06898BB9C38347440093E7870086
:105130002302F40083C7840089CF83472400898B2E
:1051400089EB13750904EFD00F8A85455E85EFE082
:105150005FDF8347240013F7270031F393E707014C
:1051600009452301F400EF20E03315BFD6855A85A9
:10517000EF10C01085456285EFE0BFDC65BF834757
:10518000B400ADC313F7270009CF83C79400B9C398
:10519000930500000145EF10600E8547A305F4005C
:1051A000FDBDB18BE38D07EE83C7940089CF294500
:1051B000192E83478A06898B8DC38347440093E762
:1051C00087002302F4008347B400A18B81C70945FF
:1051D000EF20402DA3050400D9B5D6855A85EF10E0
:1051E000E009D5B783474400A18BE38A07EAD68557
:1051F0005A85EF10A00883474400DD9B2302F4008A
:1052000079BDB717002083C7875D79714ECE06D66A
:1052100022D426D24AD052CC56CA5AC85EC662C4DC
:10522000A18B89CBEFE04FA811C585471D4523828F
:10523000F132512C83C7413293F71708A9CB0945A6
:10524000592485472382F13281440144930AF00FA7
:10525000138A4132294B13894110930B4002354C7C
:10526000EF00504763175505EFF05F89EFF01FD748
:1052700083471A00F5D7B250225492540259F2498A
:10528000624AD24A424BB24B224C45618280238211
:105290000132EF20200F09C983C7913393E707023A
:1052A000A38CF132EFF09FD313854110EF20C00D96
:1052B00061BF6304650163178505EFF03FD2834743
:1052C0001A00D5FBCA94238004000588EFB00FA212
:1052D0002D4509E48307090091E7014571228144C6
:1052E0000144BDBF639677014A85EF20401DFDB79D
:1052F00083C74132254593F71702EDF34A85EFD076
:10530000EF88E9BF19C893079002E31BF5F4937780
:105310002400B9D71374D40FA1B793070002E3F1A7
:10532000A7F49307F002E30DF5F293078002630AF6
:10533000F5029307B0036308F5029307800563E65F
:1053400097021307F5F9A6871377F70F8504E5464B
:1053500093F4F40FCA9763E3E60001152380A700D6
:1053600001B70944F5BD1144E5BD0544D5BD411162
:1053700022C426C24AC006C613894132EFF00FF894
:10538000A144EFF0BFC58347190081EBEFE0FFF9BF
:105390006DF983C74132E38697FEB24022449244BE
:1053A00002494101828037D50000130505D76FF00F
:1053B000EFCA41111305D00506C6EF00702EB240AA
:1053C00041016FF05FFE011122CC26CA4AC84EC6C9
:1053D00006CE2A8901449149954493172400CA971F
:1053E0008843EFF0EFE0630634011305C002EF00DD
:1053F000302B0504E31394FEF2406244D244424948
:10540000B24905618280411122C42A8413054002F9
:1054100006C6EF00F0282285EFF06FC62244B240A6
:105420001305D00341016F00B027011106CE2EC62F
:10543000EFF07FFDB24513F5F50FEFF04FC4F240EA
:1054400005616FF05FF6011106CE22CC32C62E84C4
:10545000EFF07FFB32462285B285EFF0AFC86244A1
:10546000F24005616FF03FF419E537D500001305F0
:10547000053C6FF0AFBE411122C42A8437D500002D
:105480001305853C06C6EFF06FBD2285EFF02FBFF8
:105490002244B24041016FF01FF1411122C42A841D
:1054A00037D500001305851B06C6EFF02FBB2285FC
:1054B000EFF0EFBCEFF03FEF2244B2401305401F86
:1054C00041016FC04FAD411122C42A8437D500007D
:1054D0001305C51D06C6EFF06FB81305F4FF13756D
:1054E000F50FA94763EFA700B5679387C7180A05AB
:1054F0003E951C41828737D500001305451EEFF00D
:10550000EFB52244B24041016FF0BFEA37D5000049
:105510001305851FEDB737D500001305C520C5B7A6
:1055200037D5000013050522D9BF37D50000130574
:105530008522F1B737D5000013054523C9B737D504
:1055400000001305052465BF37D5000013050525A8
:105550007DB737D500001305852555B737D5000031
:105560001305C52669BF37D500001305052841BFBF
:1055700037D500001305C52F6FF04FAE37D50000AB
:105580001305C52A6FF08FAD397156D2B71A0020B6
:1055900006DE22DC5ECE13840A5762CC66CA6AC875
:1055A00026DA4AD84ED652D45AD06EC68345040560
:1055B0000145938A0A57EFF05FE783456405054587
:1055C000A94BEFF09FE6835524050945B70C0080F1
:1055D000EFF0BFE5835544050D45054DEFF0FFE4C1
:1055E00083458406114589818589EFF01FE4834551
:1055F0008406154599818589EFF03FE3830584068C
:105600001945FD81EFF07FE2834574052945EFF0F0
:10561000DFE12C4C0D462D45EFF0FFE26C4C0D46C2
:105620003145EFF05FE28345840635458589EFF02B
:10563000DFDF83458406514595818589EFF0FFDEE4
:105640008345840655458D818589EFF01FDE8345AE
:105650008406594591818589EFF03FDD8355A40685
:105660005D45EFF09FDC6C540D466145EFF0BFDD0A
:105670002C580D466545EFF01FDD835544076945FD
:10568000EFF0BFDA2C5C0D466D45EFF0DFDB2C5000
:1056900001467945EFF03FDB6C5001467D45EFF068
:1056A0009FDA8345840613050002014485818589BC
:1056B000EFF0BFD7B7D7000003AC872F330A7403CE
:1056C00056898144894D154B130A4A06137AFA0FFD
:1056D000B3099A0093F9F90F630BB4058D47630082
:1056E000F4060D466302A4058325090085044E8552
:1056F00093F4F40FEFF03FD51109E39B64FD05042B
:105700001374F40F9147E31BF4FAF2506254D2542D
:105710004259B259225A925A025BF24B624CD24C15
:10572000424DB24D2161828083254901C1B70325D5
:105730008902E285EF5060440D46AA8545BF832566
:10574000C9030D46B3C5950155B737D5000079712A
:105750001305853306D6EFF06F909385C13368004B
:10576000EF10F04A6800EFF01FC61305A003EF002A
:10577000207303C59132EFF08F90EFF09FC3B250CA
:1057800045618280397122DC26DA4AD84ED652D45D
:1057900056D25AD006DE014437D90000994937DA8B
:1057A00000009D4A37DB0000A1446C002285EFB069
:1057B0007FC715E537D500001305853CEFF00F8A4C
:1057C0001D45EFF0CF8BEFF01FBEF2506254D25464
:1057D0004259B259225A925A025B216182801305C2
:1057E000C931EFF0AF87630B3401630A5407130527
:1057F00064031375F50FEFF08F8829A013050A32A3
:10580000EFF0CF851305A003EF0080690504680061
:105810001374F40FEFF03FBBEFF0BFB9E31794F848
:1058200037D5000013058532EFF04F833725002070
:10583000130505A3EFF03FB9EFF0BFB737D5000070
:1058400013050533EFF08F81B727002003A547A488
:10585000EFF00F9AEFF0FFB5EFF03FEFBDB7130594
:105860004B3279BF37D5000041111305C52822C43A
:1058700006C626C237240020EFE05FFE0345C49E23
:105880009307B00863FEA70037D50000130545292C
:10589000EFE0DFFC0345C49E130565071375F50FA4
:1058A000B7D40000EFE0BFFD138584291304C49E24
:1058B000EFE0DFFA03456400130565031375F50F88
:1058C000EFE0FFFB13858429EFE05FF90345440017
:1058D00045051375F50FEFE09FFA13858429EFE076
:1058E000FFF78347240055451D8D1375F50FEFE035
:1058F0001FF913858429EFE07FF603453400130573
:10590000A5051375F50FEFE09FF713858429EFE0E8
:10591000FFF4834714001305E005B7D400001D8D84
:105920001375F50FEFE0BFF58347740037240020AF
:105930001304C49E95C71385C429EFE03FF20345C5
:1059400074008D47630BF500F9476305F50089473F
:105950006318F500EFE0BFF221A0130500038923CF
:105960001385C429EFE09FEF834794004147638A82
:10597000E700130700026386E70899E71305500361
:1059800019A013053003292B83478400B5CFE20704
:10599000E18763D907001385C429EFE03FEC1305C5
:1059A0007003FD298347840093F7070481CB138597
:1059B000C429EFE0BFEA13058003DD2137D50000DD
:1059C0001305052AEFE09FE903454401EFE03FEBB3
:1059D00037D500001305452AEFE05FE80848EFF0EF
:1059E000AF8337D500001305852AEFE03FE7484431
:1059F0008145EFE03FEF2244B240924441016FF015
:105A00005F9B1305400341B71385C429EFE01FE5F1
:105A1000130590035DB7011122CC2A8437D500000D
:105A20001305C53B06CE2EC6EFE05FE32285EFE00F
:105A30001FE51305D003AD21B2452E85EFE01FE22F
:105A40006244F24005616FF01F96011122CC2A8456
:105A50001305E00306CE2EC6A1212285EFE01FE04C
:105A60001305A0033529B2456244F2402E85056135
:105A70006FF09F9F411122C42A8437D5000013057F
:105A8000051C06C6EFE09FDD2285EFE03FDDEFF06D
:105A90005F9237D500001305451DEFE03FDC13058D
:105AA0006005FD2E1305D004E52E1305C002CD2E92
:105AB00013053002EFE0BFDC1305C002D526130545
:105AC000E00FEFE0DFDB2244B24041016FF07F8E58
:105AD0005971514693850135480086D6A6D2A2D485
:105AE000CAD0CECED2CCD6CADAC8DEC6E2C4E6C2AE
:105AF000EF6080004C002808EF1070111305C00300
:105B0000452683C7413221476384E71E6361F71846
:105B10000547638EE71E6386071C0947638EE71EF1
:105B200011476381E71EB717002013870757834982
:105B30007705138B075793F91900638E0920938714
:105B4000413283C7D7006388072037D5000013058B
:105B50000538EFE0BFD02808EFF0FF8683477B05CC
:105B6000898B8DC337D5000013050539EFE01FCFB2
:105B7000EFE09FCBEFE0BFD01305C002152609264A
:105B8000EFE0FFCF37D5000013058539EFE01FCDDB
:105B9000EF108052EFE05FE81305C00211269387F3
:105BA0004132884B8145EFE0FFD3EFD0FF8F2A8948
:105BB000EF10A074AA89EFE0FFEEB3673901C98F37
:105BC00093F7F70F2A8A13844132D1C337D50000E7
:105BD0001305053AEFE09FC863050A0013050005A9
:105BE000C124630109049377190081C71305800557
:105BF000452C9377290081C7130590055524937789
:105C0000490081C71305A005612C9377890081C7DE
:105C100013051004712413790901630509001305A4
:105C20002004BD2C6385090293F7190081C7130571
:105C30002005BD2493F7290081C7130580048D2416
:105C400093F949006385090013053005912C8347BA
:105C5000D40063860716FD17A306F4008347C4002B
:105C600063880718FD172306F4001305E0030D2CC5
:105C7000EFF06FF3B650265496540659F649664A2B
:105C8000D64A464BB64B264C964C6561828013072C
:105C900000026384E7066369F7024147E395E7E89A
:105CA000138441328307240063C9070437D50000F9
:105CB0001305C534EFE09FBA83472400858BC9CB19
:105CC00013050003F12A85B513070004638BE7046D
:105CD00013070008E399E7E437D50000130585377B
:105CE00029A037D5000013050534EFE03FB725BDE7
:105CF00037D5000013058534CDBF37D50000130517
:105D00004535E5B737D5000013058535F9BF37D5DB
:105D1000000013050536D1BF37D5000013058536C1
:105D2000E9B737D5000013050537EFE03FB3938798
:105D3000413283C727001305300313F7870059F357
:105D400013F747001305200335DF93F70702ADDB98
:105D50001305100385BF372400209307C49E03ACAE
:105D600087051304C49E930AC102130A81010149E5
:105D7000894C954B6C400858EF40902923A0AA000D
:105D800063169901E285EF40B0282ADA639A090088
:105D900003250A0083A50A00EF5060492320AA00CA
:105DA00005091379F90F1104910A110AE31479FD19
:105DB000E39D09D837D500001305853859BB83C743
:105DC0004132754793F7C70791E325478347C400DE
:105DD000A306E40081E785472306F40037D50000D9
:105DE0001305853AEFE09FA76810EFF0CFDDBDB552
:105DF00083C741324D4793F7C70791E3254737D50E
:105E000000001305053B2306E400EFE03FA5034532
:105E10008400EFE0DFA61305C0025920034594007B
:105E2000EFE0FFA51305C002A5280345A400EFE09D
:105E30001FA5012CAA84EFC08FADB3E7A40093F790
:105E4000F70F2A84E38307E237D500001305853B6B
:105E5000EFE0DFA089C88547130530056384F400AF
:105E60001305300435289377140081C713056004A7
:105E700005280988E30B04DE1305D0041520F5B3CB
:105E800083C7518403C7418493F7F70F1385E7FF56
:105E90006374F7001385F7FF198D1375F50F828072
:105EA000411122C43744004026C24AC006C6AA8413
:105EB00013090440930500044A85EFC04FA07DD923
:105EC000130504402244B2400249A6859244410190
:105ED0006FC0AF9D9387518483C7070003C6418479
:105EE0001305F00F93F7F70F938651846303F602BF
:105EF000372700201307C7B13E97850703450700E2
:105F000093F7F70F1307E00F6393E70081472380B0
:105F1000F6008280411122C637440040930550525A
:105F200013050440EFC06F9A31CD13050440EFC054
:105F30006F989377F50F13071002638DE70463677B
:105F4000F7026147638EE70262056185635B050ABC
:105F50009387C70793F7F70F75476365F7023567B0
:105F60008A071307073DBA979C4382871307F003FC
:105F7000638EE7001307E007E398E7FC094501A8F3
:105F8000EFD0BFE132444101730020300545EF10EE
:105F90006051CDBF2145E5BF13050002CDBF83C7CA
:105FA000413293F70702F9DF13050004CDB7054529
:105FB000EF10100CC1BF0945E5BF1145D5BF214504
:105FC000C5BF4145F5B713050002DDB71305000451
:105FD000C5B713050008E9BF0545EF10100B5DB705
:105FE0000945E5BF1145D5BF2145C5BF4145F5B7B9
:105FF00013050002DDB713050004C5B7130500083B
:10600000E9BF03C641849305E00F938641841307DB
:1060100016001377F70F6313B700014783C5518448
:10602000E302B7F6B72500209385C5B12E9623006D
:10603000F6002380E600B9B703C74184A382E18458
:1060400082803715014041111305054006C6EFB0A7
:10605000FF9B9377F50F13F72700014501C713F551
:1060600017000505B24041018280373501404111DA
:106070008145130505C006C6EFB0DFEBB24037150A
:106080000140014689451305054041016FB09F99C4
:10609000B717002093870757EC53A853397106DED2
:1060A00022DC26DA4AD8EF508018B7D70000AA853C
:1060B00003A58744B7140140EF40302C23A4A184EA
:1060C000854513050002EFB05FC90D49414485477E
:1060D0004C08138504404ACC22CE231AF100EFB0BD
:1060E000DF8689474C0813850440231AF1004ACC07
:1060F00022CEEFB09F850565854513050580EFB07D
:10610000DFC5280002D002D202D402D6EFB05FDF92
:10611000B707002083A7471B37470F001307072443
:10612000B3D7E702373401402C00130504C0231510
:10613000010023080100FD172314F1009307300626
:106140003EC6EFB0FFC5C167938707060C10130565
:1061500004C03ED02313010223140102EFB05FD02C
:10616000130504C0A145EFB0BFDF130504C081458E
:10617000EFB05FDC130504C08545EFB0FFD985455E
:106180001145EFB09FBDE1473ECE4C08930700108C
:10619000138504804ACC231AF100EFB00FFBEFF017
:1061A000DFECF2506254D254425921618280B737F9
:1061B00001402A87138507C0231AE502814511C3D0
:1061C00085456FB03FD7B717002001119387075758
:1061D0004AC84EC603A9470683A9070626CAAA8449
:1061E000CE854A8522CC06CEEF40104A1384413238
:1061F000635605020345A400EF50204BB7D70000BB
:1062000083A5C709EF407059A685EF401059AA84AD
:10621000AA854E85EF40B04F634DA000232834017E
:1062200013054006F2406244D2444249B249056136
:106230008280A6854A85EF4030456340050293057C
:1062400000002685EF40903E09E5930700001CC83A
:10625000D1BF232824010545F1B7CA8504C8268586
:10626000EF40F07C83A58184EF403053EF10301075
:10627000EF50403E0505420541816DB7411122C4F2
:1062800006C626C24AC09387413283C7170081EFF2
:10629000AA841384413211ED930700001CC8EFF06B
:1062A000DFDC23060400B24022449244024941014B
:1062B0008280C1472E8901466303F50005463715E4
:1062C0000140854513050540EFB0CFF5B717002015
:1062D00083C7875D898B99C7930700026394F40095
:1062E000130900004A85EFF01FEEEFF05FEC371561
:1062F00001400546894513050540EFB0AFF255B79B
:1063000003C741328947630EF700011106CE2EC63E
:106310002AC4EFF0CF85B2452245F24005616FF007
:10632000FFF5828041113717002022C406C693076B
:10633000075783C787063725014013040757918BFA
:10634000A16513050580ADCBEFB04FED83D7C185B7
:106350009386811E239CF600B707002083A7471B66
:1063600037470F0013070724B3D7E7020347040595
:106370008545B2402244B387E70237070040C20791
:10638000C183239BF6002316F742231AB740F9571F
:106390002318F7409C5E83D72700FD17C207C183EF
:1063A0002316F702231AB7008357070093E7170055
:1063B0002310F70041018280EFB08FE641BF37071D
:1063C000004083570700411122C4C207C183F99BD3
:1063D000C20706C6C1832310F700231207022386D3
:1063E0000184B717002013870757034567059306F5
:1063F000F00F03C7413213840757631DD50283C7CB
:10640000413693F7F70F9DE7930700086308F702FB
:10641000814703478406118B19C393C7170037259B
:106420000140A1651305058091CF2244B24041018E
:106430006FB0CFDE91468147E30DD7FCEFB0AFB52B
:106440008547C1BF2244B24041016FB06FDDB7063E
:10645000004083D70601858B6383072C411126C436
:1064600022C64AC2F9572398F6009387C184239223
:10647000060283C707009384C18493F7F70F6390E4
:106480000728B72701401389811E03A6C780035739
:10649000A9011384811E1376A6EA13775715518F2D
:1064A00023A6E78071562398C64003A7C7800356EA
:1064B0008901137757D5518F23A6E78083D70640EC
:1064C00093E717002390F64085472380F400832745
:1064D0008903DDE79387518503C7070003C641851C
:1064E0006302E62083C707001386811913953700DE
:1064F0002A968355260010DCFD15C205C18123961E
:10650000B602835706008346460003462403231839
:10651000F402938781196302D60271472309D402DA
:10652000B386E60213874122369758D8584B058325
:1065300018C858C418C458C018C0585803D6E184A5
:1065400083568701AA9703D56700B18E231DD40017
:10655000104383C657003356D60050CC50433356B1
:10656000D60010D010473356D60050D05047184BA5
:106570003356D600B356D70010D454D4EFF03FC3EF
:1065800083C7A13305476314F700EFE04FD41840E9
:106590005C4C5458231C04003E97DC4A18C063F13D
:1065A000E70283D5860109461D8F231CC40018C04D
:1065B000858903A70135638A05147D1723A8E13473
:1065C00058401050329758C063F4E70203568401D4
:1065D00083D586011D8F13668600231CC40058C016
:1065E0001386013591895842638305127D1758C27D
:1065F00018445050329718C463F4E70203568401DC
:1066000083D586011D8F13660602231CC40018C49F
:1066100013860135C1891846638D050E7D1718C68E
:1066200058441054329758C463F4E7020356840167
:1066300083D586011D8F13660608231CC40058C429
:106640001386013593F505045846F1C57D1758C6E4
:1066500018485054329718C863F5E702035684016E
:1066600083D68601B307F740136606201CC813873C
:106670000135231CC40093F606101C4BD9CEFD1720
:106680001CCB83C641321147639BE600938741329E
:106690000357840183D76700F98F231CF4008357C5
:1066A0000403FD17C207C1832318F40295E39387FF
:1066B000518583C70700232C0402A946850793F759
:1066C000F70F138751856393D70081472300F700A5
:1066D0008357840103D7C18523800400B98F231C0D
:1066E000F40031A8EFF0BFCD8327490383C7A7018A
:1066F00081C70145EFF0BFAB1145EF00B05A3244FE
:10670000A2441249410173002030050745BD050729
:10671000F9BD050729B705071DBF850795B77300A4
:106720002030372701408326C78083D7C18593F661
:1067300056D593F7A72AD58F2326F7803707004031
:106740008357074093060740C207C183F99BC207DE
:10675000C1832310F740F1572318F7402312074253
:1067600073002030B71700209387075735653568C9
:10677000239E01842397018403DF270583DF4705D8
:10678000014381470146014E81459386C1851387A8
:10679000E1841305C5461308C844954EB358FF401D
:1067A00093F81800638A080093981700AA9883D872
:1067B0000800054EB3E51501B3D8FF4093F8180063
:1067C000638A080093981700C29883D8080005438D
:1067D000336616018507E393D7FD63040E0023900B
:1067E000B600630403002310C7008280411106C66F
:1067F00022C4EFF0DFBC1306800381451385011628
:10680000EF901FA01306C0031384811E81451385DA
:10681000811EEF90FF9E23A80184A38A018405476F
:10682000238A0184238BE18423860184EFF09FF384
:1068300003D6E18437070040231DC4008357074077
:10684000858BEDFFF1572318F740B727014003A7C9
:10685000C78083D6C185B240137757D593F6A62A51
:10686000D98E23A6D78003A7C78022441376561556
:106870001377A7EA518F23A6E78041018280411157
:1068800022C41384018526C2044006C685C09387AE
:10689000011603C71700CC4F13671700A380E7004A
:1068A0002E85EF40806FC8CC23200400B2402244E4
:1068B0009244410182801971CAD886DEA2DCA6DA30
:1068C000CED6D2D4D6D2DAD0DECEE2CCE6CAEAC870
:1068D000EEC69387413283C74700858B6393076673
:1068E000B7D7000083A78746138941323EDE03C72E
:1068F000518583C66185938761853ED46383E66451
:1069000083A70185938A0185DDE783474900918B41
:10691000638F071AEFD0FF9F23A0AA0003AA0A00E3
:1069200063010A629387011603CB170013840116D3
:1069300093771B006380071AA300040093070000ED
:106940001CCC032B4A02B7D7000003A58713DA85B6
:10695000EF40A02283474900AA8483298A0213F7C3
:10696000270063040726032ACA018947AA85230A48
:10697000F4005285EF406062AA854E85EF40300BEF
:1069800093050000AA84EF408058635B0522DA85F6
:106990005A85EF30F067CE85EF402060AA8552859A
:1069A000EF40F008EF10603C48D08347490093E780
:1069B00087002302F90003CB418513870116834624
:1069C0000700938781190E0BDA972382D70083A7DC
:1069D0000A000C4B138401163EC49C57938D8119F9
:1069E0003E853ED2EF40B004930500002AD8EF4028
:1069F0000052938741853EDC6355050093070000F4
:106A00003ED81C54032D0402444C3EC85C54C2457D
:106A10003E853ECCEF408041894711C185473EDA33
:106A20001C4C034C4401925C3ECE5C5013070000AA
:106A3000814B3ED6B7D7000003AA474602CA3AC6E2
:106A400052D085476300FC3A63020C328D476317CE
:106A5000FC3CA2475285CC53EF402054AA8BEA85D8
:106A60002685EF40C07CDE85EF40604A6348A02C5D
:106A7000C2451255854B054CEF40607BAA85EF302F
:106A80003059AA89EA852685EF309058AA854E8527
:106A9000EF40A00EC24985472A8AEA843ECA3245A1
:106AA000D285EF30F0562AC6AA850255EF40C03D88
:106AB000635FA03CB2450255EF4060772A8A724579
:106AC000CE85EF40C044635A053CCE8C9DBFEFD0CD
:106AD000DF8599B583490400A547850993F9F90F26
:106AE0006393F9008149F147B387F9021387412283
:106AF000230034019384412251463E9723ACE18424
:106B000083578A01231CF7008147B306FA00944299
:106B1000B305F70091078E0694C1E398C7FEF147CD
:106B2000B387F90203254A0113173500A697D8CB7E
:106B3000EF40104483258A0208C4EF400004AA8570
:106B400048C47255EF406003930700005CC0834760
:106B5000490013778B0008C8898BD98FA1CF4C507F
:106B6000137B7BFF4CCC2E85EF402043232EAA00C5
:106B7000A3006401F147B389F902B717002083C766
:106B8000875D898BA699238D0900E38907DA8347FE
:106B9000AA0193F70702E38307DAB7D7000083253A
:106BA0004A0303A50717EF30507D854708D8238D8A
:106BB000F90069B30325CA01EF10201B48CC5DBF63
:106BC0009307000004CC5CD0CDB3230A0400232437
:106BD0003403918BC9C7930700005CD03E8B03A59B
:106BE0000A00EFD00FFBAA852A8DEF40003B03ACD3
:106BF0000A00AA89AA85032ACC01832C8C0252851B
:106C0000EF4080286352A008CE855285EF40206275
:106C1000A685EF408038AA856685EF40406108D49C
:106C200093050000EF40A02E6342A00483254C0290
:106C30008947230AF4002E85EF30903DE685EF402A
:106C4000C035AA855285EF40805EEF100012834761
:106C5000140048D093E78700A300F400B9B3EFD045
:106C6000EFEE2A8BEF10601048D095BFDA854E8585
:106C7000EF40E05BA685EF40403248D42320A403D8
:106C80008D47230AF40015B3DA855285EF40205A68
:106C9000A685EF408030E685EF309037B7D700000B
:106CA00083A58713EF40602F93050000AA8BEF4068
:106CB000A01D635FA006DE856685EF40E01C63577C
:106CC000A006DA854E85EF408056A685EF40E02C81
:106CD00048D4DE85EF40A023635705022320A40398
:106CE000CE855285EF408014854741DDD2854E85A3
:106CF000EF40E053A685EF40402AAA850854EF40B4
:106D0000005308D45DB183254C0223247403232649
:106D100074032E85EF30D02FDE85EF400028DA8512
:106D2000EF30102FEF10600408D041B1894791BFB8
:106D3000930700001CD45C501CD085B9B7D7000065
:106D400083A587135E85EF404025AA852685EF4001
:106D5000004ED285EF406024AA856685EF40204D25
:106D6000AA89DE852685EF40804C95A8A2475285EA
:106D7000CC53EF408022B7D7000083A58713AA8B9E
:106D8000EF40A021A685EF30B028D285EF40E0206B
:106D9000AA856685EF40A049AA89AA854245EF40A9
:106DA000A00E635AA002C2451255854BEF40204801
:106DB000AA85EF30F025AA89EA852685EF3050258F
:106DC000AA854E85EF30705B85472A8AEA84525C3B
:106DD000C2493ECAE9B1DE852685EF307023AA8418
:106DE000854B75B9D2856A85EF40201BAA856685DB
:106DF000EF40E043AA89AA856245EF40E008E350EE
:106E0000A0CAE2456685094CEF406042EA85EF3052
:106E1000D05685472A8AE2493ECA51B1A2475285D7
:106E2000CC53EF408017AA8BAA852685EF40C0057A
:106E3000635BA002B7D7000083A587135E85EF4090
:106E4000C015AA852685EF40803ED285EF40E0142C
:106E5000AA856685EF40A03DAA89AA857245EF40C4
:106E6000000BE34005F0F2456685EF40403CAA8503
:106E7000EF30101AB255AA892685EF307019AA850D
:106E80004E85EF30904F2A8AB254F24991BFC255D5
:106E90004E85EF30707F6345A00CD24799C3230A1B
:106EA000840163830B0044CC83A7818503C7A701BA
:106EB00083474900A18BD98F8DCFA24783C7A701F4
:106EC00093F70703C5CBA247845F11CB0C58484CFE
:106ED000EF40A00CAA852685EF40200CAA842685C9
:106EE000EFF06FAE231AA40283474900DD9B230213
:106EF000F900835744034C44338C6D012313FC0089
:106F00004E85EF4080092A8AEF001031AA84084498
:106F1000EF009030A685AA8BEF406031EF40807380
:106F2000931C050193DC0C0123109C01639B0C0452
:106F30008347490013F7270029C793E71700230267
:106F4000F900F6506654D6544659B659265A965A00
:106F5000065BF64B664CD64C464DB64D09618280B9
:106F6000B7D7000083A547460255EF30700A2AD0F4
:106F7000B24599B6930700002328F900231A0402AA
:106F8000A5B74C403245EF30B0082A8CD2855E85DB
:106F9000EF40E029AA856285EF30303EB707002038
:106FA00003AC471BB7470F0093870724AA8B3355C1
:106FB000FC023305F502EF40A07BDE85EF30F07D6B
:106FC000B7D7000083A5070CEF30307DEF00D02449
:106FD000EF4040688967938707F4B357FC02637EEC
:106FE000F506B3876D01A3820700C1676E9B6364DA
:106FF000F5001385F7FFA25762572311AB0083C733
:1070000007002300F700850793F7F70F29476388E8
:10701000E70822572300F70083A70A00D28504C49B
:1070200023A437032685EF408020DE85EF30F076FD
:1070300048C0084CCE85EF30705FE31A058A93058F
:1070400000004E8503444900EF301064635DA004E6
:107050001364140023028900EDB58567938707FA4E
:10706000B357FC026372F502B3876D010547A38233
:10707000E700B3876D0103C75700B39CEC0033559D
:10708000E5002390970195B79307007D335CFC02E0
:107090000947B3876D01E36C85FD0D47C9BFA25752
:1070A0002380070095BF93774400DDF323A00A00F7
:1070B000EFD0AFA26FF0BF8383C74132130500004A
:1070C00093F7C70799C303A5C11782803971FD15CE
:1070D0007D162314B1024C1036C606DE2312C102FF
:1070E00022DC231501022A8423130102EFA05FCBC7
:1070F00085452285EFA0FFE7054685452285EFA05F
:10710000DFE485452285EFA03FE11145EFA03FA1D7
:10711000B7070040B2466314F4029307C002230E7F
:10712000F1008547230FF10068088547A30ED100C1
:107130003ED0EFA03F9FF25062542161828093873E
:1071400007406315F4009307D002D1BFB717004082
:1071500093870780E317F4FC9307E002C9B7011196
:1071600085451305000406CE22CCEFA01FBF8D4736
:10717000372401403EC4C1473EC64C00E1771305A9
:1071800004802312F100EFA04FFC85451305000495
:10719000EFA0BFBC9307A02A4C0013050480231264
:1071A000F100EFA08FFA854513050004EFA0FFBAA8
:1071B000930750154C00130504802312F100371477
:1071C0000240EFA08FF85C4C8546054693E7170018
:1071D0005CCC854537050040EFF05FEF5C4C8546A1
:1071E000054693E727005CCC3704004013050440B4
:1071F0008545EFF0BFED835704000547C207C18303
:10720000F99BC207C1832310F40083570401C2070E
:10721000C183F99BC207C1832318F400231204021F
:1072200083570440C207C183F99BC207C18323105F
:10723000F44083570441C207C183F19BC207C18355
:107240002318F44023120442B7E700E0A386074264
:107250002386E742F2400967624423A2E7100567EC
:1072600023A2E7100561828039718545130510025C
:1072700006DE22DCEFA07FAE370530008545130522
:107280000520EFA0CFFA8D473ECC3715014093077C
:1072900080043ECE4C089307003A13050540231A9C
:1072A000F100EFA08FEA95450D45EFA09F84A5451D
:1072B0000D45EFA01F849D450D45EFA09F83A1457F
:1072C0000D45EFA01F839307003A3ED00544C14708
:1072D00008103ED422D602D2EFA06FDC93077022B2
:1072E0002316F1006800894722C82307F100EFA0A8
:1072F0007F83F25062542161828037150140411131
:107300001305054006C6EFA06FF0814705C19357EE
:10731000550093C7170013770520858B19E393E772
:1073200027001375050819E193E74700B2403E8531
:107330004101828041111305003A06C6EFA0AFDE7D
:10734000EFF0BFFB01CD9377150081CFEFC0FFA415
:10735000B7E700E01307000823A2E728B240410185
:1073600082809377450081CB83C7913393E72700D1
:10737000A38CF132F1BF098961DD83C7913393E7B3
:107380008700FDB701458280411122C426C24AC050
:1073900006C62A8481440549A2852685EFA0EF818F
:1073A0000DE1230004009D452285EFE00FEA63987C
:1073B0002401B24022449244024941018280854422
:1073C000E1BF83070400E5D72285EFA03FFCAA8533
:1073D000E1BF411106C6EFD09FF9B240A388013248
:1073E00041018280411122C4139425002295084155
:1073F00006C6EF40802BB7150020938505572E94C5
:107400000C40EF308077B24022444101828001116C
:1074100022CC26CA4AC84EC606CE2A89AE89014465
:1074200095449375F40F4E85EFF0DFFB931724001E
:10743000CA9788C30504E31694FEF2406244D2441E
:107440004249B24905618280011122CC37140020E3
:1074500026CA4EC652C406CE4AC82A8A1304045706
:107460008144D149B3079A0003A90700930500009E
:107470004A85EF3070216345A0024C5C4A85EF30AD
:107480001029634F050091041104E39D34FD01456B
:10749000F2406244D2444249B249224A05618280A4
:1074A0000545FDB799677390078083C6913393872D
:1074B0008708558DA38CA1327390078082800111BB
:1074C00022CC854706CE26CA4AC8A303F10083070B
:1074D0001500130730042A846387E7026349F70025
:1074E0001307400299EFEFE06F89814465A8130705
:1074F000A004638FE702130780056386E700130784
:1075000070046398E70A030724001DEF1307300493
:107510006388E7066340F70413074002E397E7FC3C
:1075200083C74132A144E18BB5EFEFE0EF8575BF32
:1075300083C74132A14493F7F70DADE70307250058
:107540009307D0036304F7008D44A9A8EFA01FE4BC
:10755000AA8489A8130770046381E70213078005D2
:10756000E395E7F803C741328547E310F7F80D4587
:10757000EFD07FF5238201328DBFEFE0AFAEB5B71C
:1075800083C4413209476398E400EFC01F81154569
:10759000EFD07FF399BF6398042811452382E1322D
:1075A000EFD07FF2F240624426854249D244056121
:1075B000828003C741328546A144E3E5E6FE930697
:1075C0009004638FD70E63C5F60213073002638AF7
:1075D000E70613078004638DE706814430009305B6
:1075E00071002285EFC01F81631D051889445DBFAE
:1075F000930620056388D71093063005638DD7085E
:107600009306E004E39BD7FC8947A303F1008307BB
:10761000240063930716A2850145EF901FDA6305E6
:107620000514A2850145EFE00FBFA2850545EF9047
:10763000DFD8AA84630E0512A2850545EFE0AFBD31
:107640006DB583072400E39107F0EFE0AF9371BDC0
:10765000B717002083C7875D9544C18BA1D7914799
:107660002382F13283072400E39007EE0145EFC047
:107670008FE09387413283C41700E39804E62382A6
:107680000132EFE0DFD383072400E39007E6228591
:10769000EFF09FCF01BF030724009307C004E31559
:1076A000F7EA0307340093070005E31FF7E88307B1
:1076B0004400E39B07E813050008EFF0BFDE35B593
:1076C0008947A303F1008307240081EB2285EF9013
:1076D000BFD22285EFE00FBA09BD1307D003E395AF
:1076E000E7E68D47B306F40003870600850793F7A6
:1076F000F70FA38EE6FE7DF72285A303F100EF903E
:107700007FB1E5B30307240093073005E31EF7E2DA
:107710000307340093074005E318F7E2030744002A
:107720009307D003E312F7E283076400E39E07E0C8
:107730008307540013074002638CE7001307A0027D
:107740006381E70213073002E390E7E0094511A0E7
:107750000545EF907FB12545EFD0FFD6EFC0EFE3B1
:1077600069B31305F00FF5B71D45EFD0FFCF75BD19
:107770001D45EFD07FCF3DB5A144E31507E2854419
:10778000B1BD8347710013871700A2978386070056
:107790001377F70FA303E1009307D003E396F6DA1C
:1077A000A9C0BA87B306F40003860600B386E74093
:1077B000A29685072380C60093F7F70F65F622850A
:1077C000A303F100EFA09FBCAA84E31D05DC2245C2
:1077D0009D23EF303068A2851375F50FEF901FA140
:1077E000D1B37000930571002285EFC0AFE0E30FC5
:1077F00005DE834771003E9483070400E39607D4B7
:107800002244B7D7000083A5C7122285EF30C06796
:10781000E34CA0D22285EF30F063B2451375F50F2B
:10782000EF909FC735B3A144B5BB996773900780AC
:1078300083C691331345F5FF93878708758DA38C15
:10784000A1327390078082809967739007802382AA
:10785000A136938787087390078082809967739019
:107860000780238201369387870873900780828080
:1078700099677390078083C6013293878708558D77
:107880002380A1327390078082809967739007806C
:1078900083C6813393878708558D238CA1327390DB
:1078A00007808280996773900780238001329387D5
:1078B0008708739007808280996773900780238C74
:1078C00001329387870873900780828001A001A00E
:1078D00001A001A001A001A001A001A001A001A0A0
:1078E00001A001A001A001A001A001A001A001A090
:1078F00001A001A001A001A001A001A001A001A080
:1079000001A001A001A001A001A001A001A001A06F
:1079100001A001A001A001A001A001A001A001A05F
:1079200001A001A001A001A001A001A001A001A04F
:1079300001A001A001A001A001A001A001A001A03F
:1079400001A001A001A001A001A001A001A001A02F
:1079500001A001A001A001A001A001A001A001A01F
:1079600001A001A001A001A001A001A001A001A00F
:1079700001A001A001A001A001A001A001A001A0FF
:1079800001A001A001A001A001A09791FF1F938178
:107990006102178100201301E166176500001305DD
:1079A000E5239785FF1F9385E5651386018363FAB9
:1079B000C5008322050023A0550011059105E3EAC7
:1079C000C5FE1385018397A5FF1F9385A5256377C2
:1079D000B500232005001105E36DB5FEFD4273904F
:1079E00002BCAD4273904280B7620000938282086D
:1079F00073A002309782FFFF9382426493E23200C9
:107A000073905230EF809FB19792FFFF9382E2967E
:107A10007390123473002030011126CA931415009C
:107A2000858022CC13D474014AC806CE4EC652C4F7
:107A300056C2130414F8D9472A8963C887082A8ACA
:107A4000634D0404B70A80009384FAFFB3D48440E2
:107A5000B3F7A400AA8985CB97670000938747A254
:107A60008C43EF20F05A93050000EF30E041635C57
:107A7000A0006356200133D48A40330A240193C9FD
:107A8000F4FFB3F94901F24062444E85D2444249C1
:107A9000B249224A924A0561828097670000938723
:107AA000279E8C43CA89EF20B05693050000EF3023
:107AB000A03DE35AA0FC63440902F1D497570000AB
:107AC0009387476B83A907007DBFB707807FAA898B
:107AD000E3EBF4FAAA85EF20B053AA896DB7976754
:107AE00000009387A79983A9070071BF011122CCD9
:107AF000370400809347F4FF3717493F06CEE98FDC
:107B0000130787FD635DF7023707807F63C9E700CE
:107B1000AA85EF30C071F2406244056182802C007A
:107B200069290D8985476304F5028947B245630BCE
:107B3000F5020DC522450546EF10402AE9BF930521
:107B40000000EF00900AF240624405618280B24575
:107B500022450546EF108028218D75BF2245EF0094
:107B6000D00855BF2245EF005008218D6DB7011197
:107B700026CA93141500858022CC13D474014AC8F8
:107B800006CE4EC652C456C2130414F8D9472A89E9
:107B900063CB87082A8A634D0404B70A8000938464
:107BA000FAFFB3D48440B3F7A400AA8985CB9767C2
:107BB00000009387E78C8C43EF20904593050000ED
:107BC000EF30802C635CA0006356090033D48A40F8
:107BD000330A240193C9F4FFB3F94901F240624426
:107BE0004E85D2444249B249224A924A0561828076
:107BF000976700009387C7888C43CA89EF2050415C
:107C000093050000EF304028E35AA0FC93090000E0
:107C1000E35609FCCA89F9D09767000093878786E5
:107C200083A9070065BFB707807FAA89E3E8F4FA54
:107C3000AA85EF20F03DAA8955B79357750193F7B0
:107C4000F70F938617F8F94563CAD5021357F54124
:107C50001367170063C606042A863705800093055C
:107C6000F5FF6D8ED945498E63D1D5029387A7F66E
:107C7000B317F6003307F7023A858280411106C632
:107C8000EF303017B24041018280B7074000B3D7D0
:107C9000D740B2975D46B306D640B3D7D700D9BF19
:107CA000938727F893B71700B307F0407D8F3A8585
:107CB0008280011122CC370400809347F4FF3717EC
:107CC000493F06CEE98F130787FD635DF70237074B
:107CD000807F63C9E700AA85EF306055F2406244B7
:107CE000056182802C00D12C0D8985476305F50242
:107CF0008947B245630BF50205C52245EF00E06EEA
:107D0000218DE9BF014693050000EF10200DF240E0
:107D1000624405618280B2452245EF00006D7DBF5F
:107D200022450546EF10800B55BF22450546EF1052
:107D3000E00A218D65B79357754193F7F70F938745
:107D400017F85947AA86634CF70063CB070037053D
:107D500080007D153355F5401345F5FF758D828004
:107D600037050080758D82806DA8397122DC26DA96
:107D70004AD806DE2A84612B938741818443FD57CC
:107D80002A89638EF400A2852285EF30D00201E9B2
:107D9000930500002285EF30801763490500F250FB
:107DA00062544A85D25442592161828085473EC43B
:107DB0002285975700009387276D3EC602D4EF3087
:107DC00010282ACC2ECE2AC82ECA9DCC0146814628
:107DD0003285B685EF10703E2AD02ED28947639740
:107DE000F402EF30904E930710021CC1A2578DE7AA
:107DF00002559255EF30702FF25062542A894A850D
:107E0000D25442592161828002D002D22800EF1060
:107E1000A00F61D9A257E9DFEF30304BA2571CC148
:107E2000C1BFB7070080411193C7F7FF2E8706C671
:107E300022C4FD8D3706807FAA866340B604E98F91
:107E40002A83634CF602B708803F6302170F13546E
:107E5000E74109887D81498C8DEB89476300F40AED
:107E60008D473685631FF400B240224497570000C7
:107E700093878762884341018280B6853A85EF20E7
:107E80003019B240224441018280ADC1638EC506E3
:107E9000638EC7048D8FDD871306C003634EF6081B
:107EA00063580700130640FC1305000063CAC700AF
:107EB000BA853685EF20704CEF10C02DEF1000050D
:107EC00085476306F40C89476303F40A5DD8975726
:107ED00000009387E75D8C43EF20901397570000D5
:107EE0009387475B8C43EF30803461BF634B03065D
:107EF000975700009387C759884361B79757000089
:107F0000938747598843B5BF638EB7028947E30714
:107F1000F4FE8D47E30AF4F4854713050000E312ED
:107F2000F4F69757000093876755884399BF22441A
:107F3000B24041016F00907D9757000093874755ED
:107F40008843BDBF89476304F4068D47630BF4047F
:107F500085476302F404975700009387E7548843EA
:107F60000DB79757000093876753884319BF9757FA
:107F700000009387E7538C43EF2090099757000048
:107F800093874751AA858843EF30602ADDBDB70744
:107F900000803D8DFDB5975700009387275188439A
:107FA000CDB5975700009387E74F8843D9BD9757C2
:107FB00000009387E74E8843E9B5397122DC371713
:107FC000493F1314150006DE26DA4AD84ED652D49D
:107FD00056D25AD05ECE62CC0580130787FD63521D
:107FE000871237D71640130737BEAA89AE8463417C
:107FF0008706975700009387E74B41988C43635E51
:10800000A02AEF30C022B717C93F938707FD2A89FE
:108010006306F410175400001304044A0C40854B07
:10802000EF30E020AA8588C04A85EF3040200C4020
:10803000EF30E01FC8C0F25062545E85D2544259FE
:10804000B259225A925A025BF24B624C21618280F1
:1080500037174943130707F86351870E3707807FA7
:108060006357E40A135974411309A9F79317790167
:108070001D8C2285EF30E057EF302063AA87AA8558
:1080800022853EC2175A0000130A8A44EF30201A94
:1080900083250A00EF207070AA8AEF308055EF30F8
:1080A000C060AA852A84568522C4EF3040188325F3
:1080B0000A00EF20906E930500002AC6EF201057AB
:1080C0008D4609E9930500002285EF203056B3362E
:1080D000A0008506975700009387C74709474A863F
:1080E000A6854800112BAA8BE3D709F49840DC4001
:1080F000B7060080358FB58F98C0DCC0B30BA040A9
:108100001DBF9307000088C1DCC1814B2DB7AA8534
:10811000EF30E011C8C088C0814B31BF97570000D5
:108120009387C7398C431754000013046439854B77
:10813000EF30E00F2A890C40E5B5EF10A005975706
:108140000000938727388C432A89EF2010659757C2
:1081500000009387A7FE8C43EF20806BEF306049CF
:10816000AA8BEF308054975700009387A7348C4335
:10817000AA8AEF209062AA854A85EF30400B975774
:108180000000938767338C432A8B5685EF20F0607D
:10819000FD472A8AAA855A8563CA7705EF302009E8
:1081A0009387FBFF13972700975700009387873229
:1081B000BA979C43137704F02A89630CF70223A033
:1081C0002401CA855A85EF308006D285EF3020061B
:1081D000C8C0E3D209E6B707008033C927013D8D47
:1081E00023A02401C8C0B30B7041B1B5EF30200407
:1081F0002A89935779015D8493F7F70FB307F44009
:108200002147E35EF7FA975700009387272B8C43AB
:108210005685EF2090582A89AA855A85EF3020018B
:10822000AA852A8C5A85EF308000CA85EF3020005D
:10823000975700009387C7288C432A895685EF20DB
:10824000D055CA85EF20B07EAA852A8A6285EF20A4
:10825000107E9357750193F7F70F1D8CE5472A8918
:1082600063C5870088C0628BA9BF975700009387BA
:10827000A7258C435685EF2050522A84AA85628513
:10828000EF20F07AAA852A8B6285EF20507AA285AA
:10829000EF20F07997570000938747238C432A8477
:1082A0005685EF20904FA285EF207078AA852A8A04
:1082B0005A85EF20D0772A8919B7EF206055B71774
:1082C000C93F938707FD2A896304F402175400000D
:1082D0001304841E0C40FD5BEF208053AA8588C0E8
:1082E0004A85EF20D0740C40EF208052C8C0A1B363
:1082F000975700009387871C8C4317540000130482
:10830000241CFD5BEF20C0502A890C40F1B74111BD
:108310009317150022C406C685833707807F2A84F9
:10832000AA8563F8E708C9C3AA876342050A698F6B
:108330009356754105E3131785006345070A014706
:1083400011A0328786079395870013061700E3DA9A
:1083500005FE998E370780001306F7FFF18F93868D
:1083600016F85D8F13F616009317170031EE13D829
:1083700016400145E5468145370700013386E50093
:10838000FD1663C6C700B305E600918F3A958607D0
:108390000583EDF699C3050579990585B705003F75
:1083A000AA9593167801B695B24022442E854101D4
:1083B0008280EF20903EA285EF208045B24022448B
:1083C000AA852E8541018280931727004DB7EF20A3
:1083D0001066AA85EF20607AB2402244AA852E85D5
:1083E000410182807D57998EB5B7011126CA931439
:1083F00015004AC84EC606CE22CC52C456C285804D
:10840000B70700322A89AE8963D8F40CEF30601EBA
:10841000630E051CCA854A85EF2030389757000047
:10842000938747458C432A84EF20303797570000C5
:10843000938787448C43EF20A03DA285EF20F03541
:1084400097570000938787438C43EF20505EA285A7
:10845000EF20B03497570000938787428C43EF207A
:10846000203BA285EF207033975700009387874108
:108470008C43EF20D05BA285EF203032975700006D
:10848000938787408C43EF20A038A285EF20F030FF
:108490002A8A97570000938767CA8C432285EF206A
:1084A000D02FAA84D2852285EF20302F2A84CE8532
:1084B0004A85EF20902EAA852285EF205057AA8565
:1084C0002685EF20D056975700009387A7CAAA8524
:1084D0008843EF20D055F5A0AA85EF20102C9757A0
:1084E0000000938727398C432A84EF20102B97575D
:1084F0000000938767388C43EF208031A285EF20FE
:10850000D02997570000938767378C43EF2030526C
:10851000A285EF20902897570000938767368C43F9
:10852000EF20002FA285EF20502797570000938758
:1085300067358C43EF20B04FA285EF201026975768
:108540000000938767348C43EF20802CA285EF20B6
:10855000D024B7A7993E938797992A8AE3DB97F2AD
:10856000B707483F63C8970697570000938787C0AF
:108570008843B70700FFBE94A685EF20504BAA8A18
:1085800097570000938787BB8C432285EF20F0200C
:10859000A685EF20D049AA84D2852285EF20F01F3E
:1085A0002A84CE854A85EF20501FAA852285EF2098
:1085B0001048AA852685EF209047AA855685EF208A
:1085C0001047F2406244D2444249B249224A924A98
:1085D00005618280975700009387472983AA070087
:1085E000975700009387C728844359BF97570000C7
:1085F000938747B88843F1B72171131827003ADAF7
:10860000175700001307472C2326311B2320611B1B
:10861000B689232E71194297232E111A232C811A01
:10862000232A911A2328211B2324411B2322511B77
:10863000232C8119232A91192328A1192326B11942
:1086400032DEF1562ACE2ED83ED0032B0700938B74
:10865000F9FF6341D66E1307D6FF9357F7419D8B01
:10866000BA978D873ECC85078E073EDC6247E2567F
:10867000B3077B013304774172571389170004094C
:10868000158F3AC6229963C20702025A9317240033
:10869000D29713050000634504008843EF30E000E3
:1086A00088C005049104E31324FF131C2B00634BC3
:1086B0000B04F24D13992B001C0913044900131CE1
:1086C0002B003E995C1A041A338A87016E94CA8C77
:1086D000EE8A130D000063C10B0283A50C0003A5F5
:1086E0000A00910AF11CEF20500BAA856A85EF2041
:1086F00020122A8DE3938AFE23A0A401910411097C
:10870000E39744FD741813078CFF369C940036974A
:108710003AD4724713942900B2463A94370700407E
:108720007D173AC42147158F9307FBFF8A073AD676
:108730001803BA97DA84930A01133ED25ACA139DDA
:1087400024001C03EA9783AD07FB63569006A247FB
:108750001757000013078716032B07003389F4000F
:108760000A09175700001307A7D656999309010461
:10877000032A070011A03E89DA856E85EF20F001FB
:10878000EF203067EF207072D285AA8CEF20F000C6
:10879000AA856E85EF20B029EF20B06583250900FA
:1087A00023A0A9006685EF20A006AA8D9307C9FF24
:1087B0009109E3922AFD324B6E85DA85EF00F01DB8
:1087C000975700009387C70F8C432A89EF20E07CDE
:1087D000EFF0EFB9975700009387C70E8C43EF2057
:1087E000C07BAA854A85EF2090242A89EF207060FB
:1087F000AA89EF20906BAA854A85EF2050232A8A08
:10880000635560119387F4FF18038A07BA9703A989
:1088100007EC32561D4733076741B356C9403396BC
:10882000C6003309C94023A027ED3359E940B69962
:10883000634B200F930500005285EF20205F631FDC
:108840000516D247138AF4FF634FFA00A247980037
:10885000A6978A07BA9701479443F117558FE39D6E
:1088600087FF6310072C925783A707EC6396072AAC
:10887000A2570547F117D4430507EDDE938714008F
:108880003E8BBA9462473389FB00F24D330AF700FE
:1088900022478A070A0A3A9902570A09B389FA0055
:1088A0001C093A9A3E9962C803250A00EF20F05F3E
:1088B0002322A90063C00B044A8DEE8C130C000028
:1088C00021A003250D00711D83A50C00910CEF2044
:1088D000C06CAA856285EF10B0732A8CE3938CFE7E
:1088E00023A08901050B110A91091109E3DE64FB3C
:1088F000424CB1B5130C000023A08901050B110AED
:1089000091091109E3D264FBE5B7B247639E071CE6
:108910009387F4FF8A071803BA9703A907EC135942
:108920008940E35920F18509635A9040064B8547F9
:10893000631B0B16638EF400D400054703AB0600DF
:1089400093071700910663110B163E87E398F4FE18
:1089500032476353E00285476302F73C8947631D52
:10896000F7009387F4FF18038A07BA9703A707EC69
:108970001377F70323A0E7EC8947E31DF9EA97474C
:1089800000009387277F8843D285EF20500A2A8AE8
:10899000E3020BEA974700009387C77D8843B245FF
:1089A000EF00A07FAA855285EF2070082A8A9305E0
:1089B00000005285EF208047E30505E8E257725733
:1089C0005285524BB385E740EF00207D975700005A
:1089D000938707B080432A8AA285EF20E04A634D3F
:1089E000053A97570000938767ED8C4352851C0327
:1089F000B38BA701EF20605AEF20B03FEF20F04A81
:108A0000A285AA8AEF206059AA855285EF203002FC
:108A1000EF20303E138A14001C0323A0ABEC131488
:108A20002A0056853E94EF20D03CB2472320A4EC88
:108A3000A1073EC6974700009387C7738843B24596
:108A4000EF00A075AA8A635F0A105257894763C76F
:108A5000E720634FE0361305000001EB63050900D2
:108A6000B70700803D8DC25788C38320C11B0324F4
:108A7000811B13F579008324411B0329011B8329E2
:108A8000C11A032A811A832A411A032B011A832B44
:108A9000C119032C8119832C4119032D0119832D30
:108AA000C11839618280014714030A07369793067B
:108AB0000010338B6641232067ED63D597028A0748
:108AC000180394003E973386A601B697032707EC58
:108AD0009306F00F11A098433387E64098C391079F
:108AE000E39BC7FE054BADB597470000938707652D
:108AF0008C430149EF204039E34E05D285090949ED
:108B0000E34690E2974700009387C7668843D28583
:108B1000EF20E0712A8A39BB938714003E8BBE8414
:108B200095B3180393172A00BA97324783A707EC27
:108B3000524B61173AC681EF93972400E1179400D6
:108B4000B697F117D4437D1A6117E5DE3AC6974709
:108B50000000938727628843B245EF000064AA8A29
:108B6000E3450AEE13172A001C1AB384E7009400A9
:108B700097570000938787D43AC4338DE600268444
:108B800083AC070011A03E8D03250D007114EF206A
:108B9000D031D685EF20604048C0E6855685EF206D
:108BA000C03F9800AA8A9307CDFFE31EA7FD930C50
:108BB000010EE68A0144634E0B0497570000938729
:108BC000A7CF175D0000130DADCC268C8843930D05
:108BD0000000814B39A0110C6341740303250D0083
:108BE000110D83250C00850BEF20203BAA856E8597
:108BF000EF101042AA8DE3507BFF23A0BA01181A90
:108C00000504910A9387C4FF63009702BE84E3566C
:108C10000BFA930D000023A0BA01181A0504910A5B
:108C20009387C4FFE31497FE5257894763C8E7024E
:108C3000BA876347E010224713050000B38BEC00AE
:108C400099C325B5BE8B83A50B00EF10703C9387AD
:108C5000CBFFE3997CFFE30809E019B552578D4734
:108C6000E315F7E063594017931A2A001C03D697BF
:108C7000930C010E1384CAFF03AB07F6669411A090
:108C80003E84832B0400DA855E85EF107038AA8459
:108C9000AA855E85EF20A059DA85EF10703748C0AD
:108CA00004C09307C4FF268BE39C8CFC854763D4E8
:108CB000471313142A001C03BE9A711483AA0AF6E0
:108CC000B3848C0011A0BE8403AB0400D6855A8502
:108CD000EF1010342A8AAA855A85EF204055D68590
:108CE000EF101033C8C023A044019387C4FFD28A79
:108CF000E39BFCFC1104A29C1305000083A50C005F
:108D0000F11CEF10F030E39B94FF8E561E57631F4B
:108D10000908C25794C3D8C388C781BB9387F4FF9F
:108D200018038A07BA9703A707EC1377F70723A05E
:108D3000E7EC99B1A1473EDC02CC0DBA014B09B971
:108D4000A247130400002285B38BFC0011A0BE8B48
:108D500083A50B00EF10D02B9387CBFFE3997CFF0B
:108D60002A840E55A285EF20804C631B0904C2574C
:108D700080C363504003C41105448C400504910432
:108D8000EF101029E35B8AFE63050900B707008036
:108D90003D8DC257C8C3D1B952851C033384A70186
:108DA000EF2030052320A4EC268A55B34256B7079E
:108DB0000080BD8E3D8FA98F14C258C21CC675B1EC
:108DC000B70700803D8CC25780C3E34640FB7DBFA0
:108DD0001304000079B71305000005BF01119317B4
:108DE000150022CC4EC652C406CE26CA4AC856C268
:108DF0008583370700322A84AE89328A63D6E7003A
:108E0000EF20207FA28749CDA2852285EF20E018A0
:108E1000AA84AA852285EF204018975700009387DF
:108E200067AB8C432A892685EF20201797570000CF
:108E3000938787AA8C43EF20803FA685EF20E0151B
:108E400097570000938787A98C43EF10701CA68565
:108E5000EF20A01497570000938787A88C43EF203A
:108E6000003DA685EF20601397570000938787A7E2
:108E70008C43EF10F019AA8A631E0A02AA85268580
:108E8000EF20A011974700009387C72C8C43EF2059
:108E9000003ACA85EF206010A285EF107017AA87EC
:108EA000F2406244D2444249B249224A924A3E8543
:108EB0000561828097470000938747288C434E8541
:108EC000EF20A00D2A8AD6854A85EF20000DAA85BD
:108ED0005285EF20C035A685EF20200CCE85EF20EF
:108EE0000035974700009387E7268C43AA844A857C
:108EF000EF20A00AAA852685EF109011AA85228569
:108F0000EF20E032AA8769BF01458280011122CC9F
:108F10001314150026CA4EC606CE4AC852C4058090
:108F2000B7078050AA84AA896346F402B707807FF6
:108F300063C78716635CA01897470000938747555F
:108F40009C43F2406244D2444249B249224A3E859F
:108F500005618280B707E03E6355F418B70700311A
:108F60006344F4147D59A6852685EF200003AA8565
:108F70002A8AEF208002975700009387E7968C4358
:108F80002A84EF20800197570000938727968C430F
:108F9000EF101008A285EF2040009757000093873C
:108FA00027958C43EF10D006A285EF10107F9757BE
:108FB0000000938727948C43EF109005A285EF1053
:108FC000D07D97570000938727938C43EF10500470
:108FD000A285EF10907C97570000938727928C43CF
:108FE000EF101003D285EF10507B97570000938746
:108FF00027918C432A8A2285EF10307A97570000F8
:10900000938747908C43EF208022A285EF10F07861
:10901000975700009387478F8C43EF204021A2850C
:10902000EF10B077975700009387478E8C43EF205F
:109030000020A285EF107076975700009387478D28
:109040008C43EF20C01EA285EF103075AA85528593
:10905000EF10007CA685EF105074FD57AA85630DB4
:10906000F9060A09975700009387C78BCA978C4364
:10907000975700009387078A3E99EF20401BA685EB
:10908000EF20E01AAA8503250900EF20401AAA87DD
:10909000E3D909EA37070080B347A7005DB5AA8581
:1090A000EF100077AA8771BD974700009387473D6F
:1090B0008C43EF10E075974700009387A70B8C4314
:1090C000EF10905CA687E35FA0E8A5BD974700007E
:1090D0009387C73C9C43B5B52685EF204015AA87EA
:1090E0008DB54D28B707983FAA846350F404B7079D
:1090F000303F6355F408AA85EF1080719747000050
:10910000938747078C430149EF206012974700007F
:10911000938707048C432A842685EF10606FAA8505
:109120002285EF109025AA843DBDB7071C40635CE3
:10913000F40217440000130464F60C400949EF20C0
:10914000000F0C402A8A2685EF10306597470000F3
:10915000938747028C43EF10A06BAA855285EF10CE
:10916000D021AA8409B5974700009387A731884387
:10917000A6850D49EF107020AA84F5B317440000AE
:10918000130444FF0C400549EF20600A2A8A0C4072
:109190002685D1B706050581828093171500858342
:1091A0002A87B1C7411106C622C43706807F63F9FA
:1091B000C702B376C5002E8485EE974700009387DB
:1091C00067778C43EF10705DD177938707CB2A8741
:1091D0006349F4069357754193F7F70F9D1711A84C
:1091E000AA85EF10E062B240224441018280828071
:1091F000DD83A2979306E00F63CCF6006349F0028B
:10920000A95663D8D704B1679387073563D2870619
:10921000974700009387C7268043BA852285B128E7
:10922000A285EF109057B240224441018280B240A3
:109230002244370780807D17798DDE075D8D4101DF
:109240008280974700009387276F8C43EF10F0547C
:1092500059BF174700001307676E0C43370780801C
:109260007D17E507DE07798D5D8DEF101053A5BFE3
:10927000974700009387476C45B7B707008013C72F
:10928000F7FF798DFD8D4D8D82803708100001111B
:109290007D183377B80026CA3378D80093D44501B7
:1092A00013D34601131E37004EC61357D5010E08BF
:1092B0009357D60193F4F47F1373F37F06CE22CC39
:1092C0004AC893D9F50193DEF6013367C701131F2E
:1092D000350033E80701931F3600338E6440638006
:1092E000D9196356C0136304031CB70680009307A3
:1092F000F07F3368D800638FF4369307800363C030
:10930000C735FD4763CDC747130500023305C54187
:10931000B3D7CF01B316A8003399AF00DD8E333930
:109320002001B357C80133E926011D8F33092F41AE
:10933000B3372F013306F7409317860063D4072411
:10934000370780007D173374E600630C042C2285F8
:10935000EF204070130785FF93070002998FB357E2
:10936000F9003316E400D18F3319E9006341972ADD
:1093700033059740130615007D47634DC738130723
:109380000002118FB356C9003319E9003397E70083
:10939000558F333920013369270133D6C700814403
:1093A0009377790081CF1377F90091476308F7002D
:1093B00013074900333927014A963A8993178600E3
:1093C00063D6071C138514009307F07FCE856304D2
:1093D000F520B70780FFFD17F18F9398D701135938
:1093E0003900A607B3E82801B1831375F57F93967A
:1093F000C7005205F2406244B182FE05C98ECD8E8F
:10940000D2444249B2494685B68505618280631ED1
:109410000E0A138314001373E37F63170322B367E9
:10942000E701B368F801639D041A63870740638608
:1094300008443309FF41B307074133362F01338610
:10944000C7409317860063D6074C3389EF41B307B3
:10945000E84033B62F013386C740F68991B7635091
:10946000C00F6300030CB70680009307F07F3368DA
:10947000D800638AF43A9307800363CBC713FD4790
:1094800063DFC73513090EFE93070002B3562801A8
:10949000630AFE00130900043309C9413319280186
:1094A000B3EF2F013339F0013369D90031A2B3672B
:1094B000F801638A071C9307FEFF638C0738930645
:1094C000F07F6309DE1A3E8E0DBDB30593406391B4
:1094D0000422B367E701638707329387F5FF63814F
:1094E00007449306F07F638CD520BE8593078003E5
:1094F00063CCB72AFD4763CFB73C930700028D8F3B
:109500003319F700B356BF00B317FF003369D90012
:10951000B337F0003357B7003369F9003308E84038
:1095200041ACB367F801638007349307FEFF638A99
:1095300007209306F07F6308DE2E3E8E2DBF631E4C
:109540000E149386140093F7E67F63910734B36794
:10955000E7016395042C6380073EB367F801638ECF
:1095600007303309FF01B3070701333FE9013386B1
:10957000E7019317860063D70700B70780FFFD1741
:109580007D8E854493777900E39F07E09317D6019A
:1095900093583900B3E8F800935736001307F07F6B
:1095A000638DE404B207B18313F5F47FCE8581B5F2
:1095B0003369F801333920017A99B337E9013386E9
:1095C000E70093178600E3DF07FA85049307F07F2F
:1095D0006396F418CE851305F07F8147814801BD5D
:1095E000C1EB6384083A931636009317D8018D8235
:1095F000B3E8D700F68993573800B3E7F800F9DBF2
:1096000081451305F07FB70708008148CDB33706C1
:1096100080FF7D167D8E93777900998CE39507D82E
:10962000B5B74A85EF20004313078501FD47E3D511
:10963000E7D2130685FFB317C900014905BB33699B
:10964000F80133392001DDB13309FF413306074109
:1096500033342F01330486409317840063CD0724ED
:10966000B3688900E39308CE8147814981441DBFD7
:10967000E39808F80E059317D7010D81B3E8A7000A
:10968000935737009DBF0E059317D7010D81B3E89F
:10969000A700F2849357370011B7330593406382D4
:1096A0000412B70680009307F07F558F630DF32EE9
:1096B0009307800363CBA720FD4763C3A72A9307C3
:1096C0000002898F3319F700B356AF00B317FF00BC
:1096D0003369D900B337F0003357A7003369F90075
:1096E0003A987E99B337F901338607019A84D1BD40
:1096F000B70680009307F07F558FE319F3DE9317C9
:1097000036008D839318D801B3E81701F689935773
:109710003800E5B5130715FE9306000233D7E700BE
:10972000630AD600930600043386C6403396C7000A
:109730003369C900333920013369E90001468144A6
:1097400091B53309FF01B30707013336E9013E96AE
:10975000931786008544E3D707E28944B70780FF63
:10976000FD17F18F13571900137919003369270179
:109770009398F70133E9280113D6170015B113099F
:109780000EFE93070002B3562801630AFE00130978
:1097900000043309C94133192801B3EF2F013339CC
:1097A000F0013369D90059B63369E7013339200133
:1097B00033892F41B3B72F013306F8409A84F689D5
:1097C000A5BEB367E701638207189307F5FF6384BB
:1097D000071C9306F07F6304D5123E85D1BD930725
:1097E0000002B387C741B316F8003399FF0033D6A0
:1097F000CF01D18E33392001B357C80133E9260197
:109800003E975DBB931736008D839318D801B3E85C
:109810001701AE8493573800F68949B3EDC3336915
:10982000F801E31F09DC0E059317D7010D81B3681A
:10983000F50093573700D1B36381080E93163600B5
:109840009317D8018D82B3E8D700F6899357380073
:1098500091BB3309FF41B3070741333F2F013386E3
:10986000E7418544D1BC0E059317D7010D81B3683C
:10987000F500F2849357370015B30E059317D701FF
:109880000D81B3E8A7009357370029BB9307F07FFA
:10989000E382F6D43309FF013336E901B307070148
:1098A000B2979398F7011359190033E9280113D699
:1098B0001700B684C1B93389EF413307E84033B6A6
:1098C0002F013304C740F68949B43369E7013339BE
:1098D000200101BD938705FE93060002B357F700F0
:1098E000638AD50093060004B385B6403317B700EA
:1098F000336FEF003339E0013369F90055BD931739
:1099000036008D839318D801B3E8170193573800B8
:10991000EDB1B368C900E39708C68147814959B1E1
:109920003389EF41B307E84033B62F013386C74090
:10993000F689854411B4931636009317D8018D82A9
:10994000B3E8D70093573800B1B993163600931790
:10995000D8018D82B3E8D700AA84935738003DB967
:10996000930705FE93060002B357F700630AD5007C
:10997000930600043385A6403317A700336FEF002A
:109980003339E0013369F900A9BB81451305F07F44
:10999000B7070800A9BC3309FF01B3070701333635
:1099A000F9013E9675B3931636009317D8018D8250
:1099B000B3E8D7009357380089B1397193D745017F
:1099C00022DC4AD856D22A891394C50006DE26DA4C
:1099D0004ED652D45AD05ECE13F5F77F318093DA4B
:1099E000F501630B05109307F07F630BF514135A11
:1099F000D9010E0433648A00370A8000336A4401B7
:109A0000131B3900930415C00144814B13D8460140
:109A10001399C6001378F87FB2881359C90093D9F7
:109A2000F601630E08089307F07F6300F8041357EC
:109A3000D6010E0933692701130818C0B707800043
:109A40003367F90093183600B38404418145BD475C
:109A500033C83A0163E4871A97470000938747EEBB
:109A60000A043E9410403E9602863367C9009384F0
:109A70001480631207101364240081488945C1BF14
:109A80001306F07F81470147B207F2506254520635
:109A9000B1837E08D18FB3E70701D2544259B2593E
:109AA000225A925A025BF24B3A85BE85216182802E
:109AB00001481306F07FB70708000147F1B7336785
:109AC000C9004DC7630809304A8532C4EF10907849
:109AD0002246130755FFF547930685FF998F3319E3
:109AE000D900B357F60033E72701B318D6002695FF
:109AF0009304353F8145A1BF336A240163030A06FD
:109B000036C632C46306042A2285EF10B07422469A
:109B1000B246AA84130755FF754A138B84FF330A94
:109B2000EA4033146401335A4901336A8A00331B13
:109B300069011305D0C0B30495400144814BF9B5C8
:109B4000336A240163180A002144014B9304F07F17
:109B5000894B6DBD228A4A8B31449304F07F8D4B33
:109B600075B51144014B8144854B4DB51364140008
:109B700081488545E9BD136434004A878D45C1BDE0
:109B8000630A052E8547898F9306800363DDF632CD
:109B9000014681470147CDBDCE868947638DF53AA1
:109BA0008D47E387F5F085473688E383F5FE138517
:109BB000F43FE357A0FC93F778006396072893D609
:109BC00038009317770063D80700B70700FFFD1729
:109BD0007D8F138504409307E07FE3C3A7EA131644
:109BE000D70193179700B1833367D6001376F57FBB
:109BF00061BDD6865287DA88DE8545B76361472323
:109C0000630DEA20DA86FD145284014B9317870016
:109C100013D388013363F300935E0301B357D40376
:109C2000131F0301135F0F0193D50601139E8800D4
:109C30003374D4033307FF024204C18D63FBE50094
:109C40009A951386F7FF63EE652663FCE526F91700
:109C50009A95998D33D7D503C206C182B3F5D50342
:109C60003306EF02C205D58D63FBC5009A959306B6
:109C7000F7FF63E6652463F4C52479179A95C20754
:109C800041645D8F9307F4FF3375F7009358070124
:109C9000935F0E01B377FE00B302F502B386C540B1
:109CA000B383F80293D502013386AF021E962E9637
:109CB0003385F803637376002295C168FD189355C8
:109CC0000601337616014206B3F81201AA954696AC
:109CD00063E6B6126382B6123306CB408D8E333BF9
:109CE000CB00338B66411385F43F630C6317B35885
:109CF000DB0393550601337BDB03B3061F03420BE3
:109D000033EB6501637BDB001A9B9385F8FF636D82
:109D10006B20637BDB20F9181A9B330BDB40B356B7
:109D2000DB0342064182337BDB03330FDF02420B4E
:109D300033666601637BE6011A969385F6FF6367D7
:109D4000661E6375E61FF9161A96C208B3E8D800B6
:109D50009395080193D20801C181B38EF5023306B1
:109D6000E641B385BF0293D60E01B387F202BE95DA
:109D7000AE96B38F5F0263F4F600C167BE9FC16504
:109D8000FD1593D70601ED8EC206B3FEBE00BE9F41
:109D9000F696637FF6091A969387F8FF6369661A49
:109DA0006368F619630FF61BBE8893E8180011B5B7
:109DB0004A85EF10304A13075501F1459304050217
:109DC0002246B246E3DAE5D4130485FF331A89004C
:109DD000014B85B3328532C4EF10D04713075501CC
:109DE000F146AA87224613050502E3D6E6CEE1171F
:109DF0003317F6008148E5B9E370CBEE729B33353B
:109E0000CB011A95AA961305F7FF6378D30263E690
:109E1000B6106382D5102A87C1B5E3651BDF935561
:109E20001B009316FA0113541A00CD8E7E0BF9BB5A
:109E3000E31DF6F7E38F06D6B9BFE31ED3FCE37844
:109E4000CBFD2A8751BD93F7F8009146E389D7D619
:109E500093B7C8FF9386480093C717008D823E973B
:109E60008DB381468547E34CA0FEFD58E31C05D029
:109E7000930410C085471385E441B316A70033D679
:109E8000F8003395A800D18E3335A000C98E13F6A3
:109E900076003357F70001CE93F7F600114663883A
:109EA000C70093874600B3B6D7003697BE86931790
:109EB000870063D80704054681470147F1B6368716
:109EC0007DBBB28779B3FD46E3D7F6FA0556098E16
:109ED000930600023356C7006388D7009387E44394
:109EE000B317F700B3E8F800B3361001D18E13F6BC
:109EF0007600814701CE93F7F60011460147E392C1
:109F0000C7FA931797001316D701B18313D73600FA
:109F1000518F014695BEE370CBF0729B3335CB0178
:109F20001A957917AA964DBBAE88C5BBAE8631BDD2
:109F300093171E0033BEC70172931A96F9183E8E0E
:109F4000E315F6E7E307DEC693E818009DB1BE8887
:109F5000E30AF6FF99BD36881306F07F8147014773
:109F600025B6E367DEFCBE88E310DEFE99B113D7A9
:109F70004501B7071000FD1713D846011377F77F87
:109F80009308F07F33F3B7002A8EF58FFD81B28EF0
:109F90001378F87FFD8263081703630018030DEB45
:109FA000B368A300631408005D8E29CA63850804A2
:109FB0006388D502054595ED8280B3E8C700E3804C
:109FC00008FE795582803365A30065FD630CE802C5
:109FD000631408005D8E79DEE39ED5FCE34CE8FC5B
:109FE00063480701E3E867FC6303F302637FF30060
:109FF00081E57D558280F5DE054582800145E39B44
:10A0000008FA82805D8E69DA6DBF01458280E3E3E4
:10A01000CEFB0145E372DEFBE5F1E1BF13D745015D
:10A02000B7071000FD1713D846011377F77F930881
:10A03000F07F33FEB700AA8EF58FFD81328F137843
:10A04000F87FFD82630E1703630D180129E3B368DF
:10A05000AE00631F08005D8E01EE0143638C0804AF
:10A0600021A8B3E8C7000943639608046DD305A08F
:10A07000638408046385D50205438DCD7D531DA8F7
:10A08000B368AE00094363970802630AE8026314E9
:10A0900008005D8E75D2E391D5FEE34FE8FC63497D
:10A0A0000701E3EBC7FD630FFE0001436374FE008D
:10A0B000F1D505431A858280EDFE7D53E5BF5D8EA7
:10A0C00079DACDBFE36ADFFB0143E3F5EEFFF5F19B
:10A0D00075B7370710007D1701113373B70093D898
:10A0E0004601758F935ED60122CC26CA0E0393D407
:10A0F00045019357D5010E0706CE4AC84EC693F8C0
:10A10000F87F130EF07F33E7EE0093F4F47F13D45F
:10A11000F50133E36700131F3500FD82931E3600FF
:10A120006380C81993C61600B38514416305D41221
:10A130006351B018638B081AB70780005D8F638185
:10A14000C4599307800363C4B734FD4763C5B74858
:10A15000930700028D8FB3D9BE003318F700B39E6A
:10A16000FE00336838013357B700B339D001336884
:10A1700038013303E340B3090F41B3373F013306DE
:10A18000F3409317860063D30724370980007D19B5
:10A1900033792601630F092C4A85EF10B00B1307A2
:10A1A00085FF93070002998FB3D7F9003316E900B2
:10A1B000D18FB399E9006344972A058F13061700DE
:10A1C000FD4663C5C63A13070002118FB3D6C90016
:10A1D0003398E9003397E700558F33380001B369AE
:10A1E000070133D6C700814493F7790081CF93F6F6
:10A1F000F90091476388F6009386490033B8360129
:10A200004296B6899317860063D6071C13871400FD
:10A210009307F07F05886306F720B70780FFFD17D7
:10A22000F18F1398D70193D93900A6073368380105
:10A23000B1831377F77F9396C7005207B1827E04EC
:10A24000D98EC18EF2406244D2444249B24942851D
:10A25000B685056182806356B00A638A0812B70723
:10A2600080005D8F6387C42D9307800363C7B71891
:10A27000FD4763D2B73C138805FE93070002B3592C
:10A280000701638AF50093070004B385B7403317CD
:10A29000B700B3EEEE003338D0013368380195A231
:10A2A000B367D7019385148099E393C61600630AB8
:10A2B000D404D1E19387140093F7E77F6399071ED5
:10A2C000B367E3013368D701639204166382073CE6
:10A2D00063160842131835009316D301135838003B
:10A2E00033E806019357330019A2B367D70163859A
:10A2F000071A9387F5FF638B073A638CC523BE85E6
:10A3000089B56399051C9386140093F7E67FC1EF26
:10A31000B367E30163900436638D0744B367D701E5
:10A32000639407460E051318D3010D813368A80006
:10A33000935733006DA8B385984063970420B367A3
:10A34000E301638D07309387F5FF638907401305A9
:10A35000F07F6383A520BE859307800363C2B72A7D
:10A36000FD4763C8B73C930700028D8F3318F30095
:10A370003356BF00B317FF003368C800B339F0008D
:10A380003353B3003368380133076740B5ACB36764
:10A39000D701638307109387F5FF638F071E6380E0
:10A3A000C52FBE85D1B59307F07F638BF606FA9E65
:10A3B00033B6EE01B307E300B2971398F70193DECB
:10A3C0001E00B369D80113D61700B68493F779003D
:10A3D000E39F07E09317D60113D839003368F800DC
:10A3E000A685935736001307F07F6380E506B20712
:10A3F000B18313F7F57F05883DBD3367D701333847
:10A40000E000B309E801B3B7E901338667009317A9
:10A410008600E3DD07FA85049307F07F639CF41858
:10A4200005881307F07F8147014831B56391071014
:10A430006301083C131836009317D70113583800EE
:10A440003368F800368493573700B367F800E9DBC8
:10A4500001441307F07FB70708000148E9BB37063E
:10A4600080FF7D167D8E93F77900998CE39107D854
:10A4700095B74E85EF10005E13078501FD47E3D2C7
:10A48000E7D2130685FFB397C90081492DB333681E
:10A49000D70133380001C5B1131835009317D30124
:10A4A000135838003368F800935733002DBFB309B1
:10A4B000DF413309E34033363F013309C940931785
:10A4C000890063CA072033E82901E31508CC8147D6
:10A4D000014431BFB385984063810414B7068000FE
:10A4E0009307F07F3363D3006381F82093078003E1
:10A4F00063CCB722FD4763C9B72C930700028D8F49
:10A500003318F300B356BF00B317FF003368D80009
:10A51000B339F0003353B300336838011A97B309E5
:10A52000D801B3B7D9013386E700C684CDB5E311AE
:10A5300008F2131835009317D30113583800336805
:10A54000F8009357330011B7370580009307F07F69
:10A550003363A300E392F8E00E061318D7010D82CF
:10A560003368C800935737003684C5B5051793067E
:10A57000000233D7E700630AD6009306000433864F
:10A58000C6403396C700B3E9C90033383001B36918
:10A59000E800014681441DBDB309DF01B307E300B4
:10A5A00033BFE9013386E701931786008544E3DF73
:10A5B00007E08944B70780FFFD17F18F13D7190013
:10A5C00013F81900336807019399F701B3E90901FA
:10A5D00013D6170011B9138805FE93070002B3596B
:10A5E0000701638AF50093070004B385B74033176A
:10A5F000B700B3EEEE003338D00133683801A5BEA2
:10A600003363E30133386000B3890E41B3B73E01D1
:10A610003306F740C6843684ADB6B367E30163877B
:10A6200007189387F5FF638C071C9306F07F638EF2
:10A63000D50ABE8565BD930700028D8FB3D9BE00D4
:10A640003318F700B39EFE00336838013357B70064
:10A65000B339D001336838013A9365B31318360023
:10A660009317D7011358380033E8070136849357FE
:10A67000370095BBBDCB3367D701E31B07DC0E0565
:10A680001318D3010D813368A8009357330075BBAD
:10A69000E30F08E2131836009317D7011358380058
:10A6A0003368F80036849357370091B3B309DF411C
:10A6B000B307E340333F3F013386E7418544D1B4DC
:10A6C000131835009316D3011358380033E80601E8
:10A6D000935733009DBBB389EE413306674033B9CE
:10A6E0003E0133092641368475B40E061318D7018E
:10A6F0000D823368C8009357370081BBB309DF412F
:10A70000B307E34033363F013386C74093178600D3
:10A7100063D7070AB389EE41B3076740B3BE3E0172
:10A720003386D7413684C9B43363E30133386000DC
:10A73000FDB3138805FE93070002B3590301638A32
:10A74000F50093070004B385B7403313B300336FAC
:10A750006F003338E001336838017DB5B389EE41CD
:10A76000B3076740B3BE3E013386D7413684854484
:10A7700009BC131836009317D701135838003368F3
:10A78000F80093573700A5B1B309DF01B307E30021
:10A7900033BFE9013386E70193178600E3D807C288
:10A7A000B70780FFFD177D8E85440DB10E06131887
:10A7B000D7010D823368C800935737002DB133E8B5
:10A7C000C900E30608D019B1138805FE93070002FB
:10A7D000B3590301638AF50093070004B385B740BA
:10A7E0003313B300336F6F003338E001336838013F
:10A7F0003DB301441307F07FB70708002DBCB30930
:10A80000DF01B307E300B3BED9013386D70169BBCB
:10A810004111370780007D1713D8750126C2935464
:10A8200075013373A70093F4F40FB376B7004AC0F1
:10A830001378F80F1359F50106C622C4FD819A87D3
:10A8400026854A86131E3300939E3600B388044142
:10A85000630AB90E6350100D630408149307F00FD8
:10A86000638BF414B7070004B3EEFE00ED4763C139
:10A87000172993070002B3871741B397FE00B3D897
:10A880001E01B337F000B3E7F800B307FE4013979B
:10A890005700635E0718370400047D147D8C228501
:10A8A000EF10401B6D15B317A4006348951A058D72
:10A8B0001304150013070002018F3397E7003337A5
:10A8C000E000B3D78700D98F814413F7770019C709
:10A8D00013F7F70091466303D700910713975700CA
:10A8E000635B071485041307F00F4A866383E4163D
:10A8F0009A07A58313F5F40FB2402244A6079314D8
:10A90000750113D59700458D7E0692440249518DFD
:10A91000410182806399080A138714001377E70FB7
:10A920006317071463900422630D0E1EE3860EFC6A
:10A93000B307DE411397570063500722B387CE4118
:10A940002E8961B7635C100B630E08089307F00F44
:10A950006383F406B7070004B3EEFE00ED4763C956
:10A96000171F93070002B3871741B397FE00B3D8B0
:10A970001E01B337F000B3E7F800F29713975700C2
:10A980006357070A85041307F00F6384E40CB706C6
:10A99000007E13D71700FD16858B758FD98F35B7BD
:10A9A000638D0E08FD18B307DE41E38208EE9307BE
:10A9B000F00FE39DF4EA630D030801461305F00F61
:10A9C000B707400015BF33079840EDE863020E1447
:10A9D0007D17630807189307F00F6319F80E2E8987
:10A9E0003683D1BF638B0E04FD18B307DE01E38706
:10A9F00008F89307F00FE393F4F675BF6395080822
:10AA0000850413F7E40F6313071263170510630F30
:10AA10000E14E3830EEEB307DE0113975700814453
:10AA200063570700370700FC7D17F98F854413F73C
:10AA30007700E31F07E813D337009307F00FE38C89
:10AA4000F4F693179300A58313F5F40F4A866DB5BA
:10AA50004A861305F00F814745B5370700FC7D177F
:10AA6000F98F13F77700898CE31407E6E9B733040D
:10AA7000DE419317540063C3070CE31204E201465E
:10AA80000145814795BD33079840ADC49307F00F4A
:10AA9000E308F8F4B7070004336EFE00ED4763CC1B
:10AAA000E70C93070002998FB317FE003357EE00AF
:10AAB000B337F000D98FF697C284C9B59307F00F6A
:10AAC000E30FF8F0B7070004336EFE00ED4763C3F1
:10AAD000E70893060002998EB316DE00B357EE0026
:10AAE0003337D000D98FB387FE40C2842E8945B357
:10AAF000854761BB630E0E067D17B307DE01C28476
:10AB0000E30E07E69307F00FE31AF8F8368365B50E
:10AB10003683C2842E8915B7E3040EECE38D0EE86C
:10AB200069BD638D0E022E86B687F9B39307F00FC9
:10AB3000E381F4F2B307DE018583D5BD3384CE41D2
:10AB40002E89B1BBE31C0EFCE3890EE62E8949BDBC
:10AB5000854725B5854741BFE39B07EC0146814703
:10AB600061BBB387CE41C2842E8915B3B68769B362
:10AB70003683C284D9B585473DBF39719357750176
:10AB80004AD856D25ECE931A95001359F50106DEC7
:10AB900022DC26DA4ED652D45AD093F7F70F93DA46
:10ABA0009A00CA8B638207121307F00F6384E712BF
:10ABB0008E0A37070004B3EAEA00138A17F8014443
:10ABC000014B93D775019394950093F7F70FA580E8
:10ABD00093D9F501FDC71307F00F6387E7028E04D1
:10ABE000938717F837070004D98C330AFA40814657
:10ABF000558C173700001307A7D80A043A941C4055
:10AC000033493901BA978287130A1AF0F9E889465D
:10AC1000558C173700001307A7DA0A043A941C4032
:10AC200033493901BA97828701491307F00FB707F3
:10AC3000400013959700F2506254931777012581D5
:10AC40007E095D8D33652501D2544259B259225A8D
:10AC5000925A025BF24B216182801307F00F814709
:10AC6000C9BFA68ACE8B368B8947630BFB1A8D47EB
:10AC7000E30CFBFA8547630AFB0A1307FA0713F98B
:10AC80001B006357E01293F77A0099C793F7FA0015
:10AC900091466383D700910A93974A0063D90700CE
:10ACA000B70700F8FD17B3FAFA0013070A0893076D
:10ACB000E00FE3C4E7FA93976A00A5831377F70FD1
:10ACC0008DBFB9E48546A9B763940A021144014ACD
:10ACD000054BC5BD63990A002144130AF00F094BC7
:10ACE000CDB58D4631B73144130AF00F0D4BD1BDB0
:10ACF00056852EC6EF0010569307B5FFB39AFA009B
:10AD00009307A0F8338AA7400144014BB24555BDD3
:10AD10002685EF0030541307B5FFB307AA00B3949C
:10AD2000E400138A67078146E1B513F91B00014768
:10AD3000814701B74166139554007D16935705016D
:10AD4000698E63FA9A0AB3D5FA027D1AD68601474C
:10AD50003388C502B3F6F602C206558F637B07013E
:10AD60002A979386F5FF6368A70A6376070BF915A0
:10AD70002A9733070741B356F7023377F702B38AAE
:10AD8000C6029317070163FB5701AA971387F6FFC3
:10AD900063E1A70863FF5707F916AA97C205B38AAC
:10ADA0005741D58DB33A5001B3EA5501CA8BF1B57D
:10ADB0008546998E11C76D4601478147E34BD6E61C
:10ADC000130AEA09339A4A01B3D7DA00B33A4001C9
:10ADD000B3E7570113F7770019C713F7F700914648
:10ADE0006303D700910713975700634807029A0738
:10ADF000A58301473DBD93D61A00B3D5F60213973C
:10AE0000FA0141833388C502B1B7CE8B368B814AB4
:10AE1000A1BDBA8661B7B685A9BF0547814711BDF7
:10AE200013F91B001307F00F814721B593567501E5
:10AE3000B7078000FD1713D6750193F6F60F1308B8
:10AE4000F00FB3F8A7001357F501ED8F1376F60F47
:10AE5000FD81638406031305F00F6304A602054514
:10AE60006383C6008280E39FF8FE0145E30CB7FED2
:10AE70000545EDFA3335100182800545E38D08FC68
:10AE800082800545E9DF828093567501B70780000F
:10AE9000FD1713D6750193F6F60F1308F00FB3F8EC
:10AEA000A7001357F501ED8F1376F60FFD8163812F
:10AEB0000603630C06018DE211E2B1C3638E080242
:10AEC0006305B70405451DE78280F5D77955828073
:10AED000E39E08FE6309D60211E2EDD7E314B7FE44
:10AEE000E342D6FE63C7C600E3EE17FD0145E3FD6E
:10AEF000F8FC01E77D558280F5DD0545828001453E
:10AF0000E39208FC8280F9DBD1B78146E1BF93561A
:10AF10007501B7078000FD1713D6750193F6F60F7C
:10AF20001308F00FB3F8A7001357F501ED8F137650
:10AF3000F60FFD81638706036309060185EA11EABE
:10AF400089EB0145639B080082800945F5FFE5DA3E
:10AF500031A8638C08026300B704054575D77D5599
:10AF600082800945639808026304D60211E2F5D78E
:10AF7000E315B7FEE343D6FE63C7C600E3EF17FD54
:10AF80000145E3F3F8FC19E3D9BFF1D90545828007
:10AF9000E5D3828082808146C5B7797122D413546B
:10AFA00075014ECE52CC9319950006D626D24AD0C2
:10AFB00056CA5AC81374F40F93D99900135AF5015D
:10AFC00069C49307F00F6308F40E939739003707AD
:10AFD0000004B3E9E700130414F88144014B13D7CC
:10AFE0007501939A95001377F70F93DA9A0013D9A6
:10AFF000F50145CF9307F00F630CF7028E0A130794
:10B0000017F8B7070004B3EAFA003A94014633454B
:10B010002A01BD47AA869305140063E297101737EB
:10B0200000001307E79D8A04BA949C40BA97828770
:10B030001304F40F63980A0C93E424000946C1BF7B
:10B0400001451307F00FB7074000B2502254A6077E
:10B050005E07A5837E05D98F92540259F249624A50
:10B06000D24A424B5D8D45618280CA86D689328B39
:10B0700089476301FB0A8D47E304FBFC854736855E
:10B080006312FB1A01478147C9B7639E090413D7AE
:10B090007501939A95001377F70F91440144054B7E
:10B0A00093DA9A0013D9F50131F7639D0A0093E40E
:10B0B00014000546A9BF63930902A1441304F00FCD
:10B0C000094B31BF5685EF00F0189307B5FF098C87
:10B0D000B39AFA001304A4F8014615BFB14413044F
:10B0E000F00F0D4BEDBD4E852EC6EF00B016930749
:10B0F000B5FF1304A0F8B399F900098C8144014B02
:10B10000B245F1BD93E434000D4611B78947D286AC
:10B11000E313FBF636851307F00F81473DB7416314
:10B120009306F3FF13D6090193D80A01B3F7D900A8
:10B13000B3FADA0033885703B389F80213570801CA
:10B14000B30A5603D6994E97330616036373570115
:10B150001A96C167FD17B376F7003378F800C20678
:10B16000C2969399660093570701B3393001E9827B
:10B17000B2979A07B3E6D900B3E9D700939749008D
:10B1800063D9070013D7190093F71900B369F700C3
:10B190002E841307F4076350E00493F7790099C7EE
:10B1A00093F7F90091466383D7009109939749007B
:10B1B00063D90700B70700F8FD17B3F9F9001307C3
:10B1C00004089307E00F63CBE70493976900A58316
:10B1D0001377F70F9DBD8547B386E74011C76D46CE
:10B1E00001478147E343D6E61307E4093397E900B3
:10B1F0003337E000B3D7D900D98F13F7770019C7D9
:10B2000013F7F70091466303D70091071397570090
:10B21000634C07009A07A583014705BD1307F00F8C
:10B22000814725B52E84B5B70547814739BD370716
:10B23000800041117D179356750113D87501B377BE
:10B24000A70093F6F60F935EF5013376B70026C29A
:10B250004AC01378F80F06C622C41303F00F3E8EBF
:10B260003689F684139F3700FD8113153600B388A5
:10B2700006416302681093C51500638CBE106354C9
:10B28000100D631008106304051EFD18B307AF40CE
:10B29000638608029307F00F6388F616ED4763C7CD
:10B2A000172913070002330717413317E500B35777
:10B2B00015013337E000D98FB307FF4013975700CC
:10B2C0006351071A370400047D147D8C22855927A9
:10B2D0006D15B317A400634E251B330525411304D8
:10B2E000150013070002018F3397E7003337E000A2
:10B2F000B3D78700D98F014913F7770019C713F720
:10B30000F70091466303D700910713975700635ED8
:10B310000714930619001307F00F93FE14006386B9
:10B32000E6169A07A58393F6F60FA607B2402244C5
:10B3300013D59700DE069397FE01558D924402497E
:10B340005D8D410182806392080A1387160013778E
:10B35000E70F631B07146394062263020F2071D565
:10B36000B307AF401397570063550722B307E54172
:10B370000149AE8451B7E30005F0638ABE0AE35485
:10B3800010FD9307F00F6381F608B70700045D8D89
:10B3900031B7635E1009630108089307F00F6385F6
:10B3A000F606B70700045D8DED4763C0171F13074E
:10B3B0000002330717413317E500B3571501333740
:10B3C000E000D98FFA9713975700635C07080509C7
:10B3D0001307F00F630BE90AB706007E13D71700B7
:10B3E000FD16858B758FD98F01BF3307D8406395C4
:10B3F0000610630D0F147D176303071A9307F00FF0
:10B400006314F810AE84328E630F0E06814E9306DD
:10B41000F00FB707400011BF39C9FD18B307AF00DF
:10B42000E38308FA9307F00FE390F6F8F1BF63990E
:10B430000808138916001377E90F63160712639B38
:10B44000061063030F16E30205EEB307AF00139770
:10B450005700014963570700370700FC7D17F98F34
:10B46000054913F77700E31C07E813DE370093075D
:10B47000F00FE30BF9F893179E00A5839376F90F6D
:10B4800093FE14005DB593FE14009306F00F814700
:10B4900069BD370700FC7D17F98F13F77700330973
:10B4A000A940E31E07E4D1B73304AF40931754001B
:10B4B00063C3070CE31C04E0814E81468147B5B5A8
:10B4C0003307D840B5C69307F00FE30EF8F2B7077D
:10B4D0000004336FFF00ED4763CDE70C93070002D4
:10B4E000998FB317FF003357EF00B337F0005D8F2C
:10B4F000B307A7004289C1BD9307F00FE304F8F03A
:10B50000B7070004336FFF00ED4763C2E7089307F6
:10B510000002998FB317FF003357EF00B337F000E5
:10B52000D98FB307F5404289AE8449BB854769B3DB
:10B53000630E0F067D17B307AF004289E30507E8E6
:10B540009307F00FE319F8F8328E7DBD328E4289F1
:10B55000AE8431BFE3090FEAE30805EA45BD0DCD2E
:10B56000AE8EB287D9B39307F00FE300F9F2B307B9
:10B57000AF008583FDB53304E541AE8481BBE31D97
:10B580000FFCE30505E8AE84BDBD854725BD8547B5
:10B5900049BF0149E39707EC814E814779B3B3076F
:10B5A000E5414289AE8419BBB28741B3328E4289EC
:10B5B0007DBD054735BF93567501B7078000FD1760
:10B5C00013D6750193F6F60F1308F00F33F7A700A3
:10B5D0001376F60FED8F638B06011307F00F01450D
:10B5E0006303E60082803335F0008280054575D71D
:10B5F000828037068000135775019307F6FF137793
:10B60000F70F9305E007B3F6A7009357F50163FC26
:10B61000E5009305D00963FAE5003705008013457E
:10B62000F5FF3E9582800145828093055009D18EB9
:10B6300063CDE500130660093307E64033D7E60023
:10B640003305E040F5F33A8582801307A7F6339778
:10B65000E600FDB713577501370680009307F6FF24
:10B660001377F70F9305E007B3F6A7009357F5019B
:10B67000014563F4E50099C3828082809307E00965
:10B680007D55E3EBE7FE93055009B3E7C60063D7AA
:10B69000E5001307A7F63395E700828013056009DC
:10B6A0003307E54033D5E7008280411106C622C446
:10B6B00026C20DCD9357F54133C4A7001D8CAA8433
:10B6C0002285492E9307E0093387A7409307600935
:10B6D000FD8063CCE702A1469377F70F63D5A60000
:10B6E00061153314A4002604258021A081448147DC
:10B6F0000144260413559400B2402244DE07FE04A0
:10B700005D8D458D9244410182809307900963DDF0
:10B71000E7009307B5019546B317F400898E3354BB
:10B72000D400B337F0005D8C954763D6A70093072C
:10B73000B5FF3314F400B70600FCFD1693777400D0
:10B740003376D40085C39377F4009145638CB700BA
:10B7500011069317560063D707009307F009758EFB
:10B760003387A7401314660025809377F70F51B7EE
:10B77000411106C622C415CD2A84E92C9307E0099D
:10B780003387A7409307600963C0E704A146937716
:10B79000F70F63D5A60061153314A4002604258095
:10B7A000260413559400B2402244DE075D8D41010A
:10B7B00082800144260413559400B24022448147FC
:10B7C000DE075D8D410182809307900963DDE7000C
:10B7D0009307B5019546B317F400898EB337F0008F
:10B7E0003354D4005D8C954763D6A7009307B5FF0B
:10B7F0003314F400B70600FCFD169377740033761B
:10B80000D40085C39377F4009145638CB70011068B
:10B810009317560063D707009307F009758E338797
:10B82000A740131466002580260413559400B240E7
:10B8300022449377F70FDE075D8D41018280135715
:10B8400075011377F70F41119307170022C426C221
:10B850001314950006C693F7E70F25809354F5015E
:10B8600085C793573400130707387604B207520789
:10B87000B1831395F401D98FC98FB2402285224438
:10B880009244BE854101828005EB39C42285D922CC
:10B89000A94763C6A7042D47098F9307550133575E
:10B8A000E4003314F4009317C70013079038098F8E
:10B8B000B1831377F77F5DBF01CC13573400B7070F
:10B8C0000800D98FB2077604B1831307F07F79BFE0
:10B8D0001307F07F814759BF0147814741BF1307D5
:10B8E00055FF3317E40001447DBF93D6450193977C
:10B8F000C50093F6F67FB183138616008E071357A3
:10B90000D5011376E67FFD815D8F9318350035CE26
:10B91000138806C89307E00F63DD0701814713957D
:10B9200097009306F00FDE062581FE05558D4D8D9F
:10B9300082806355000B931765000E07B337F00044
:10B94000D98F93D8D801B3E7170113F777006301B4
:10B95000071013F7F70091466303D70091073707E5
:10B9600000047D8F75C7130718001306F00F937638
:10B97000F70FE305C7FA9A07A58313959700DE062C
:10B980002581FE05558D4D8D8280B367170199EE97
:10B9900085CF95479A07A5831395970093F6F60FE1
:10B9A000DE062581FE05558D4D8D8280A5DBB7070E
:10B9B0004000139597009306F00FDE068145258120
:10B9C000FE05558D4D8D82808147139597008146E8
:10B9D000DE062581FE05558D4D8D8280A557634875
:10B9E000F804F94737068000B38707417D45598E33
:10B9F0006351F504795733070741130500023357A4
:10BA0000E6006388A700938626CAB316D600B3E87B
:10BA1000D800B3371001D98F13F77700014815FB11
:10BA2000139757008546E34807F48146A5B781463A
:10BA30008DB7938626C83397D8003337E000B31606
:10BA4000D600B3D8F800B367D700B3E7F800E9B77A
:10BA5000C28689B7C167637EF5029307F00F1307AB
:10BA6000000263ECA70097270000938767FDAA9761
:10BA700003C507003305A740828021819727000076
:10BA8000938707FCAA9703C5070061473305A740C2
:10BA90008280B7070001636EF5006181972700007F
:10BAA000938707FAAA9703C5070021473305A740E4
:10BAB0008280418197270000938787F8AA9703C562
:10BAC000070041473305A7408280938781818843DF
:10BAD000828001476314E60001458280B307E500D8
:10BAE0000507B386E50083C7070083C6F6FFE38337
:10BAF000D7FE3385D7408280B3C7A5008D8B33072F
:10BB0000C50081E78D4763EEC700AA876370E50A29
:10BB100083C6050085078505A38FD7FEE3EAE7FE08
:10BB2000828093763500AA8791CA83C6050085076F
:10BB30008505A38FD7FE93F63700FDB79376C7FF31
:10BB4000138606FE63F0C70683A3050083A24500A3
:10BB500083AF850003AFC50083AE050103AE450189
:10BB600003A3850183A8C5019385450223A077001F
:10BB700003A8C5FF23A2570023A4F70123A6E701CA
:10BB800023A8D70123AAC70123AC670023AE17015E
:10BB90009387470223AE07FF75B790419107910540
:10BBA00023AEC7FEE3EBD7FEE3E4E7F6828039710C
:10BBB0003EDA2ED232D436D63AD842DC46DE9387ED
:10BBC000818122CC804326CA06CEAA8409C41C4C9B
:10BBD00099E32285C9280C4454102686228536C64E
:10BBE000BD2EF2406244D24421618280411122C4C0
:10BBF00006C62A842316B5002317C5002320050096
:10BC000023220500232405002322050623280500FE
:10BC1000232A0500232C0500214681451305C5056F
:10BC2000EF400FDE971700009387479C5CD0971773
:10BC300000009387A79E1CD4971700009387E7A264
:10BC40005CD4971700009387A7A500D01CD8B240FA
:10BC5000224441018280971500009385E5DB91AA7B
:10BC6000411126C2130680069384F5FFB384C402F3
:10BC70004AC02E8922C406C6938544074D222A84D1
:10BC800001CD2320050023222501310508C4138698
:10BC900084068145EF40CFD62285B24022449244AB
:10BCA0000249410182801C4DA5E7411106C622C40C
:10BCB00097070000938767FA1CD5938781829C437E
:10BCC0002324050423260504232805046314F50012
:10BCD00085471CCD2A84352848C022851D2808C4E4
:10BCE0002285052848C4484001469145EFF01FF0E1
:10BCF00008440546A545EFF07FEF48440946C9458D
:10BD0000EFF0DFEE85471CCCB24022444101828037
:10BD1000828041119387818226C284434AC006C62D
:10BD20009C4C22C42A8981E72685EFF0DFF79384B3
:10BD300084048044DC40FD1763D607009C40B9CFE3
:10BD40008440C5BF0317C40039E7C17785072322A4
:10BD500004062320040023220400232404005CC4DE
:10BD600023280400232A0400232C040021468145B3
:10BD70001305C405EF40CFC8232A0402232C040274
:10BD800023240404232604042285B240224492443E
:10BD90000249410182801304840671BF91454A859E
:10BDA000EFF01FEC88C049FDB1472320F9000144A2
:10BDB000E1BF797122D44AD052CC56CA5AC85EC665
:10BDC00006D626D24ECE2A8AAE8A130485040149AD
:10BDD000054BFD5B09ECB25022544A85925402593E
:10BDE000F249624AD24A424BB24B456182800444D6
:10BDF00083294400FD1963D409000040E1BF83D7C3
:10BE0000C400637BFB008397E40063877701A6850A
:10BE10005285829A3369A90093848406E1BF011197
:10BE200026CA93843500F19806CE22CC4AC84EC665
:10BE3000A104B14763F3F404B14463E2B4042A8972
:10BE4000EF0030589387018698433A8439E093870E
:10BE500041869C4391E781454A85B12F23A2A18663
:10BE6000A6854A85892FFD5963193507B1472320D7
:10BE7000F9004A85EF00105529A0E3D004FCB14732
:10BE80001CC10145F2406244D2444249B2490561B5
:10BE900082801C40858F63CF0702AD4663F6F600B3
:10BEA0001CC03E9404C031A05C406313870223A0F1
:10BEB000F1864A85EF0010511305B4009307440042
:10BEC00061993307F5405DDF3A94898F1CC05DBFEF
:10BED0005CC3C5B72287404095BF130435007198F5
:10BEE000E30285FCB305A4404A85F125E31C35FB3C
:10BEF000B5BF1C46FD171CC663D90700184E63C5A5
:10BF0000E700A9476393F50069AF1C422E851387AC
:10BF1000170018C22380B7008280011122CC26CAE4
:10BF20004AC84EC652C406CE2A89AE893284B304AA
:10BF3000D6007D5A63149400014511A8834504007E
:10BF40004E864A85EFF0FFFA0504E31545FFF240FF
:10BF50006244D2444249B249224A05618280357125
:10BF600022CD26CB4AC94EC706CF52C556C35AC1A9
:10BF7000DEDEE2DCE6DAAA89AE843289368409C5DF
:10BF80001C4D99E3EFF03FD297270000938747BD00
:10BF9000639DF40C83A4490083D7C400A18BE5CB37
:10BFA0009C48F5C793070002A304F102930700031E
:10BFB00002D22305F10222C6930B5002972A0000F9
:10BFC000938A0ABE054C294B4A848347040099C3CF
:10BFD0006391770FB30C2441638E0C00E6864A868A
:10BFE000A6854E85EFF07FF3FD576308F51E925648
:10BFF000E69636D2834704006381071EFD57130976
:10C00000140002C802CE3ECA02CCA309010482D4A5
:10C010008345090015465685EF00103913041900B1
:10C02000C24751E913F7070109C713070002A30923
:10C03000E10413F7870009C71307B002A309E1045D
:10C04000834609001307A002638FE606F2474A847D
:10C05000814625460347040093051400130707FD96
:10C060006378E60AADCA3ECEBDA09727000093874D
:10C0700027B16395F40083A4890039BF9727000096
:10C08000938707ACE39AF4F083A4C90031B7A6857F
:10C090004E85212701D97D55FA406A44DA444A4940
:10C0A000BA492A4A9A4A0A4BF65B665CD65C0D612D
:10C0B0008280050419BF330555413315AC00C98F83
:10C0C0003EC82289B1B7324793064700184336C6A7
:10C0D000634907023ACE034704009307E002631F57
:10C0E000F704034714009307A002631BF702B2474B
:10C0F0000904138747009C433AC663C107023ECA3E
:10C1000035A83307E04093E727003ACE3EC8E1B7B1
:10C11000B387670385462E84BA972DBFFD57C5B7F1
:10C12000050402CA8146814725460347040093055A
:10C130001400130707FD6378E606F1F28345040057
:10C140000D4617250000130525A6EF00F02511CD9B
:10C1500097270000938747A51D8D93070004B39789
:10C16000A700424505045D8D2AC883450400194691
:10C1700017250000130585A3130914002304B10239
:10C18000EF0090223DC19747FFFF9387A7E795E710
:10C190004247B2471377071009CF91073EC692571F
:10C1A000D2973ED215B5B387670385462E84BA97DA
:10C1B000ADBF9D07E19BA107D5B7780097060000AA
:10C1C0009386E6D526860C084E8597000000E7008A
:10C1D0000000FD572A8AE314F5FC83D7C40093F7C7
:10C1E0000704E39A07EA125545BD78009706000058
:10C1F0009386E6D226860C084E85012AD9BF79712E
:10C2000056CA9C49BA8A984522D426D24ECE52CCE0
:10C2100006D64AD05AC85EC6AA892E84B284368A07
:10C2200063D3E700BA879CC00347340419C385076A
:10C230009CC01C4093F7070281C79C4089079CC0A3
:10C240000329040013796900631A0900130B940190
:10C25000FD5B5C449840998F634CF9041C40834615
:10C26000340493F70702B336D000A5EB1306340469
:10C27000D2854E85829AFD576303F5041C40114612
:10C280009840998B544481446397C700B384E64037
:10C2900063D3040081441C4418486354F700998F09
:10C2A000BE94014969047D5B63982405014509A892
:10C2B00085465A86D2854E85829A631E75017D55C4
:10C2C000B250225492540259F249624AD24A424B25
:10C2D000B24B456182800509ADBF3307D400130618
:10C2E0000003A301C7040347540493871600A297D1
:10C2F0008906A381E7049DBF85462286D2854E85A7
:10C30000829AE30E65FB050945B7797122D426D2DE
:10C310004AD04ECE06D652CC56CA5AC8B68983C623
:10C320008501930790063289AA842E8413863504EA
:10C33000638DF60263E2D706930780056389F618DA
:10C3400063EDD7006382062293073004638FF60AF9
:10C35000930A24042301D404D1A0930730066386F2
:10C36000F60A93074006E395F6FE1C40084393F651
:10C37000070893054500CDC61C410CC363D80700D0
:10C380001307D002B307F040A301E404972600008E
:10C3900093864682294775A8930700076385F6169A
:10C3A00063E5D7029307E006638CF6189307F0065F
:10C3B000E390F6FA0C401C4313F805081385470078
:10C3C0006308080608C39C4395A893075007E383B6
:10C3D000F6FE93078007638CF61293073007E39904
:10C3E000F6F61C43D04181459386470014C383AAC7
:10C3F00007005685EF00407B01C53305554148C015
:10C400005C401CC8A301040471A81C43930A2404C3
:10C41000938647009C4314C32301F4048547D5B792
:10C4200093F607041C410CC3B1DAC207C187B9B740
:10C4300093F5050408C3C1D983D707001307F00695
:10C440006388E60E971600009386C6762947A301F7
:10C4500004044C400CC463C5050008406D9908C035
:10C4600099E3B28A91CDB28AB3F5E702FD1AB69587
:10C4700083C505002380BA00B3D5E70263F0E70C5B
:10C48000A147631EF7001C40858B91CB58401C4888
:10C4900063C7E70093070003A38FFAFEFD1A330674
:10C4A000564110C84E87CA867000A2852685EFF0D7
:10C4B0001FD57D5A631E450B7D55B25022549254B0
:10C4C0000259F249624AD24A424B45618280A382B4
:10C4D000D504971600009386E66D0C40084313F8C8
:10C4E00005081C411105630D080208C313F7150068
:10C4F00001C793E505020CC04147B1FB0C4093F521
:10C50000F5FD0CC0A9B79C4193E707029CC19307B6
:10C510008007A302F404971600009386E66A75BFAD
:10C5200013F8050408C3E30308FCC207C1837DBFF9
:10C530009716000093860668214711BFAE872DB776
:10C5400094411C43CC4913F8060813854700630641
:10C55000080008C39C438CC301A808C393F60604D3
:10C560009C43F5DA2390B70023280400B28A1DBF4C
:10C5700014485686CA8526858299E30F45F31C40E8
:10C58000898B8DE7B2474844E359F5F23E8535B7CC
:10C5900085465686CA8526858299E30F65F1050A88
:10C5A0005C443247998FE345FAFEE9BF014A930A9A
:10C5B00094017D5BF5B7411122C42A842E859757DB
:10C5C000FF1F23AF076406C6EF50CFAAFD576319BC
:10C5D000F5009757FF1F9387A7649C4391C31CC026
:10C5E000B240224441018280411122C42E848395AD
:10C5F000E50006C6AD2D634905007C48AA977CC8B6
:10C60000B2402244410182808357C4007D777D1768
:10C61000F98F2316F400EDB783D7C500011122CCA2
:10C6200026CA4AC84EC606CE93F70710AA842E849F
:10C630003289B68991C78395E500894601463D292F
:10C640008357C4007D777D17F98F2316F400831577
:10C65000E4006244F240CE864A86B24942492685C9
:10C66000D244056101A2411122C42E848395E500C4
:10C6700006C62921FD570357C400631BF500FD774B
:10C68000FD17F98F2316F400B24022444101828045
:10C690008567D98F2316F40068C8FDB78395E50038
:10C6A00021A4011122CC26CA4AC806CE4EC6AA84AD
:10C6B0002E89328409C51C4D99E3EFF0CFDE971720
:10C6C00000009387E7496319F406C0401C4C1CC462
:10C6D0008357C400A18BC9C31C48BDCF1C48084068
:10C6E0009379F90F1379F90F1D8D5C486346F500B6
:10C6F000A285268505262DE51C440505FD171CC4CD
:10C700001C401387170018C0238037015C486389D9
:10C71000A7008357C400858B81CBA9476316F90016
:10C72000A2852685C52C0DEDF24062444A85D2448F
:10C730004249B249056182809717000093874744B8
:10C740006314F400804459B7971700009387473F5C
:10C75000E31EF4F6C0449DBFA28526853D283DDD3D
:10C760007D59D9B7411122C42A842E85B2853686D7
:10C770009757FF1F23A6074A06C6EF50AF8AFD57FB
:10C780006319F5009757FF1F938787499C4391C30F
:10C790001CC0B240224441018280411193878181B3
:10C7A00026C2844322C44AC006C62A892E8491C464
:10C7B0009C4C81E72685EFF00FCF971700009387F9
:10C7C000273A631CF402C0400317C4009317070103
:10C7D000C18393F68700B5EE93F607019DEEA5475A
:10C7E0002320F900136707042316E4007D55B240A7
:10C7F00022449244024941018280971700009387A6
:10C8000027386314F4008044C1B79717000093875A
:10C810002733E31BF4FAC04445BF918B8DC74C58B6
:10C8200089C9930744046384F5004A85692E232A45
:10C8300004028357C4002322040093F7B7FD231694
:10C84000F4001C481CC08357C40093E787002316DC
:10C85000F4001C4881EF8357C4001307002093F7AE
:10C8600007286385E700A2854A85792C8357C40091
:10C8700013F7170005C75C4823240400B307F040F2
:10C880001CCC1C480145A5F78317C40013F7070803
:10C8900039DF93E707042316F40089BF898B01472A
:10C8A00091E3584818C4F1BF411122C42A842E854F
:10C8B0009757FF1F23A6073606C6A921FD57631900
:10C8C000F5009757FF1F9387A7359C4391C31CC062
:10C8D000B24022444101828083D7C500011122CC9D
:10C8E00026CA06CE4AC84EC613F78700AA842E84ED
:10C8F00071EFD841634DE000B841634AE000014563
:10C90000F2406244D2444249B2490561828058549F
:10C910007DD703A904009396370123A0040063DDAB
:10C92000060670488357C400918B99C75C401D8EE2
:10C930005C5899C33C401D8E5C540C508146268542
:10C940008297FD570357C400631DF5009440F547D7
:10C9500063E8D706B70740208507B3D7D700858B94
:10C96000A5C31C48232204001CC09317370163D8B9
:10C970000700FD576314F5009C4091E368C84C58CC
:10C9800023A02401ADDD930744046384F5002685CC
:10C990001D2C232A0402A5B70C5001468546268586
:10C9A0000297FD572A86E31FF5F69C40A5DF7547E1
:10C9B0006385E70059476394E70423A0240181B706
:10C9C000136707042316E4007D551DBF83A90501E5
:10C9D000E38709F203A905008D8B23A035013309F4
:10C9E0003941014791E3D84918C4E35A20F11C5456
:10C9F0000C50CA864E86268582976349A0008357CD
:10CA0000C40093E707042316F4007DBFAA993309F5
:10CA1000A940E1BF9C49ADC3011122CC06CE2A84B6
:10CA200019C51C4D89E72EC6EFF0EFA7B245971741
:10CA300000009387E712639CF5004C408397C50084
:10CA40009DC722856244F24005616FF0FFE89717A9
:10CA500000009387E7126394F5000C44C5B797175D
:10CA600000009387E70DE39BF5FC4C44C1BFF24007
:10CA7000624401450561828001458280411122C4E2
:10CA80002A842E85B28536869757FF1F23AA07185A
:10CA900006C64D24FD576319F5009757FF1F93876E
:10CAA00027189C4391C31CC0B2402244410182809C
:10CAB0001971A6DAAE848395E500A2DC86DE3284A5
:10CAC00063DC050083D7C40023A0060093F70708A2
:10CAD0009DE39307004015A0300836C6D922B24620
:10CAE000E34205FE7247BD67F98F7977BA9793B72E
:10CAF00017009CC2F9BF930700041CC0F65066548F
:10CB0000D65401450961828083D7C500011122CC2A
:10CB100006CE26CA4AC8898B2E8489CF930774040F
:10CB20001CC01CC885475CC8F2406244D2444249DC
:10CB30000561828074003000AA84EFF07FF7A2457F
:10CB40002A892685EFF0AFAD01ED8317C40013F7F6
:10CB5000072079FBF19B93E727002316F4007DBFA4
:10CB600097F7FFFF9387670F9CD48357C40008C0D3
:10CB700008C893E707082316F400A2475CC8B24729
:10CB800089CF8315E4002685B12201C98357C400EB
:10CB9000F19B93E717002316F4008357C400336911
:10CBA000F9002316240149B793F5F50F2A9663146B
:10CBB000C5000145828083470500E38DB7FE05056A
:10CBC000FDB782808280DDC183A7C5FF411122C4E9
:10CBD00006C626C21384C5FF63D307003E94AA8409
:10CBE000EFF03FFE938701869C4381EF23220400F0
:10CBF00023A081862244B2402685924441016FF0F1
:10CC00007FFC637EF40014403307D4006396E70092
:10CC10009843DC43369718C05CC0D9BFBA87D84365
:10CC200019C3E37DE4FE94433386D700631F860077
:10CC30001040B29694C33386D700E31DC7FA104361
:10CC40005843B29694C3D8C375B76375C400B1474F
:10CC50009CC04DB71040B306C4006316D700144300
:10CC60005843B29614C058C0C0C369B782804111FE
:10CC700022C42A842E85B28536869757FF1F23A1AA
:10CC800007FA06C6C120FD576319F5009757FF1F25
:10CC9000938707F99C4391C31CC0B24022444101D1
:10CCA0008280411122C42A842E85B2859757FF1FA6
:10CCB00023A807F606C6B928FD576319F50097574C
:10CCC000FF1F9387E7F59C4391C31CC0B2402244E9
:10CCD00041018280411122C42A842E859757FF1F6B
:10CCE00023A007F406C63D28FD576319F5009757A2
:10CCF000FF1F9387E7F29C4391C31CC0B2402244BC
:10CD000041018280930780051757FF1F232AF7F000
:10CD10007D558280930780051757FF1F2322F7F068
:10CD20007D558280930780051757FF1F232AF7EE52
:10CD300001458280930780051757FF1F2322F7EED6
:10CD40007D558280930780051757FF1F232AF7EC34
:10CD50007D55828048617264204661756C74200D37
:10CD60000A00000053797374656D436C6B3A256457
:10CD70000D0A0000620D00007C0C0000620B000038
:10CD8000F00C0000620B00004A0C0000080B0000D1
:10CD9000620B0000540C00006C0C00005C0D0000E5
:10CDA0005C0D00002A0B00003C0B00004C0B000047
:10CDB000620B0000620B0000E20B0000F00B0000B1
:10CDC000620B0000620B0000620B0000620B0000AF
:10CDD000620B0000620B0000620B00003C0C0000C4
:10CDE000050F160002071002020000000A100300DF
:10CDF0000E00010AFF07000009022E000101008059
:10CE0000320904000004FF0000040705010240008D
:10CE1000000705810240000007058202400000076C
:10CE2000050202400000000009022E0001010080FE
:10CE3000320904000004FF0000040705010200029B
:10CE400000070581020002000705820200020007B8
:10CE50000502020002000000140343004D005300CD
:10CE6000490053002D004400410050001A035A00AD
:10CE70004600200043004D005300490053002D00A0
:10CE80004400410050000000120332003000320024
:10CE90003200300035003200370000000A06000280
:10CEA000FF00004001000000FF002CFF2EDFFF010B
:10CEB0003C321100090204D813E514482C0C3378D5
:10CEC0003A333BFB3E0043111610399235DA221AF1
:10CED00037C3230034C0361A068807C00D870E41B9
:10CEE0004C0048005B0042034A81219924402538C8
:10CEF00026825C00630046000C3C617062807C0509
:10CF0000208028306C006D806E007002719473C1B7
:10CF10003D345A5712001711187519011A973236F5
:10CF2000030F37404FCA50A85A236D006D38FF00D9
:10CF3000E57FF9C04124E01476FF33A04220431876
:10CF40004C0087D5883FD703D910D382C808C98041
:10CF50007C007D007C037D487D487C087D207D1021
:10CF60007D0E9000910E911A9131915A91699175AF
:10CF7000917E9188918F919691A391AF91C491D711
:10CF800091E891209200930693E393059305930013
:10CF900093049300930093009300930093009300F5
:10CFA0009600970897199702970C9724973097281F
:10CFB000972697029798978097009700C3EFA40051
:10CFC000A800C511C651BF80C710B666B8A5B76422
:10CFD000B97CB3AFB497B5FFB0C5B194B20FC45C20
:10CFE000C0C8C1968C00863D50005190522C530011
:10CFF000540055885A905B2C5C05D302C3ED7F002A
:10D00000DA09E51FE167E000DD7F05006E1500002D
:10D01000801500008A15000098150000A215000078
:10D02000BE150000D81500001017000010170000F2
:10D0300010170000FE150000081600001216000070
:10D040001C16000010170000101700001017000039
:10D050001017000010170000101700004016000005
:10D060006C16000090160000AA160000B41600000E
:10D07000BE160000C8160000D216000010170000EF
:10D0800010170000DC160000EA160000F41600007D
:10D09000000020410000C8420000C03F0AD7233CE6
:10D0A0006F12033B00007A440000A0450000484492
:10D0B00000BADB4B00008CC3000048460000B4C33C
:10D0C00000007042B2270000F2270000CC240000CC
:10D0D000CC240000CC240000FE270000CC2400005B
:10D0E000CC24000006280000122800001E280000A2
:10D0F0002A280000CC24000032280000CC240000A4
:10D100003E280000CC240000462800004E280000E5
:10D1100056280000CC240000CC240000CC240000C1
:10D120006A280000762800008228000000007F4363
:10D130003333CB41000080400000003F0AD7A33BBF
:10D140006F12833A0000C0BF0000A0400000004002
:10D15000ABAA2A3E000000008DEDB5A0F7C6A0BE28
:10D16000182D4454FB2119408DEDB5A0F7C6A03E03
:10D170000000803F0000A041FFFF7F7FCDCCCC3D71
:10D18000EFFF7F3FEFFF7FBF8B42213DF654000052
:10D190000C55000016550000205500002A550000CF
:10D1A000345500003E55000048550000525500001F
:10D1B0005C55000066550000414C41524D3A00005C
:10D1C0005B5645523A312E31662E32303233303191
:10D1D00031323A005B4F50543A0000005B4D5347E8
:10D1E0003A000000526573657420746F20636F6E9F
:10D1F00074696E7565000000272448277C27245831
:10D200002720746F20756E6C6F636B0043617574BB
:10D21000696F6E3A20556E6C6F636B656400000039
:10D22000456E61626C65640044697361626C65643B
:10D2300000000000436865636B20446F6F7200005C
:10D24000436865636B204C696D697473000000006E
:10D2500050676D20456E6400526573746F72696E1D
:10D26000672064656661756C747300005265737441
:10D270006F72696E67207370696E646C6500000080
:10D28000536C656570696E67000000005B47433A48
:10D290004700000033382E0020470000204D0000DA
:10D2A0002054000020460000205300005B484C50F2
:10D2B0003A242420242320244720244920244E20BB
:10D2C00024783D76616C20244E783D6C696E652033
:10D2D000244A3D6C696E652024534C502024432021
:10D2E0002458202448207E2021203F206374726C23
:10D2F0002D785D0D0A000000000061450D0A47729F
:10D30000626C20312E3166205B27242720666F72E5
:10D310002068656C705D0D0A000000005B4700002E
:10D3200032380000333000005B4739323A000000E9
:10D330005B544C4F3A0000005B5052423A000000F0
:10D3400049646C650000000052756E00486F6C64A3
:10D350003A0000004A6F6700486F6D6500000000EA
:10D36000416C61726D000000436865636B000000F2
:10D37000446F6F723A000000536C656570000000E6
:10D380007C4D506F733A00007C57506F733A000029
:10D390007C42663A000000007C46533A00000000E0
:10D3A0007C506E3A000000007C57434F3A0000006A
:10D3B0007C4F763A000000007C413A00244E000089
:10D3C0006F6B0D0A000000006572726F723A000008
:10D3D000985F00009E5F0000845F0000845F000093
:10D3E000845F0000845F0000845F0000845F0000B1
:10D3F000845F0000845F0000845F0000845F0000A1
:10D40000AE5F0000B65F0000BA5F0000BE5F0000C4
:10D41000C25F0000C65F0000CC5F0000D25F00006A
:10D42000845F0000D85F0000E05F0000E45F000060
:10D43000E85F0000EC5F0000F05F0000845F000028
:10D44000F65F0000FC5F00000000C642010004001F
:10D45000100040000001000000040008001000005F
:10D46000000000003EC32E390000A03F020008006B
:10D47000200080000002000000000080CAF2497114
:10D48000000080BF7371727466000000DB0FC93F3B
:10D49000DB0F4940DB0F49C0DB0FC9BFE4CB1640AF
:10D4A000E4CB16C0DB0F493FDB0F49BF2EBDBB33BA
:10D4B000800FC93F434435370044353708A3852ED4
:10D4C00084F9223F00A3852E32318D240000804351
:10D4D000000FC93F000F494000CB9640000FC940E4
:10D4E0000053FB4000CB164100ED2F41000F494196
:10D4F0000031624100537B41003A8A4100CB9641A2
:10D50000005CA34100EDAF41007EBC41000FC9416A
:10D5100000A0D5410031E24100C2EE410053FB4181
:10D5200000F20342003A0A420083104200CB164246
:10D5300000141D42005C234200A5294200ED2F4249
:10D5400000363642007E3C4200C74242000F49424C
:10D55000A2000000F9000000830000006E0000003F
:10D560004E000000440000001500000029000000EB
:10D57000FC0000002700000057000000D100000060
:10D58000F500000034000000DD000000C0000000D5
:10D59000DB00000062000000950000009900000020
:10D5A0003C0000004300000090000000410000002B
:10D5B000FE0000005100000063000000AB0000000E
:10D5C000DE000000BB000000C5000000610000009C
:10D5D000B7000000240000006E0000003A000000C8
:10D5E000420000004D000000D2000000E0000000FA
:10D5F00006000000490000002E000000EA000000C4
:10D6000009000000D1000000920000001C00000092
:10D61000FE0000001D000000EB0000001C000000E8
:10D62000B100000029000000A70000003E0000003B
:10D63000E80000008200000035000000F500000056
:10D640002E000000BB000000440000008400000029
:10D65000E90000009C0000007000000026000000AF
:10D66000B40000005F0000007E00000041000000E8
:10D670003900000091000000D600000039000000D1
:10D68000830000005300000039000000F400000097
:10D690009C000000840000005F0000008B00000080
:10D6A000BD000000F9000000280000003B00000061
:10D6B0001F000000F800000097000000FF000000BD
:10D6C000DE00000005000000980000000F000000D0
:10D6D000EF0000002F000000110000008B00000090
:10D6E0005A0000000A0000006D0000001F0000004A
:10D6F0006D000000360000007E000000CF0000003A
:10D7000027000000CB00000009000000B700000067
:10D710004F000000460000003F00000066000000CF
:10D720009E0000005F000000EA0000002D000000E5
:10D730007500000027000000BA000000C7000000CC
:10D74000EB000000E5000000F10000007B0000009D
:10D750003D0000000700000039000000F700000055
:10D760008A0000005200000092000000EA00000061
:10D770006B000000FB0000005F000000B100000033
:10D780001F0000008D0000005D0000000800000088
:10D7900056000000030000003000000046000000BA
:10D7A000FC0000007B0000006B000000AB000000EC
:10D7B000F0000000CF000000BC00000020000000CE
:10D7C0009A000000F4000000360000001D00000078
:10D7D000A9000000E30000009100000061000000CB
:10D7E0005E000000E60000001B00000008000000D2
:10D7F0006500000099000000850000005F00000047
:10D8000014000000A00000006800000040000000BC
:10D810008D000000FF000000D80000008000000024
:10D820004D000000730000002700000031000000E0
:10D830000600000006000000150000005600000071
:10D84000CA00000073000000A8000000C90000002A
:10D8500060000000E20000007B000000C00000004B
:10D860008C0000006B0000000000383F0000903E7C
:10D870004ED747ADF6740F317CF29334010DD0379B
:10D88000610BB63AABAA2A3D0000C93F0000F0394F
:10D890000000DA370000A2330000842E0000502B75
:10D8A0000000C2270000D0220000C41F0000C61BD9
:10D8B000000044170000C93F0000803B0000003E0C
:10D8C0000000004104000000070000000900000003
:10D8D000D3C92E2F342FD7321BEF3836010D5039D4
:10D8E0008988083CD769853C59DA4B3D356B883DC2
:10D8F0006E2EBA3D2549123EABAAAA3E21A215BD05
:10D900006BF16E3D95879D3D388EE33DCDCC4C3E11
:10D910003863ED3EDA0F493F5E987B3FDA0FC93F2F
:10D920006937AC3168212233B40F14336821A23334
:10D930000000004C6042A20D00000033C0C2FFFF97
:10D9400044C1FFFF54C2FFFF5CC2FFFF54C2FFFF90
:10D9500074C1FFFF54C2FFFF5CC2FFFF44C1FFFF61
:10D9600044C1FFFF74C1FFFF5CC2FFFFB6C2FFFFEF
:10D97000B6C2FFFFB6C2FFFF74C1FFFFB8D3FFFFFF
:10D98000DED2FFFFB2D3FFFFE6D2FFFFB2D3FFFF2D
:10D99000ACD2FFFFB2D3FFFFE6D2FFFFDED2FFFF24
:10D9A000DED2FFFFACD2FFFFE6D2FFFFECD2FFFFDB
:10D9B000ECD2FFFFECD2FFFFACD2FFFF9ED2FFFF05
:10D9C0009ED2FFFF72D3FFFF4ED4FFFF72D3FFFF43
:10D9D0006CD2FFFF72D3FFFF4ED4FFFF9ED2FFFF3A
:10D9E0009ED2FFFF6CD2FFFF4ED4FFFFACD2FFFFF1
:10D9F000ACD2FFFFACD2FFFF6CD2FFFF22D7FFFFFC
:10DA000070D6FFFF70D6FFFF6ED6FFFF74D6FFFF04
:10DA100074D6FFFF44D6FFFF6ED6FFFF74D6FFFF1C
:10DA200044D6FFFF74D6FFFF6ED6FFFF10D7FFFF6F
:10DA300010D7FFFF10D7FFFF44D6FFFF00010202FF
:10DA40000303030304040404040404040505050596
:10DA50000505050505050505050505050606060672
:10DA60000606060606060606060606060606060656
:10DA70000606060606060606060606060707070742
:10DA80000707070707070707070707070707070726
:10DA90000707070707070707070707070707070716
:10DAA0000707070707070707070707070707070706
:10DAB00007070707070707070707070708080808F2
:10DAC00008080808080808080808080808080808D6
:10DAD00008080808080808080808080808080808C6
:10DAE00008080808080808080808080808080808B6
:10DAF00008080808080808080808080808080808A6
:10DB00000808080808080808080808080808080895
:10DB10000808080808080808080808080808080885
:10DB20000808080808080808080808080808080875
:10DB30000808080808080808080808080000000085
:10DB400000000000000000000000000000000000D5
:10DB500000000000000000000000000000000000C5
:10DB600000000000000000000000000000000000B5
:10DB700000000000000000000000000000000000A5
:10DB80000000000000000000000000000000000095
:10DB9000000000000000000000000000232D302BDA
:10DBA00020000000686C4C00656667454647000031
:10DBB00030313233343536373839414243444546C3
:10DBC0000000000030313233343536373839616285
:08DBD0006364656600000000BB
:10DBD80012010002FF000040280D040200010102AA
:10DBE8000301000009070000000000000000000019
:10DBF800000000000000000000000000000000001D
:10DC0800000000000000000000000000000000000C
:10DC180000000000090700000000000000000000EC
:10DC280000000000000000000000000000000000EC
:10DC380000000000000000000000000000000000DC
:10DC4800000000002800000000010400010000009E
:10DC580000000000000157494E55534200000000E3
:10DC68000000000000000000000000008E0000001E
:10DC780000010500010084000000010000002800E8
:10DC880044006500760069006300650049006E0085
:10DC9800740065007200660061006300650047005B
:10DCA80055004900440000004E0000007B0043007E
:10DCB80044004200330042003500410044002D007A
:10DCC80032003900330042002D003400360036009F
:10DCD80033002D0041004100330036002D00310093
:10DCE800410041004500340036003400360033005E
:10DCF8003700370036007D000000000012034D0099
:10DD08005300460054003100300030001700000076
:10DD180000000000010203040102030406070809C9
:10DD2800000000005CDB00007CDB00003CDB000046
:10DD380000000000000000000000000000000000DB
:10DD480000000000000000000000000000000000CB
:10DD580000000000000000000000000000000000BB
:10DD680000000000000000000000000000000000AB
:10DD7800000000000000000000000000000000009B
:10DD8800010000000044950801FF0100201C00204C
:10DD980002040608010000005001002004030904E1
:10DDA80006035A0046000000500100200000000051
:00000001FF
