Archive member included to satisfy reference by file (symbol)

ld\libm.a(lib_a-sf_ceil.o)    E:\wch\6-AXIS-CH32V307-GRBL\grbl\nuts_bolts.o (ceilf)
ld\libm.a(lib_a-sf_cos.o)     E:\wch\6-AXIS-CH32V307-GRBL\grbl\motion_control.o (cosf)
ld\libm.a(lib_a-sf_floor.o)   E:\wch\6-AXIS-CH32V307-GRBL\grbl\motion_control.o (floorf)
ld\libm.a(lib_a-sf_lround.o)  E:\wch\6-AXIS-CH32V307-GRBL\grbl\gcode.o (lroundf)
ld\libm.a(lib_a-sf_sin.o)     E:\wch\6-AXIS-CH32V307-GRBL\grbl\motion_control.o (sinf)
ld\libm.a(lib_a-sf_trunc.o)   E:\wch\6-AXIS-CH32V307-GRBL\grbl\settings.o (truncf)
ld\libm.a(lib_a-wf_atan2.o)   E:\wch\6-AXIS-CH32V307-GRBL\grbl\motion_control.o (atan2f)
ld\libm.a(lib_a-wf_sqrt.o)    E:\wch\6-AXIS-CH32V307-GRBL\grbl\gcode.o (sqrtf)
ld\libm.a(lib_a-ef_atan2.o)   ld\libm.a(lib_a-wf_atan2.o) (__ieee754_atan2f)
ld\libm.a(lib_a-ef_rem_pio2.o)
                              ld\libm.a(lib_a-sf_cos.o) (__ieee754_rem_pio2f)
ld\libm.a(lib_a-ef_sqrt.o)    ld\libm.a(lib_a-wf_sqrt.o) (__ieee754_sqrtf)
ld\libm.a(lib_a-kf_cos.o)     ld\libm.a(lib_a-sf_cos.o) (__kernel_cosf)
ld\libm.a(lib_a-kf_rem_pio2.o)
                              ld\libm.a(lib_a-ef_rem_pio2.o) (__kernel_rem_pio2f)
ld\libm.a(lib_a-kf_sin.o)     ld\libm.a(lib_a-sf_cos.o) (__kernel_sinf)
ld\libm.a(lib_a-s_lib_ver.o)  ld\libm.a(lib_a-wf_sqrt.o) (__fdlib_version)
ld\libm.a(lib_a-s_matherr.o)  ld\libm.a(lib_a-wf_sqrt.o) (matherr)
ld\libm.a(lib_a-sf_atan.o)    ld\libm.a(lib_a-ef_atan2.o) (atanf)
ld\libm.a(lib_a-sf_fabs.o)    ld\libm.a(lib_a-ef_atan2.o) (fabsf)
ld\libm.a(lib_a-sf_scalbn.o)  ld\libm.a(lib_a-kf_rem_pio2.o) (scalbnf)
ld\libm.a(lib_a-sf_copysign.o)
                              ld\libm.a(lib_a-sf_scalbn.o) (copysignf)
e:/risc5ide_2010/risc-vembeddedgcc/bin/../lib/gcc/riscv-none-embed/8.2.0/rv32imac/ilp32\libgcc.a(adddf3.o)
                              E:\wch\6-AXIS-CH32V307-GRBL\grbl\motion_control.o (__adddf3)
e:/risc5ide_2010/risc-vembeddedgcc/bin/../lib/gcc/riscv-none-embed/8.2.0/rv32imac/ilp32\libgcc.a(divdf3.o)
                              ld\libm.a(lib_a-wf_sqrt.o) (__divdf3)
e:/risc5ide_2010/risc-vembeddedgcc/bin/../lib/gcc/riscv-none-embed/8.2.0/rv32imac/ilp32\libgcc.a(gedf2.o)
                              E:\wch\6-AXIS-CH32V307-GRBL\grbl\motion_control.o (__gedf2)
e:/risc5ide_2010/risc-vembeddedgcc/bin/../lib/gcc/riscv-none-embed/8.2.0/rv32imac/ilp32\libgcc.a(ledf2.o)
                              E:\wch\6-AXIS-CH32V307-GRBL\grbl\motion_control.o (__ledf2)
e:/risc5ide_2010/risc-vembeddedgcc/bin/../lib/gcc/riscv-none-embed/8.2.0/rv32imac/ilp32\libgcc.a(subdf3.o)
                              E:\wch\6-AXIS-CH32V307-GRBL\grbl\motion_control.o (__subdf3)
e:/risc5ide_2010/risc-vembeddedgcc/bin/../lib/gcc/riscv-none-embed/8.2.0/rv32imac/ilp32\libgcc.a(addsf3.o)
                              E:\wch\6-AXIS-CH32V307-GRBL\grbl\gcode.o (__addsf3)
e:/risc5ide_2010/risc-vembeddedgcc/bin/../lib/gcc/riscv-none-embed/8.2.0/rv32imac/ilp32\libgcc.a(divsf3.o)
                              E:\wch\6-AXIS-CH32V307-GRBL\grbl\gcode.o (__divsf3)
e:/risc5ide_2010/risc-vembeddedgcc/bin/../lib/gcc/riscv-none-embed/8.2.0/rv32imac/ilp32\libgcc.a(eqsf2.o)
                              E:\wch\6-AXIS-CH32V307-GRBL\grbl\gcode.o (__eqsf2)
e:/risc5ide_2010/risc-vembeddedgcc/bin/../lib/gcc/riscv-none-embed/8.2.0/rv32imac/ilp32\libgcc.a(gesf2.o)
                              E:\wch\6-AXIS-CH32V307-GRBL\grbl\spindle_control.o (__gesf2)
e:/risc5ide_2010/risc-vembeddedgcc/bin/../lib/gcc/riscv-none-embed/8.2.0/rv32imac/ilp32\libgcc.a(lesf2.o)
                              E:\wch\6-AXIS-CH32V307-GRBL\grbl\spindle_control.o (__lesf2)
e:/risc5ide_2010/risc-vembeddedgcc/bin/../lib/gcc/riscv-none-embed/8.2.0/rv32imac/ilp32\libgcc.a(mulsf3.o)
                              E:\wch\6-AXIS-CH32V307-GRBL\grbl\settings.o (__mulsf3)
e:/risc5ide_2010/risc-vembeddedgcc/bin/../lib/gcc/riscv-none-embed/8.2.0/rv32imac/ilp32\libgcc.a(subsf3.o)
                              E:\wch\6-AXIS-CH32V307-GRBL\grbl\gcode.o (__subsf3)
e:/risc5ide_2010/risc-vembeddedgcc/bin/../lib/gcc/riscv-none-embed/8.2.0/rv32imac/ilp32\libgcc.a(unordsf2.o)
                              ld\libm.a(lib_a-wf_sqrt.o) (__unordsf2)
e:/risc5ide_2010/risc-vembeddedgcc/bin/../lib/gcc/riscv-none-embed/8.2.0/rv32imac/ilp32\libgcc.a(fixsfsi.o)
                              E:\wch\6-AXIS-CH32V307-GRBL\grbl\gcode.o (__fixsfsi)
e:/risc5ide_2010/risc-vembeddedgcc/bin/../lib/gcc/riscv-none-embed/8.2.0/rv32imac/ilp32\libgcc.a(fixunssfsi.o)
                              E:\wch\6-AXIS-CH32V307-GRBL\grbl\settings.o (__fixunssfsi)
e:/risc5ide_2010/risc-vembeddedgcc/bin/../lib/gcc/riscv-none-embed/8.2.0/rv32imac/ilp32\libgcc.a(floatsisf.o)
                              E:\wch\6-AXIS-CH32V307-GRBL\grbl\gcode.o (__floatsisf)
e:/risc5ide_2010/risc-vembeddedgcc/bin/../lib/gcc/riscv-none-embed/8.2.0/rv32imac/ilp32\libgcc.a(floatunsisf.o)
                              E:\wch\6-AXIS-CH32V307-GRBL\grbl\limits.o (__floatunsisf)
e:/risc5ide_2010/risc-vembeddedgcc/bin/../lib/gcc/riscv-none-embed/8.2.0/rv32imac/ilp32\libgcc.a(extendsfdf2.o)
                              E:\wch\6-AXIS-CH32V307-GRBL\grbl\motion_control.o (__extendsfdf2)
e:/risc5ide_2010/risc-vembeddedgcc/bin/../lib/gcc/riscv-none-embed/8.2.0/rv32imac/ilp32\libgcc.a(truncdfsf2.o)
                              E:\wch\6-AXIS-CH32V307-GRBL\grbl\motion_control.o (__truncdfsf2)
e:/risc5ide_2010/risc-vembeddedgcc/bin/../lib/gcc/riscv-none-embed/8.2.0/rv32imac/ilp32\libgcc.a(_clzsi2.o)
                              e:/risc5ide_2010/risc-vembeddedgcc/bin/../lib/gcc/riscv-none-embed/8.2.0/rv32imac/ilp32\libgcc.a(adddf3.o) (__clzsi2)
e:/risc5ide_2010/risc-vembeddedgcc/bin/../lib/gcc/riscv-none-embed/8.2.0/rv32imac/ilp32\libgcc.a(_clz.o)
                              e:/risc5ide_2010/risc-vembeddedgcc/bin/../lib/gcc/riscv-none-embed/8.2.0/rv32imac/ilp32\libgcc.a(_clzsi2.o) (__clz_tab)
e:/risc5ide_2010/risc-vembeddedgcc/bin/../lib/gcc/riscv-none-embed/8.2.0/../../../../riscv-none-embed/lib/rv32imac/ilp32\libc_nano.a(lib_a-errno.o)
                              ld\libm.a(lib_a-wf_sqrt.o) (__errno)
e:/risc5ide_2010/risc-vembeddedgcc/bin/../lib/gcc/riscv-none-embed/8.2.0/../../../../riscv-none-embed/lib/rv32imac/ilp32\libc_nano.a(lib_a-impure.o)
                              e:/risc5ide_2010/risc-vembeddedgcc/bin/../lib/gcc/riscv-none-embed/8.2.0/../../../../riscv-none-embed/lib/rv32imac/ilp32\libc_nano.a(lib_a-errno.o) (_impure_ptr)
e:/risc5ide_2010/risc-vembeddedgcc/bin/../lib/gcc/riscv-none-embed/8.2.0/../../../../riscv-none-embed/lib/rv32imac/ilp32\libc_nano.a(lib_a-memcmp.o)
                              E:\wch\6-AXIS-CH32V307-GRBL\grbl\gcode.o (memcmp)
e:/risc5ide_2010/risc-vembeddedgcc/bin/../lib/gcc/riscv-none-embed/8.2.0/../../../../riscv-none-embed/lib/rv32imac/ilp32\libc_nano.a(lib_a-memcpy.o)
                              E:\wch\6-AXIS-CH32V307-GRBL\app\ch32v30x_usbhs_device.o (memcpy)
e:/risc5ide_2010/risc-vembeddedgcc/bin/../lib/gcc/riscv-none-embed/8.2.0/../../../../riscv-none-embed/lib/rv32imac/ilp32\libc_nano.a(lib_a-memset.o)
                              E:\wch\6-AXIS-CH32V307-GRBL\grbl\gcode.o (memset)
e:/risc5ide_2010/risc-vembeddedgcc/bin/../lib/gcc/riscv-none-embed/8.2.0/../../../../riscv-none-embed/lib/rv32imac/ilp32\libc_nano.a(lib_a-printf.o)
                              E:\wch\6-AXIS-CH32V307-GRBL\app\main.o (printf)
e:/risc5ide_2010/risc-vembeddedgcc/bin/../lib/gcc/riscv-none-embed/8.2.0/../../../../riscv-none-embed/lib/rv32imac/ilp32\libc_nano.a(lib_a-findfp.o)
                              e:/risc5ide_2010/risc-vembeddedgcc/bin/../lib/gcc/riscv-none-embed/8.2.0/../../../../riscv-none-embed/lib/rv32imac/ilp32\libc_nano.a(lib_a-printf.o) (__sinit)
e:/risc5ide_2010/risc-vembeddedgcc/bin/../lib/gcc/riscv-none-embed/8.2.0/../../../../riscv-none-embed/lib/rv32imac/ilp32\libc_nano.a(lib_a-fwalk.o)
                              e:/risc5ide_2010/risc-vembeddedgcc/bin/../lib/gcc/riscv-none-embed/8.2.0/../../../../riscv-none-embed/lib/rv32imac/ilp32\libc_nano.a(lib_a-findfp.o) (_fwalk)
e:/risc5ide_2010/risc-vembeddedgcc/bin/../lib/gcc/riscv-none-embed/8.2.0/../../../../riscv-none-embed/lib/rv32imac/ilp32\libc_nano.a(lib_a-nano-mallocr.o)
                              e:/risc5ide_2010/risc-vembeddedgcc/bin/../lib/gcc/riscv-none-embed/8.2.0/../../../../riscv-none-embed/lib/rv32imac/ilp32\libc_nano.a(lib_a-findfp.o) (_malloc_r)
e:/risc5ide_2010/risc-vembeddedgcc/bin/../lib/gcc/riscv-none-embed/8.2.0/../../../../riscv-none-embed/lib/rv32imac/ilp32\libc_nano.a(lib_a-nano-vfprintf.o)
                              e:/risc5ide_2010/risc-vembeddedgcc/bin/../lib/gcc/riscv-none-embed/8.2.0/../../../../riscv-none-embed/lib/rv32imac/ilp32\libc_nano.a(lib_a-printf.o) (_vfprintf_r)
e:/risc5ide_2010/risc-vembeddedgcc/bin/../lib/gcc/riscv-none-embed/8.2.0/../../../../riscv-none-embed/lib/rv32imac/ilp32\libc_nano.a(lib_a-nano-vfprintf_i.o)
                              e:/risc5ide_2010/risc-vembeddedgcc/bin/../lib/gcc/riscv-none-embed/8.2.0/../../../../riscv-none-embed/lib/rv32imac/ilp32\libc_nano.a(lib_a-nano-vfprintf.o) (_printf_i)
e:/risc5ide_2010/risc-vembeddedgcc/bin/../lib/gcc/riscv-none-embed/8.2.0/../../../../riscv-none-embed/lib/rv32imac/ilp32\libc_nano.a(lib_a-sbrkr.o)
                              e:/risc5ide_2010/risc-vembeddedgcc/bin/../lib/gcc/riscv-none-embed/8.2.0/../../../../riscv-none-embed/lib/rv32imac/ilp32\libc_nano.a(lib_a-nano-mallocr.o) (_sbrk_r)
e:/risc5ide_2010/risc-vembeddedgcc/bin/../lib/gcc/riscv-none-embed/8.2.0/../../../../riscv-none-embed/lib/rv32imac/ilp32\libc_nano.a(lib_a-stdio.o)
                              e:/risc5ide_2010/risc-vembeddedgcc/bin/../lib/gcc/riscv-none-embed/8.2.0/../../../../riscv-none-embed/lib/rv32imac/ilp32\libc_nano.a(lib_a-findfp.o) (__sread)
e:/risc5ide_2010/risc-vembeddedgcc/bin/../lib/gcc/riscv-none-embed/8.2.0/../../../../riscv-none-embed/lib/rv32imac/ilp32\libc_nano.a(lib_a-wbuf.o)
                              e:/risc5ide_2010/risc-vembeddedgcc/bin/../lib/gcc/riscv-none-embed/8.2.0/../../../../riscv-none-embed/lib/rv32imac/ilp32\libc_nano.a(lib_a-nano-vfprintf.o) (__swbuf_r)
e:/risc5ide_2010/risc-vembeddedgcc/bin/../lib/gcc/riscv-none-embed/8.2.0/../../../../riscv-none-embed/lib/rv32imac/ilp32\libc_nano.a(lib_a-writer.o)
                              e:/risc5ide_2010/risc-vembeddedgcc/bin/../lib/gcc/riscv-none-embed/8.2.0/../../../../riscv-none-embed/lib/rv32imac/ilp32\libc_nano.a(lib_a-stdio.o) (_write_r)
e:/risc5ide_2010/risc-vembeddedgcc/bin/../lib/gcc/riscv-none-embed/8.2.0/../../../../riscv-none-embed/lib/rv32imac/ilp32\libc_nano.a(lib_a-wsetup.o)
                              e:/risc5ide_2010/risc-vembeddedgcc/bin/../lib/gcc/riscv-none-embed/8.2.0/../../../../riscv-none-embed/lib/rv32imac/ilp32\libc_nano.a(lib_a-nano-vfprintf.o) (__swsetup_r)
e:/risc5ide_2010/risc-vembeddedgcc/bin/../lib/gcc/riscv-none-embed/8.2.0/../../../../riscv-none-embed/lib/rv32imac/ilp32\libc_nano.a(lib_a-closer.o)
                              e:/risc5ide_2010/risc-vembeddedgcc/bin/../lib/gcc/riscv-none-embed/8.2.0/../../../../riscv-none-embed/lib/rv32imac/ilp32\libc_nano.a(lib_a-stdio.o) (_close_r)
e:/risc5ide_2010/risc-vembeddedgcc/bin/../lib/gcc/riscv-none-embed/8.2.0/../../../../riscv-none-embed/lib/rv32imac/ilp32\libc_nano.a(lib_a-fflush.o)
                              e:/risc5ide_2010/risc-vembeddedgcc/bin/../lib/gcc/riscv-none-embed/8.2.0/../../../../riscv-none-embed/lib/rv32imac/ilp32\libc_nano.a(lib_a-findfp.o) (_fflush_r)
e:/risc5ide_2010/risc-vembeddedgcc/bin/../lib/gcc/riscv-none-embed/8.2.0/../../../../riscv-none-embed/lib/rv32imac/ilp32\libc_nano.a(lib_a-fvwrite.o)
                              e:/risc5ide_2010/risc-vembeddedgcc/bin/../lib/gcc/riscv-none-embed/8.2.0/../../../../riscv-none-embed/lib/rv32imac/ilp32\libc_nano.a(lib_a-nano-vfprintf.o) (__sfvwrite_r)
e:/risc5ide_2010/risc-vembeddedgcc/bin/../lib/gcc/riscv-none-embed/8.2.0/../../../../riscv-none-embed/lib/rv32imac/ilp32\libc_nano.a(lib_a-lseekr.o)
                              e:/risc5ide_2010/risc-vembeddedgcc/bin/../lib/gcc/riscv-none-embed/8.2.0/../../../../riscv-none-embed/lib/rv32imac/ilp32\libc_nano.a(lib_a-stdio.o) (_lseek_r)
e:/risc5ide_2010/risc-vembeddedgcc/bin/../lib/gcc/riscv-none-embed/8.2.0/../../../../riscv-none-embed/lib/rv32imac/ilp32\libc_nano.a(lib_a-makebuf.o)
                              e:/risc5ide_2010/risc-vembeddedgcc/bin/../lib/gcc/riscv-none-embed/8.2.0/../../../../riscv-none-embed/lib/rv32imac/ilp32\libc_nano.a(lib_a-wsetup.o) (__smakebuf_r)
e:/risc5ide_2010/risc-vembeddedgcc/bin/../lib/gcc/riscv-none-embed/8.2.0/../../../../riscv-none-embed/lib/rv32imac/ilp32\libc_nano.a(lib_a-memchr.o)
                              e:/risc5ide_2010/risc-vembeddedgcc/bin/../lib/gcc/riscv-none-embed/8.2.0/../../../../riscv-none-embed/lib/rv32imac/ilp32\libc_nano.a(lib_a-nano-vfprintf.o) (memchr)
e:/risc5ide_2010/risc-vembeddedgcc/bin/../lib/gcc/riscv-none-embed/8.2.0/../../../../riscv-none-embed/lib/rv32imac/ilp32\libc_nano.a(lib_a-memmove.o)
                              e:/risc5ide_2010/risc-vembeddedgcc/bin/../lib/gcc/riscv-none-embed/8.2.0/../../../../riscv-none-embed/lib/rv32imac/ilp32\libc_nano.a(lib_a-fvwrite.o) (memmove)
e:/risc5ide_2010/risc-vembeddedgcc/bin/../lib/gcc/riscv-none-embed/8.2.0/../../../../riscv-none-embed/lib/rv32imac/ilp32\libc_nano.a(lib_a-mlock.o)
                              e:/risc5ide_2010/risc-vembeddedgcc/bin/../lib/gcc/riscv-none-embed/8.2.0/../../../../riscv-none-embed/lib/rv32imac/ilp32\libc_nano.a(lib_a-nano-mallocr.o) (__malloc_lock)
e:/risc5ide_2010/risc-vembeddedgcc/bin/../lib/gcc/riscv-none-embed/8.2.0/../../../../riscv-none-embed/lib/rv32imac/ilp32\libc_nano.a(lib_a-nano-freer.o)
                              e:/risc5ide_2010/risc-vembeddedgcc/bin/../lib/gcc/riscv-none-embed/8.2.0/../../../../riscv-none-embed/lib/rv32imac/ilp32\libc_nano.a(lib_a-wsetup.o) (_free_r)
e:/risc5ide_2010/risc-vembeddedgcc/bin/../lib/gcc/riscv-none-embed/8.2.0/../../../../riscv-none-embed/lib/rv32imac/ilp32\libc_nano.a(lib_a-nano-reallocr.o)
                              e:/risc5ide_2010/risc-vembeddedgcc/bin/../lib/gcc/riscv-none-embed/8.2.0/../../../../riscv-none-embed/lib/rv32imac/ilp32\libc_nano.a(lib_a-fvwrite.o) (_realloc_r)
e:/risc5ide_2010/risc-vembeddedgcc/bin/../lib/gcc/riscv-none-embed/8.2.0/../../../../riscv-none-embed/lib/rv32imac/ilp32\libc_nano.a(lib_a-readr.o)
                              e:/risc5ide_2010/risc-vembeddedgcc/bin/../lib/gcc/riscv-none-embed/8.2.0/../../../../riscv-none-embed/lib/rv32imac/ilp32\libc_nano.a(lib_a-stdio.o) (_read_r)
e:/risc5ide_2010/risc-vembeddedgcc/bin/../lib/gcc/riscv-none-embed/8.2.0/../../../../riscv-none-embed/lib/rv32imac/ilp32\libc_nano.a(lib_a-reent.o)
                              e:/risc5ide_2010/risc-vembeddedgcc/bin/../lib/gcc/riscv-none-embed/8.2.0/../../../../riscv-none-embed/lib/rv32imac/ilp32\libc_nano.a(lib_a-sbrkr.o) (errno)
e:/risc5ide_2010/risc-vembeddedgcc/bin/../lib/gcc/riscv-none-embed/8.2.0/../../../../riscv-none-embed/lib/rv32imac/ilp32\libc_nano.a(lib_a-fstatr.o)
                              e:/risc5ide_2010/risc-vembeddedgcc/bin/../lib/gcc/riscv-none-embed/8.2.0/../../../../riscv-none-embed/lib/rv32imac/ilp32\libc_nano.a(lib_a-makebuf.o) (_fstat_r)
e:/risc5ide_2010/risc-vembeddedgcc/bin/../lib/gcc/riscv-none-embed/8.2.0/../../../../riscv-none-embed/lib/rv32imac/ilp32\libc_nano.a(lib_a-isattyr.o)
                              e:/risc5ide_2010/risc-vembeddedgcc/bin/../lib/gcc/riscv-none-embed/8.2.0/../../../../riscv-none-embed/lib/rv32imac/ilp32\libc_nano.a(lib_a-makebuf.o) (_isatty_r)
e:/risc5ide_2010/risc-vembeddedgcc/bin/../lib/gcc/riscv-none-embed/8.2.0/../../../../riscv-none-embed/lib/rv32imac/ilp32\libc_nano.a(lib_a-nano-msizer.o)
                              e:/risc5ide_2010/risc-vembeddedgcc/bin/../lib/gcc/riscv-none-embed/8.2.0/../../../../riscv-none-embed/lib/rv32imac/ilp32\libc_nano.a(lib_a-nano-reallocr.o) (_malloc_usable_size_r)
e:/risc5ide_2010/risc-vembeddedgcc/bin/../lib/gcc/riscv-none-embed/8.2.0/../../../../riscv-none-embed/lib/rv32imac/ilp32\libnosys.a(close.o)
                              e:/risc5ide_2010/risc-vembeddedgcc/bin/../lib/gcc/riscv-none-embed/8.2.0/../../../../riscv-none-embed/lib/rv32imac/ilp32\libc_nano.a(lib_a-closer.o) (_close)
e:/risc5ide_2010/risc-vembeddedgcc/bin/../lib/gcc/riscv-none-embed/8.2.0/../../../../riscv-none-embed/lib/rv32imac/ilp32\libnosys.a(fstat.o)
                              e:/risc5ide_2010/risc-vembeddedgcc/bin/../lib/gcc/riscv-none-embed/8.2.0/../../../../riscv-none-embed/lib/rv32imac/ilp32\libc_nano.a(lib_a-fstatr.o) (_fstat)
e:/risc5ide_2010/risc-vembeddedgcc/bin/../lib/gcc/riscv-none-embed/8.2.0/../../../../riscv-none-embed/lib/rv32imac/ilp32\libnosys.a(isatty.o)
                              e:/risc5ide_2010/risc-vembeddedgcc/bin/../lib/gcc/riscv-none-embed/8.2.0/../../../../riscv-none-embed/lib/rv32imac/ilp32\libc_nano.a(lib_a-isattyr.o) (_isatty)
e:/risc5ide_2010/risc-vembeddedgcc/bin/../lib/gcc/riscv-none-embed/8.2.0/../../../../riscv-none-embed/lib/rv32imac/ilp32\libnosys.a(lseek.o)
                              e:/risc5ide_2010/risc-vembeddedgcc/bin/../lib/gcc/riscv-none-embed/8.2.0/../../../../riscv-none-embed/lib/rv32imac/ilp32\libc_nano.a(lib_a-lseekr.o) (_lseek)
e:/risc5ide_2010/risc-vembeddedgcc/bin/../lib/gcc/riscv-none-embed/8.2.0/../../../../riscv-none-embed/lib/rv32imac/ilp32\libnosys.a(read.o)
                              e:/risc5ide_2010/risc-vembeddedgcc/bin/../lib/gcc/riscv-none-embed/8.2.0/../../../../riscv-none-embed/lib/rv32imac/ilp32\libc_nano.a(lib_a-readr.o) (_read)

Allocating common symbols
Common symbol       size              file

EP1_Rx_Databuf      0x200             E:\wch\6-AXIS-CH32V307-GRBL\app\ch32v30x_usbhs_device.o
DMAPTPRxDescToGet   0x4               E:\wch\6-AXIS-CH32V307-GRBL\SRC\Peripheral\src\ch32v30x_eth.o
sys_rt_exec_motion_override
                    0x1               E:\wch\6-AXIS-CH32V307-GRBL\app\main.o
errno               0x4               e:/risc5ide_2010/risc-vembeddedgcc/bin/../lib/gcc/riscv-none-embed/8.2.0/../../../../riscv-none-embed/lib/rv32imac/ilp32\libc_nano.a(lib_a-reent.o)
settings            0x7c              E:\wch\6-AXIS-CH32V307-GRBL\grbl\settings.o
probe_invert_mask   0x2               E:\wch\6-AXIS-CH32V307-GRBL\grbl\probe.o
DMARxDescToGet      0x4               E:\wch\6-AXIS-CH32V307-GRBL\SRC\Peripheral\src\ch32v30x_eth.o
sys                 0x14              E:\wch\6-AXIS-CH32V307-GRBL\app\main.o
gc_state            0x5c              E:\wch\6-AXIS-CH32V307-GRBL\grbl\gcode.o
sys_rt_exec_accessory_override
                    0x1               E:\wch\6-AXIS-CH32V307-GRBL\app\main.o
sys_rt_exec_state   0x1               E:\wch\6-AXIS-CH32V307-GRBL\app\main.o
DMATxDescToSet      0x4               E:\wch\6-AXIS-CH32V307-GRBL\SRC\Peripheral\src\ch32v30x_eth.o
sys_probe_state     0x1               E:\wch\6-AXIS-CH32V307-GRBL\app\main.o
pDescr              0x4               E:\wch\6-AXIS-CH32V307-GRBL\app\ch32v30x_usbhs_device.o
EP0_Databuf         0x40              E:\wch\6-AXIS-CH32V307-GRBL\app\ch32v30x_usbhs_device.o
gc_block            0x50              E:\wch\6-AXIS-CH32V307-GRBL\grbl\gcode.o
serial_tx_buffer    0x80              E:\wch\6-AXIS-CH32V307-GRBL\grbl\serial.o
serial_rx_buffer    0xfe              E:\wch\6-AXIS-CH32V307-GRBL\grbl\serial.o
sys_probe_position  0x14              E:\wch\6-AXIS-CH32V307-GRBL\app\main.o
sys_position        0x14              E:\wch\6-AXIS-CH32V307-GRBL\app\main.o
EP2_Rx_Databuf      0x200             E:\wch\6-AXIS-CH32V307-GRBL\app\ch32v30x_usbhs_device.o
EP1_Tx_Databuf      0x200             E:\wch\6-AXIS-CH32V307-GRBL\app\ch32v30x_usbhs_device.o
EP2_Tx_Databuf      0x200             E:\wch\6-AXIS-CH32V307-GRBL\app\ch32v30x_usbhs_device.o
sys_rt_exec_alarm   0x1               E:\wch\6-AXIS-CH32V307-GRBL\app\main.o
EE_Buffer           0x400             E:\wch\6-AXIS-CH32V307-GRBL\grbl\eeprom.o
DMAPTPTxDescToSet   0x4               E:\wch\6-AXIS-CH32V307-GRBL\SRC\Peripheral\src\ch32v30x_eth.o

Discarded input sections

 .text          0x0000000000000000        0x0 E:\wch\6-AXIS-CH32V307-GRBL\app\ch32v30x_it.o
 .data          0x0000000000000000        0x0 E:\wch\6-AXIS-CH32V307-GRBL\app\ch32v30x_it.o
 .bss           0x0000000000000000        0x0 E:\wch\6-AXIS-CH32V307-GRBL\app\ch32v30x_it.o
 .text          0x0000000000000000        0x0 E:\wch\6-AXIS-CH32V307-GRBL\app\main.o
 .data          0x0000000000000000        0x0 E:\wch\6-AXIS-CH32V307-GRBL\app\main.o
 .bss           0x0000000000000000        0x0 E:\wch\6-AXIS-CH32V307-GRBL\app\main.o
 .text          0x0000000000000000        0x0 E:\wch\6-AXIS-CH32V307-GRBL\app\system_ch32v30x.o
 .data          0x0000000000000000        0x0 E:\wch\6-AXIS-CH32V307-GRBL\app\system_ch32v30x.o
 .bss           0x0000000000000000        0x0 E:\wch\6-AXIS-CH32V307-GRBL\app\system_ch32v30x.o
 .text.SystemCoreClockUpdate
                0x0000000000000000       0xc0 E:\wch\6-AXIS-CH32V307-GRBL\app\system_ch32v30x.o
 .data.AHBPrescTable
                0x0000000000000000       0x10 E:\wch\6-AXIS-CH32V307-GRBL\app\system_ch32v30x.o
 .text          0x0000000000000000        0x0 E:\wch\6-AXIS-CH32V307-GRBL\app\ch32v30x_usbhs_device.o
 .data          0x0000000000000000        0x0 E:\wch\6-AXIS-CH32V307-GRBL\app\ch32v30x_usbhs_device.o
 .bss           0x0000000000000000        0x0 E:\wch\6-AXIS-CH32V307-GRBL\app\ch32v30x_usbhs_device.o
 .text.USBHS_Device_SetAddress
                0x0000000000000000       0x12 E:\wch\6-AXIS-CH32V307-GRBL\app\ch32v30x_usbhs_device.o
Memory Configuration

Name             Origin             Length             Attributes
FLASH            0x0000000000000000 0x0000000000040000 xr
RAM              0x0000000020000000 0x0000000000010000 xrw
*default*        0x0000000000000000 0xffffffffffffffff

Linker script and memory map

LOAD E:\wch\6-AXIS-CH32V307-GRBL\app\ch32v30x_it.o
LOAD E:\wch\6-AXIS-CH32V307-GRBL\app\main.o
LOAD E:\wch\6-AXIS-CH32V307-GRBL\app\system_ch32v30x.o
LOAD E:\wch\6-AXIS-CH32V307-GRBL\app\ch32v30x_usbhs_device.o
LOAD E:\wch\6-AXIS-CH32V307-GRBL\app\ov.o
LOAD E:\wch\6-AXIS-CH32V307-GRBL\grbl\settings.o
LOAD E:\wch\6-AXIS-CH32V307-GRBL\SRC\Core\core_riscv.o
LOAD E:\wch\6-AXIS-CH32V307-GRBL\SRC\Debug\debug.o
LOAD E:\wch\6-AXIS-CH32V307-GRBL\SRC\Peripheral\src\ch32v30x_adc.o
LOAD E:\wch\6-AXIS-CH32V307-GRBL\SRC\Peripheral\src\ch32v30x_bkp.o
LOAD E:\wch\6-AXIS-CH32V307-GRBL\SRC\Peripheral\src\ch32v30x_can.o
LOAD E:\wch\6-AXIS-CH32V307-GRBL\SRC\Peripheral\src\ch32v30x_crc.o
LOAD E:\wch\6-AXIS-CH32V307-GRBL\SRC\Peripheral\src\ch32v30x_dac.o
LOAD E:\wch\6-AXIS-CH32V307-GRBL\SRC\Peripheral\src\ch32v30x_dbgmcu.o
LOAD E:\wch\6-AXIS-CH32V307-GRBL\SRC\Peripheral\src\ch32v30x_dma.o
LOAD E:\wch\6-AXIS-CH32V307-GRBL\SRC\Peripheral\src\ch32v30x_dvp.o
LOAD E:\wch\6-AXIS-CH32V307-GRBL\SRC\Peripheral\src\ch32v30x_eth.o
LOAD E:\wch\6-AXIS-CH32V307-GRBL\SRC\Peripheral\src\ch32v30x_exti.o
LOAD E:\wch\6-AXIS-CH32V307-GRBL\SRC\Peripheral\src\ch32v30x_flash.o
LOAD E:\wch\6-AXIS-CH32V307-GRBL\SRC\Peripheral\src\ch32v30x_fsmc.o
LOAD E:\wch\6-AXIS-CH32V307-GRBL\SRC\Peripheral\src\ch32v30x_gpio.o
LOAD E:\wch\6-AXIS-CH32V307-GRBL\SRC\Peripheral\src\ch32v30x_i2c.o
LOAD E:\wch\6-AXIS-CH32V307-GRBL\SRC\Peripheral\src\ch32v30x_iwdg.o
LOAD E:\wch\6-AXIS-CH32V307-GRBL\SRC\Peripheral\src\ch32v30x_misc.o
LOAD E:\wch\6-AXIS-CH32V307-GRBL\SRC\Peripheral\src\ch32v30x_opa.o
LOAD E:\wch\6-AXIS-CH32V307-GRBL\SRC\Peripheral\src\ch32v30x_pwr.o
LOAD E:\wch\6-AXIS-CH32V307-GRBL\SRC\Peripheral\src\ch32v30x_rcc.o
LOAD E:\wch\6-AXIS-CH32V307-GRBL\SRC\Peripheral\src\ch32v30x_rng.o
LOAD E:\wch\6-AXIS-CH32V307-GRBL\SRC\Peripheral\src\ch32v30x_rtc.o
LOAD E:\wch\6-AXIS-CH32V307-GRBL\SRC\Peripheral\src\ch32v30x_sdio.o
LOAD E:\wch\6-AXIS-CH32V307-GRBL\SRC\Peripheral\src\ch32v30x_spi.o
LOAD E:\wch\6-AXIS-CH32V307-GRBL\SRC\Peripheral\src\ch32v30x_tim.o
LOAD E:\wch\6-AXIS-CH32V307-GRBL\SRC\Peripheral\src\ch32v30x_usart.o
LOAD E:\wch\6-AXIS-CH32V307-GRBL\SRC\Peripheral\src\ch32v30x_wwdg.o
LOAD E:\wch\6-AXIS-CH32V307-GRBL\grbl\coolant_control.o
LOAD E:\wch\6-AXIS-CH32V307-GRBL\grbl\eeprom.o
LOAD E:\wch\6-AXIS-CH32V307-GRBL\grbl\gcode.o
LOAD E:\wch\6-AXIS-CH32V307-GRBL\grbl\jog.o
LOAD E:\wch\6-AXIS-CH32V307-GRBL\grbl\limits.o
LOAD E:\wch\6-AXIS-CH32V307-GRBL\grbl\motion_control.o
LOAD E:\wch\6-AXIS-CH32V307-GRBL\grbl\nuts_bolts.o
LOAD E:\wch\6-AXIS-CH32V307-GRBL\grbl\planner.o
LOAD E:\wch\6-AXIS-CH32V307-GRBL\grbl\print.o
LOAD E:\wch\6-AXIS-CH32V307-GRBL\grbl\probe.o
LOAD E:\wch\6-AXIS-CH32V307-GRBL\grbl\protocol.o
LOAD E:\wch\6-AXIS-CH32V307-GRBL\grbl\report.o
LOAD E:\wch\6-AXIS-CH32V307-GRBL\grbl\serial.o
LOAD E:\wch\6-AXIS-CH32V307-GRBL\grbl\spindle_control.o
LOAD E:\wch\6-AXIS-CH32V307-GRBL\grbl\stepper.o
LOAD E:\wch\6-AXIS-CH32V307-GRBL\grbl\system.o
LOAD E:\wch\6-AXIS-CH32V307-GRBL\SRC\Startup\startup_ch32v30x_D8C.o
LOAD ld\libm.a
LOAD e:/risc5ide_2010/risc-vembeddedgcc/bin/../lib/gcc/riscv-none-embed/8.2.0/rv32imac/ilp32\libgcc.a
LOAD e:/risc5ide_2010/risc-vembeddedgcc/bin/../lib/gcc/riscv-none-embed/8.2.0/../../../../riscv-none-embed/lib/rv32imac/ilp32\libc_nano.a
LOAD e:/risc5ide_2010/risc-vembeddedgcc/bin/../lib/gcc/riscv-none-embed/8.2.0/rv32imac/ilp32\libgcc.a
START GROUP
LOAD e:/risc5ide_2010/risc-vembeddedgcc/bin/../lib/gcc/riscv-none-embed/8.2.0/rv32imac/ilp32\libgcc.a
LOAD e:/risc5ide_2010/risc-vembeddedgcc/bin/../lib/gcc/riscv-none-embed/8.2.0/../../../../riscv-none-embed/lib/rv32imac/ilp32\libc_nano.a
LOAD e:/risc5ide_2010/risc-vembeddedgcc/bin/../lib/gcc/riscv-none-embed/8.2.0/../../../../riscv-none-embed/lib/rv32imac/ilp32\libnosys.a
END GROUP
START GROUP
LOAD e:/risc5ide_2010/risc-vembeddedgcc/bin/../lib/gcc/riscv-none-embed/8.2.0/rv32imac/ilp32\libgcc.a
LOAD e:/risc5ide_2010/risc-vembeddedgcc/bin/../lib/gcc/riscv-none-embed/8.2.0/../../../../riscv-none-embed/lib/rv32imac/ilp32\libc_nano.a
LOAD e:/risc5ide_2010/risc-vembeddedgcc/bin/../lib/gcc/riscv-none-embed/8.2.0/../../../../riscv-none-embed/lib/rv32imac/ilp32\libnosys.a
END GROUP
                0x0000000000000800                __stack_size = 0x800
                [!provide]                        PROVIDE (_stack_size = __stack_size)

.init           0x0000000000000000       0x38
                0x0000000000000000                _sinit = .
                0x0000000000000000                . = ALIGN (0x4)
 *(SORT_NONE(.init))
 .init          0x0000000000000000       0x38 E:\wch\6-AXIS-CH32V307-GRBL\SRC\Startup\startup_ch32v30x_D8C.o
                0x0000000000000000                _start
                0x0000000000000038                . = ALIGN (0x4)
                0x0000000000000038                _einit = .

.vector         0x0000000000000038      0x1c8
 *(.vector)
 .vector        0x0000000000000038      0x1a0 E:\wch\6-AXIS-CH32V307-GRBL\SRC\Startup\startup_ch32v30x_D8C.o
                0x0000000000000200                . = ALIGN (0x40)
 *fill*         0x00000000000001d8       0x28 

.text           0x0000000000000200     0xd9d8
                0x0000000000000200                . = ALIGN (0x4)
 *(.text)
 .text          0x0000000000000200       0xa8 e:/risc5ide_2010/risc-vembeddedgcc/bin/../lib/gcc/riscv-none-embed/8.2.0/../../../../riscv-none-embed/lib/rv32imac/ilp32\libc_nano.a(lib_a-memset.o)
                0x0000000000000200                memset
 *(.text.*)
 .text.NMI_Handler
                0x00000000000002a8        0x4 E:\wch\6-AXIS-CH32V307-GRBL\app\ch32v30x_it.o
                0x00000000000002a8                NMI_Handler
 .text.HardFault_Handler
                0x00000000000002ac        0xe E:\wch\6-AXIS-CH32V307-GRBL\app\ch32v30x_it.o
                0x00000000000002ac                HardFault_Handler
 .text.USART2_Configuration
                0x00000000000002ba       0xb8 E:\wch\6-AXIS-CH32V307-GRBL\app\main.o
                0x00000000000002ba                USART2_Configuration
 .text.DAP_ProcessCommand
                0x0000000000000372        0x4 E:\wch\6-AXIS-CH32V307-GRBL\app\main.o
                0x0000000000000372                DAP_ProcessCommand
 .text.startup.main
                0x0000000000000376      0x176 E:\wch\6-AXIS-CH32V307-GRBL\app\main.o
                0x0000000000000376                main
 .text.LedBlink
                0x00000000000004ec       0x30 E:\wch\6-AXIS-CH32V307-GRBL\app\main.o
                0x00000000000004ec                LedBlink
 .text.SystemInit
                0x000000000000051c       0xf8 E:\wch\6-AXIS-CH32V307-GRBL\app\system_ch32v30x.o
                0x000000000000051c                SystemInit
 .text.USBHS_RCC_Init
                0x0000000000000614       0x28 E:\wch\6-AXIS-CH32V307-GRBL\app\ch32v30x_usbhs_device.o
                0x0000000000000614                USBHS_RCC_Init
 .text.USBHS_Device_Endp_Init
                0x000000000000063c      0x156 E:\wch\6-AXIS-CH32V307-GRBL\app\ch32v30x_usbhs_device.o
                0x000000000000063c                USBHS_Device_Endp_Init
 .text.USBHS_Device_Init
                0x0000000000000792       0x6e E:\wch\6-AXIS-CH32V307-GRBL\app\ch32v30x_usbhs_device.o
                0x0000000000000792                USBHS_Device_Init
 .text.USBHS_IRQHandler
                0x0000000000000800      0x60a E:\wch\6-AXIS-CH32V307-GRBL\app\ch32v30x_usbhs_device.o
                0x0000000000000800                USBHS_IRQHandler
 .text.SCCB_GPIO_Init
                0x0000000000000e0a       0x2c E:\wch\6-AXIS-CH32V307-GRBL\app\ov.o
                0x0000000000000e0a                SCCB_GPIO_Init
 .text.SCCB_Start
                0x0000000000000e36       0x3a E:\wch\6-AXIS-CH32V307-GRBL\app\ov.o
                0x0000000000000e36                SCCB_Start
 .text.SCCB_Stop
                0x0000000000000e70       0x36 E:\wch\6-AXIS-CH32V307-GRBL\app\ov.o
                0x0000000000000e70                SCCB_Stop
 .text.SCCB_No_Ack
                0x0000000000000ea6       0x48 E:\wch\6-AXIS-CH32V307-GRBL\app\ov.o
                0x0000000000000ea6                SCCB_No_Ack
 .text.SCCB_WR_Byte
                0x0000000000000eee       0x9c E:\wch\6-AXIS-CH32V307-GRBL\app\ov.o
                0x0000000000000eee                SCCB_WR_Byte
 .text.SCCB_RD_Byte
                0x0000000000000f8a       0x7a E:\wch\6-AXIS-CH32V307-GRBL\app\ov.o
                0x0000000000000f8a                SCCB_RD_Byte
 .text.SCCB_WR_Reg
                0x0000000000001004       0x4e E:\wch\6-AXIS-CH32V307-GRBL\app\ov.o
                0x0000000000001004                SCCB_WR_Reg
 .text.SCCB_RD_Reg
                0x0000000000001052       0x50 E:\wch\6-AXIS-CH32V307-GRBL\app\ov.o
                0x0000000000001052                SCCB_RD_Reg
 .text.DVP_GPIO_Init
                0x00000000000010a2       0xa0 E:\wch\6-AXIS-CH32V307-GRBL\app\ov.o
                0x00000000000010a2                DVP_GPIO_Init
 .text.OV2640_Init
                0x0000000000001142       0xaa E:\wch\6-AXIS-CH32V307-GRBL\app\ov.o
                0x0000000000001142                OV2640_Init
 .text.settings_store_startup_line
                0x00000000000011ec       0x28 E:\wch\6-AXIS-CH32V307-GRBL\grbl\settings.o
                0x00000000000011ec                settings_store_startup_line
 .text.settings_store_build_info
                0x0000000000001214        0xe E:\wch\6-AXIS-CH32V307-GRBL\grbl\settings.o
                0x0000000000001214                settings_store_build_info
 .text.settings_write_coord_data
                0x0000000000001222       0x24 E:\wch\6-AXIS-CH32V307-GRBL\grbl\settings.o
                0x0000000000001222                settings_write_coord_data
 .text.write_global_settings
                0x0000000000001246       0x22 E:\wch\6-AXIS-CH32V307-GRBL\grbl\settings.o
                0x0000000000001246                write_global_settings
 .text.settings_restore
                0x0000000000001268      0x152 E:\wch\6-AXIS-CH32V307-GRBL\grbl\settings.o
                0x0000000000001268                settings_restore
 .text.settings_read_startup_line
                0x00000000000013ba       0x3e E:\wch\6-AXIS-CH32V307-GRBL\grbl\settings.o
                0x00000000000013ba                settings_read_startup_line
 .text.settings_read_build_info
                0x00000000000013f8       0x2c E:\wch\6-AXIS-CH32V307-GRBL\grbl\settings.o
                0x00000000000013f8                settings_read_build_info
 .text.settings_read_coord_data
                0x0000000000001424       0x44 E:\wch\6-AXIS-CH32V307-GRBL\grbl\settings.o
                0x0000000000001424                settings_read_coord_data
 .text.read_global_settings
                0x0000000000001468       0x30 E:\wch\6-AXIS-CH32V307-GRBL\grbl\settings.o
                0x0000000000001468                read_global_settings
 .text.settings_store_global_setting
                0x0000000000001498      0x27c E:\wch\6-AXIS-CH32V307-GRBL\grbl\settings.o
                0x0000000000001498                settings_store_global_setting
 .text.settings_init
                0x0000000000001714       0x22 E:\wch\6-AXIS-CH32V307-GRBL\grbl\settings.o
                0x0000000000001714                settings_init
 .text.Delay_Init
                0x0000000000001736       0x2a E:\wch\6-AXIS-CH32V307-GRBL\SRC\Debug\debug.o
                0x0000000000001736                Delay_Init
 .text.Delay_Us
                0x0000000000001760       0x36 E:\wch\6-AXIS-CH32V307-GRBL\SRC\Debug\debug.o
                0x0000000000001760                Delay_Us
 .text.Delay_Ms
                0x0000000000001796       0x36 E:\wch\6-AXIS-CH32V307-GRBL\SRC\Debug\debug.o
                0x0000000000001796                Delay_Ms
 .text.USART_Printf_Init
                0x00000000000017cc       0x58 E:\wch\6-AXIS-CH32V307-GRBL\SRC\Debug\debug.o
                0x00000000000017cc                USART_Printf_Init
 .text._write   0x0000000000001824       0x50 E:\wch\6-AXIS-CH32V307-GRBL\SRC\Debug\debug.o
                0x0000000000001824                _write
 .text._sbrk    0x0000000000001874       0x2a E:\wch\6-AXIS-CH32V307-GRBL\SRC\Debug\debug.o
                0x0000000000001874                _sbrk
 .text.EXTI_Init
                0x000000000000189e       0x6a E:\wch\6-AXIS-CH32V307-GRBL\SRC\Peripheral\src\ch32v30x_exti.o
                0x000000000000189e                EXTI_Init
 .text.EXTI_GetITStatus
                0x0000000000001908       0x1e E:\wch\6-AXIS-CH32V307-GRBL\SRC\Peripheral\src\ch32v30x_exti.o
                0x0000000000001908                EXTI_GetITStatus
 .text.EXTI_ClearITPendingBit
                0x0000000000001926        0xa E:\wch\6-AXIS-CH32V307-GRBL\SRC\Peripheral\src\ch32v30x_exti.o
                0x0000000000001926                EXTI_ClearITPendingBit
 .text.FLASH_Unlock
                0x0000000000001930       0x1a E:\wch\6-AXIS-CH32V307-GRBL\SRC\Peripheral\src\ch32v30x_flash.o
                0x0000000000001930                FLASH_Unlock
 .text.GPIO_Init
                0x000000000000194a       0xc2 E:\wch\6-AXIS-CH32V307-GRBL\SRC\Peripheral\src\ch32v30x_gpio.o
                0x000000000000194a                GPIO_Init
 .text.GPIO_ReadInputData
                0x0000000000001a0c        0x8 E:\wch\6-AXIS-CH32V307-GRBL\SRC\Peripheral\src\ch32v30x_gpio.o
                0x0000000000001a0c                GPIO_ReadInputData
 .text.GPIO_ReadOutputData
                0x0000000000001a14        0x8 E:\wch\6-AXIS-CH32V307-GRBL\SRC\Peripheral\src\ch32v30x_gpio.o
                0x0000000000001a14                GPIO_ReadOutputData
 .text.GPIO_SetBits
                0x0000000000001a1c        0x4 E:\wch\6-AXIS-CH32V307-GRBL\SRC\Peripheral\src\ch32v30x_gpio.o
                0x0000000000001a1c                GPIO_SetBits
 .text.GPIO_ResetBits
                0x0000000000001a20        0x4 E:\wch\6-AXIS-CH32V307-GRBL\SRC\Peripheral\src\ch32v30x_gpio.o
                0x0000000000001a20                GPIO_ResetBits
 .text.GPIO_WriteBit
                0x0000000000001a24        0xa E:\wch\6-AXIS-CH32V307-GRBL\SRC\Peripheral\src\ch32v30x_gpio.o
                0x0000000000001a24                GPIO_WriteBit
 .text.GPIO_PinRemapConfig
                0x0000000000001a2e       0xc4 E:\wch\6-AXIS-CH32V307-GRBL\SRC\Peripheral\src\ch32v30x_gpio.o
                0x0000000000001a2e                GPIO_PinRemapConfig
 .text.GPIO_EXTILineConfig
                0x0000000000001af2       0x2c E:\wch\6-AXIS-CH32V307-GRBL\SRC\Peripheral\src\ch32v30x_gpio.o
                0x0000000000001af2                GPIO_EXTILineConfig
 .text.NVIC_PriorityGroupConfig
                0x0000000000001b1e        0x6 E:\wch\6-AXIS-CH32V307-GRBL\SRC\Peripheral\src\ch32v30x_misc.o
                0x0000000000001b1e                NVIC_PriorityGroupConfig
 .text.NVIC_Init
                0x0000000000001b24       0xb8 E:\wch\6-AXIS-CH32V307-GRBL\SRC\Peripheral\src\ch32v30x_misc.o
                0x0000000000001b24                NVIC_Init
 .text.RCC_GetClocksFreq
                0x0000000000001bdc      0x17e E:\wch\6-AXIS-CH32V307-GRBL\SRC\Peripheral\src\ch32v30x_rcc.o
                0x0000000000001bdc                RCC_GetClocksFreq
 .text.RCC_APB2PeriphClockCmd
                0x0000000000001d5a       0x1e E:\wch\6-AXIS-CH32V307-GRBL\SRC\Peripheral\src\ch32v30x_rcc.o
                0x0000000000001d5a                RCC_APB2PeriphClockCmd
 .text.RCC_APB1PeriphClockCmd
                0x0000000000001d78       0x1e E:\wch\6-AXIS-CH32V307-GRBL\SRC\Peripheral\src\ch32v30x_rcc.o
                0x0000000000001d78                RCC_APB1PeriphClockCmd
 .text.RCC_MCOConfig
                0x0000000000001d96        0xa E:\wch\6-AXIS-CH32V307-GRBL\SRC\Peripheral\src\ch32v30x_rcc.o
                0x0000000000001d96                RCC_MCOConfig
 .text.TIM_TimeBaseInit
                0x0000000000001da0       0xc0 E:\wch\6-AXIS-CH32V307-GRBL\SRC\Peripheral\src\ch32v30x_tim.o
                0x0000000000001da0                TIM_TimeBaseInit
 .text.TIM_OC1Init
                0x0000000000001e60       0xa0 E:\wch\6-AXIS-CH32V307-GRBL\SRC\Peripheral\src\ch32v30x_tim.o
                0x0000000000001e60                TIM_OC1Init
 .text.TIM_TimeBaseStructInit
                0x0000000000001f00       0x18 E:\wch\6-AXIS-CH32V307-GRBL\SRC\Peripheral\src\ch32v30x_tim.o
                0x0000000000001f00                TIM_TimeBaseStructInit
 .text.TIM_Cmd  0x0000000000001f18       0x1c E:\wch\6-AXIS-CH32V307-GRBL\SRC\Peripheral\src\ch32v30x_tim.o
                0x0000000000001f18                TIM_Cmd
 .text.TIM_CtrlPWMOutputs
                0x0000000000001f34       0x16 E:\wch\6-AXIS-CH32V307-GRBL\SRC\Peripheral\src\ch32v30x_tim.o
                0x0000000000001f34                TIM_CtrlPWMOutputs
 .text.TIM_ITConfig
                0x0000000000001f4a       0x16 E:\wch\6-AXIS-CH32V307-GRBL\SRC\Peripheral\src\ch32v30x_tim.o
                0x0000000000001f4a                TIM_ITConfig
 .text.TIM_OC1PreloadConfig
                0x0000000000001f60       0x12 E:\wch\6-AXIS-CH32V307-GRBL\SRC\Peripheral\src\ch32v30x_tim.o
                0x0000000000001f60                TIM_OC1PreloadConfig
 .text.TIM_ClearITPendingBit
                0x0000000000001f72        0xe E:\wch\6-AXIS-CH32V307-GRBL\SRC\Peripheral\src\ch32v30x_tim.o
                0x0000000000001f72                TIM_ClearITPendingBit
 .text.USART_Init
                0x0000000000001f80       0xd8 E:\wch\6-AXIS-CH32V307-GRBL\SRC\Peripheral\src\ch32v30x_usart.o
                0x0000000000001f80                USART_Init
 .text.USART_Cmd
                0x0000000000002058       0x1c E:\wch\6-AXIS-CH32V307-GRBL\SRC\Peripheral\src\ch32v30x_usart.o
                0x0000000000002058                USART_Cmd
 .text.USART_ITConfig
                0x0000000000002074       0x36 E:\wch\6-AXIS-CH32V307-GRBL\SRC\Peripheral\src\ch32v30x_usart.o
                0x0000000000002074                USART_ITConfig
 .text.USART_SendData
                0x00000000000020aa        0xa E:\wch\6-AXIS-CH32V307-GRBL\SRC\Peripheral\src\ch32v30x_usart.o
                0x00000000000020aa                USART_SendData
 .text.USART_ReceiveData
                0x00000000000020b4        0xa E:\wch\6-AXIS-CH32V307-GRBL\SRC\Peripheral\src\ch32v30x_usart.o
                0x00000000000020b4                USART_ReceiveData
 .text.USART_GetFlagStatus
                0x00000000000020be        0xc E:\wch\6-AXIS-CH32V307-GRBL\SRC\Peripheral\src\ch32v30x_usart.o
                0x00000000000020be                USART_GetFlagStatus
 .text.USART_GetITStatus
                0x00000000000020ca       0x44 E:\wch\6-AXIS-CH32V307-GRBL\SRC\Peripheral\src\ch32v30x_usart.o
                0x00000000000020ca                USART_GetITStatus
 .text.coolant_get_state
                0x000000000000210e       0x3a E:\wch\6-AXIS-CH32V307-GRBL\grbl\coolant_control.o
                0x000000000000210e                coolant_get_state
 .text.coolant_stop
                0x0000000000002148       0x24 E:\wch\6-AXIS-CH32V307-GRBL\grbl\coolant_control.o
                0x0000000000002148                coolant_stop
 .text.coolant_init
                0x000000000000216c       0x7a E:\wch\6-AXIS-CH32V307-GRBL\grbl\coolant_control.o
                0x000000000000216c                coolant_init
 .text.coolant_set_state
                0x00000000000021e6       0x58 E:\wch\6-AXIS-CH32V307-GRBL\grbl\coolant_control.o
                0x00000000000021e6                coolant_set_state
 .text.coolant_sync
                0x000000000000223e       0x1e E:\wch\6-AXIS-CH32V307-GRBL\grbl\coolant_control.o
                0x000000000000223e                coolant_sync
 .text.eeprom_init
                0x000000000000225c       0x4c E:\wch\6-AXIS-CH32V307-GRBL\grbl\eeprom.o
                0x000000000000225c                eeprom_init
 .text.eeprom_get_char
                0x00000000000022a8       0x10 E:\wch\6-AXIS-CH32V307-GRBL\grbl\eeprom.o
                0x00000000000022a8                eeprom_get_char
 .text.eeprom_put_char
                0x00000000000022b8       0x10 E:\wch\6-AXIS-CH32V307-GRBL\grbl\eeprom.o
                0x00000000000022b8                eeprom_put_char
 .text.memcpy_to_eeprom_with_checksum
                0x00000000000022c8       0x40 E:\wch\6-AXIS-CH32V307-GRBL\grbl\eeprom.o
                0x00000000000022c8                memcpy_to_eeprom_with_checksum
 .text.memcpy_from_eeprom_with_checksum
                0x0000000000002308       0x3e E:\wch\6-AXIS-CH32V307-GRBL\grbl\eeprom.o
                0x0000000000002308                memcpy_from_eeprom_with_checksum
 .text.gc_init  0x0000000000002346       0x36 E:\wch\6-AXIS-CH32V307-GRBL\grbl\gcode.o
                0x0000000000002346                gc_init
 .text.gc_sync_position
                0x000000000000237c       0x10 E:\wch\6-AXIS-CH32V307-GRBL\grbl\gcode.o
                0x000000000000237c                gc_sync_position
 .text.gc_execute_line
                0x000000000000238c      0xfee E:\wch\6-AXIS-CH32V307-GRBL\grbl\gcode.o
                0x000000000000238c                gc_execute_line
 .text.jog_execute
                0x000000000000337a       0x6e E:\wch\6-AXIS-CH32V307-GRBL\grbl\jog.o
                0x000000000000337a                jog_execute
 .text.limits_init
                0x00000000000033e8       0xb2 E:\wch\6-AXIS-CH32V307-GRBL\grbl\limits.o
                0x00000000000033e8                limits_init
 .text.limits_disable
                0x000000000000349a        0xe E:\wch\6-AXIS-CH32V307-GRBL\grbl\limits.o
                0x000000000000349a                limits_disable
 .text.limits_get_state
                0x00000000000034a8       0x5c E:\wch\6-AXIS-CH32V307-GRBL\grbl\limits.o
                0x00000000000034a8                limits_get_state
 .text.EXTI15_10_IRQHandler
                0x0000000000003504       0x6a E:\wch\6-AXIS-CH32V307-GRBL\grbl\limits.o
                0x0000000000003504                EXTI15_10_IRQHandler
 .text.limits_go_home
                0x000000000000356e      0x28c E:\wch\6-AXIS-CH32V307-GRBL\grbl\limits.o
                0x000000000000356e                limits_go_home
 .text.limits_soft_check
                0x00000000000037fa       0x5c E:\wch\6-AXIS-CH32V307-GRBL\grbl\limits.o
                0x00000000000037fa                limits_soft_check
 .text.mc_line  0x0000000000003856       0x96 E:\wch\6-AXIS-CH32V307-GRBL\grbl\motion_control.o
                0x0000000000003856                mc_line
 .text.mc_arc   0x00000000000038ec      0x36a E:\wch\6-AXIS-CH32V307-GRBL\grbl\motion_control.o
                0x00000000000038ec                mc_arc
 .text.mc_dwell
                0x0000000000003c56       0x20 E:\wch\6-AXIS-CH32V307-GRBL\grbl\motion_control.o
                0x0000000000003c56                mc_dwell
 .text.mc_homing_cycle
                0x0000000000003c76       0x3c E:\wch\6-AXIS-CH32V307-GRBL\grbl\motion_control.o
                0x0000000000003c76                mc_homing_cycle
 .text.mc_probe_cycle
                0x0000000000003cb2       0xe8 E:\wch\6-AXIS-CH32V307-GRBL\grbl\motion_control.o
                0x0000000000003cb2                mc_probe_cycle
 .text.mc_reset
                0x0000000000003d9a       0x5a E:\wch\6-AXIS-CH32V307-GRBL\grbl\motion_control.o
                0x0000000000003d9a                mc_reset
 .text.read_float
                0x0000000000003df4      0x14e E:\wch\6-AXIS-CH32V307-GRBL\grbl\nuts_bolts.o
                0x0000000000003df4                read_float
 .text.delay_sec
                0x0000000000003f42       0x62 E:\wch\6-AXIS-CH32V307-GRBL\grbl\nuts_bolts.o
                0x0000000000003f42                delay_sec
 .text.hypot_f  0x0000000000003fa4       0x2e E:\wch\6-AXIS-CH32V307-GRBL\grbl\nuts_bolts.o
                0x0000000000003fa4                hypot_f
 .text.convert_delta_vector_to_unit_vector
                0x0000000000003fd2       0x7e E:\wch\6-AXIS-CH32V307-GRBL\grbl\nuts_bolts.o
                0x0000000000003fd2                convert_delta_vector_to_unit_vector
 .text.limit_value_by_axis_maximum
                0x0000000000004050       0x78 E:\wch\6-AXIS-CH32V307-GRBL\grbl\nuts_bolts.o
                0x0000000000004050                limit_value_by_axis_maximum
 .text.planner_recalculate
                0x00000000000040c8      0x1e4 E:\wch\6-AXIS-CH32V307-GRBL\grbl\planner.o
 .text.plan_reset_buffer
                0x00000000000042ac       0x14 E:\wch\6-AXIS-CH32V307-GRBL\grbl\planner.o
                0x00000000000042ac                plan_reset_buffer
 .text.plan_reset
                0x00000000000042c0       0x1a E:\wch\6-AXIS-CH32V307-GRBL\grbl\planner.o
                0x00000000000042c0                plan_reset
 .text.plan_discard_current_block
                0x00000000000042da       0x38 E:\wch\6-AXIS-CH32V307-GRBL\grbl\planner.o
                0x00000000000042da                plan_discard_current_block
 .text.plan_get_system_motion_block
                0x0000000000004312       0x18 E:\wch\6-AXIS-CH32V307-GRBL\grbl\planner.o
                0x0000000000004312                plan_get_system_motion_block
 .text.plan_get_current_block
                0x000000000000432a       0x22 E:\wch\6-AXIS-CH32V307-GRBL\grbl\planner.o
                0x000000000000432a                plan_get_current_block
 .text.plan_get_exec_block_exit_speed_sqr
                0x000000000000434c       0x36 E:\wch\6-AXIS-CH32V307-GRBL\grbl\planner.o
                0x000000000000434c                plan_get_exec_block_exit_speed_sqr
 .text.plan_check_full_buffer
                0x0000000000004382       0x10 E:\wch\6-AXIS-CH32V307-GRBL\grbl\planner.o
                0x0000000000004382                plan_check_full_buffer
 .text.plan_compute_profile_nominal_speed
                0x0000000000004392       0x8a E:\wch\6-AXIS-CH32V307-GRBL\grbl\planner.o
                0x0000000000004392                plan_compute_profile_nominal_speed
 .text.plan_update_velocity_profile_parameters
                0x000000000000441c       0xa2 E:\wch\6-AXIS-CH32V307-GRBL\grbl\planner.o
                0x000000000000441c                plan_update_velocity_profile_parameters
 .text.plan_buffer_line
                0x00000000000044be      0x34a E:\wch\6-AXIS-CH32V307-GRBL\grbl\planner.o
                0x00000000000044be                plan_buffer_line
 .text.plan_sync_position
                0x0000000000004808       0x20 E:\wch\6-AXIS-CH32V307-GRBL\grbl\planner.o
                0x0000000000004808                plan_sync_position
 .text.plan_get_block_buffer_available
                0x0000000000004828       0x1c E:\wch\6-AXIS-CH32V307-GRBL\grbl\planner.o
                0x0000000000004828                plan_get_block_buffer_available
 .text.plan_cycle_reinitialize
                0x0000000000004844       0x18 E:\wch\6-AXIS-CH32V307-GRBL\grbl\planner.o
                0x0000000000004844                plan_cycle_reinitialize
 .text.printString
                0x000000000000485c       0x22 E:\wch\6-AXIS-CH32V307-GRBL\grbl\print.o
                0x000000000000485c                printString
 .text.print_uint8_base10
                0x000000000000487e       0x66 E:\wch\6-AXIS-CH32V307-GRBL\grbl\print.o
                0x000000000000487e                print_uint8_base10
 .text.printFloat
                0x00000000000048e4      0x10c E:\wch\6-AXIS-CH32V307-GRBL\grbl\print.o
                0x00000000000048e4                printFloat
 .text.printFloat_CoordValue
                0x00000000000049f0       0x28 E:\wch\6-AXIS-CH32V307-GRBL\grbl\print.o
                0x00000000000049f0                printFloat_CoordValue
 .text.printFloat_RateValue
                0x0000000000004a18       0x28 E:\wch\6-AXIS-CH32V307-GRBL\grbl\print.o
                0x0000000000004a18                printFloat_RateValue
 .text.probe_configure_invert_mask
                0x0000000000004a40       0x2c E:\wch\6-AXIS-CH32V307-GRBL\grbl\probe.o
                0x0000000000004a40                probe_configure_invert_mask
 .text.probe_init
                0x0000000000004a6c       0x38 E:\wch\6-AXIS-CH32V307-GRBL\grbl\probe.o
                0x0000000000004a6c                probe_init
 .text.probe_get_state
                0x0000000000004aa4       0x2a E:\wch\6-AXIS-CH32V307-GRBL\grbl\probe.o
                0x0000000000004aa4                probe_get_state
 .text.probe_state_monitor
                0x0000000000004ace       0x2e E:\wch\6-AXIS-CH32V307-GRBL\grbl\probe.o
                0x0000000000004ace                probe_state_monitor
 .text.protocol_auto_cycle_start
                0x0000000000004afc       0x1a E:\wch\6-AXIS-CH32V307-GRBL\grbl\protocol.o
                0x0000000000004afc                protocol_auto_cycle_start
 .text.protocol_exec_rt_system
                0x0000000000004b16      0x4c6 E:\wch\6-AXIS-CH32V307-GRBL\grbl\protocol.o
                0x0000000000004b16                protocol_exec_rt_system
 .text.protocol_execute_realtime
                0x0000000000004fdc      0x226 E:\wch\6-AXIS-CH32V307-GRBL\grbl\protocol.o
                0x0000000000004fdc                protocol_execute_realtime
 .text.protocol_main_loop
                0x0000000000005202      0x16c E:\wch\6-AXIS-CH32V307-GRBL\grbl\protocol.o
                0x0000000000005202                protocol_main_loop
 .text.protocol_buffer_synchronize
                0x000000000000536e       0x38 E:\wch\6-AXIS-CH32V307-GRBL\grbl\protocol.o
                0x000000000000536e                protocol_buffer_synchronize
 .text.report_util_line_feed
                0x00000000000053a6        0xc E:\wch\6-AXIS-CH32V307-GRBL\grbl\report.o
 .text.report_util_feedback_line_feed
                0x00000000000053b2       0x14 E:\wch\6-AXIS-CH32V307-GRBL\grbl\report.o
 .text.report_util_axis_values
                0x00000000000053c6       0x40 E:\wch\6-AXIS-CH32V307-GRBL\grbl\report.o
 .text.report_util_setting_prefix
                0x0000000000005406       0x24 E:\wch\6-AXIS-CH32V307-GRBL\grbl\report.o
                0x0000000000005406                report_util_setting_prefix
 .text.report_util_uint8_setting
                0x000000000000542a       0x1c E:\wch\6-AXIS-CH32V307-GRBL\grbl\report.o
 .text.report_util_float_setting
                0x0000000000005446       0x22 E:\wch\6-AXIS-CH32V307-GRBL\grbl\report.o
 .text.report_status_message
                0x0000000000005468       0x32 E:\wch\6-AXIS-CH32V307-GRBL\grbl\report.o
                0x0000000000005468                report_status_message
 .text.report_alarm_message
                0x000000000000549a       0x2c E:\wch\6-AXIS-CH32V307-GRBL\grbl\report.o
                0x000000000000549a                report_alarm_message
 .text.report_feedback_message
                0x00000000000054c6       0xaa E:\wch\6-AXIS-CH32V307-GRBL\grbl\report.o
                0x00000000000054c6                report_feedback_message
 .text.report_init_message
                0x0000000000005570        0xc E:\wch\6-AXIS-CH32V307-GRBL\grbl\report.o
                0x0000000000005570                report_init_message
 .text.report_grbl_help
                0x000000000000557c        0xc E:\wch\6-AXIS-CH32V307-GRBL\grbl\report.o
                0x000000000000557c                report_grbl_help
 .text.report_grbl_settings
                0x0000000000005588      0x1c2 E:\wch\6-AXIS-CH32V307-GRBL\grbl\report.o
                0x0000000000005588                report_grbl_settings
 .text.report_probe_parameters
                0x000000000000574a       0x3a E:\wch\6-AXIS-CH32V307-GRBL\grbl\report.o
                0x000000000000574a                report_probe_parameters
 .text.report_ngc_parameters
                0x0000000000005784       0xe0 E:\wch\6-AXIS-CH32V307-GRBL\grbl\report.o
                0x0000000000005784                report_ngc_parameters
 .text.report_gcode_modes
                0x0000000000005864      0x1b2 E:\wch\6-AXIS-CH32V307-GRBL\grbl\report.o
                0x0000000000005864                report_gcode_modes
 .text.report_startup_line
                0x0000000000005a16       0x34 E:\wch\6-AXIS-CH32V307-GRBL\grbl\report.o
                0x0000000000005a16                report_startup_line
 .text.report_execute_startup_message
                0x0000000000005a4a       0x2a E:\wch\6-AXIS-CH32V307-GRBL\grbl\report.o
                0x0000000000005a4a                report_execute_startup_message
 .text.report_build_info
                0x0000000000005a74       0x5c E:\wch\6-AXIS-CH32V307-GRBL\grbl\report.o
                0x0000000000005a74                report_build_info
 .text.report_realtime_status
                0x0000000000005ad0      0x3b0 E:\wch\6-AXIS-CH32V307-GRBL\grbl\report.o
                0x0000000000005ad0                report_realtime_status
 .text.serial_get_rx_buffer_available
                0x0000000000005e80       0x20 E:\wch\6-AXIS-CH32V307-GRBL\grbl\serial.o
                0x0000000000005e80                serial_get_rx_buffer_available
 .text.serial_write
                0x0000000000005ea0       0x34 E:\wch\6-AXIS-CH32V307-GRBL\grbl\serial.o
                0x0000000000005ea0                serial_write
 .text.serial_read
                0x0000000000005ed4       0x40 E:\wch\6-AXIS-CH32V307-GRBL\grbl\serial.o
                0x0000000000005ed4                serial_read
 .text.USART2_IRQHandler
                0x0000000000005f14      0x124 E:\wch\6-AXIS-CH32V307-GRBL\grbl\serial.o
                0x0000000000005f14                USART2_IRQHandler
 .text.serial_reset_read_buffer
                0x0000000000006038        0xa E:\wch\6-AXIS-CH32V307-GRBL\grbl\serial.o
                0x0000000000006038                serial_reset_read_buffer
 .text.spindle_get_state
                0x0000000000006042       0x28 E:\wch\6-AXIS-CH32V307-GRBL\grbl\spindle_control.o
                0x0000000000006042                spindle_get_state
 .text.spindle_stop
                0x000000000000606a       0x26 E:\wch\6-AXIS-CH32V307-GRBL\grbl\spindle_control.o
                0x000000000000606a                spindle_stop
 .text.spindle_init
                0x0000000000006090      0x11e E:\wch\6-AXIS-CH32V307-GRBL\grbl\spindle_control.o
                0x0000000000006090                spindle_init
 .text.spindle_set_speed
                0x00000000000061ae       0x18 E:\wch\6-AXIS-CH32V307-GRBL\grbl\spindle_control.o
                0x00000000000061ae                spindle_set_speed
 .text.spindle_compute_pwm_value
                0x00000000000061c6       0xb6 E:\wch\6-AXIS-CH32V307-GRBL\grbl\spindle_control.o
                0x00000000000061c6                spindle_compute_pwm_value
 .text.spindle_set_state
                0x000000000000627c       0x84 E:\wch\6-AXIS-CH32V307-GRBL\grbl\spindle_control.o
                0x000000000000627c                spindle_set_state
 .text.spindle_sync
                0x0000000000006300       0x24 E:\wch\6-AXIS-CH32V307-GRBL\grbl\spindle_control.o
                0x0000000000006300                spindle_sync
 .text.st_wake_up
                0x0000000000006324       0x9a E:\wch\6-AXIS-CH32V307-GRBL\grbl\stepper.o
                0x0000000000006324                st_wake_up
 .text.st_go_idle
                0x00000000000063be       0x90 E:\wch\6-AXIS-CH32V307-GRBL\grbl\stepper.o
                0x00000000000063be                st_go_idle
 .text.TIM2_IRQHandler
                0x000000000000644e      0x2d4 E:\wch\6-AXIS-CH32V307-GRBL\grbl\stepper.o
                0x000000000000644e                TIM2_IRQHandler
 .text.TIM3_IRQHandler
                0x0000000000006722       0x42 E:\wch\6-AXIS-CH32V307-GRBL\grbl\stepper.o
                0x0000000000006722                TIM3_IRQHandler
 .text.st_generate_step_dir_invert_masks
                0x0000000000006764       0x88 E:\wch\6-AXIS-CH32V307-GRBL\grbl\stepper.o
                0x0000000000006764                st_generate_step_dir_invert_masks
 .text.st_reset
                0x00000000000067ec       0x92 E:\wch\6-AXIS-CH32V307-GRBL\grbl\stepper.o
                0x00000000000067ec                st_reset
 .text.st_update_plan_block_parameters
                0x000000000000687e       0x38 E:\wch\6-AXIS-CH32V307-GRBL\grbl\stepper.o
                0x000000000000687e                st_update_plan_block_parameters
 .text.st_prep_buffer
                0x00000000000068b6      0x802 E:\wch\6-AXIS-CH32V307-GRBL\grbl\stepper.o
                0x00000000000068b6                st_prep_buffer
 .text.st_get_realtime_rate
                0x00000000000070b8       0x14 E:\wch\6-AXIS-CH32V307-GRBL\grbl\stepper.o
                0x00000000000070b8                st_get_realtime_rate
 .text.TIM_Configuration
                0x00000000000070cc       0x92 E:\wch\6-AXIS-CH32V307-GRBL\grbl\stepper.o
                0x00000000000070cc                TIM_Configuration
 .text.stepper_init
                0x000000000000715e      0x10a E:\wch\6-AXIS-CH32V307-GRBL\grbl\stepper.o
                0x000000000000715e                stepper_init
 .text.system_init
                0x0000000000007268       0x92 E:\wch\6-AXIS-CH32V307-GRBL\grbl\system.o
                0x0000000000007268                system_init
 .text.system_control_get_state
                0x00000000000072fa       0x3a E:\wch\6-AXIS-CH32V307-GRBL\grbl\system.o
                0x00000000000072fa                system_control_get_state
 .text.EXTI9_5_IRQHandler
                0x0000000000007334       0x50 E:\wch\6-AXIS-CH32V307-GRBL\grbl\system.o
                0x0000000000007334                EXTI9_5_IRQHandler
 .text.system_check_safety_door_ajar
                0x0000000000007384        0x4 E:\wch\6-AXIS-CH32V307-GRBL\grbl\system.o
                0x0000000000007384                system_check_safety_door_ajar
 .text.system_execute_startup
                0x0000000000007388       0x4a E:\wch\6-AXIS-CH32V307-GRBL\grbl\system.o
                0x0000000000007388                system_execute_startup
 .text.system_flag_wco_change
                0x00000000000073d2       0x12 E:\wch\6-AXIS-CH32V307-GRBL\grbl\system.o
                0x00000000000073d2                system_flag_wco_change
 .text.system_convert_axis_steps_to_mpos
                0x00000000000073e4       0x2a E:\wch\6-AXIS-CH32V307-GRBL\grbl\system.o
                0x00000000000073e4                system_convert_axis_steps_to_mpos
 .text.system_convert_array_steps_to_mpos
                0x000000000000740e       0x3a E:\wch\6-AXIS-CH32V307-GRBL\grbl\system.o
                0x000000000000740e                system_convert_array_steps_to_mpos
 .text.system_check_travel_limits
                0x0000000000007448       0x5c E:\wch\6-AXIS-CH32V307-GRBL\grbl\system.o
                0x0000000000007448                system_check_travel_limits
 .text.system_set_exec_state_flag
                0x00000000000074a4       0x1a E:\wch\6-AXIS-CH32V307-GRBL\grbl\system.o
                0x00000000000074a4                system_set_exec_state_flag
 .text.system_execute_line
                0x00000000000074be      0x36c E:\wch\6-AXIS-CH32V307-GRBL\grbl\system.o
                0x00000000000074be                system_execute_line
 .text.system_clear_exec_state_flag
                0x000000000000782a       0x1e E:\wch\6-AXIS-CH32V307-GRBL\grbl\system.o
                0x000000000000782a                system_clear_exec_state_flag
 .text.system_set_exec_alarm
                0x0000000000007848       0x14 E:\wch\6-AXIS-CH32V307-GRBL\grbl\system.o
                0x0000000000007848                system_set_exec_alarm
 .text.system_clear_exec_alarm
                0x000000000000785c       0x14 E:\wch\6-AXIS-CH32V307-GRBL\grbl\system.o
                0x000000000000785c                system_clear_exec_alarm
 .text.system_set_exec_motion_override_flag
                0x0000000000007870       0x1a E:\wch\6-AXIS-CH32V307-GRBL\grbl\system.o
                0x0000000000007870                system_set_exec_motion_override_flag
 .text.system_set_exec_accessory_override_flag
                0x000000000000788a       0x1a E:\wch\6-AXIS-CH32V307-GRBL\grbl\system.o
                0x000000000000788a                system_set_exec_accessory_override_flag
 .text.system_clear_exec_motion_overrides
                0x00000000000078a4       0x14 E:\wch\6-AXIS-CH32V307-GRBL\grbl\system.o
                0x00000000000078a4                system_clear_exec_motion_overrides
 .text.system_clear_exec_accessory_overrides
                0x00000000000078b8       0x14 E:\wch\6-AXIS-CH32V307-GRBL\grbl\system.o
                0x00000000000078b8                system_clear_exec_accessory_overrides
 .text.vector_handler
                0x00000000000078cc       0xbe E:\wch\6-AXIS-CH32V307-GRBL\SRC\Startup\startup_ch32v30x_D8C.o
                0x00000000000078d0                Ecall_M_Mode_Handler
                0x00000000000078d2                Ecall_U_Mode_Handler
                0x00000000000078d4                Break_Point_Handler
                0x00000000000078d6                SysTick_Handler
                0x00000000000078d8                SW_Handler
                0x00000000000078da                WWDG_IRQHandler
                0x00000000000078dc                PVD_IRQHandler
                0x00000000000078de                TAMPER_IRQHandler
                0x00000000000078e0                RTC_IRQHandler
                0x00000000000078e2                FLASH_IRQHandler
                0x00000000000078e4                RCC_IRQHandler
                0x00000000000078e6                EXTI0_IRQHandler
                0x00000000000078e8                EXTI1_IRQHandler
                0x00000000000078ea                EXTI2_IRQHandler
                0x00000000000078ec                EXTI3_IRQHandler
                0x00000000000078ee                EXTI4_IRQHandler
                0x00000000000078f0                DMA1_Channel1_IRQHandler
                0x00000000000078f2                DMA1_Channel2_IRQHandler
                0x00000000000078f4                DMA1_Channel3_IRQHandler
                0x00000000000078f6                DMA1_Channel4_IRQHandler
                0x00000000000078f8                DMA1_Channel5_IRQHandler
                0x00000000000078fa                DMA1_Channel6_IRQHandler
                0x00000000000078fc                DMA1_Channel7_IRQHandler
                0x00000000000078fe                ADC1_2_IRQHandler
                0x0000000000007900                USB_HP_CAN1_TX_IRQHandler
                0x0000000000007902                USB_LP_CAN1_RX0_IRQHandler
                0x0000000000007904                CAN1_RX1_IRQHandler
                0x0000000000007906                CAN1_SCE_IRQHandler
                0x000000000000790a                TIM1_BRK_IRQHandler
                0x000000000000790c                TIM1_UP_IRQHandler
                0x000000000000790e                TIM1_TRG_COM_IRQHandler
                0x0000000000007910                TIM1_CC_IRQHandler
                0x0000000000007916                TIM4_IRQHandler
                0x0000000000007918                I2C1_EV_IRQHandler
                0x000000000000791a                I2C1_ER_IRQHandler
                0x000000000000791c                I2C2_EV_IRQHandler
                0x000000000000791e                I2C2_ER_IRQHandler
                0x0000000000007920                SPI1_IRQHandler
                0x0000000000007922                SPI2_IRQHandler
                0x0000000000007924                USART1_IRQHandler
                0x0000000000007928                USART3_IRQHandler
                0x000000000000792c                RTCAlarm_IRQHandler
                0x000000000000792e                USBWakeUp_IRQHandler
                0x0000000000007930                TIM8_BRK_IRQHandler
                0x0000000000007932                TIM8_UP_IRQHandler
                0x0000000000007934                TIM8_TRG_COM_IRQHandler
                0x0000000000007936                TIM8_CC_IRQHandler
                0x0000000000007938                RNG_IRQHandler
                0x000000000000793a                FSMC_IRQHandler
                0x000000000000793c                SDIO_IRQHandler
                0x000000000000793e                TIM5_IRQHandler
                0x0000000000007940                SPI3_IRQHandler
                0x0000000000007942                UART4_IRQHandler
                0x0000000000007944                UART5_IRQHandler
                0x0000000000007946                TIM6_IRQHandler
                0x0000000000007948                TIM7_IRQHandler
                0x000000000000794a                DMA2_Channel1_IRQHandler
                0x000000000000794c                DMA2_Channel2_IRQHandler
                0x000000000000794e                DMA2_Channel3_IRQHandler
                0x0000000000007950                DMA2_Channel4_IRQHandler
                0x0000000000007952                DMA2_Channel5_IRQHandler
                0x0000000000007954                ETH_IRQHandler
                0x0000000000007956                ETH_WKUP_IRQHandler
                0x0000000000007958                CAN2_TX_IRQHandler
                0x000000000000795a                CAN2_RX0_IRQHandler
                0x000000000000795c                CAN2_RX1_IRQHandler
                0x000000000000795e                CAN2_SCE_IRQHandler
                0x0000000000007960                OTG_FS_IRQHandler
                0x0000000000007962                USBHSWakeup_IRQHandler
                0x0000000000007966                DVP_IRQHandler
                0x0000000000007968                UART6_IRQHandler
                0x000000000000796a                UART7_IRQHandler
                0x000000000000796c                UART8_IRQHandler
                0x000000000000796e                TIM9_BRK_IRQHandler
                0x0000000000007970                TIM9_UP_IRQHandler
                0x0000000000007972                TIM9_TRG_COM_IRQHandler
                0x0000000000007974                TIM9_CC_IRQHandler
                0x0000000000007976                TIM10_BRK_IRQHandler
                0x0000000000007978                TIM10_UP_IRQHandler
                0x000000000000797a                TIM10_TRG_COM_IRQHandler
                0x000000000000797c                TIM10_CC_IRQHandler
                0x000000000000797e                DMA2_Channel6_IRQHandler
                0x0000000000007980                DMA2_Channel7_IRQHandler
                0x0000000000007982                DMA2_Channel8_IRQHandler
                0x0000000000007984                DMA2_Channel9_IRQHandler
                0x0000000000007986                DMA2_Channel10_IRQHandler
                0x0000000000007988                DMA2_Channel11_IRQHandler
 .text.handle_reset
                0x000000000000798a       0x8e E:\wch\6-AXIS-CH32V307-GRBL\SRC\Startup\startup_ch32v30x_D8C.o
                0x000000000000798a                handle_reset
 .text.ceilf    0x0000000000007a18       0xd4 ld\libm.a(lib_a-sf_ceil.o)
                0x0000000000007a18                ceilf
 .text.cosf     0x0000000000007aec       0x82 ld\libm.a(lib_a-sf_cos.o)
                0x0000000000007aec                cosf
 .text.floorf   0x0000000000007b6e       0xcc ld\libm.a(lib_a-sf_floor.o)
                0x0000000000007b6e                floorf
 .text.lroundf  0x0000000000007c3a       0x78 ld\libm.a(lib_a-sf_lround.o)
                0x0000000000007c3a                lroundf
 .text.sinf     0x0000000000007cb2       0x84 ld\libm.a(lib_a-sf_sin.o)
                0x0000000000007cb2                sinf
 .text.truncf   0x0000000000007d36       0x32 ld\libm.a(lib_a-sf_trunc.o)
                0x0000000000007d36                truncf
 .text.atan2f   0x0000000000007d68        0x2 ld\libm.a(lib_a-wf_atan2.o)
                0x0000000000007d68                atan2f
 .text.sqrtf    0x0000000000007d6a       0xb8 ld\libm.a(lib_a-wf_sqrt.o)
                0x0000000000007d6a                sqrtf
 .text.__ieee754_atan2f
                0x0000000000007e22      0x198 ld\libm.a(lib_a-ef_atan2.o)
                0x0000000000007e22                __ieee754_atan2f
 .text.__ieee754_rem_pio2f
                0x0000000000007fba      0x354 ld\libm.a(lib_a-ef_rem_pio2.o)
                0x0000000000007fba                __ieee754_rem_pio2f
 .text.__ieee754_sqrtf
                0x000000000000830e       0xdc ld\libm.a(lib_a-ef_sqrt.o)
                0x000000000000830e                __ieee754_sqrtf
 .text.__kernel_cosf
                0x00000000000083ea      0x20e ld\libm.a(lib_a-kf_cos.o)
                0x00000000000083ea                __kernel_cosf
 .text.__kernel_rem_pio2f
                0x00000000000085f8      0x7e4 ld\libm.a(lib_a-kf_rem_pio2.o)
                0x00000000000085f8                __kernel_rem_pio2f
 .text.__kernel_sinf
                0x0000000000008ddc      0x12c ld\libm.a(lib_a-kf_sin.o)
                0x0000000000008ddc                __kernel_sinf
 .text.matherr  0x0000000000008f08        0x4 ld\libm.a(lib_a-s_matherr.o)
                0x0000000000008f08                matherr
 .text.atanf    0x0000000000008f0c      0x288 ld\libm.a(lib_a-sf_atan.o)
                0x0000000000008f0c                atanf
 .text.fabsf    0x0000000000009194        0x6 ld\libm.a(lib_a-sf_fabs.o)
                0x0000000000009194                fabsf
 .text.scalbnf  0x000000000000919a       0xe0 ld\libm.a(lib_a-sf_scalbn.o)
                0x000000000000919a                scalbnf
 .text.copysignf
                0x000000000000927a       0x10 ld\libm.a(lib_a-sf_copysign.o)
                0x000000000000927a                copysignf
 .text.__adddf3
                0x000000000000928a      0x730 e:/risc5ide_2010/risc-vembeddedgcc/bin/../lib/gcc/riscv-none-embed/8.2.0/rv32imac/ilp32\libgcc.a(adddf3.o)
                0x000000000000928a                __adddf3
 .text.__divdf3
                0x00000000000099ba      0x5b4 e:/risc5ide_2010/risc-vembeddedgcc/bin/../lib/gcc/riscv-none-embed/8.2.0/rv32imac/ilp32\libgcc.a(divdf3.o)
                0x00000000000099ba                __divdf3
 .text.__gedf2  0x0000000000009f6e       0xae e:/risc5ide_2010/risc-vembeddedgcc/bin/../lib/gcc/riscv-none-embed/8.2.0/rv32imac/ilp32\libgcc.a(gedf2.o)
                0x0000000000009f6e                __gedf2
                0x0000000000009f6e                __gtdf2
 .text.__ledf2  0x000000000000a01c       0xb6 e:/risc5ide_2010/risc-vembeddedgcc/bin/../lib/gcc/riscv-none-embed/8.2.0/rv32imac/ilp32\libgcc.a(ledf2.o)
                0x000000000000a01c                __ledf2
                0x000000000000a01c                __ltdf2
 .text.__subdf3
                0x000000000000a0d2      0x73e e:/risc5ide_2010/risc-vembeddedgcc/bin/../lib/gcc/riscv-none-embed/8.2.0/rv32imac/ilp32\libgcc.a(subdf3.o)
                0x000000000000a0d2                __subdf3
 .text.__addsf3
                0x000000000000a810      0x36a e:/risc5ide_2010/risc-vembeddedgcc/bin/../lib/gcc/riscv-none-embed/8.2.0/rv32imac/ilp32\libgcc.a(addsf3.o)
                0x000000000000a810                __addsf3
 .text.__divsf3
                0x000000000000ab7a      0x2b2 e:/risc5ide_2010/risc-vembeddedgcc/bin/../lib/gcc/riscv-none-embed/8.2.0/rv32imac/ilp32\libgcc.a(divsf3.o)
                0x000000000000ab7a                __divsf3
 .text.__eqsf2  0x000000000000ae2c       0x5c e:/risc5ide_2010/risc-vembeddedgcc/bin/../lib/gcc/riscv-none-embed/8.2.0/rv32imac/ilp32\libgcc.a(eqsf2.o)
                0x000000000000ae2c                __eqsf2
                0x000000000000ae2c                __nesf2
 .text.__gesf2  0x000000000000ae88       0x86 e:/risc5ide_2010/risc-vembeddedgcc/bin/../lib/gcc/riscv-none-embed/8.2.0/rv32imac/ilp32\libgcc.a(gesf2.o)
                0x000000000000ae88                __gesf2
                0x000000000000ae88                __gtsf2
 .text.__lesf2  0x000000000000af0e       0x8c e:/risc5ide_2010/risc-vembeddedgcc/bin/../lib/gcc/riscv-none-embed/8.2.0/rv32imac/ilp32\libgcc.a(lesf2.o)
                0x000000000000af0e                __ltsf2
                0x000000000000af0e                __lesf2
 .text.__mulsf3
                0x000000000000af9a      0x294 e:/risc5ide_2010/risc-vembeddedgcc/bin/../lib/gcc/riscv-none-embed/8.2.0/rv32imac/ilp32\libgcc.a(mulsf3.o)
                0x000000000000af9a                __mulsf3
 .text.__subsf3
                0x000000000000b22e      0x388 e:/risc5ide_2010/risc-vembeddedgcc/bin/../lib/gcc/riscv-none-embed/8.2.0/rv32imac/ilp32\libgcc.a(subsf3.o)
                0x000000000000b22e                __subsf3
 .text.__unordsf2
                0x000000000000b5b6       0x3c e:/risc5ide_2010/risc-vembeddedgcc/bin/../lib/gcc/riscv-none-embed/8.2.0/rv32imac/ilp32\libgcc.a(unordsf2.o)
                0x000000000000b5b6                __unordsf2
 .text.__fixsfsi
                0x000000000000b5f2       0x62 e:/risc5ide_2010/risc-vembeddedgcc/bin/../lib/gcc/riscv-none-embed/8.2.0/rv32imac/ilp32\libgcc.a(fixsfsi.o)
                0x000000000000b5f2                __fixsfsi
 .text.__fixunssfsi
                0x000000000000b654       0x56 e:/risc5ide_2010/risc-vembeddedgcc/bin/../lib/gcc/riscv-none-embed/8.2.0/rv32imac/ilp32\libgcc.a(fixunssfsi.o)
                0x000000000000b654                __fixunssfsi
 .text.__floatsisf
                0x000000000000b6aa       0xc6 e:/risc5ide_2010/risc-vembeddedgcc/bin/../lib/gcc/riscv-none-embed/8.2.0/rv32imac/ilp32\libgcc.a(floatsisf.o)
                0x000000000000b6aa                __floatsisf
 .text.__floatunsisf
                0x000000000000b770       0xce e:/risc5ide_2010/risc-vembeddedgcc/bin/../lib/gcc/riscv-none-embed/8.2.0/rv32imac/ilp32\libgcc.a(floatunsisf.o)
                0x000000000000b770                __floatunsisf
 .text.__extendsfdf2
                0x000000000000b83e       0xac e:/risc5ide_2010/risc-vembeddedgcc/bin/../lib/gcc/riscv-none-embed/8.2.0/rv32imac/ilp32\libgcc.a(extendsfdf2.o)
                0x000000000000b83e                __extendsfdf2
 .text.__truncdfsf2
                0x000000000000b8ea      0x16a e:/risc5ide_2010/risc-vembeddedgcc/bin/../lib/gcc/riscv-none-embed/8.2.0/rv32imac/ilp32\libgcc.a(truncdfsf2.o)
                0x000000000000b8ea                __truncdfsf2
 .text.__clzsi2
                0x000000000000ba54       0x76 e:/risc5ide_2010/risc-vembeddedgcc/bin/../lib/gcc/riscv-none-embed/8.2.0/rv32imac/ilp32\libgcc.a(_clzsi2.o)
                0x000000000000ba54                __clzsi2
 .text.__errno  0x000000000000baca        0x8 e:/risc5ide_2010/risc-vembeddedgcc/bin/../lib/gcc/riscv-none-embed/8.2.0/../../../../riscv-none-embed/lib/rv32imac/ilp32\libc_nano.a(lib_a-errno.o)
                0x000000000000baca                __errno
 .text.memcmp   0x000000000000bad2       0x26 e:/risc5ide_2010/risc-vembeddedgcc/bin/../lib/gcc/riscv-none-embed/8.2.0/../../../../riscv-none-embed/lib/rv32imac/ilp32\libc_nano.a(lib_a-memcmp.o)
                0x000000000000bad2                memcmp
 .text.memcpy   0x000000000000baf8       0xb6 e:/risc5ide_2010/risc-vembeddedgcc/bin/../lib/gcc/riscv-none-embed/8.2.0/../../../../riscv-none-embed/lib/rv32imac/ilp32\libc_nano.a(lib_a-memcpy.o)
                0x000000000000baf8                memcpy
 .text.printf   0x000000000000bbae       0x3e e:/risc5ide_2010/risc-vembeddedgcc/bin/../lib/gcc/riscv-none-embed/8.2.0/../../../../riscv-none-embed/lib/rv32imac/ilp32\libc_nano.a(lib_a-printf.o)
                0x000000000000bbae                iprintf
                0x000000000000bbae                printf
 .text.std      0x000000000000bbec       0x6a e:/risc5ide_2010/risc-vembeddedgcc/bin/../lib/gcc/riscv-none-embed/8.2.0/../../../../riscv-none-embed/lib/rv32imac/ilp32\libc_nano.a(lib_a-findfp.o)
 .text._cleanup_r
                0x000000000000bc56        0xa e:/risc5ide_2010/risc-vembeddedgcc/bin/../lib/gcc/riscv-none-embed/8.2.0/../../../../riscv-none-embed/lib/rv32imac/ilp32\libc_nano.a(lib_a-findfp.o)
                0x000000000000bc56                _cleanup_r
 .text.__sfmoreglue
                0x000000000000bc60       0x46 e:/risc5ide_2010/risc-vembeddedgcc/bin/../lib/gcc/riscv-none-embed/8.2.0/../../../../riscv-none-embed/lib/rv32imac/ilp32\libc_nano.a(lib_a-findfp.o)
                0x000000000000bc60                __sfmoreglue
 .text.__sinit  0x000000000000bca6       0x6c e:/risc5ide_2010/risc-vembeddedgcc/bin/../lib/gcc/riscv-none-embed/8.2.0/../../../../riscv-none-embed/lib/rv32imac/ilp32\libc_nano.a(lib_a-findfp.o)
                0x000000000000bca6                __sinit
 .text.__sfp    0x000000000000bd12       0xa0 e:/risc5ide_2010/risc-vembeddedgcc/bin/../lib/gcc/riscv-none-embed/8.2.0/../../../../riscv-none-embed/lib/rv32imac/ilp32\libc_nano.a(lib_a-findfp.o)
                0x000000000000bd12                __sfp
 .text._fwalk_reent
                0x000000000000bdb2       0x6c e:/risc5ide_2010/risc-vembeddedgcc/bin/../lib/gcc/riscv-none-embed/8.2.0/../../../../riscv-none-embed/lib/rv32imac/ilp32\libc_nano.a(lib_a-fwalk.o)
                0x000000000000bdb2                _fwalk_reent
 .text._malloc_r
                0x000000000000be1e       0xd4 e:/risc5ide_2010/risc-vembeddedgcc/bin/../lib/gcc/riscv-none-embed/8.2.0/../../../../riscv-none-embed/lib/rv32imac/ilp32\libc_nano.a(lib_a-nano-mallocr.o)
                0x000000000000be1e                _malloc_r
 .text.__sfputc_r
                0x000000000000bef2       0x28 e:/risc5ide_2010/risc-vembeddedgcc/bin/../lib/gcc/riscv-none-embed/8.2.0/../../../../riscv-none-embed/lib/rv32imac/ilp32\libc_nano.a(lib_a-nano-vfprintf.o)
 .text.__sfputs_r
                0x000000000000bf1a       0x44 e:/risc5ide_2010/risc-vembeddedgcc/bin/../lib/gcc/riscv-none-embed/8.2.0/../../../../riscv-none-embed/lib/rv32imac/ilp32\libc_nano.a(lib_a-nano-vfprintf.o)
                0x000000000000bf1a                __sfputs_r
 .text._vfprintf_r
                0x000000000000bf5e      0x2a0 e:/risc5ide_2010/risc-vembeddedgcc/bin/../lib/gcc/riscv-none-embed/8.2.0/../../../../riscv-none-embed/lib/rv32imac/ilp32\libc_nano.a(lib_a-nano-vfprintf.o)
                0x000000000000bf5e                _vfprintf_r
                0x000000000000bf5e                _vfiprintf_r
 .text._printf_common
                0x000000000000c1fe      0x10c e:/risc5ide_2010/risc-vembeddedgcc/bin/../lib/gcc/riscv-none-embed/8.2.0/../../../../riscv-none-embed/lib/rv32imac/ilp32\libc_nano.a(lib_a-nano-vfprintf_i.o)
                0x000000000000c1fe                _printf_common
 .text._printf_i
                0x000000000000c30a      0x2ac e:/risc5ide_2010/risc-vembeddedgcc/bin/../lib/gcc/riscv-none-embed/8.2.0/../../../../riscv-none-embed/lib/rv32imac/ilp32\libc_nano.a(lib_a-nano-vfprintf_i.o)
                0x000000000000c30a                _printf_i
 .text._sbrk_r  0x000000000000c5b6       0x32 e:/risc5ide_2010/risc-vembeddedgcc/bin/../lib/gcc/riscv-none-embed/8.2.0/../../../../riscv-none-embed/lib/rv32imac/ilp32\libc_nano.a(lib_a-sbrkr.o)
                0x000000000000c5b6                _sbrk_r
 .text.__sread  0x000000000000c5e8       0x30 e:/risc5ide_2010/risc-vembeddedgcc/bin/../lib/gcc/riscv-none-embed/8.2.0/../../../../riscv-none-embed/lib/rv32imac/ilp32\libc_nano.a(lib_a-stdio.o)
                0x000000000000c5e8                __sread
 .text.__swrite
                0x000000000000c618       0x4e e:/risc5ide_2010/risc-vembeddedgcc/bin/../lib/gcc/riscv-none-embed/8.2.0/../../../../riscv-none-embed/lib/rv32imac/ilp32\libc_nano.a(lib_a-stdio.o)
                0x000000000000c618                __swrite
 .text.__sseek  0x000000000000c666       0x36 e:/risc5ide_2010/risc-vembeddedgcc/bin/../lib/gcc/riscv-none-embed/8.2.0/../../../../riscv-none-embed/lib/rv32imac/ilp32\libc_nano.a(lib_a-stdio.o)
                0x000000000000c666                __sseek
 .text.__sclose
                0x000000000000c69c        0x6 e:/risc5ide_2010/risc-vembeddedgcc/bin/../lib/gcc/riscv-none-embed/8.2.0/../../../../riscv-none-embed/lib/rv32imac/ilp32\libc_nano.a(lib_a-stdio.o)
                0x000000000000c69c                __sclose
 .text.__swbuf_r
                0x000000000000c6a2       0xc2 e:/risc5ide_2010/risc-vembeddedgcc/bin/../lib/gcc/riscv-none-embed/8.2.0/../../../../riscv-none-embed/lib/rv32imac/ilp32\libc_nano.a(lib_a-wbuf.o)
                0x000000000000c6a2                __swbuf_r
 .text._write_r
                0x000000000000c764       0x36 e:/risc5ide_2010/risc-vembeddedgcc/bin/../lib/gcc/riscv-none-embed/8.2.0/../../../../riscv-none-embed/lib/rv32imac/ilp32\libc_nano.a(lib_a-writer.o)
                0x000000000000c764                _write_r
 .text.__swsetup_r
                0x000000000000c79a      0x10e e:/risc5ide_2010/risc-vembeddedgcc/bin/../lib/gcc/riscv-none-embed/8.2.0/../../../../riscv-none-embed/lib/rv32imac/ilp32\libc_nano.a(lib_a-wsetup.o)
                0x000000000000c79a                __swsetup_r
 .text._close_r
                0x000000000000c8a8       0x30 e:/risc5ide_2010/risc-vembeddedgcc/bin/../lib/gcc/riscv-none-embed/8.2.0/../../../../riscv-none-embed/lib/rv32imac/ilp32\libc_nano.a(lib_a-closer.o)
                0x000000000000c8a8                _close_r
 .text.__sflush_r
                0x000000000000c8d8      0x13c e:/risc5ide_2010/risc-vembeddedgcc/bin/../lib/gcc/riscv-none-embed/8.2.0/../../../../riscv-none-embed/lib/rv32imac/ilp32\libc_nano.a(lib_a-fflush.o)
                0x000000000000c8d8                __sflush_r
 .text._fflush_r
                0x000000000000ca14       0x68 e:/risc5ide_2010/risc-vembeddedgcc/bin/../lib/gcc/riscv-none-embed/8.2.0/../../../../riscv-none-embed/lib/rv32imac/ilp32\libc_nano.a(lib_a-fflush.o)
                0x000000000000ca14                _fflush_r
 .text._lseek_r
                0x000000000000ca7c       0x34 e:/risc5ide_2010/risc-vembeddedgcc/bin/../lib/gcc/riscv-none-embed/8.2.0/../../../../riscv-none-embed/lib/rv32imac/ilp32\libc_nano.a(lib_a-lseekr.o)
                0x000000000000ca7c                _lseek_r
 .text.__swhatbuf_r
                0x000000000000cab0       0x58 e:/risc5ide_2010/risc-vembeddedgcc/bin/../lib/gcc/riscv-none-embed/8.2.0/../../../../riscv-none-embed/lib/rv32imac/ilp32\libc_nano.a(lib_a-makebuf.o)
                0x000000000000cab0                __swhatbuf_r
 .text.__smakebuf_r
                0x000000000000cb08       0xa0 e:/risc5ide_2010/risc-vembeddedgcc/bin/../lib/gcc/riscv-none-embed/8.2.0/../../../../riscv-none-embed/lib/rv32imac/ilp32\libc_nano.a(lib_a-makebuf.o)
                0x000000000000cb08                __smakebuf_r
 .text.memchr   0x000000000000cba8       0x1a e:/risc5ide_2010/risc-vembeddedgcc/bin/../lib/gcc/riscv-none-embed/8.2.0/../../../../riscv-none-embed/lib/rv32imac/ilp32\libc_nano.a(lib_a-memchr.o)
                0x000000000000cba8                memchr
 .text.__malloc_lock
                0x000000000000cbc2        0x2 e:/risc5ide_2010/risc-vembeddedgcc/bin/../lib/gcc/riscv-none-embed/8.2.0/../../../../riscv-none-embed/lib/rv32imac/ilp32\libc_nano.a(lib_a-mlock.o)
                0x000000000000cbc2                __malloc_lock
 .text.__malloc_unlock
                0x000000000000cbc4        0x2 e:/risc5ide_2010/risc-vembeddedgcc/bin/../lib/gcc/riscv-none-embed/8.2.0/../../../../riscv-none-embed/lib/rv32imac/ilp32\libc_nano.a(lib_a-mlock.o)
                0x000000000000cbc4                __malloc_unlock
 .text._free_r  0x000000000000cbc6       0xa8 e:/risc5ide_2010/risc-vembeddedgcc/bin/../lib/gcc/riscv-none-embed/8.2.0/../../../../riscv-none-embed/lib/rv32imac/ilp32\libc_nano.a(lib_a-nano-freer.o)
                0x000000000000cbc6                _free_r
 .text._read_r  0x000000000000cc6e       0x34 e:/risc5ide_2010/risc-vembeddedgcc/bin/../lib/gcc/riscv-none-embed/8.2.0/../../../../riscv-none-embed/lib/rv32imac/ilp32\libc_nano.a(lib_a-readr.o)
                0x000000000000cc6e                _read_r
 .text._fstat_r
                0x000000000000cca2       0x32 e:/risc5ide_2010/risc-vembeddedgcc/bin/../lib/gcc/riscv-none-embed/8.2.0/../../../../riscv-none-embed/lib/rv32imac/ilp32\libc_nano.a(lib_a-fstatr.o)
                0x000000000000cca2                _fstat_r
 .text._isatty_r
                0x000000000000ccd4       0x30 e:/risc5ide_2010/risc-vembeddedgcc/bin/../lib/gcc/riscv-none-embed/8.2.0/../../../../riscv-none-embed/lib/rv32imac/ilp32\libc_nano.a(lib_a-isattyr.o)
                0x000000000000ccd4                _isatty_r
 .text._close   0x000000000000cd04       0x10 e:/risc5ide_2010/risc-vembeddedgcc/bin/../lib/gcc/riscv-none-embed/8.2.0/../../../../riscv-none-embed/lib/rv32imac/ilp32\libnosys.a(close.o)
                0x000000000000cd04                _close
 .text._fstat   0x000000000000cd14       0x10 e:/risc5ide_2010/risc-vembeddedgcc/bin/../lib/gcc/riscv-none-embed/8.2.0/../../../../riscv-none-embed/lib/rv32imac/ilp32\libnosys.a(fstat.o)
                0x000000000000cd14                _fstat
 .text._isatty  0x000000000000cd24       0x10 e:/risc5ide_2010/risc-vembeddedgcc/bin/../lib/gcc/riscv-none-embed/8.2.0/../../../../riscv-none-embed/lib/rv32imac/ilp32\libnosys.a(isatty.o)
                0x000000000000cd24                _isatty
 .text._lseek   0x000000000000cd34       0x10 e:/risc5ide_2010/risc-vembeddedgcc/bin/../lib/gcc/riscv-none-embed/8.2.0/../../../../riscv-none-embed/lib/rv32imac/ilp32\libnosys.a(lseek.o)
                0x000000000000cd34                _lseek
 .text._read    0x000000000000cd44       0x10 e:/risc5ide_2010/risc-vembeddedgcc/bin/../lib/gcc/riscv-none-embed/8.2.0/../../../../riscv-none-embed/lib/rv32imac/ilp32\libnosys.a(read.o)
                0x000000000000cd44                _read
 *(.rodata)
 *(.rodata*)
 .rodata.HardFault_Handler.str1.4
                0x000000000000cd54        0xe E:\wch\6-AXIS-CH32V307-GRBL\app\ch32v30x_it.o
 *fill*         0x000000000000cd62        0x2 
 .rodata.main.str1.4
                0x000000000000cd64        0xf E:\wch\6-AXIS-CH32V307-GRBL\app\main.o
 *fill*         0x000000000000cd73        0x1 
 .rodata.USBHS_IRQHandler
                0x000000000000cd74       0x6c E:\wch\6-AXIS-CH32V307-GRBL\app\ch32v30x_usbhs_device.o
 .rodata.MyBOSDesc
                0x000000000000cde0       0x16 E:\wch\6-AXIS-CH32V307-GRBL\app\ch32v30x_usbhs_device.o
                0x000000000000cde0                MyBOSDesc
 *fill*         0x000000000000cdf6        0x2 
 .rodata.MyCfgDescr_FS
                0x000000000000cdf8       0x2e E:\wch\6-AXIS-CH32V307-GRBL\app\ch32v30x_usbhs_device.o
                0x000000000000cdf8                MyCfgDescr_FS
 *fill*         0x000000000000ce26        0x2 
 .rodata.MyCfgDescr_HS
                0x000000000000ce28       0x2e E:\wch\6-AXIS-CH32V307-GRBL\app\ch32v30x_usbhs_device.o
                0x000000000000ce28                MyCfgDescr_HS
 *fill*         0x000000000000ce56        0x2 
 .rodata.MyInterfInfo
                0x000000000000ce58       0x14 E:\wch\6-AXIS-CH32V307-GRBL\app\ch32v30x_usbhs_device.o
                0x000000000000ce58                MyInterfInfo
 .rodata.MyProdInfo
                0x000000000000ce6c       0x1a E:\wch\6-AXIS-CH32V307-GRBL\app\ch32v30x_usbhs_device.o
                0x000000000000ce6c                MyProdInfo
 *fill*         0x000000000000ce86        0x2 
 .rodata.MySerNumInfo
                0x000000000000ce88       0x12 E:\wch\6-AXIS-CH32V307-GRBL\app\ch32v30x_usbhs_device.o
                0x000000000000ce88                MySerNumInfo
 *fill*         0x000000000000ce9a        0x2 
 .rodata.MyUSBQUADesc
                0x000000000000ce9c        0xa E:\wch\6-AXIS-CH32V307-GRBL\app\ch32v30x_usbhs_device.o
                0x000000000000ce9c                MyUSBQUADesc
 *fill*         0x000000000000cea6        0x2 
 .rodata.OV2640_InitRegTbl
                0x000000000000cea8      0x164 E:\wch\6-AXIS-CH32V307-GRBL\app\ov.o
                0x000000000000cea8                OV2640_InitRegTbl
 .rodata.settings_store_global_setting
                0x000000000000d00c       0x84 E:\wch\6-AXIS-CH32V307-GRBL\grbl\settings.o
 .rodata.settings_restore.cst4
                0x000000000000d090       0x30 E:\wch\6-AXIS-CH32V307-GRBL\grbl\settings.o
 .rodata.settings_store_global_setting.cst4
                0x000000000000d0c0        0x4 E:\wch\6-AXIS-CH32V307-GRBL\grbl\settings.o
 .rodata.gc_execute_line
                0x000000000000d0c4       0x68 E:\wch\6-AXIS-CH32V307-GRBL\grbl\gcode.o
 .rodata.gc_execute_line.cst4
                0x000000000000d12c       0x18 E:\wch\6-AXIS-CH32V307-GRBL\grbl\gcode.o
                                         0x1c (size before relaxing)
 .rodata.limits_go_home.cst4
                0x000000000000d144        0x8 E:\wch\6-AXIS-CH32V307-GRBL\grbl\limits.o
 .rodata.mc_arc.cst4
                0x000000000000d14c        0x8 E:\wch\6-AXIS-CH32V307-GRBL\grbl\motion_control.o
                                         0x10 (size before relaxing)
 *fill*         0x000000000000d154        0x4 
 .rodata.mc_arc.cst8
                0x000000000000d158       0x18 E:\wch\6-AXIS-CH32V307-GRBL\grbl\motion_control.o
 .rodata.convert_delta_vector_to_unit_vector.cst4
                0x000000000000d170        0x4 E:\wch\6-AXIS-CH32V307-GRBL\grbl\nuts_bolts.o
 .rodata.delay_sec.cst4
                0x000000000000d174        0x4 E:\wch\6-AXIS-CH32V307-GRBL\grbl\nuts_bolts.o
 .rodata.limit_value_by_axis_maximum.cst4
                0x000000000000d178        0x4 E:\wch\6-AXIS-CH32V307-GRBL\grbl\nuts_bolts.o
 .rodata.read_float.cst4
                0x000000000000d17c        0x4 E:\wch\6-AXIS-CH32V307-GRBL\grbl\nuts_bolts.o
                                          0xc (size before relaxing)
 .rodata.plan_buffer_line.cst4
                0x000000000000d180        0x8 E:\wch\6-AXIS-CH32V307-GRBL\grbl\planner.o
                                          0xc (size before relaxing)
 .rodata.plan_compute_profile_nominal_speed.cst4
                0x000000000000d188        0x8 E:\wch\6-AXIS-CH32V307-GRBL\grbl\planner.o
 .rodata.plan_update_velocity_profile_parameters.cst4
                0x000000000000d188        0x4 E:\wch\6-AXIS-CH32V307-GRBL\grbl\planner.o
 .rodata.printFloat.cst4
                0x000000000000d188        0xc E:\wch\6-AXIS-CH32V307-GRBL\grbl\print.o
 .rodata.printFloat_CoordValue.cst4
                0x000000000000d188        0x4 E:\wch\6-AXIS-CH32V307-GRBL\grbl\print.o
 .rodata.protocol_execute_realtime.cst4
                0x000000000000d18c        0x8 E:\wch\6-AXIS-CH32V307-GRBL\grbl\protocol.o
 .rodata.report_feedback_message
                0x000000000000d18c       0x2c E:\wch\6-AXIS-CH32V307-GRBL\grbl\report.o
 .rodata.report_alarm_message.str1.4
                0x000000000000d1b8        0x7 E:\wch\6-AXIS-CH32V307-GRBL\grbl\report.o
 *fill*         0x000000000000d1bf        0x1 
 .rodata.report_build_info.str1.4
                0x000000000000d1c0       0x1a E:\wch\6-AXIS-CH32V307-GRBL\grbl\report.o
 *fill*         0x000000000000d1da        0x2 
 .rodata.report_feedback_message.str1.4
                0x000000000000d1dc       0xad E:\wch\6-AXIS-CH32V307-GRBL\grbl\report.o
 *fill*         0x000000000000d289        0x3 
 .rodata.report_gcode_modes.str1.4
                0x000000000000d28c       0x1f E:\wch\6-AXIS-CH32V307-GRBL\grbl\report.o
 *fill*         0x000000000000d2ab        0x1 
 .rodata.report_grbl_help.str1.4
                0x000000000000d2ac       0x4a E:\wch\6-AXIS-CH32V307-GRBL\grbl\report.o
 *fill*         0x000000000000d2f6        0x2 
 .rodata.report_grbl_settings.cst4
                0x000000000000d2f8        0x4 E:\wch\6-AXIS-CH32V307-GRBL\grbl\report.o
 .rodata.report_init_message.str1.4
                0x000000000000d2fc       0x1d E:\wch\6-AXIS-CH32V307-GRBL\grbl\report.o
 *fill*         0x000000000000d319        0x3 
 .rodata.report_ngc_parameters.str1.4
                0x000000000000d31c       0x1a E:\wch\6-AXIS-CH32V307-GRBL\grbl\report.o
 *fill*         0x000000000000d336        0x2 
 .rodata.report_probe_parameters.str1.4
                0x000000000000d338        0x6 E:\wch\6-AXIS-CH32V307-GRBL\grbl\report.o
 *fill*         0x000000000000d33e        0x2 
 .rodata.report_realtime_status.str1.4
                0x000000000000d340       0x7c E:\wch\6-AXIS-CH32V307-GRBL\grbl\report.o
 .rodata.report_startup_line.str1.4
                0x000000000000d3bc        0x3 E:\wch\6-AXIS-CH32V307-GRBL\grbl\report.o
 *fill*         0x000000000000d3bf        0x1 
 .rodata.report_status_message.str1.4
                0x000000000000d3c0        0xf E:\wch\6-AXIS-CH32V307-GRBL\grbl\report.o
 .rodata.report_util_line_feed.str1.4
                0x000000000000d3cf        0xf E:\wch\6-AXIS-CH32V307-GRBL\grbl\report.o
                                          0x3 (size before relaxing)
 *fill*         0x000000000000d3cf        0x1 
 .rodata.USART2_IRQHandler
                0x000000000000d3d0       0x78 E:\wch\6-AXIS-CH32V307-GRBL\grbl\serial.o
 .rodata.spindle_compute_pwm_value.cst4
                0x000000000000d448        0x4 E:\wch\6-AXIS-CH32V307-GRBL\grbl\spindle_control.o
 .rodata.spindle_init.cst4
                0x000000000000d448        0x4 E:\wch\6-AXIS-CH32V307-GRBL\grbl\spindle_control.o
 .rodata.direction_pin_mask
                0x000000000000d44c        0xa E:\wch\6-AXIS-CH32V307-GRBL\grbl\stepper.o
                0x000000000000d44c                direction_pin_mask
 *fill*         0x000000000000d456        0x2 
 .rodata.limit_pin_mask
                0x000000000000d458        0xa E:\wch\6-AXIS-CH32V307-GRBL\grbl\stepper.o
                0x000000000000d458                limit_pin_mask
 *fill*         0x000000000000d462        0x2 
 .rodata.st_prep_buffer.cst4
                0x000000000000d464        0x8 E:\wch\6-AXIS-CH32V307-GRBL\grbl\stepper.o
                                         0x14 (size before relaxing)
 .rodata.step_pin_mask
                0x000000000000d46c        0xa E:\wch\6-AXIS-CH32V307-GRBL\grbl\stepper.o
                0x000000000000d46c                step_pin_mask
 .rodata.system_execute_line.cst4
                0x000000000000d476        0x4 E:\wch\6-AXIS-CH32V307-GRBL\grbl\system.o
 *fill*         0x000000000000d476        0x2 
 .rodata.ceilf.cst4
                0x000000000000d478        0x8 ld\libm.a(lib_a-sf_ceil.o)
                                          0xc (size before relaxing)
 .rodata.floorf.cst4
                0x000000000000d480        0x4 ld\libm.a(lib_a-sf_floor.o)
                                          0x8 (size before relaxing)
 .rodata.sqrtf.str1.4
                0x000000000000d484        0x6 ld\libm.a(lib_a-wf_sqrt.o)
 *fill*         0x000000000000d48a        0x2 
 .rodata.__ieee754_atan2f.cst4
                0x000000000000d48c       0x24 ld\libm.a(lib_a-ef_atan2.o)
                                         0x28 (size before relaxing)
 .rodata.__ieee754_rem_pio2f.cst4
                0x000000000000d4b0       0x20 ld\libm.a(lib_a-ef_rem_pio2.o)
                                         0x24 (size before relaxing)
 .rodata.npio2_hw
                0x000000000000d4d0       0x80 ld\libm.a(lib_a-ef_rem_pio2.o)
 .rodata.two_over_pi
                0x000000000000d550      0x318 ld\libm.a(lib_a-ef_rem_pio2.o)
 .rodata.__kernel_cosf.cst4
                0x000000000000d868       0x20 ld\libm.a(lib_a-kf_cos.o)
                                         0x28 (size before relaxing)
 .rodata.PIo2   0x000000000000d888       0x2c ld\libm.a(lib_a-kf_rem_pio2.o)
 .rodata.__kernel_rem_pio2f.cst4
                0x000000000000d8b4       0x10 ld\libm.a(lib_a-kf_rem_pio2.o)
                                         0x1c (size before relaxing)
 .rodata.init_jk
                0x000000000000d8c4        0xc ld\libm.a(lib_a-kf_rem_pio2.o)
 .rodata.__kernel_sinf.cst4
                0x000000000000d8d0       0x14 ld\libm.a(lib_a-kf_sin.o)
                                         0x1c (size before relaxing)
 .rodata.atanf.cst4
                0x000000000000d8e4       0x2c ld\libm.a(lib_a-sf_atan.o)
                                         0x48 (size before relaxing)
 .rodata.atanhi
                0x000000000000d910       0x10 ld\libm.a(lib_a-sf_atan.o)
 .rodata.atanlo
                0x000000000000d920       0x10 ld\libm.a(lib_a-sf_atan.o)
 .rodata.scalbnf.cst4
                0x000000000000d930        0xc ld\libm.a(lib_a-sf_scalbn.o)
                                         0x10 (size before relaxing)
 .rodata.__divdf3
                0x000000000000d93c       0x40 e:/risc5ide_2010/risc-vembeddedgcc/bin/../lib/gcc/riscv-none-embed/8.2.0/rv32imac/ilp32\libgcc.a(divdf3.o)
 .rodata.__divsf3
                0x000000000000d97c       0x80 e:/risc5ide_2010/risc-vembeddedgcc/bin/../lib/gcc/riscv-none-embed/8.2.0/rv32imac/ilp32\libgcc.a(divsf3.o)
 .rodata.__mulsf3
                0x000000000000d9fc       0x40 e:/risc5ide_2010/risc-vembeddedgcc/bin/../lib/gcc/riscv-none-embed/8.2.0/rv32imac/ilp32\libgcc.a(mulsf3.o)
 .rodata.__clz_tab
                0x000000000000da3c      0x100 e:/risc5ide_2010/risc-vembeddedgcc/bin/../lib/gcc/riscv-none-embed/8.2.0/rv32imac/ilp32\libgcc.a(_clz.o)
                0x000000000000da3c                __clz_tab
 .rodata.__sf_fake_stderr
                0x000000000000db3c       0x20 e:/risc5ide_2010/risc-vembeddedgcc/bin/../lib/gcc/riscv-none-embed/8.2.0/../../../../riscv-none-embed/lib/rv32imac/ilp32\libc_nano.a(lib_a-findfp.o)
                0x000000000000db3c                __sf_fake_stderr
 .rodata.__sf_fake_stdin
                0x000000000000db5c       0x20 e:/risc5ide_2010/risc-vembeddedgcc/bin/../lib/gcc/riscv-none-embed/8.2.0/../../../../riscv-none-embed/lib/rv32imac/ilp32\libc_nano.a(lib_a-findfp.o)
                0x000000000000db5c                __sf_fake_stdin
 .rodata.__sf_fake_stdout
                0x000000000000db7c       0x20 e:/risc5ide_2010/risc-vembeddedgcc/bin/../lib/gcc/riscv-none-embed/8.2.0/../../../../riscv-none-embed/lib/rv32imac/ilp32\libc_nano.a(lib_a-findfp.o)
                0x000000000000db7c                __sf_fake_stdout
 .rodata._vfprintf_r.str1.4
                0x000000000000db9c       0x13 e:/risc5ide_2010/risc-vembeddedgcc/bin/../lib/gcc/riscv-none-embed/8.2.0/../../../../riscv-none-embed/lib/rv32imac/ilp32\libc_nano.a(lib_a-nano-vfprintf.o)
 *fill*         0x000000000000dbaf        0x1 
 .rodata._printf_i.str1.4
                0x000000000000dbb0       0x28 e:/risc5ide_2010/risc-vembeddedgcc/bin/../lib/gcc/riscv-none-embed/8.2.0/../../../../riscv-none-embed/lib/rv32imac/ilp32\libc_nano.a(lib_a-nano-vfprintf_i.o)
                                         0x25 (size before relaxing)
 *(.glue_7)
 *(.glue_7t)
 *(.gnu.linkonce.t.*)
                0x000000000000dbd8                . = ALIGN (0x4)
                0x000000000000dbd8                __fsymtab_start = .
 *(FSymTab)
                0x000000000000dbd8                __fsymtab_end = .
                0x000000000000dbd8                . = ALIGN (0x4)
                0x000000000000dbd8                __vsymtab_start = .
 *(VSymTab)
                0x000000000000dbd8                __vsymtab_end = .
                0x000000000000dbd8                . = ALIGN (0x4)
                0x000000000000dbd8                . = ALIGN (0x4)
                0x000000000000dbd8                __rt_init_start = .
 *(SORT_BY_NAME(.rti_fn*))
                0x000000000000dbd8                __rt_init_end = .
                0x000000000000dbd8                . = ALIGN (0x4)
                0x000000000000dbd8                . = ALIGN (0x4)
                0x000000000000dbd8                __rtmsymtab_start = .
 *(RTMSymTab)
                0x000000000000dbd8                __rtmsymtab_end = .
                0x000000000000dbd8                . = ALIGN (0x4)

.rela.dyn       0x000000000000dbd8        0x0
 .rela.text.startup.main
                0x000000000000dbd8        0x0 E:\wch\6-AXIS-CH32V307-GRBL\app\ch32v30x_it.o
 .rela.text.USBHS_Device_Endp_Init
                0x000000000000dbd8        0x0 E:\wch\6-AXIS-CH32V307-GRBL\app\ch32v30x_it.o
 .rela.text.USBHS_IRQHandler
                0x000000000000dbd8        0x0 E:\wch\6-AXIS-CH32V307-GRBL\app\ch32v30x_it.o
 .rela.text.write_global_settings
                0x000000000000dbd8        0x0 E:\wch\6-AXIS-CH32V307-GRBL\app\ch32v30x_it.o
 .rela.text.settings_restore
                0x000000000000dbd8        0x0 E:\wch\6-AXIS-CH32V307-GRBL\app\ch32v30x_it.o
 .rela.text.read_global_settings
                0x000000000000dbd8        0x0 E:\wch\6-AXIS-CH32V307-GRBL\app\ch32v30x_it.o
 .rela.text.settings_store_global_setting
                0x000000000000dbd8        0x0 E:\wch\6-AXIS-CH32V307-GRBL\app\ch32v30x_it.o
 .rela.text._sbrk
                0x000000000000dbd8        0x0 E:\wch\6-AXIS-CH32V307-GRBL\app\ch32v30x_it.o
 .rela.sdata.curbrk.5220
                0x000000000000dbd8        0x0 E:\wch\6-AXIS-CH32V307-GRBL\app\ch32v30x_it.o
 .rela.text.coolant_set_state
                0x000000000000dbd8        0x0 E:\wch\6-AXIS-CH32V307-GRBL\app\ch32v30x_it.o
 .rela.text.coolant_sync
                0x000000000000dbd8        0x0 E:\wch\6-AXIS-CH32V307-GRBL\app\ch32v30x_it.o
 .rela.text.eeprom_init
                0x000000000000dbd8        0x0 E:\wch\6-AXIS-CH32V307-GRBL\app\ch32v30x_it.o
 .rela.text.eeprom_get_char
                0x000000000000dbd8        0x0 E:\wch\6-AXIS-CH32V307-GRBL\app\ch32v30x_it.o
 .rela.text.eeprom_put_char
                0x000000000000dbd8        0x0 E:\wch\6-AXIS-CH32V307-GRBL\app\ch32v30x_it.o
 .rela.text.memcpy_to_eeprom_with_checksum
                0x000000000000dbd8        0x0 E:\wch\6-AXIS-CH32V307-GRBL\app\ch32v30x_it.o
 .rela.text.memcpy_from_eeprom_with_checksum
                0x000000000000dbd8        0x0 E:\wch\6-AXIS-CH32V307-GRBL\app\ch32v30x_it.o
 .rela.text.gc_init
                0x000000000000dbd8        0x0 E:\wch\6-AXIS-CH32V307-GRBL\app\ch32v30x_it.o
 .rela.text.gc_sync_position
                0x000000000000dbd8        0x0 E:\wch\6-AXIS-CH32V307-GRBL\app\ch32v30x_it.o
 .rela.text.gc_execute_line
                0x000000000000dbd8        0x0 E:\wch\6-AXIS-CH32V307-GRBL\app\ch32v30x_it.o
 .rela.text.jog_execute
                0x000000000000dbd8        0x0 E:\wch\6-AXIS-CH32V307-GRBL\app\ch32v30x_it.o
 .rela.text.limits_init
                0x000000000000dbd8        0x0 E:\wch\6-AXIS-CH32V307-GRBL\app\ch32v30x_it.o
 .rela.text.limits_get_state
                0x000000000000dbd8        0x0 E:\wch\6-AXIS-CH32V307-GRBL\app\ch32v30x_it.o
 .rela.text.EXTI15_10_IRQHandler
                0x000000000000dbd8        0x0 E:\wch\6-AXIS-CH32V307-GRBL\app\ch32v30x_it.o
 .rela.text.limits_go_home
                0x000000000000dbd8        0x0 E:\wch\6-AXIS-CH32V307-GRBL\app\ch32v30x_it.o
 .rela.text.limits_soft_check
                0x000000000000dbd8        0x0 E:\wch\6-AXIS-CH32V307-GRBL\app\ch32v30x_it.o
 .rela.text.mc_line
                0x000000000000dbd8        0x0 E:\wch\6-AXIS-CH32V307-GRBL\app\ch32v30x_it.o
 .rela.text.mc_arc
                0x000000000000dbd8        0x0 E:\wch\6-AXIS-CH32V307-GRBL\app\ch32v30x_it.o
 .rela.text.mc_dwell
                0x000000000000dbd8        0x0 E:\wch\6-AXIS-CH32V307-GRBL\app\ch32v30x_it.o
 .rela.text.mc_homing_cycle
                0x000000000000dbd8        0x0 E:\wch\6-AXIS-CH32V307-GRBL\app\ch32v30x_it.o
 .rela.text.mc_probe_cycle
                0x000000000000dbd8        0x0 E:\wch\6-AXIS-CH32V307-GRBL\app\ch32v30x_it.o
 .rela.text.mc_reset
                0x000000000000dbd8        0x0 E:\wch\6-AXIS-CH32V307-GRBL\app\ch32v30x_it.o
 .rela.text.delay_sec
                0x000000000000dbd8        0x0 E:\wch\6-AXIS-CH32V307-GRBL\app\ch32v30x_it.o
 .rela.text.plan_compute_profile_nominal_speed
                0x000000000000dbd8        0x0 E:\wch\6-AXIS-CH32V307-GRBL\app\ch32v30x_it.o
 .rela.text.plan_buffer_line
                0x000000000000dbd8        0x0 E:\wch\6-AXIS-CH32V307-GRBL\app\ch32v30x_it.o
 .rela.text.plan_sync_position
                0x000000000000dbd8        0x0 E:\wch\6-AXIS-CH32V307-GRBL\app\ch32v30x_it.o
 .rela.text.printFloat_CoordValue
                0x000000000000dbd8        0x0 E:\wch\6-AXIS-CH32V307-GRBL\app\ch32v30x_it.o
 .rela.text.printFloat_RateValue
                0x000000000000dbd8        0x0 E:\wch\6-AXIS-CH32V307-GRBL\app\ch32v30x_it.o
 .rela.text.probe_configure_invert_mask
                0x000000000000dbd8        0x0 E:\wch\6-AXIS-CH32V307-GRBL\app\ch32v30x_it.o
 .rela.text.probe_get_state
                0x000000000000dbd8        0x0 E:\wch\6-AXIS-CH32V307-GRBL\app\ch32v30x_it.o
 .rela.text.probe_state_monitor
                0x000000000000dbd8        0x0 E:\wch\6-AXIS-CH32V307-GRBL\app\ch32v30x_it.o
 .rela.text.protocol_exec_rt_system
                0x000000000000dbd8        0x0 E:\wch\6-AXIS-CH32V307-GRBL\app\ch32v30x_it.o
 .rela.text.protocol_execute_realtime
                0x000000000000dbd8        0x0 E:\wch\6-AXIS-CH32V307-GRBL\app\ch32v30x_it.o
 .rela.text.protocol_main_loop
                0x000000000000dbd8        0x0 E:\wch\6-AXIS-CH32V307-GRBL\app\ch32v30x_it.o
 .rela.text.protocol_buffer_synchronize
                0x000000000000dbd8        0x0 E:\wch\6-AXIS-CH32V307-GRBL\app\ch32v30x_it.o
 .rela.text.report_grbl_settings
                0x000000000000dbd8        0x0 E:\wch\6-AXIS-CH32V307-GRBL\app\ch32v30x_it.o
 .rela.text.report_probe_parameters
                0x000000000000dbd8        0x0 E:\wch\6-AXIS-CH32V307-GRBL\app\ch32v30x_it.o
 .rela.text.report_ngc_parameters
                0x000000000000dbd8        0x0 E:\wch\6-AXIS-CH32V307-GRBL\app\ch32v30x_it.o
 .rela.text.report_gcode_modes
                0x000000000000dbd8        0x0 E:\wch\6-AXIS-CH32V307-GRBL\app\ch32v30x_it.o
 .rela.text.report_realtime_status
                0x000000000000dbd8        0x0 E:\wch\6-AXIS-CH32V307-GRBL\app\ch32v30x_it.o
 .rela.text.serial_read
                0x000000000000dbd8        0x0 E:\wch\6-AXIS-CH32V307-GRBL\app\ch32v30x_it.o
 .rela.text.USART2_IRQHandler
                0x000000000000dbd8        0x0 E:\wch\6-AXIS-CH32V307-GRBL\app\ch32v30x_it.o
 .rela.text.spindle_init
                0x000000000000dbd8        0x0 E:\wch\6-AXIS-CH32V307-GRBL\app\ch32v30x_it.o
 .rela.text.spindle_compute_pwm_value
                0x000000000000dbd8        0x0 E:\wch\6-AXIS-CH32V307-GRBL\app\ch32v30x_it.o
 .rela.text.spindle_set_state
                0x000000000000dbd8        0x0 E:\wch\6-AXIS-CH32V307-GRBL\app\ch32v30x_it.o
 .rela.text.spindle_sync
                0x000000000000dbd8        0x0 E:\wch\6-AXIS-CH32V307-GRBL\app\ch32v30x_it.o
 .rela.text.st_wake_up
                0x000000000000dbd8        0x0 E:\wch\6-AXIS-CH32V307-GRBL\app\ch32v30x_it.o
 .rela.text.st_go_idle
                0x000000000000dbd8        0x0 E:\wch\6-AXIS-CH32V307-GRBL\app\ch32v30x_it.o
 .rela.text.TIM2_IRQHandler
                0x000000000000dbd8        0x0 E:\wch\6-AXIS-CH32V307-GRBL\app\ch32v30x_it.o
 .rela.text.st_generate_step_dir_invert_masks
                0x000000000000dbd8        0x0 E:\wch\6-AXIS-CH32V307-GRBL\app\ch32v30x_it.o
 .rela.text.st_prep_buffer
                0x000000000000dbd8        0x0 E:\wch\6-AXIS-CH32V307-GRBL\app\ch32v30x_it.o
 .rela.text.st_get_realtime_rate
                0x000000000000dbd8        0x0 E:\wch\6-AXIS-CH32V307-GRBL\app\ch32v30x_it.o
 .rela.text.EXTI9_5_IRQHandler
                0x000000000000dbd8        0x0 E:\wch\6-AXIS-CH32V307-GRBL\app\ch32v30x_it.o
 .rela.text.system_flag_wco_change
                0x000000000000dbd8        0x0 E:\wch\6-AXIS-CH32V307-GRBL\app\ch32v30x_it.o
 .rela.text.system_convert_axis_steps_to_mpos
                0x000000000000dbd8        0x0 E:\wch\6-AXIS-CH32V307-GRBL\app\ch32v30x_it.o
 .rela.text.system_check_travel_limits
                0x000000000000dbd8        0x0 E:\wch\6-AXIS-CH32V307-GRBL\app\ch32v30x_it.o
 .rela.text.system_set_exec_state_flag
                0x000000000000dbd8        0x0 E:\wch\6-AXIS-CH32V307-GRBL\app\ch32v30x_it.o
 .rela.text.system_execute_line
                0x000000000000dbd8        0x0 E:\wch\6-AXIS-CH32V307-GRBL\app\ch32v30x_it.o
 .rela.text.system_clear_exec_state_flag
                0x000000000000dbd8        0x0 E:\wch\6-AXIS-CH32V307-GRBL\app\ch32v30x_it.o
 .rela.text.system_set_exec_alarm
                0x000000000000dbd8        0x0 E:\wch\6-AXIS-CH32V307-GRBL\app\ch32v30x_it.o
 .rela.text.system_clear_exec_alarm
                0x000000000000dbd8        0x0 E:\wch\6-AXIS-CH32V307-GRBL\app\ch32v30x_it.o
 .rela.text.system_set_exec_motion_override_flag
                0x000000000000dbd8        0x0 E:\wch\6-AXIS-CH32V307-GRBL\app\ch32v30x_it.o
 .rela.text.system_set_exec_accessory_override_flag
                0x000000000000dbd8        0x0 E:\wch\6-AXIS-CH32V307-GRBL\app\ch32v30x_it.o
 .rela.text.system_clear_exec_motion_overrides
                0x000000000000dbd8        0x0 E:\wch\6-AXIS-CH32V307-GRBL\app\ch32v30x_it.o
 .rela.text.system_clear_exec_accessory_overrides
                0x000000000000dbd8        0x0 E:\wch\6-AXIS-CH32V307-GRBL\app\ch32v30x_it.o
 .rela.init     0x000000000000dbd8        0x0 E:\wch\6-AXIS-CH32V307-GRBL\app\ch32v30x_it.o
 .rela.vector   0x000000000000dbd8        0x0 E:\wch\6-AXIS-CH32V307-GRBL\app\ch32v30x_it.o
 .rela.text.handle_reset
                0x000000000000dbd8        0x0 E:\wch\6-AXIS-CH32V307-GRBL\app\ch32v30x_it.o
 .rela.text._vfprintf_r
                0x000000000000dbd8        0x0 E:\wch\6-AXIS-CH32V307-GRBL\app\ch32v30x_it.o
 .rela.text._sbrk_r
                0x000000000000dbd8        0x0 E:\wch\6-AXIS-CH32V307-GRBL\app\ch32v30x_it.o
 .rela.text._write_r
                0x000000000000dbd8        0x0 E:\wch\6-AXIS-CH32V307-GRBL\app\ch32v30x_it.o
 .rela.text._close_r
                0x000000000000dbd8        0x0 E:\wch\6-AXIS-CH32V307-GRBL\app\ch32v30x_it.o
 .rela.text._lseek_r
                0x000000000000dbd8        0x0 E:\wch\6-AXIS-CH32V307-GRBL\app\ch32v30x_it.o
 .rela.text._read_r
                0x000000000000dbd8        0x0 E:\wch\6-AXIS-CH32V307-GRBL\app\ch32v30x_it.o
 .rela.text._fstat_r
                0x000000000000dbd8        0x0 E:\wch\6-AXIS-CH32V307-GRBL\app\ch32v30x_it.o
 .rela.text._isatty_r
                0x000000000000dbd8        0x0 E:\wch\6-AXIS-CH32V307-GRBL\app\ch32v30x_it.o
 .rela.text._close
                0x000000000000dbd8        0x0 E:\wch\6-AXIS-CH32V307-GRBL\app\ch32v30x_it.o
 .rela.text._fstat
                0x000000000000dbd8        0x0 E:\wch\6-AXIS-CH32V307-GRBL\app\ch32v30x_it.o
 .rela.text._isatty
                0x000000000000dbd8        0x0 E:\wch\6-AXIS-CH32V307-GRBL\app\ch32v30x_it.o
 .rela.text._lseek
                0x000000000000dbd8        0x0 E:\wch\6-AXIS-CH32V307-GRBL\app\ch32v30x_it.o
 .rela.text._read
                0x000000000000dbd8        0x0 E:\wch\6-AXIS-CH32V307-GRBL\app\ch32v30x_it.o

.fini           0x000000000000dbd8        0x0
 *(SORT_NONE(.fini))
                0x000000000000dbd8                . = ALIGN (0x4)
                [!provide]                        PROVIDE (_etext = .)
                [!provide]                        PROVIDE (_eitcm = .)

.preinit_array  0x000000000000dbd8        0x0
                [!provide]                        PROVIDE (__preinit_array_start = .)
 *(.preinit_array)
                [!provide]                        PROVIDE (__preinit_array_end = .)

.init_array     0x000000000000dbd8        0x0
                [!provide]                        PROVIDE (__init_array_start = .)
 *(SORT_BY_INIT_PRIORITY(.init_array.*) SORT_BY_INIT_PRIORITY(.ctors.*))
 *(.init_array EXCLUDE_FILE(*crtend?.o *crtend.o *crtbegin?.o *crtbegin.o) .ctors)
                [!provide]                        PROVIDE (__init_array_end = .)

.fini_array     0x000000000000dbd8        0x0
                [!provide]                        PROVIDE (__fini_array_start = .)
 *(SORT_BY_INIT_PRIORITY(.fini_array.*) SORT_BY_INIT_PRIORITY(.dtors.*))
 *(.fini_array EXCLUDE_FILE(*crtend?.o *crtend.o *crtbegin?.o *crtbegin.o) .dtors)
                [!provide]                        PROVIDE (__fini_array_end = .)

.ctors
 *crtbegin.o(.ctors)
 *crtbegin?.o(.ctors)
 *(EXCLUDE_FILE(*crtend?.o *crtend.o) .ctors)
 *(SORT_BY_NAME(.ctors.*))
 *(.ctors)

.dtors
 *crtbegin.o(.dtors)
 *crtbegin?.o(.dtors)
 *(EXCLUDE_FILE(*crtend?.o *crtend.o) .dtors)
 *(SORT_BY_NAME(.dtors.*))
 *(.dtors)

.dalign         0x0000000020000000        0x0 load address 0x000000000000dbd8
                0x0000000020000000                . = ALIGN (0x4)
                0x0000000020000000                PROVIDE (_data_vma = .)

.dlalign        0x000000000000dbd8        0x0
                0x000000000000dbd8                . = ALIGN (0x4)
                0x000000000000dbd8                PROVIDE (_data_lma = .)

.data           0x0000000020000000      0x1e0 load address 0x000000000000dbd8
 *(.gnu.linkonce.r.*)
 *(.data .data.*)
 .data.MyDevDescr
                0x0000000020000000       0x12 E:\wch\6-AXIS-CH32V307-GRBL\app\ch32v30x_usbhs_device.o
                0x0000000020000000                MyDevDescr
 *fill*         0x0000000020000012        0x2 
 .data.TAB_USB_FS_OSC_DESC
                0x0000000020000014       0x2e E:\wch\6-AXIS-CH32V307-GRBL\app\ch32v30x_usbhs_device.o
                0x0000000020000014                TAB_USB_FS_OSC_DESC
 *fill*         0x0000000020000042        0x2 
 .data.TAB_USB_HS_OSC_DESC
                0x0000000020000044       0x2e E:\wch\6-AXIS-CH32V307-GRBL\app\ch32v30x_usbhs_device.o
                0x0000000020000044                TAB_USB_HS_OSC_DESC
 *fill*         0x0000000020000072        0x2 
 .data.WCIDDescriptor
                0x0000000020000074       0x28 E:\wch\6-AXIS-CH32V307-GRBL\app\ch32v30x_usbhs_device.o
                0x0000000020000074                WCIDDescriptor
 .data.WCIDProperties
                0x000000002000009c       0x8e E:\wch\6-AXIS-CH32V307-GRBL\app\ch32v30x_usbhs_device.o
                0x000000002000009c                WCIDProperties
 *fill*         0x000000002000012a        0x2 
 .data.WCID_StringDescriptor_MSOS
                0x000000002000012c       0x12 E:\wch\6-AXIS-CH32V307-GRBL\app\ch32v30x_usbhs_device.o
                0x000000002000012c                WCID_StringDescriptor_MSOS
 *fill*         0x000000002000013e        0x2 
 .data.APBAHBPrescTable
                0x0000000020000140       0x10 E:\wch\6-AXIS-CH32V307-GRBL\SRC\Peripheral\src\ch32v30x_rcc.o
 .data.impure_data
                0x0000000020000150       0x60 e:/risc5ide_2010/risc-vembeddedgcc/bin/../lib/gcc/riscv-none-embed/8.2.0/../../../../riscv-none-embed/lib/rv32imac/ilp32\libc_nano.a(lib_a-impure.o)
 *(.gnu.linkonce.d.*)
                0x00000000200001b0                . = ALIGN (0x8)
                0x00000000200009b0                PROVIDE (__global_pointer$ = (. + 0x800))
 *(.sdata .sdata.*)
 .sdata.nOnFlag.6749
                0x00000000200001b0        0x4 E:\wch\6-AXIS-CH32V307-GRBL\app\main.o
 .sdata.SystemCoreClock
                0x00000000200001b4        0x4 E:\wch\6-AXIS-CH32V307-GRBL\app\system_ch32v30x.o
                0x00000000200001b4                SystemCoreClock
 .sdata.USBHS_Dev_Endp0_Tog
                0x00000000200001b8        0x1 E:\wch\6-AXIS-CH32V307-GRBL\app\ch32v30x_usbhs_device.o
                0x00000000200001b8                USBHS_Dev_Endp0_Tog
 .sdata.USBHS_Dev_SetupReqCode
                0x00000000200001b9        0x1 E:\wch\6-AXIS-CH32V307-GRBL\app\ch32v30x_usbhs_device.o
                0x00000000200001b9                USBHS_Dev_SetupReqCode
 .sdata.USBHS_Dev_Speed
                0x00000000200001ba        0x1 E:\wch\6-AXIS-CH32V307-GRBL\app\ch32v30x_usbhs_device.o
                0x00000000200001ba                USBHS_Dev_Speed
 *fill*         0x00000000200001bb        0x1 
 .sdata.curbrk.5220
                0x00000000200001bc        0x4 E:\wch\6-AXIS-CH32V307-GRBL\SRC\Debug\debug.o
 .sdata.ADCPrescTable
                0x00000000200001c0        0x4 E:\wch\6-AXIS-CH32V307-GRBL\SRC\Peripheral\src\ch32v30x_rcc.o
 .sdata.__fdlib_version
                0x00000000200001c4        0x4 ld\libm.a(lib_a-s_lib_ver.o)
                0x00000000200001c4                __fdlib_version
 .sdata._impure_ptr
                0x00000000200001c8        0x4 e:/risc5ide_2010/risc-vembeddedgcc/bin/../lib/gcc/riscv-none-embed/8.2.0/../../../../riscv-none-embed/lib/rv32imac/ilp32\libc_nano.a(lib_a-impure.o)
                0x00000000200001c8                _impure_ptr
 *(.sdata2.*)
 .sdata2.MyLangDescr
                0x00000000200001cc        0x4 E:\wch\6-AXIS-CH32V307-GRBL\app\ch32v30x_usbhs_device.o
                0x00000000200001cc                MyLangDescr
 .sdata2.MyManuInfo
                0x00000000200001d0        0x6 E:\wch\6-AXIS-CH32V307-GRBL\app\ch32v30x_usbhs_device.o
                0x00000000200001d0                MyManuInfo
 *fill*         0x00000000200001d6        0x2 
 .sdata2._global_impure_ptr
                0x00000000200001d8        0x4 e:/risc5ide_2010/risc-vembeddedgcc/bin/../lib/gcc/riscv-none-embed/8.2.0/../../../../riscv-none-embed/lib/rv32imac/ilp32\libc_nano.a(lib_a-impure.o)
                0x00000000200001d8                _global_impure_ptr
 *(.gnu.linkonce.s.*)
                0x00000000200001e0                . = ALIGN (0x8)
 *fill*         0x00000000200001dc        0x4 
 *(.srodata.cst16)
 *(.srodata.cst8)
 *(.srodata.cst4)
 *(.srodata.cst2)
 *(.srodata .srodata.*)
                0x00000000200001e0                . = ALIGN (0x4)
                0x00000000200001e0                PROVIDE (_edata = .)

.bss            0x00000000200001e0     0x1a40 load address 0x000000000000ddb8
                0x00000000200001e0                . = ALIGN (0x4)
                0x00000000200001e0                PROVIDE (_sbss = .)
 *(.sbss*)
 .sbss.USBHS_Dev_Address
                0x00000000200001e0        0x1 E:\wch\6-AXIS-CH32V307-GRBL\app\ch32v30x_usbhs_device.o
                0x00000000200001e0                USBHS_Dev_Address
 .sbss.USBHS_Dev_Config
                0x00000000200001e1        0x1 E:\wch\6-AXIS-CH32V307-GRBL\app\ch32v30x_usbhs_device.o
                0x00000000200001e1                USBHS_Dev_Config
 .sbss.USBHS_Dev_EnumStatus
                0x00000000200001e2        0x1 E:\wch\6-AXIS-CH32V307-GRBL\app\ch32v30x_usbhs_device.o
                0x00000000200001e2                USBHS_Dev_EnumStatus
 *fill*         0x00000000200001e3        0x1 
 .sbss.USBHS_Dev_SetupReqLen
                0x00000000200001e4        0x2 E:\wch\6-AXIS-CH32V307-GRBL\app\ch32v30x_usbhs_device.o
                0x00000000200001e4                USBHS_Dev_SetupReqLen
 .sbss.USBHS_Dev_SleepStatus
                0x00000000200001e6        0x1 E:\wch\6-AXIS-CH32V307-GRBL\app\ch32v30x_usbhs_device.o
                0x00000000200001e6                USBHS_Dev_SleepStatus
 .sbss.USBHS_Int_Flag
                0x00000000200001e7        0x1 E:\wch\6-AXIS-CH32V307-GRBL\app\ch32v30x_usbhs_device.o
                0x00000000200001e7                USBHS_Int_Flag
 .sbss.p_ms     0x00000000200001e8        0x2 E:\wch\6-AXIS-CH32V307-GRBL\SRC\Debug\debug.o
 .sbss.p_us     0x00000000200001ea        0x1 E:\wch\6-AXIS-CH32V307-GRBL\SRC\Debug\debug.o
 *fill*         0x00000000200001eb        0x1 
 .sbss.NVIC_Priority_Group
                0x00000000200001ec        0x4 E:\wch\6-AXIS-CH32V307-GRBL\SRC\Peripheral\src\ch32v30x_misc.o
                0x00000000200001ec                NVIC_Priority_Group
 .sbss.block_buffer_head
                0x00000000200001f0        0x1 E:\wch\6-AXIS-CH32V307-GRBL\grbl\planner.o
 .sbss.block_buffer_planned
                0x00000000200001f1        0x1 E:\wch\6-AXIS-CH32V307-GRBL\grbl\planner.o
 .sbss.block_buffer_tail
                0x00000000200001f2        0x1 E:\wch\6-AXIS-CH32V307-GRBL\grbl\planner.o
 .sbss.next_buffer_head
                0x00000000200001f3        0x1 E:\wch\6-AXIS-CH32V307-GRBL\grbl\planner.o
 .sbss.serial_rx_buffer_head
                0x00000000200001f4        0x1 E:\wch\6-AXIS-CH32V307-GRBL\grbl\serial.o
                0x00000000200001f4                serial_rx_buffer_head
 .sbss.serial_rx_buffer_tail
                0x00000000200001f5        0x1 E:\wch\6-AXIS-CH32V307-GRBL\grbl\serial.o
                0x00000000200001f5                serial_rx_buffer_tail
 *fill*         0x00000000200001f6        0x2 
 .sbss.pwm_gradient
                0x00000000200001f8        0x4 E:\wch\6-AXIS-CH32V307-GRBL\grbl\spindle_control.o
 .sbss.busy     0x00000000200001fc        0x1 E:\wch\6-AXIS-CH32V307-GRBL\grbl\stepper.o
 *fill*         0x00000000200001fd        0x1 
 .sbss.dir_port_invert_mask
                0x00000000200001fe        0x2 E:\wch\6-AXIS-CH32V307-GRBL\grbl\stepper.o
 .sbss.pl_block
                0x0000000020000200        0x4 E:\wch\6-AXIS-CH32V307-GRBL\grbl\stepper.o
 .sbss.segment_buffer_head
                0x0000000020000204        0x1 E:\wch\6-AXIS-CH32V307-GRBL\grbl\stepper.o
 .sbss.segment_buffer_tail
                0x0000000020000205        0x1 E:\wch\6-AXIS-CH32V307-GRBL\grbl\stepper.o
 .sbss.segment_next_head
                0x0000000020000206        0x1 E:\wch\6-AXIS-CH32V307-GRBL\grbl\stepper.o
 *fill*         0x0000000020000207        0x1 
 .sbss.st_prep_block
                0x0000000020000208        0x4 E:\wch\6-AXIS-CH32V307-GRBL\grbl\stepper.o
 .sbss.step_port_invert_mask
                0x000000002000020c        0x2 E:\wch\6-AXIS-CH32V307-GRBL\grbl\stepper.o
 *fill*         0x000000002000020e        0x2 
 .sbss.__malloc_free_list
                0x0000000020000210        0x4 e:/risc5ide_2010/risc-vembeddedgcc/bin/../lib/gcc/riscv-none-embed/8.2.0/../../../../riscv-none-embed/lib/rv32imac/ilp32\libc_nano.a(lib_a-nano-mallocr.o)
                0x0000000020000210                __malloc_free_list
 .sbss.__malloc_sbrk_start
                0x0000000020000214        0x4 e:/risc5ide_2010/risc-vembeddedgcc/bin/../lib/gcc/riscv-none-embed/8.2.0/../../../../riscv-none-embed/lib/rv32imac/ilp32\libc_nano.a(lib_a-nano-mallocr.o)
                0x0000000020000214                __malloc_sbrk_start
 *(.gnu.linkonce.sb.*)
 *(.bss*)
 .bss.block_buffer
                0x0000000020000218      0x870 E:\wch\6-AXIS-CH32V307-GRBL\grbl\planner.o
 .bss.pl        0x0000000020000a88       0x2c E:\wch\6-AXIS-CH32V307-GRBL\grbl\planner.o
 .bss.line      0x0000000020000ab4       0x5a E:\wch\6-AXIS-CH32V307-GRBL\grbl\protocol.o
 *fill*         0x0000000020000b0e        0x2 
 .bss.prep      0x0000000020000b10       0x38 E:\wch\6-AXIS-CH32V307-GRBL\grbl\stepper.o
 .bss.segment_buffer
                0x0000000020000b48       0x50 E:\wch\6-AXIS-CH32V307-GRBL\grbl\stepper.o
 .bss.st        0x0000000020000b98       0x3c E:\wch\6-AXIS-CH32V307-GRBL\grbl\stepper.o
 .bss.st_block_buffer
                0x0000000020000bd4       0xfc E:\wch\6-AXIS-CH32V307-GRBL\grbl\stepper.o
 *(.gnu.linkonce.b.*)
 *(COMMON*)
 COMMON         0x0000000020000cd0       0x45 E:\wch\6-AXIS-CH32V307-GRBL\app\main.o
                0x0000000020000cd0                sys_rt_exec_motion_override
                0x0000000020000cd4                sys
                0x0000000020000ce8                sys_rt_exec_accessory_override
                0x0000000020000ce9                sys_rt_exec_state
                0x0000000020000cea                sys_probe_state
                0x0000000020000cec                sys_probe_position
                0x0000000020000d00                sys_position
                0x0000000020000d14                sys_rt_exec_alarm
 *fill*         0x0000000020000d15        0xb 
 COMMON         0x0000000020000d20      0x850 E:\wch\6-AXIS-CH32V307-GRBL\app\ch32v30x_usbhs_device.o
                0x0000000020000d20                EP1_Rx_Databuf
                0x0000000020000f20                pDescr
                0x0000000020000f30                EP0_Databuf
                0x0000000020000f70                EP2_Rx_Databuf
                0x0000000020001170                EP1_Tx_Databuf
                0x0000000020001370                EP2_Tx_Databuf
 COMMON         0x0000000020001570       0x7c E:\wch\6-AXIS-CH32V307-GRBL\grbl\settings.o
                0x0000000020001570                settings
 COMMON         0x00000000200015ec      0x400 E:\wch\6-AXIS-CH32V307-GRBL\grbl\eeprom.o
                0x00000000200015ec                EE_Buffer
 COMMON         0x00000000200019ec       0xac E:\wch\6-AXIS-CH32V307-GRBL\grbl\gcode.o
                0x00000000200019ec                gc_state
                0x0000000020001a48                gc_block
 COMMON         0x0000000020001a98        0x2 E:\wch\6-AXIS-CH32V307-GRBL\grbl\probe.o
                0x0000000020001a98                probe_invert_mask
 *fill*         0x0000000020001a9a        0x2 
 COMMON         0x0000000020001a9c      0x17e E:\wch\6-AXIS-CH32V307-GRBL\grbl\serial.o
                0x0000000020001a9c                serial_tx_buffer
                0x0000000020001b1c                serial_rx_buffer
 *fill*         0x0000000020001c1a        0x2 
 COMMON         0x0000000020001c1c        0x4 e:/risc5ide_2010/risc-vembeddedgcc/bin/../lib/gcc/riscv-none-embed/8.2.0/../../../../riscv-none-embed/lib/rv32imac/ilp32\libc_nano.a(lib_a-reent.o)
                0x0000000020001c1c                errno
                0x0000000020001c20                . = ALIGN (0x4)
                0x0000000020001c20                PROVIDE (_ebss = .)
                0x0000000020001c20                PROVIDE (_end = _ebss)
                [!provide]                        PROVIDE (end = .)

.stack          0x000000002000f800      0x800
                0x000000002000f800                PROVIDE (_heap_end = .)
                0x000000002000f800                . = ALIGN (0x4)
                [!provide]                        PROVIDE (_susrstack = .)
                0x0000000020010000                . = (. + __stack_size)
 *fill*         0x000000002000f800      0x800 
                0x0000000020010000                PROVIDE (_eusrstack = .)
OUTPUT(E:\wch\6-AXIS-CH32V307-GRBL\grbl_v307.elf elf32-littleriscv)

.debug_info     0x0000000000000000    0x27aa1
 .debug_info    0x0000000000000000      0x998 E:\wch\6-AXIS-CH32V307-GRBL\app\ch32v30x_it.o
 .debug_info    0x0000000000000998     0x1c6a E:\wch\6-AXIS-CH32V307-GRBL\app\main.o
 .debug_info    0x0000000000002602      0xb89 E:\wch\6-AXIS-CH32V307-GRBL\app\system_ch32v30x.o
 .debug_info    0x000000000000318b     0x18f8 E:\wch\6-AXIS-CH32V307-GRBL\app\ch32v30x_usbhs_device.o
 .debug_info    0x0000000000004a83     0x1448 E:\wch\6-AXIS-CH32V307-GRBL\app\ov.o
 .debug_info    0x0000000000005ecb     0x13e0 E:\wch\6-AXIS-CH32V307-GRBL\grbl\settings.o
 .debug_info    0x00000000000072ab      0xf1c E:\wch\6-AXIS-CH32V307-GRBL\SRC\Debug\debug.o
 .debug_info    0x00000000000081c7      0xc0d E:\wch\6-AXIS-CH32V307-GRBL\SRC\Peripheral\src\ch32v30x_exti.o
 .debug_info    0x0000000000008dd4     0x1378 E:\wch\6-AXIS-CH32V307-GRBL\SRC\Peripheral\src\ch32v30x_flash.o
 .debug_info    0x000000000000a14c     0x1093 E:\wch\6-AXIS-CH32V307-GRBL\SRC\Peripheral\src\ch32v30x_gpio.o
 .debug_info    0x000000000000b1df      0xf72 E:\wch\6-AXIS-CH32V307-GRBL\SRC\Peripheral\src\ch32v30x_misc.o
 .debug_info    0x000000000000c151     0x156e E:\wch\6-AXIS-CH32V307-GRBL\SRC\Peripheral\src\ch32v30x_rcc.o
 .debug_info    0x000000000000d6bf     0x2a18 E:\wch\6-AXIS-CH32V307-GRBL\SRC\Peripheral\src\ch32v30x_tim.o
 .debug_info    0x00000000000100d7     0x1420 E:\wch\6-AXIS-CH32V307-GRBL\SRC\Peripheral\src\ch32v30x_usart.o
 .debug_info    0x00000000000114f7     0x118d E:\wch\6-AXIS-CH32V307-GRBL\grbl\coolant_control.o
 .debug_info    0x0000000000012684     0x1095 E:\wch\6-AXIS-CH32V307-GRBL\grbl\eeprom.o
 .debug_info    0x0000000000013719     0x1767 E:\wch\6-AXIS-CH32V307-GRBL\grbl\gcode.o
 .debug_info    0x0000000000014e80      0xf7f E:\wch\6-AXIS-CH32V307-GRBL\grbl\jog.o
 .debug_info    0x0000000000015dff     0x1b46 E:\wch\6-AXIS-CH32V307-GRBL\grbl\limits.o
 .debug_info    0x0000000000017945     0x199c E:\wch\6-AXIS-CH32V307-GRBL\grbl\motion_control.o
 .debug_info    0x00000000000192e1     0x106f E:\wch\6-AXIS-CH32V307-GRBL\grbl\nuts_bolts.o
 .debug_info    0x000000000001a350     0x167d E:\wch\6-AXIS-CH32V307-GRBL\grbl\planner.o
 .debug_info    0x000000000001b9cd     0x10d5 E:\wch\6-AXIS-CH32V307-GRBL\grbl\print.o
 .debug_info    0x000000000001caa2     0x1061 E:\wch\6-AXIS-CH32V307-GRBL\grbl\probe.o
 .debug_info    0x000000000001db03     0x1571 E:\wch\6-AXIS-CH32V307-GRBL\grbl\protocol.o
 .debug_info    0x000000000001f074     0x1f68 E:\wch\6-AXIS-CH32V307-GRBL\grbl\report.o
 .debug_info    0x0000000000020fdc     0x1177 E:\wch\6-AXIS-CH32V307-GRBL\grbl\serial.o
 .debug_info    0x0000000000022153     0x16c0 E:\wch\6-AXIS-CH32V307-GRBL\grbl\spindle_control.o
 .debug_info    0x0000000000023813     0x242e E:\wch\6-AXIS-CH32V307-GRBL\grbl\stepper.o
 .debug_info    0x0000000000025c41     0x1e3e E:\wch\6-AXIS-CH32V307-GRBL\grbl\system.o
 .debug_info    0x0000000000027a7f       0x22 E:\wch\6-AXIS-CH32V307-GRBL\SRC\Startup\startup_ch32v30x_D8C.o

.debug_abbrev   0x0000000000000000     0x6937
 .debug_abbrev  0x0000000000000000      0x22f E:\wch\6-AXIS-CH32V307-GRBL\app\ch32v30x_it.o
 .debug_abbrev  0x000000000000022f      0x395 E:\wch\6-AXIS-CH32V307-GRBL\app\main.o
 .debug_abbrev  0x00000000000005c4      0x2c0 E:\wch\6-AXIS-CH32V307-GRBL\app\system_ch32v30x.o
 .debug_abbrev  0x0000000000000884      0x3a9 E:\wch\6-AXIS-CH32V307-GRBL\app\ch32v30x_usbhs_device.o
 .debug_abbrev  0x0000000000000c2d      0x3c1 E:\wch\6-AXIS-CH32V307-GRBL\app\ov.o
 .debug_abbrev  0x0000000000000fee      0x3c2 E:\wch\6-AXIS-CH32V307-GRBL\grbl\settings.o
 .debug_abbrev  0x00000000000013b0      0x2f9 E:\wch\6-AXIS-CH32V307-GRBL\SRC\Debug\debug.o
 .debug_abbrev  0x00000000000016a9      0x2da E:\wch\6-AXIS-CH32V307-GRBL\SRC\Peripheral\src\ch32v30x_exti.o
 .debug_abbrev  0x0000000000001983      0x43d E:\wch\6-AXIS-CH32V307-GRBL\SRC\Peripheral\src\ch32v30x_flash.o
 .debug_abbrev  0x0000000000001dc0      0x31a E:\wch\6-AXIS-CH32V307-GRBL\SRC\Peripheral\src\ch32v30x_gpio.o
 .debug_abbrev  0x00000000000020da      0x2fb E:\wch\6-AXIS-CH32V307-GRBL\SRC\Peripheral\src\ch32v30x_misc.o
 .debug_abbrev  0x00000000000023d5      0x351 E:\wch\6-AXIS-CH32V307-GRBL\SRC\Peripheral\src\ch32v30x_rcc.o
 .debug_abbrev  0x0000000000002726      0x421 E:\wch\6-AXIS-CH32V307-GRBL\SRC\Peripheral\src\ch32v30x_tim.o
 .debug_abbrev  0x0000000000002b47      0x325 E:\wch\6-AXIS-CH32V307-GRBL\SRC\Peripheral\src\ch32v30x_usart.o
 .debug_abbrev  0x0000000000002e6c      0x34a E:\wch\6-AXIS-CH32V307-GRBL\grbl\coolant_control.o
 .debug_abbrev  0x00000000000031b6      0x355 E:\wch\6-AXIS-CH32V307-GRBL\grbl\eeprom.o
 .debug_abbrev  0x000000000000350b      0x34f E:\wch\6-AXIS-CH32V307-GRBL\grbl\gcode.o
 .debug_abbrev  0x000000000000385a      0x267 E:\wch\6-AXIS-CH32V307-GRBL\grbl\jog.o
 .debug_abbrev  0x0000000000003ac1      0x43a E:\wch\6-AXIS-CH32V307-GRBL\grbl\limits.o
 .debug_abbrev  0x0000000000003efb      0x3e3 E:\wch\6-AXIS-CH32V307-GRBL\grbl\motion_control.o
 .debug_abbrev  0x00000000000042de      0x2d7 E:\wch\6-AXIS-CH32V307-GRBL\grbl\nuts_bolts.o
 .debug_abbrev  0x00000000000045b5      0x49d E:\wch\6-AXIS-CH32V307-GRBL\grbl\planner.o
 .debug_abbrev  0x0000000000004a52      0x363 E:\wch\6-AXIS-CH32V307-GRBL\grbl\print.o
 .debug_abbrev  0x0000000000004db5      0x32d E:\wch\6-AXIS-CH32V307-GRBL\grbl\probe.o
 .debug_abbrev  0x00000000000050e2      0x336 E:\wch\6-AXIS-CH32V307-GRBL\grbl\protocol.o
 .debug_abbrev  0x0000000000005418      0x49a E:\wch\6-AXIS-CH32V307-GRBL\grbl\report.o
 .debug_abbrev  0x00000000000058b2      0x307 E:\wch\6-AXIS-CH32V307-GRBL\grbl\serial.o
 .debug_abbrev  0x0000000000005bb9      0x3f9 E:\wch\6-AXIS-CH32V307-GRBL\grbl\spindle_control.o
 .debug_abbrev  0x0000000000005fb2      0x4e1 E:\wch\6-AXIS-CH32V307-GRBL\grbl\stepper.o
 .debug_abbrev  0x0000000000006493      0x492 E:\wch\6-AXIS-CH32V307-GRBL\grbl\system.o
 .debug_abbrev  0x0000000000006925       0x12 E:\wch\6-AXIS-CH32V307-GRBL\SRC\Startup\startup_ch32v30x_D8C.o

.debug_aranges  0x0000000000000000      0xf58
 .debug_aranges
                0x0000000000000000       0x28 E:\wch\6-AXIS-CH32V307-GRBL\app\ch32v30x_it.o
 .debug_aranges
                0x0000000000000028       0x38 E:\wch\6-AXIS-CH32V307-GRBL\app\main.o
 .debug_aranges
                0x0000000000000060       0x28 E:\wch\6-AXIS-CH32V307-GRBL\app\system_ch32v30x.o
 .debug_aranges
                0x0000000000000088       0x40 E:\wch\6-AXIS-CH32V307-GRBL\app\ch32v30x_usbhs_device.o
 .debug_aranges
                0x00000000000000c8       0x98 E:\wch\6-AXIS-CH32V307-GRBL\app\ov.o
 .debug_aranges
                0x0000000000000160       0x70 E:\wch\6-AXIS-CH32V307-GRBL\grbl\settings.o
 .debug_aranges
                0x00000000000001d0       0x48 E:\wch\6-AXIS-CH32V307-GRBL\SRC\Debug\debug.o
 .debug_aranges
                0x0000000000000218       0x50 E:\wch\6-AXIS-CH32V307-GRBL\SRC\Peripheral\src\ch32v30x_exti.o
 .debug_aranges
                0x0000000000000268       0xf0 E:\wch\6-AXIS-CH32V307-GRBL\SRC\Peripheral\src\ch32v30x_flash.o
 .debug_aranges
                0x0000000000000358       0xa8 E:\wch\6-AXIS-CH32V307-GRBL\SRC\Peripheral\src\ch32v30x_gpio.o
 .debug_aranges
                0x0000000000000400       0x28 E:\wch\6-AXIS-CH32V307-GRBL\SRC\Peripheral\src\ch32v30x_misc.o
 .debug_aranges
                0x0000000000000428      0x1a8 E:\wch\6-AXIS-CH32V307-GRBL\SRC\Peripheral\src\ch32v30x_rcc.o
 .debug_aranges
                0x00000000000005d0      0x2d0 E:\wch\6-AXIS-CH32V307-GRBL\SRC\Peripheral\src\ch32v30x_tim.o
 .debug_aranges
                0x00000000000008a0      0x100 E:\wch\6-AXIS-CH32V307-GRBL\SRC\Peripheral\src\ch32v30x_usart.o
 .debug_aranges
                0x00000000000009a0       0x40 E:\wch\6-AXIS-CH32V307-GRBL\grbl\coolant_control.o
 .debug_aranges
                0x00000000000009e0       0x48 E:\wch\6-AXIS-CH32V307-GRBL\grbl\eeprom.o
 .debug_aranges
                0x0000000000000a28       0x30 E:\wch\6-AXIS-CH32V307-GRBL\grbl\gcode.o
 .debug_aranges
                0x0000000000000a58       0x20 E:\wch\6-AXIS-CH32V307-GRBL\grbl\jog.o
 .debug_aranges
                0x0000000000000a78       0x48 E:\wch\6-AXIS-CH32V307-GRBL\grbl\limits.o
 .debug_aranges
                0x0000000000000ac0       0x48 E:\wch\6-AXIS-CH32V307-GRBL\grbl\motion_control.o
 .debug_aranges
                0x0000000000000b08       0x40 E:\wch\6-AXIS-CH32V307-GRBL\grbl\nuts_bolts.o
 .debug_aranges
                0x0000000000000b48       0x98 E:\wch\6-AXIS-CH32V307-GRBL\grbl\planner.o
 .debug_aranges
                0x0000000000000be0       0x58 E:\wch\6-AXIS-CH32V307-GRBL\grbl\print.o
 .debug_aranges
                0x0000000000000c38       0x38 E:\wch\6-AXIS-CH32V307-GRBL\grbl\probe.o
 .debug_aranges
                0x0000000000000c70       0x40 E:\wch\6-AXIS-CH32V307-GRBL\grbl\protocol.o
 .debug_aranges
                0x0000000000000cb0       0xb8 E:\wch\6-AXIS-CH32V307-GRBL\grbl\report.o
 .debug_aranges
                0x0000000000000d68       0x58 E:\wch\6-AXIS-CH32V307-GRBL\grbl\serial.o
 .debug_aranges
                0x0000000000000dc0       0x50 E:\wch\6-AXIS-CH32V307-GRBL\grbl\spindle_control.o
 .debug_aranges
                0x0000000000000e10       0x70 E:\wch\6-AXIS-CH32V307-GRBL\grbl\stepper.o
 .debug_aranges
                0x0000000000000e80       0xa8 E:\wch\6-AXIS-CH32V307-GRBL\grbl\system.o
 .debug_aranges
                0x0000000000000f28       0x30 E:\wch\6-AXIS-CH32V307-GRBL\SRC\Startup\startup_ch32v30x_D8C.o

.debug_ranges   0x0000000000000000     0x1288
 .debug_ranges  0x0000000000000000       0x18 E:\wch\6-AXIS-CH32V307-GRBL\app\ch32v30x_it.o
 .debug_ranges  0x0000000000000018       0x40 E:\wch\6-AXIS-CH32V307-GRBL\app\main.o
 .debug_ranges  0x0000000000000058       0x38 E:\wch\6-AXIS-CH32V307-GRBL\app\system_ch32v30x.o
 .debug_ranges  0x0000000000000090       0x60 E:\wch\6-AXIS-CH32V307-GRBL\app\ch32v30x_usbhs_device.o
 .debug_ranges  0x00000000000000f0       0xa8 E:\wch\6-AXIS-CH32V307-GRBL\app\ov.o
 .debug_ranges  0x0000000000000198       0x98 E:\wch\6-AXIS-CH32V307-GRBL\grbl\settings.o
 .debug_ranges  0x0000000000000230       0x38 E:\wch\6-AXIS-CH32V307-GRBL\SRC\Debug\debug.o
 .debug_ranges  0x0000000000000268       0x40 E:\wch\6-AXIS-CH32V307-GRBL\SRC\Peripheral\src\ch32v30x_exti.o
 .debug_ranges  0x00000000000002a8       0xe0 E:\wch\6-AXIS-CH32V307-GRBL\SRC\Peripheral\src\ch32v30x_flash.o
 .debug_ranges  0x0000000000000388       0x98 E:\wch\6-AXIS-CH32V307-GRBL\SRC\Peripheral\src\ch32v30x_gpio.o
 .debug_ranges  0x0000000000000420       0x48 E:\wch\6-AXIS-CH32V307-GRBL\SRC\Peripheral\src\ch32v30x_misc.o
 .debug_ranges  0x0000000000000468      0x198 E:\wch\6-AXIS-CH32V307-GRBL\SRC\Peripheral\src\ch32v30x_rcc.o
 .debug_ranges  0x0000000000000600      0x308 E:\wch\6-AXIS-CH32V307-GRBL\SRC\Peripheral\src\ch32v30x_tim.o
 .debug_ranges  0x0000000000000908       0xf0 E:\wch\6-AXIS-CH32V307-GRBL\SRC\Peripheral\src\ch32v30x_usart.o
 .debug_ranges  0x00000000000009f8       0x50 E:\wch\6-AXIS-CH32V307-GRBL\grbl\coolant_control.o
 .debug_ranges  0x0000000000000a48       0x50 E:\wch\6-AXIS-CH32V307-GRBL\grbl\eeprom.o
 .debug_ranges  0x0000000000000a98       0x50 E:\wch\6-AXIS-CH32V307-GRBL\grbl\gcode.o
 .debug_ranges  0x0000000000000ae8       0x10 E:\wch\6-AXIS-CH32V307-GRBL\grbl\jog.o
 .debug_ranges  0x0000000000000af8       0x58 E:\wch\6-AXIS-CH32V307-GRBL\grbl\limits.o
 .debug_ranges  0x0000000000000b50       0x78 E:\wch\6-AXIS-CH32V307-GRBL\grbl\motion_control.o
 .debug_ranges  0x0000000000000bc8       0x30 E:\wch\6-AXIS-CH32V307-GRBL\grbl\nuts_bolts.o
 .debug_ranges  0x0000000000000bf8      0x1a8 E:\wch\6-AXIS-CH32V307-GRBL\grbl\planner.o
 .debug_ranges  0x0000000000000da0       0x60 E:\wch\6-AXIS-CH32V307-GRBL\grbl\print.o
 .debug_ranges  0x0000000000000e00       0x28 E:\wch\6-AXIS-CH32V307-GRBL\grbl\probe.o
 .debug_ranges  0x0000000000000e28       0x78 E:\wch\6-AXIS-CH32V307-GRBL\grbl\protocol.o
 .debug_ranges  0x0000000000000ea0       0xe8 E:\wch\6-AXIS-CH32V307-GRBL\grbl\report.o
 .debug_ranges  0x0000000000000f88       0x48 E:\wch\6-AXIS-CH32V307-GRBL\grbl\serial.o
 .debug_ranges  0x0000000000000fd0       0x58 E:\wch\6-AXIS-CH32V307-GRBL\grbl\spindle_control.o
 .debug_ranges  0x0000000000001028      0x128 E:\wch\6-AXIS-CH32V307-GRBL\grbl\stepper.o
 .debug_ranges  0x0000000000001150      0x110 E:\wch\6-AXIS-CH32V307-GRBL\grbl\system.o
 .debug_ranges  0x0000000000001260       0x28 E:\wch\6-AXIS-CH32V307-GRBL\SRC\Startup\startup_ch32v30x_D8C.o

.debug_line     0x0000000000000000    0x1d9f6
 .debug_line    0x0000000000000000      0x1c5 E:\wch\6-AXIS-CH32V307-GRBL\app\ch32v30x_it.o
 .debug_line    0x00000000000001c5      0xa5c E:\wch\6-AXIS-CH32V307-GRBL\app\main.o
 .debug_line    0x0000000000000c21      0x6bd E:\wch\6-AXIS-CH32V307-GRBL\app\system_ch32v30x.o
 .debug_line    0x00000000000012de     0x1721 E:\wch\6-AXIS-CH32V307-GRBL\app\ch32v30x_usbhs_device.o
 .debug_line    0x00000000000029ff      0xf71 E:\wch\6-AXIS-CH32V307-GRBL\app\ov.o
 .debug_line    0x0000000000003970     0x112a E:\wch\6-AXIS-CH32V307-GRBL\grbl\settings.o
 .debug_line    0x0000000000004a9a      0x69f E:\wch\6-AXIS-CH32V307-GRBL\SRC\Debug\debug.o
 .debug_line    0x0000000000005139      0x565 E:\wch\6-AXIS-CH32V307-GRBL\SRC\Peripheral\src\ch32v30x_exti.o
 .debug_line    0x000000000000569e     0x1bb1 E:\wch\6-AXIS-CH32V307-GRBL\SRC\Peripheral\src\ch32v30x_flash.o
 .debug_line    0x000000000000724f      0xd40 E:\wch\6-AXIS-CH32V307-GRBL\SRC\Peripheral\src\ch32v30x_gpio.o
 .debug_line    0x0000000000007f8f      0x460 E:\wch\6-AXIS-CH32V307-GRBL\SRC\Peripheral\src\ch32v30x_misc.o
 .debug_line    0x00000000000083ef     0x1918 E:\wch\6-AXIS-CH32V307-GRBL\SRC\Peripheral\src\ch32v30x_rcc.o
 .debug_line    0x0000000000009d07     0x33a4 E:\wch\6-AXIS-CH32V307-GRBL\SRC\Peripheral\src\ch32v30x_tim.o
 .debug_line    0x000000000000d0ab     0x1039 E:\wch\6-AXIS-CH32V307-GRBL\SRC\Peripheral\src\ch32v30x_usart.o
 .debug_line    0x000000000000e0e4      0x612 E:\wch\6-AXIS-CH32V307-GRBL\grbl\coolant_control.o
 .debug_line    0x000000000000e6f6      0x61b E:\wch\6-AXIS-CH32V307-GRBL\grbl\eeprom.o
 .debug_line    0x000000000000ed11     0x2a2f E:\wch\6-AXIS-CH32V307-GRBL\grbl\gcode.o
 .debug_line    0x0000000000011740      0x34a E:\wch\6-AXIS-CH32V307-GRBL\grbl\jog.o
 .debug_line    0x0000000000011a8a      0xe12 E:\wch\6-AXIS-CH32V307-GRBL\grbl\limits.o
 .debug_line    0x000000000001289c      0xea8 E:\wch\6-AXIS-CH32V307-GRBL\grbl\motion_control.o
 .debug_line    0x0000000000013744      0x8f7 E:\wch\6-AXIS-CH32V307-GRBL\grbl\nuts_bolts.o
 .debug_line    0x000000000001403b     0x13b2 E:\wch\6-AXIS-CH32V307-GRBL\grbl\planner.o
 .debug_line    0x00000000000153ed      0x8ac E:\wch\6-AXIS-CH32V307-GRBL\grbl\print.o
 .debug_line    0x0000000000015c99      0x4d1 E:\wch\6-AXIS-CH32V307-GRBL\grbl\probe.o
 .debug_line    0x000000000001616a     0x1646 E:\wch\6-AXIS-CH32V307-GRBL\grbl\protocol.o
 .debug_line    0x00000000000177b0     0x14a9 E:\wch\6-AXIS-CH32V307-GRBL\grbl\report.o
 .debug_line    0x0000000000018c59      0x7d7 E:\wch\6-AXIS-CH32V307-GRBL\grbl\serial.o
 .debug_line    0x0000000000019430      0x95c E:\wch\6-AXIS-CH32V307-GRBL\grbl\spindle_control.o
 .debug_line    0x0000000000019d8c     0x26b5 E:\wch\6-AXIS-CH32V307-GRBL\grbl\stepper.o
 .debug_line    0x000000000001c441     0x1242 E:\wch\6-AXIS-CH32V307-GRBL\grbl\system.o
 .debug_line    0x000000000001d683      0x373 E:\wch\6-AXIS-CH32V307-GRBL\SRC\Startup\startup_ch32v30x_D8C.o

.debug_str      0x0000000000000000     0x57d4
 .debug_str     0x0000000000000000      0x51d E:\wch\6-AXIS-CH32V307-GRBL\app\ch32v30x_it.o
                                        0x5a0 (size before relaxing)
 .debug_str     0x000000000000051d     0x1007 E:\wch\6-AXIS-CH32V307-GRBL\app\main.o
                                       0x161d (size before relaxing)
 .debug_str     0x0000000000001524      0x124 E:\wch\6-AXIS-CH32V307-GRBL\app\system_ch32v30x.o
                                        0x6ab (size before relaxing)
 .debug_str     0x0000000000001648      0x7ee E:\wch\6-AXIS-CH32V307-GRBL\app\ch32v30x_usbhs_device.o
                                        0xff4 (size before relaxing)
 .debug_str     0x0000000000001e36      0x1ac E:\wch\6-AXIS-CH32V307-GRBL\app\ov.o
                                        0x8a6 (size before relaxing)
 .debug_str     0x0000000000001fe2      0x275 E:\wch\6-AXIS-CH32V307-GRBL\grbl\settings.o
                                        0xc18 (size before relaxing)
 .debug_str     0x0000000000002257       0xc8 E:\wch\6-AXIS-CH32V307-GRBL\SRC\Debug\debug.o
                                        0x8e8 (size before relaxing)
 .debug_str     0x000000000000231f      0x217 E:\wch\6-AXIS-CH32V307-GRBL\SRC\Peripheral\src\ch32v30x_exti.o
                                        0x77f (size before relaxing)
 .debug_str     0x0000000000002536      0x46b E:\wch\6-AXIS-CH32V307-GRBL\SRC\Peripheral\src\ch32v30x_flash.o
                                        0xa66 (size before relaxing)
 .debug_str     0x00000000000029a1      0x242 E:\wch\6-AXIS-CH32V307-GRBL\SRC\Peripheral\src\ch32v30x_gpio.o
                                        0x963 (size before relaxing)
 .debug_str     0x0000000000002be3       0xa7 E:\wch\6-AXIS-CH32V307-GRBL\SRC\Peripheral\src\ch32v30x_misc.o
                                        0xcbd (size before relaxing)
 .debug_str     0x0000000000002c8a      0x5c3 E:\wch\6-AXIS-CH32V307-GRBL\SRC\Peripheral\src\ch32v30x_rcc.o
                                        0xcbc (size before relaxing)
 .debug_str     0x000000000000324d      0xb50 E:\wch\6-AXIS-CH32V307-GRBL\SRC\Peripheral\src\ch32v30x_tim.o
                                       0x126d (size before relaxing)
 .debug_str     0x0000000000003d9d      0x35f E:\wch\6-AXIS-CH32V307-GRBL\SRC\Peripheral\src\ch32v30x_usart.o
                                        0xb09 (size before relaxing)
 .debug_str     0x00000000000040fc       0x7a E:\wch\6-AXIS-CH32V307-GRBL\grbl\coolant_control.o
                                        0xbce (size before relaxing)
 .debug_str     0x0000000000004176       0x86 E:\wch\6-AXIS-CH32V307-GRBL\grbl\eeprom.o
                                        0xb0a (size before relaxing)
 .debug_str     0x00000000000041fc      0x256 E:\wch\6-AXIS-CH32V307-GRBL\grbl\gcode.o
                                        0xd26 (size before relaxing)
 .debug_str     0x0000000000004452       0x73 E:\wch\6-AXIS-CH32V307-GRBL\grbl\jog.o
                                        0xa66 (size before relaxing)
 .debug_str     0x00000000000044c5      0x16f E:\wch\6-AXIS-CH32V307-GRBL\grbl\limits.o
                                       0x1510 (size before relaxing)
 .debug_str     0x0000000000004634      0x192 E:\wch\6-AXIS-CH32V307-GRBL\grbl\motion_control.o
                                       0x1305 (size before relaxing)
 .debug_str     0x00000000000047c6       0xe4 E:\wch\6-AXIS-CH32V307-GRBL\grbl\nuts_bolts.o
                                        0xaf5 (size before relaxing)
 .debug_str     0x00000000000048aa      0x33b E:\wch\6-AXIS-CH32V307-GRBL\grbl\planner.o
                                        0xe10 (size before relaxing)
 .debug_str     0x0000000000004be5       0xe8 E:\wch\6-AXIS-CH32V307-GRBL\grbl\print.o
                                        0xa73 (size before relaxing)
 .debug_str     0x0000000000004ccd       0x4f E:\wch\6-AXIS-CH32V307-GRBL\grbl\probe.o
                                        0xbb5 (size before relaxing)
 .debug_str     0x0000000000004d1c      0x1be E:\wch\6-AXIS-CH32V307-GRBL\grbl\protocol.o
                                        0xe09 (size before relaxing)
 .debug_str     0x0000000000004eda      0x27f E:\wch\6-AXIS-CH32V307-GRBL\grbl\report.o
                                        0xdcc (size before relaxing)
 .debug_str     0x0000000000005159      0x129 E:\wch\6-AXIS-CH32V307-GRBL\grbl\serial.o
                                        0xc18 (size before relaxing)
 .debug_str     0x0000000000005282       0x91 E:\wch\6-AXIS-CH32V307-GRBL\grbl\spindle_control.o
                                        0xee0 (size before relaxing)
 .debug_str     0x0000000000005313      0x3bb E:\wch\6-AXIS-CH32V307-GRBL\grbl\stepper.o
                                       0x1a75 (size before relaxing)
 .debug_str     0x00000000000056ce       0x93 E:\wch\6-AXIS-CH32V307-GRBL\grbl\system.o
                                       0x1724 (size before relaxing)
 .debug_str     0x0000000000005761       0x73 E:\wch\6-AXIS-CH32V307-GRBL\SRC\Startup\startup_ch32v30x_D8C.o

.comment        0x0000000000000000       0x33
 .comment       0x0000000000000000       0x33 E:\wch\6-AXIS-CH32V307-GRBL\app\ch32v30x_it.o
                                         0x34 (size before relaxing)
 .comment       0x0000000000000033       0x34 E:\wch\6-AXIS-CH32V307-GRBL\app\main.o
 .comment       0x0000000000000033       0x34 E:\wch\6-AXIS-CH32V307-GRBL\app\system_ch32v30x.o
 .comment       0x0000000000000033       0x34 E:\wch\6-AXIS-CH32V307-GRBL\app\ch32v30x_usbhs_device.o
 .comment       0x0000000000000033       0x34 E:\wch\6-AXIS-CH32V307-GRBL\app\ov.o
 .comment       0x0000000000000033       0x34 E:\wch\6-AXIS-CH32V307-GRBL\grbl\settings.o
 .comment       0x0000000000000033       0x34 E:\wch\6-AXIS-CH32V307-GRBL\SRC\Debug\debug.o
 .comment       0x0000000000000033       0x34 E:\wch\6-AXIS-CH32V307-GRBL\SRC\Peripheral\src\ch32v30x_exti.o
 .comment       0x0000000000000033       0x34 E:\wch\6-AXIS-CH32V307-GRBL\SRC\Peripheral\src\ch32v30x_flash.o
 .comment       0x0000000000000033       0x34 E:\wch\6-AXIS-CH32V307-GRBL\SRC\Peripheral\src\ch32v30x_gpio.o
 .comment       0x0000000000000033       0x34 E:\wch\6-AXIS-CH32V307-GRBL\SRC\Peripheral\src\ch32v30x_misc.o
 .comment       0x0000000000000033       0x34 E:\wch\6-AXIS-CH32V307-GRBL\SRC\Peripheral\src\ch32v30x_rcc.o
 .comment       0x0000000000000033       0x34 E:\wch\6-AXIS-CH32V307-GRBL\SRC\Peripheral\src\ch32v30x_tim.o
 .comment       0x0000000000000033       0x34 E:\wch\6-AXIS-CH32V307-GRBL\SRC\Peripheral\src\ch32v30x_usart.o
 .comment       0x0000000000000033       0x34 E:\wch\6-AXIS-CH32V307-GRBL\grbl\coolant_control.o
 .comment       0x0000000000000033       0x34 E:\wch\6-AXIS-CH32V307-GRBL\grbl\eeprom.o
 .comment       0x0000000000000033       0x34 E:\wch\6-AXIS-CH32V307-GRBL\grbl\gcode.o
 .comment       0x0000000000000033       0x34 E:\wch\6-AXIS-CH32V307-GRBL\grbl\jog.o
 .comment       0x0000000000000033       0x34 E:\wch\6-AXIS-CH32V307-GRBL\grbl\limits.o
 .comment       0x0000000000000033       0x34 E:\wch\6-AXIS-CH32V307-GRBL\grbl\motion_control.o
 .comment       0x0000000000000033       0x34 E:\wch\6-AXIS-CH32V307-GRBL\grbl\nuts_bolts.o
 .comment       0x0000000000000033       0x34 E:\wch\6-AXIS-CH32V307-GRBL\grbl\planner.o
 .comment       0x0000000000000033       0x34 E:\wch\6-AXIS-CH32V307-GRBL\grbl\print.o
 .comment       0x0000000000000033       0x34 E:\wch\6-AXIS-CH32V307-GRBL\grbl\probe.o
 .comment       0x0000000000000033       0x34 E:\wch\6-AXIS-CH32V307-GRBL\grbl\protocol.o
 .comment       0x0000000000000033       0x34 E:\wch\6-AXIS-CH32V307-GRBL\grbl\report.o
 .comment       0x0000000000000033       0x34 E:\wch\6-AXIS-CH32V307-GRBL\grbl\serial.o
 .comment       0x0000000000000033       0x34 E:\wch\6-AXIS-CH32V307-GRBL\grbl\spindle_control.o
 .comment       0x0000000000000033       0x34 E:\wch\6-AXIS-CH32V307-GRBL\grbl\stepper.o
 .comment       0x0000000000000033       0x34 E:\wch\6-AXIS-CH32V307-GRBL\grbl\system.o

.debug_frame    0x0000000000000000     0x3b20
 .debug_frame   0x0000000000000000       0x30 E:\wch\6-AXIS-CH32V307-GRBL\app\ch32v30x_it.o
 .debug_frame   0x0000000000000030       0x94 E:\wch\6-AXIS-CH32V307-GRBL\app\main.o
 .debug_frame   0x00000000000000c4       0x3c E:\wch\6-AXIS-CH32V307-GRBL\app\system_ch32v30x.o
 .debug_frame   0x0000000000000100       0x98 E:\wch\6-AXIS-CH32V307-GRBL\app\ch32v30x_usbhs_device.o
 .debug_frame   0x0000000000000198      0x250 E:\wch\6-AXIS-CH32V307-GRBL\app\ov.o
 .debug_frame   0x00000000000003e8      0x184 E:\wch\6-AXIS-CH32V307-GRBL\grbl\settings.o
 .debug_frame   0x000000000000056c       0xa4 E:\wch\6-AXIS-CH32V307-GRBL\SRC\Debug\debug.o
 .debug_frame   0x0000000000000610       0x90 E:\wch\6-AXIS-CH32V307-GRBL\SRC\Peripheral\src\ch32v30x_exti.o
 .debug_frame   0x00000000000006a0      0x2ec E:\wch\6-AXIS-CH32V307-GRBL\SRC\Peripheral\src\ch32v30x_flash.o
 .debug_frame   0x000000000000098c      0x150 E:\wch\6-AXIS-CH32V307-GRBL\SRC\Peripheral\src\ch32v30x_gpio.o
 .debug_frame   0x0000000000000adc       0x30 E:\wch\6-AXIS-CH32V307-GRBL\SRC\Peripheral\src\ch32v30x_misc.o
 .debug_frame   0x0000000000000b0c      0x340 E:\wch\6-AXIS-CH32V307-GRBL\SRC\Peripheral\src\ch32v30x_rcc.o
 .debug_frame   0x0000000000000e4c      0x66c E:\wch\6-AXIS-CH32V307-GRBL\SRC\Peripheral\src\ch32v30x_tim.o
 .debug_frame   0x00000000000014b8      0x210 E:\wch\6-AXIS-CH32V307-GRBL\SRC\Peripheral\src\ch32v30x_usart.o
 .debug_frame   0x00000000000016c8       0xc4 E:\wch\6-AXIS-CH32V307-GRBL\grbl\coolant_control.o
 .debug_frame   0x000000000000178c       0x94 E:\wch\6-AXIS-CH32V307-GRBL\grbl\eeprom.o
 .debug_frame   0x0000000000001820       0x98 E:\wch\6-AXIS-CH32V307-GRBL\grbl\gcode.o
 .debug_frame   0x00000000000018b8       0x3c E:\wch\6-AXIS-CH32V307-GRBL\grbl\jog.o
 .debug_frame   0x00000000000018f4      0x100 E:\wch\6-AXIS-CH32V307-GRBL\grbl\limits.o
 .debug_frame   0x00000000000019f4      0x158 E:\wch\6-AXIS-CH32V307-GRBL\grbl\motion_control.o
 .debug_frame   0x0000000000001b4c      0x110 E:\wch\6-AXIS-CH32V307-GRBL\grbl\nuts_bolts.o
 .debug_frame   0x0000000000001c5c      0x200 E:\wch\6-AXIS-CH32V307-GRBL\grbl\planner.o
 .debug_frame   0x0000000000001e5c      0x150 E:\wch\6-AXIS-CH32V307-GRBL\grbl\print.o
 .debug_frame   0x0000000000001fac       0x74 E:\wch\6-AXIS-CH32V307-GRBL\grbl\probe.o
 .debug_frame   0x0000000000002020      0x128 E:\wch\6-AXIS-CH32V307-GRBL\grbl\protocol.o
 .debug_frame   0x0000000000002148      0x2e8 E:\wch\6-AXIS-CH32V307-GRBL\grbl\report.o
 .debug_frame   0x0000000000002430       0xb8 E:\wch\6-AXIS-CH32V307-GRBL\grbl\serial.o
 .debug_frame   0x00000000000024e8      0x100 E:\wch\6-AXIS-CH32V307-GRBL\grbl\spindle_control.o
 .debug_frame   0x00000000000025e8      0x1a4 E:\wch\6-AXIS-CH32V307-GRBL\grbl\stepper.o
 .debug_frame   0x000000000000278c      0x1f0 E:\wch\6-AXIS-CH32V307-GRBL\grbl\system.o
 .debug_frame   0x000000000000297c       0x4c ld\libm.a(lib_a-sf_ceil.o)
 .debug_frame   0x00000000000029c8       0x40 ld\libm.a(lib_a-sf_cos.o)
 .debug_frame   0x0000000000002a08       0x4c ld\libm.a(lib_a-sf_floor.o)
 .debug_frame   0x0000000000002a54       0x2c ld\libm.a(lib_a-sf_lround.o)
 .debug_frame   0x0000000000002a80       0x40 ld\libm.a(lib_a-sf_sin.o)
 .debug_frame   0x0000000000002ac0       0x20 ld\libm.a(lib_a-sf_trunc.o)
 .debug_frame   0x0000000000002ae0       0x20 ld\libm.a(lib_a-wf_atan2.o)
 .debug_frame   0x0000000000002b00       0x4c ld\libm.a(lib_a-wf_sqrt.o)
 .debug_frame   0x0000000000002b4c       0x48 ld\libm.a(lib_a-ef_atan2.o)
 .debug_frame   0x0000000000002b94       0x54 ld\libm.a(lib_a-ef_rem_pio2.o)
 .debug_frame   0x0000000000002be8       0x48 ld\libm.a(lib_a-ef_sqrt.o)
 .debug_frame   0x0000000000002c30       0x4c ld\libm.a(lib_a-kf_cos.o)
 .debug_frame   0x0000000000002c7c       0x64 ld\libm.a(lib_a-kf_rem_pio2.o)
 .debug_frame   0x0000000000002ce0       0x48 ld\libm.a(lib_a-kf_sin.o)
 .debug_frame   0x0000000000002d28       0x20 ld\libm.a(lib_a-s_matherr.o)
 .debug_frame   0x0000000000002d48       0x44 ld\libm.a(lib_a-sf_atan.o)
 .debug_frame   0x0000000000002d8c       0x20 ld\libm.a(lib_a-sf_fabs.o)
 .debug_frame   0x0000000000002dac       0x4c ld\libm.a(lib_a-sf_scalbn.o)
 .debug_frame   0x0000000000002df8       0x20 ld\libm.a(lib_a-sf_copysign.o)
 .debug_frame   0x0000000000002e18       0x44 e:/risc5ide_2010/risc-vembeddedgcc/bin/../lib/gcc/riscv-none-embed/8.2.0/rv32imac/ilp32\libgcc.a(adddf3.o)
 .debug_frame   0x0000000000002e5c       0x50 e:/risc5ide_2010/risc-vembeddedgcc/bin/../lib/gcc/riscv-none-embed/8.2.0/rv32imac/ilp32\libgcc.a(divdf3.o)
 .debug_frame   0x0000000000002eac       0x20 e:/risc5ide_2010/risc-vembeddedgcc/bin/../lib/gcc/riscv-none-embed/8.2.0/rv32imac/ilp32\libgcc.a(gedf2.o)
 .debug_frame   0x0000000000002ecc       0x20 e:/risc5ide_2010/risc-vembeddedgcc/bin/../lib/gcc/riscv-none-embed/8.2.0/rv32imac/ilp32\libgcc.a(ledf2.o)
 .debug_frame   0x0000000000002eec       0x44 e:/risc5ide_2010/risc-vembeddedgcc/bin/../lib/gcc/riscv-none-embed/8.2.0/rv32imac/ilp32\libgcc.a(subdf3.o)
 .debug_frame   0x0000000000002f30       0x40 e:/risc5ide_2010/risc-vembeddedgcc/bin/../lib/gcc/riscv-none-embed/8.2.0/rv32imac/ilp32\libgcc.a(addsf3.o)
 .debug_frame   0x0000000000002f70       0x50 e:/risc5ide_2010/risc-vembeddedgcc/bin/../lib/gcc/riscv-none-embed/8.2.0/rv32imac/ilp32\libgcc.a(divsf3.o)
 .debug_frame   0x0000000000002fc0       0x20 e:/risc5ide_2010/risc-vembeddedgcc/bin/../lib/gcc/riscv-none-embed/8.2.0/rv32imac/ilp32\libgcc.a(eqsf2.o)
 .debug_frame   0x0000000000002fe0       0x20 e:/risc5ide_2010/risc-vembeddedgcc/bin/../lib/gcc/riscv-none-embed/8.2.0/rv32imac/ilp32\libgcc.a(gesf2.o)
 .debug_frame   0x0000000000003000       0x20 e:/risc5ide_2010/risc-vembeddedgcc/bin/../lib/gcc/riscv-none-embed/8.2.0/rv32imac/ilp32\libgcc.a(lesf2.o)
 .debug_frame   0x0000000000003020       0x50 e:/risc5ide_2010/risc-vembeddedgcc/bin/../lib/gcc/riscv-none-embed/8.2.0/rv32imac/ilp32\libgcc.a(mulsf3.o)
 .debug_frame   0x0000000000003070       0x3c e:/risc5ide_2010/risc-vembeddedgcc/bin/../lib/gcc/riscv-none-embed/8.2.0/rv32imac/ilp32\libgcc.a(subsf3.o)
 .debug_frame   0x00000000000030ac       0x20 e:/risc5ide_2010/risc-vembeddedgcc/bin/../lib/gcc/riscv-none-embed/8.2.0/rv32imac/ilp32\libgcc.a(unordsf2.o)
 .debug_frame   0x00000000000030cc       0x20 e:/risc5ide_2010/risc-vembeddedgcc/bin/../lib/gcc/riscv-none-embed/8.2.0/rv32imac/ilp32\libgcc.a(fixsfsi.o)
 .debug_frame   0x00000000000030ec       0x20 e:/risc5ide_2010/risc-vembeddedgcc/bin/../lib/gcc/riscv-none-embed/8.2.0/rv32imac/ilp32\libgcc.a(fixunssfsi.o)
 .debug_frame   0x000000000000310c       0x38 e:/risc5ide_2010/risc-vembeddedgcc/bin/../lib/gcc/riscv-none-embed/8.2.0/rv32imac/ilp32\libgcc.a(floatsisf.o)
 .debug_frame   0x0000000000003144       0x44 e:/risc5ide_2010/risc-vembeddedgcc/bin/../lib/gcc/riscv-none-embed/8.2.0/rv32imac/ilp32\libgcc.a(floatunsisf.o)
 .debug_frame   0x0000000000003188       0x38 e:/risc5ide_2010/risc-vembeddedgcc/bin/../lib/gcc/riscv-none-embed/8.2.0/rv32imac/ilp32\libgcc.a(extendsfdf2.o)
 .debug_frame   0x00000000000031c0       0x20 e:/risc5ide_2010/risc-vembeddedgcc/bin/../lib/gcc/riscv-none-embed/8.2.0/rv32imac/ilp32\libgcc.a(truncdfsf2.o)
 .debug_frame   0x00000000000031e0       0x20 e:/risc5ide_2010/risc-vembeddedgcc/bin/../lib/gcc/riscv-none-embed/8.2.0/rv32imac/ilp32\libgcc.a(_clzsi2.o)
 .debug_frame   0x0000000000003200       0x20 e:/risc5ide_2010/risc-vembeddedgcc/bin/../lib/gcc/riscv-none-embed/8.2.0/../../../../riscv-none-embed/lib/rv32imac/ilp32\libc_nano.a(lib_a-errno.o)
 .debug_frame   0x0000000000003220       0x20 e:/risc5ide_2010/risc-vembeddedgcc/bin/../lib/gcc/riscv-none-embed/8.2.0/../../../../riscv-none-embed/lib/rv32imac/ilp32\libc_nano.a(lib_a-memcmp.o)
 .debug_frame   0x0000000000003240       0x20 e:/risc5ide_2010/risc-vembeddedgcc/bin/../lib/gcc/riscv-none-embed/8.2.0/../../../../riscv-none-embed/lib/rv32imac/ilp32\libc_nano.a(lib_a-memcpy.o)
 .debug_frame   0x0000000000003260       0x54 e:/risc5ide_2010/risc-vembeddedgcc/bin/../lib/gcc/riscv-none-embed/8.2.0/../../../../riscv-none-embed/lib/rv32imac/ilp32\libc_nano.a(lib_a-printf.o)
 .debug_frame   0x00000000000032b4      0x148 e:/risc5ide_2010/risc-vembeddedgcc/bin/../lib/gcc/riscv-none-embed/8.2.0/../../../../riscv-none-embed/lib/rv32imac/ilp32\libc_nano.a(lib_a-findfp.o)
 .debug_frame   0x00000000000033fc       0x88 e:/risc5ide_2010/risc-vembeddedgcc/bin/../lib/gcc/riscv-none-embed/8.2.0/../../../../riscv-none-embed/lib/rv32imac/ilp32\libc_nano.a(lib_a-fwalk.o)
 .debug_frame   0x0000000000003484       0x40 e:/risc5ide_2010/risc-vembeddedgcc/bin/../lib/gcc/riscv-none-embed/8.2.0/../../../../riscv-none-embed/lib/rv32imac/ilp32\libc_nano.a(lib_a-nano-mallocr.o)
 .debug_frame   0x00000000000034c4       0xd0 e:/risc5ide_2010/risc-vembeddedgcc/bin/../lib/gcc/riscv-none-embed/8.2.0/../../../../riscv-none-embed/lib/rv32imac/ilp32\libc_nano.a(lib_a-nano-vfprintf.o)
 .debug_frame   0x0000000000003594       0x8c e:/risc5ide_2010/risc-vembeddedgcc/bin/../lib/gcc/riscv-none-embed/8.2.0/../../../../riscv-none-embed/lib/rv32imac/ilp32\libc_nano.a(lib_a-nano-vfprintf_i.o)
 .debug_frame   0x0000000000003620       0x30 e:/risc5ide_2010/risc-vembeddedgcc/bin/../lib/gcc/riscv-none-embed/8.2.0/../../../../riscv-none-embed/lib/rv32imac/ilp32\libc_nano.a(lib_a-sbrkr.o)
 .debug_frame   0x0000000000003650       0xa4 e:/risc5ide_2010/risc-vembeddedgcc/bin/../lib/gcc/riscv-none-embed/8.2.0/../../../../riscv-none-embed/lib/rv32imac/ilp32\libc_nano.a(lib_a-stdio.o)
 .debug_frame   0x00000000000036f4       0x50 e:/risc5ide_2010/risc-vembeddedgcc/bin/../lib/gcc/riscv-none-embed/8.2.0/../../../../riscv-none-embed/lib/rv32imac/ilp32\libc_nano.a(lib_a-wbuf.o)
 .debug_frame   0x0000000000003744       0x30 e:/risc5ide_2010/risc-vembeddedgcc/bin/../lib/gcc/riscv-none-embed/8.2.0/../../../../riscv-none-embed/lib/rv32imac/ilp32\libc_nano.a(lib_a-writer.o)
 .debug_frame   0x0000000000003774       0x3c e:/risc5ide_2010/risc-vembeddedgcc/bin/../lib/gcc/riscv-none-embed/8.2.0/../../../../riscv-none-embed/lib/rv32imac/ilp32\libc_nano.a(lib_a-wsetup.o)
 .debug_frame   0x00000000000037b0       0x30 e:/risc5ide_2010/risc-vembeddedgcc/bin/../lib/gcc/riscv-none-embed/8.2.0/../../../../riscv-none-embed/lib/rv32imac/ilp32\libc_nano.a(lib_a-closer.o)
 .debug_frame   0x00000000000037e0       0x7c e:/risc5ide_2010/risc-vembeddedgcc/bin/../lib/gcc/riscv-none-embed/8.2.0/../../../../riscv-none-embed/lib/rv32imac/ilp32\libc_nano.a(lib_a-fflush.o)
 .debug_frame   0x000000000000385c       0x30 e:/risc5ide_2010/risc-vembeddedgcc/bin/../lib/gcc/riscv-none-embed/8.2.0/../../../../riscv-none-embed/lib/rv32imac/ilp32\libc_nano.a(lib_a-lseekr.o)
 .debug_frame   0x000000000000388c       0x64 e:/risc5ide_2010/risc-vembeddedgcc/bin/../lib/gcc/riscv-none-embed/8.2.0/../../../../riscv-none-embed/lib/rv32imac/ilp32\libc_nano.a(lib_a-makebuf.o)
 .debug_frame   0x00000000000038f0       0x20 e:/risc5ide_2010/risc-vembeddedgcc/bin/../lib/gcc/riscv-none-embed/8.2.0/../../../../riscv-none-embed/lib/rv32imac/ilp32\libc_nano.a(lib_a-memchr.o)
 .debug_frame   0x0000000000003910       0x30 e:/risc5ide_2010/risc-vembeddedgcc/bin/../lib/gcc/riscv-none-embed/8.2.0/../../../../riscv-none-embed/lib/rv32imac/ilp32\libc_nano.a(lib_a-mlock.o)
 .debug_frame   0x0000000000003940       0x40 e:/risc5ide_2010/risc-vembeddedgcc/bin/../lib/gcc/riscv-none-embed/8.2.0/../../../../riscv-none-embed/lib/rv32imac/ilp32\libc_nano.a(lib_a-nano-freer.o)
 .debug_frame   0x0000000000003980       0x30 e:/risc5ide_2010/risc-vembeddedgcc/bin/../lib/gcc/riscv-none-embed/8.2.0/../../../../riscv-none-embed/lib/rv32imac/ilp32\libc_nano.a(lib_a-readr.o)
 .debug_frame   0x00000000000039b0       0x70 e:/risc5ide_2010/risc-vembeddedgcc/bin/../lib/gcc/riscv-none-embed/8.2.0/../../../../riscv-none-embed/lib/rv32imac/ilp32\libc_nano.a(lib_a-reent.o)
 .debug_frame   0x0000000000003a20       0x30 e:/risc5ide_2010/risc-vembeddedgcc/bin/../lib/gcc/riscv-none-embed/8.2.0/../../../../riscv-none-embed/lib/rv32imac/ilp32\libc_nano.a(lib_a-fstatr.o)
 .debug_frame   0x0000000000003a50       0x30 e:/risc5ide_2010/risc-vembeddedgcc/bin/../lib/gcc/riscv-none-embed/8.2.0/../../../../riscv-none-embed/lib/rv32imac/ilp32\libc_nano.a(lib_a-isattyr.o)
 .debug_frame   0x0000000000003a80       0x20 e:/risc5ide_2010/risc-vembeddedgcc/bin/../lib/gcc/riscv-none-embed/8.2.0/../../../../riscv-none-embed/lib/rv32imac/ilp32\libnosys.a(close.o)
 .debug_frame   0x0000000000003aa0       0x20 e:/risc5ide_2010/risc-vembeddedgcc/bin/../lib/gcc/riscv-none-embed/8.2.0/../../../../riscv-none-embed/lib/rv32imac/ilp32\libnosys.a(fstat.o)
 .debug_frame   0x0000000000003ac0       0x20 e:/risc5ide_2010/risc-vembeddedgcc/bin/../lib/gcc/riscv-none-embed/8.2.0/../../../../riscv-none-embed/lib/rv32imac/ilp32\libnosys.a(isatty.o)
 .debug_frame   0x0000000000003ae0       0x20 e:/risc5ide_2010/risc-vembeddedgcc/bin/../lib/gcc/riscv-none-embed/8.2.0/../../../../riscv-none-embed/lib/rv32imac/ilp32\libnosys.a(lseek.o)
 .debug_frame   0x0000000000003b00       0x20 e:/risc5ide_2010/risc-vembeddedgcc/bin/../lib/gcc/riscv-none-embed/8.2.0/../../../../riscv-none-embed/lib/rv32imac/ilp32\libnosys.a(read.o)

.debug_loc      0x0000000000000000     0x8e39
 .debug_loc     0x0000000000000000       0x84 E:\wch\6-AXIS-CH32V307-GRBL\app\main.o
 .debug_loc     0x0000000000000084       0xda E:\wch\6-AXIS-CH32V307-GRBL\app\system_ch32v30x.o
 .debug_loc     0x000000000000015e      0x309 E:\wch\6-AXIS-CH32V307-GRBL\app\ch32v30x_usbhs_device.o
 .debug_loc     0x0000000000000467      0x3a3 E:\wch\6-AXIS-CH32V307-GRBL\app\ov.o
 .debug_loc     0x000000000000080a      0x4ba E:\wch\6-AXIS-CH32V307-GRBL\grbl\settings.o
 .debug_loc     0x0000000000000cc4      0x1a8 E:\wch\6-AXIS-CH32V307-GRBL\SRC\Debug\debug.o
 .debug_loc     0x0000000000000e6c      0x181 E:\wch\6-AXIS-CH32V307-GRBL\SRC\Peripheral\src\ch32v30x_exti.o
 .debug_loc     0x0000000000000fed      0x819 E:\wch\6-AXIS-CH32V307-GRBL\SRC\Peripheral\src\ch32v30x_flash.o
 .debug_loc     0x0000000000001806      0x67b E:\wch\6-AXIS-CH32V307-GRBL\SRC\Peripheral\src\ch32v30x_gpio.o
 .debug_loc     0x0000000000001e81       0xce E:\wch\6-AXIS-CH32V307-GRBL\SRC\Peripheral\src\ch32v30x_misc.o
 .debug_loc     0x0000000000001f4f      0xadb E:\wch\6-AXIS-CH32V307-GRBL\SRC\Peripheral\src\ch32v30x_rcc.o
 .debug_loc     0x0000000000002a2a     0x1b0c E:\wch\6-AXIS-CH32V307-GRBL\SRC\Peripheral\src\ch32v30x_tim.o
 .debug_loc     0x0000000000004536      0x7f8 E:\wch\6-AXIS-CH32V307-GRBL\SRC\Peripheral\src\ch32v30x_usart.o
 .debug_loc     0x0000000000004d2e       0xca E:\wch\6-AXIS-CH32V307-GRBL\grbl\coolant_control.o
 .debug_loc     0x0000000000004df8      0x48e E:\wch\6-AXIS-CH32V307-GRBL\grbl\eeprom.o
 .debug_loc     0x0000000000005286      0xb3d E:\wch\6-AXIS-CH32V307-GRBL\grbl\gcode.o
 .debug_loc     0x0000000000005dc3       0xae E:\wch\6-AXIS-CH32V307-GRBL\grbl\jog.o
 .debug_loc     0x0000000000005e71      0x3b2 E:\wch\6-AXIS-CH32V307-GRBL\grbl\limits.o
 .debug_loc     0x0000000000006223      0x7fe E:\wch\6-AXIS-CH32V307-GRBL\grbl\motion_control.o
 .debug_loc     0x0000000000006a21      0x4b5 E:\wch\6-AXIS-CH32V307-GRBL\grbl\nuts_bolts.o
 .debug_loc     0x0000000000006ed6      0x6d0 E:\wch\6-AXIS-CH32V307-GRBL\grbl\planner.o
 .debug_loc     0x00000000000075a6      0x3f3 E:\wch\6-AXIS-CH32V307-GRBL\grbl\print.o
 .debug_loc     0x0000000000007999       0x13 E:\wch\6-AXIS-CH32V307-GRBL\grbl\probe.o
 .debug_loc     0x00000000000079ac      0x298 E:\wch\6-AXIS-CH32V307-GRBL\grbl\protocol.o
 .debug_loc     0x0000000000007c44      0x419 E:\wch\6-AXIS-CH32V307-GRBL\grbl\report.o
 .debug_loc     0x000000000000805d       0xc8 E:\wch\6-AXIS-CH32V307-GRBL\grbl\serial.o
 .debug_loc     0x0000000000008125      0x1e6 E:\wch\6-AXIS-CH32V307-GRBL\grbl\spindle_control.o
 .debug_loc     0x000000000000830b      0x725 E:\wch\6-AXIS-CH32V307-GRBL\grbl\stepper.o
 .debug_loc     0x0000000000008a30      0x409 E:\wch\6-AXIS-CH32V307-GRBL\grbl\system.o

.stab           0x0000000000000000       0x84
 .stab          0x0000000000000000       0x24 e:/risc5ide_2010/risc-vembeddedgcc/bin/../lib/gcc/riscv-none-embed/8.2.0/../../../../riscv-none-embed/lib/rv32imac/ilp32\libnosys.a(close.o)
 .stab          0x0000000000000024       0x18 e:/risc5ide_2010/risc-vembeddedgcc/bin/../lib/gcc/riscv-none-embed/8.2.0/../../../../riscv-none-embed/lib/rv32imac/ilp32\libnosys.a(fstat.o)
                                         0x24 (size before relaxing)
 .stab          0x000000000000003c       0x18 e:/risc5ide_2010/risc-vembeddedgcc/bin/../lib/gcc/riscv-none-embed/8.2.0/../../../../riscv-none-embed/lib/rv32imac/ilp32\libnosys.a(isatty.o)
                                         0x24 (size before relaxing)
 .stab          0x0000000000000054       0x18 e:/risc5ide_2010/risc-vembeddedgcc/bin/../lib/gcc/riscv-none-embed/8.2.0/../../../../riscv-none-embed/lib/rv32imac/ilp32\libnosys.a(lseek.o)
                                         0x24 (size before relaxing)
 .stab          0x000000000000006c       0x18 e:/risc5ide_2010/risc-vembeddedgcc/bin/../lib/gcc/riscv-none-embed/8.2.0/../../../../riscv-none-embed/lib/rv32imac/ilp32\libnosys.a(read.o)
                                         0x24 (size before relaxing)

.stabstr        0x0000000000000000      0x117
 .stabstr       0x0000000000000000      0x117 e:/risc5ide_2010/risc-vembeddedgcc/bin/../lib/gcc/riscv-none-embed/8.2.0/../../../../riscv-none-embed/lib/rv32imac/ilp32\libnosys.a(close.o)
